{"abi":[{"type":"constructor","inputs":[{"name":"defaultValidator","type":"address","internalType":"address"},{"name":"initData","type":"bytes","internalType":"bytes"}],"stateMutability":"nonpayable"},{"type":"fallback","stateMutability":"payable"},{"type":"receive","stateMutability":"payable"},{"type":"function","name":"eip712Domain","inputs":[],"outputs":[{"name":"fields","type":"bytes1","internalType":"bytes1"},{"name":"name","type":"string","internalType":"string"},{"name":"version","type":"string","internalType":"string"},{"name":"chainId","type":"uint256","internalType":"uint256"},{"name":"verifyingContract","type":"address","internalType":"address"},{"name":"salt","type":"bytes32","internalType":"bytes32"},{"name":"extensions","type":"uint256[]","internalType":"uint256[]"}],"stateMutability":"view"},{"type":"function","name":"getActiveHook","inputs":[],"outputs":[{"name":"hook","type":"address","internalType":"address"}],"stateMutability":"view"},{"type":"function","name":"getExecutorsPaginated","inputs":[{"name":"cursor","type":"address","internalType":"address"},{"name":"size","type":"uint256","internalType":"uint256"}],"outputs":[{"name":"array","type":"address[]","internalType":"address[]"},{"name":"next","type":"address","internalType":"address"}],"stateMutability":"view"},{"type":"function","name":"getFallbackHandlerBySelector","inputs":[{"name":"selector","type":"bytes4","internalType":"bytes4"}],"outputs":[{"name":"","type":"bytes1","internalType":"CallType"},{"name":"","type":"address","internalType":"address"}],"stateMutability":"view"},{"type":"function","name":"getInitNexusCalldata","inputs":[{"name":"validators","type":"tuple[]","internalType":"struct BootstrapConfig[]","components":[{"name":"module","type":"address","internalType":"address"},{"name":"data","type":"bytes","internalType":"bytes"}]},{"name":"executors","type":"tuple[]","internalType":"struct BootstrapConfig[]","components":[{"name":"module","type":"address","internalType":"address"},{"name":"data","type":"bytes","internalType":"bytes"}]},{"name":"hook","type":"tuple","internalType":"struct BootstrapConfig","components":[{"name":"module","type":"address","internalType":"address"},{"name":"data","type":"bytes","internalType":"bytes"}]},{"name":"fallbacks","type":"tuple[]","internalType":"struct BootstrapConfig[]","components":[{"name":"module","type":"address","internalType":"address"},{"name":"data","type":"bytes","internalType":"bytes"}]},{"name":"registry","type":"address","internalType":"contract IERC7484"},{"name":"attesters","type":"address[]","internalType":"address[]"},{"name":"threshold","type":"uint8","internalType":"uint8"}],"outputs":[{"name":"init","type":"bytes","internalType":"bytes"}],"stateMutability":"view"},{"type":"function","name":"getInitNexusScopedCalldata","inputs":[{"name":"validators","type":"tuple[]","internalType":"struct BootstrapConfig[]","components":[{"name":"module","type":"address","internalType":"address"},{"name":"data","type":"bytes","internalType":"bytes"}]},{"name":"hook","type":"tuple","internalType":"struct BootstrapConfig","components":[{"name":"module","type":"address","internalType":"address"},{"name":"data","type":"bytes","internalType":"bytes"}]},{"name":"registry","type":"address","internalType":"contract IERC7484"},{"name":"attesters","type":"address[]","internalType":"address[]"},{"name":"threshold","type":"uint8","internalType":"uint8"}],"outputs":[{"name":"init","type":"bytes","internalType":"bytes"}],"stateMutability":"view"},{"type":"function","name":"getInitNexusWithSingleValidatorCalldata","inputs":[{"name":"validator","type":"tuple","internalType":"struct BootstrapConfig","components":[{"name":"module","type":"address","internalType":"address"},{"name":"data","type":"bytes","internalType":"bytes"}]},{"name":"registry","type":"address","internalType":"contract IERC7484"},{"name":"attesters","type":"address[]","internalType":"address[]"},{"name":"threshold","type":"uint8","internalType":"uint8"}],"outputs":[{"name":"init","type":"bytes","internalType":"bytes"}],"stateMutability":"view"},{"type":"function","name":"getValidatorsPaginated","inputs":[{"name":"cursor","type":"address","internalType":"address"},{"name":"size","type":"uint256","internalType":"uint256"}],"outputs":[{"name":"array","type":"address[]","internalType":"address[]"},{"name":"next","type":"address","internalType":"address"}],"stateMutability":"view"},{"type":"function","name":"initNexus","inputs":[{"name":"validators","type":"tuple[]","internalType":"struct BootstrapConfig[]","components":[{"name":"module","type":"address","internalType":"address"},{"name":"data","type":"bytes","internalType":"bytes"}]},{"name":"executors","type":"tuple[]","internalType":"struct BootstrapConfig[]","components":[{"name":"module","type":"address","internalType":"address"},{"name":"data","type":"bytes","internalType":"bytes"}]},{"name":"hook","type":"tuple","internalType":"struct BootstrapConfig","components":[{"name":"module","type":"address","internalType":"address"},{"name":"data","type":"bytes","internalType":"bytes"}]},{"name":"fallbacks","type":"tuple[]","internalType":"struct BootstrapConfig[]","components":[{"name":"module","type":"address","internalType":"address"},{"name":"data","type":"bytes","internalType":"bytes"}]},{"name":"registry","type":"address","internalType":"contract IERC7484"},{"name":"attesters","type":"address[]","internalType":"address[]"},{"name":"threshold","type":"uint8","internalType":"uint8"}],"outputs":[],"stateMutability":"payable"},{"type":"function","name":"initNexusScoped","inputs":[{"name":"validators","type":"tuple[]","internalType":"struct BootstrapConfig[]","components":[{"name":"module","type":"address","internalType":"address"},{"name":"data","type":"bytes","internalType":"bytes"}]},{"name":"hook","type":"tuple","internalType":"struct BootstrapConfig","components":[{"name":"module","type":"address","internalType":"address"},{"name":"data","type":"bytes","internalType":"bytes"}]},{"name":"registry","type":"address","internalType":"contract IERC7484"},{"name":"attesters","type":"address[]","internalType":"address[]"},{"name":"threshold","type":"uint8","internalType":"uint8"}],"outputs":[],"stateMutability":"payable"},{"type":"function","name":"initNexusWithDefaultValidator","inputs":[{"name":"data","type":"bytes","internalType":"bytes"}],"outputs":[],"stateMutability":"payable"},{"type":"function","name":"initNexusWithDefaultValidatorAndOtherModules","inputs":[{"name":"defaultValidatorInitData","type":"bytes","internalType":"bytes"},{"name":"executors","type":"tuple[]","internalType":"struct BootstrapConfig[]","components":[{"name":"module","type":"address","internalType":"address"},{"name":"data","type":"bytes","internalType":"bytes"}]},{"name":"hook","type":"tuple","internalType":"struct BootstrapConfig","components":[{"name":"module","type":"address","internalType":"address"},{"name":"data","type":"bytes","internalType":"bytes"}]},{"name":"fallbacks","type":"tuple[]","internalType":"struct BootstrapConfig[]","components":[{"name":"module","type":"address","internalType":"address"},{"name":"data","type":"bytes","internalType":"bytes"}]},{"name":"registry","type":"address","internalType":"contract IERC7484"},{"name":"attesters","type":"address[]","internalType":"address[]"},{"name":"threshold","type":"uint8","internalType":"uint8"}],"outputs":[],"stateMutability":"payable"},{"type":"function","name":"initNexusWithSingleValidator","inputs":[{"name":"validator","type":"address","internalType":"contract IModule"},{"name":"data","type":"bytes","internalType":"bytes"},{"name":"registry","type":"address","internalType":"contract IERC7484"},{"name":"attesters","type":"address[]","internalType":"address[]"},{"name":"threshold","type":"uint8","internalType":"uint8"}],"outputs":[],"stateMutability":"payable"},{"type":"function","name":"registry","inputs":[],"outputs":[{"name":"","type":"address","internalType":"contract IERC7484"}],"stateMutability":"view"},{"type":"event","name":"ERC7484RegistryConfigured","inputs":[{"name":"registry","type":"address","indexed":true,"internalType":"contract IERC7484"}],"anonymous":false},{"type":"event","name":"ModuleInstalled","inputs":[{"name":"moduleTypeId","type":"uint256","indexed":false,"internalType":"uint256"},{"name":"module","type":"address","indexed":false,"internalType":"address"}],"anonymous":false},{"type":"event","name":"ModuleUninstalled","inputs":[{"name":"moduleTypeId","type":"uint256","indexed":false,"internalType":"uint256"},{"name":"module","type":"address","indexed":false,"internalType":"address"}],"anonymous":false},{"type":"error","name":"CanNotRemoveLastValidator","inputs":[]},{"type":"error","name":"DefaultValidatorAlreadyInstalled","inputs":[]},{"type":"error","name":"EmergencyUninstallSigError","inputs":[]},{"type":"error","name":"EnableModeSigError","inputs":[]},{"type":"error","name":"FallbackAlreadyInstalledForSelector","inputs":[{"name":"selector","type":"bytes4","internalType":"bytes4"}]},{"type":"error","name":"FallbackCallTypeInvalid","inputs":[]},{"type":"error","name":"FallbackHandlerUninstallFailed","inputs":[]},{"type":"error","name":"FallbackNotInstalledForSelector","inputs":[{"name":"selector","type":"bytes4","internalType":"bytes4"}]},{"type":"error","name":"FallbackSelectorForbidden","inputs":[]},{"type":"error","name":"HookAlreadyInstalled","inputs":[{"name":"currentHook","type":"address","internalType":"address"}]},{"type":"error","name":"HookPostCheckFailed","inputs":[]},{"type":"error","name":"InvalidInput","inputs":[]},{"type":"error","name":"InvalidModule","inputs":[{"name":"module","type":"address","internalType":"address"}]},{"type":"error","name":"InvalidModuleTypeId","inputs":[{"name":"moduleTypeId","type":"uint256","internalType":"uint256"}]},{"type":"error","name":"InvalidNonce","inputs":[]},{"type":"error","name":"LinkedList_AlreadyInitialized","inputs":[]},{"type":"error","name":"LinkedList_EntryAlreadyInList","inputs":[{"name":"entry","type":"address","internalType":"address"}]},{"type":"error","name":"LinkedList_InvalidEntry","inputs":[{"name":"entry","type":"address","internalType":"address"}]},{"type":"error","name":"LinkedList_InvalidPage","inputs":[]},{"type":"error","name":"MismatchModuleTypeId","inputs":[]},{"type":"error","name":"MissingFallbackHandler","inputs":[{"name":"selector","type":"bytes4","internalType":"bytes4"}]},{"type":"error","name":"ModuleAddressCanNotBeZero","inputs":[]},{"type":"error","name":"ModuleAlreadyInstalled","inputs":[{"name":"moduleTypeId","type":"uint256","internalType":"uint256"},{"name":"module","type":"address","internalType":"address"}]},{"type":"error","name":"ModuleNotInstalled","inputs":[{"name":"moduleTypeId","type":"uint256","internalType":"uint256"},{"name":"module","type":"address","internalType":"address"}]},{"type":"error","name":"NoValidatorInstalled","inputs":[]},{"type":"error","name":"PrevalidationHookAlreadyInstalled","inputs":[{"name":"currentPreValidationHook","type":"address","internalType":"address"}]},{"type":"error","name":"UnauthorizedOperation","inputs":[{"name":"operator","type":"address","internalType":"address"}]},{"type":"error","name":"UnsupportedCallType","inputs":[{"name":"callType","type":"bytes1","internalType":"CallType"}]},{"type":"error","name":"ValidatorNotInstalled","inputs":[{"name":"module","type":"address","internalType":"address"}]}],"bytecode":{"object":"0x610140604052348015610010575f5ffd5b50604051612d34380380612d3483398101604081905261002f916101f4565b306080524660a0528181606080610083604080518082018252600e81526d04e65787573426f6f7473747261760941b602080830191909152825180840190935260058352640312e322e360dc1b9083015291565b815160209283012081519183019190912060c082905260e0819052604080517f8b73c3c69bb8fe3d512ecc4cf759cc79239f7b179b0ffacaa9a75d522b39400f8152808501939093528281019190915246606083015230608083015260a090912061010052805163ecd0596160e01b81526001600482015290516001600160a01b038716945063ecd059619350602480830193928290030181865afa15801561012e573d5f5f3e3d5ffd5b505050506040513d601f19601f8201168201806040525081019061015291906102c3565b61016f57604051631c4f83bb60e31b815260040160405180910390fd5b6040516306d61fe760e41b81526001600160a01b03831690636d61fe709061019b9084906004016102e9565b5f604051808303815f87803b1580156101b2575f5ffd5b505af11580156101c4573d5f5f3e3d5ffd5b5050506001600160a01b03909216610120525061031e92505050565b634e487b7160e01b5f52604160045260245ffd5b5f5f60408385031215610205575f5ffd5b82516001600160a01b038116811461021b575f5ffd5b60208401519092506001600160401b03811115610236575f5ffd5b8301601f81018513610246575f5ffd5b80516001600160401b0381111561025f5761025f6101e0565b604051601f8201601f19908116603f011681016001600160401b038111828210171561028d5761028d6101e0565b6040528181528282016020018710156102a4575f5ffd5b8160208401602083015e5f602083830101528093505050509250929050565b5f602082840312156102d3575f5ffd5b815180151581146102e2575f5ffd5b9392505050565b602081525f82518060208401528060208501604085015e5f604082850101526040601f19601f83011684010191505092915050565b60805160a05160c05160e05161010051610120516129d06103645f395f818161072e015281816107ad01526113f901525f50505f50505f50505f50505f50506129d05ff3fe6080604052600436106100e0575f3560e01c80637b1039991161007e57806385a924cc1161005857806385a924cc146102c05780639e2533ed146102df578063d6fe71f1146102fe578063ea5f61d014610311576100e7565b80637b1039991461024f578063837b892e1461026d57806384b0196e14610299576100e7565b806345808b17116100ba57806345808b171461014a578063481ddd231461015d57806355470cf11461020f5780635faac46b14610222576100e7565b806301fe9ff2146100f35780630a664dba146101065780633102598414610137576100e7565b366100e757005b6100f15f36610330565b005b6100f1610101366004611f9f565b610688565b348015610111575f5ffd5b5061011a6106e0565b6040516001600160a01b0390911681526020015b60405180910390f35b6100f1610145366004612043565b610717565b6100f161015836600461208c565b610796565b348015610168575f5ffd5b506101e76101773660046121a5565b6001600160e01b0319165f9081527f0bb70095b32b9671358306b0339b4c06e7cbd8cb82505941fba30d1eb5b82f0260209081526040918290208251808401909352546001600160a01b038116808452600160a01b90910460f81b6001600160f81b031916929091018290529091565b604080516001600160f81b031990931683526001600160a01b0390911660208301520161012e565b6100f161021d3660046121cc565b610ae1565b34801561022d575f5ffd5b5061024161023c366004612240565b610c52565b60405161012e92919061226a565b34801561025a575f5ffd5b505f5461011a906001600160a01b031681565b348015610278575f5ffd5b5061028c6102873660046122c9565b610c8b565b60405161012e9190612384565b3480156102a4575f5ffd5b506102ad610d20565b60405161012e9796959493929190612396565b3480156102cb575f5ffd5b5061028c6102da3660046121cc565b610dc8565b3480156102ea575f5ffd5b5061028c6102f9366004612430565b610e51565b6100f161030c366004612430565b610ee6565b34801561031c575f5ffd5b5061024161032b366004612240565b6111b7565b5f80356001600160e01b03191681527f0bb70095b32b9671358306b0339b4c06e7cbd8cb82505941fba30d1eb5b82f02602052604081208054606091906001600160a01b03811690600160a01b900460f81b811561061e575f6103ba7f0bb70095b32b9671358306b0339b4c06e7cbd8cb82505941fba30d1eb5b82f03546001600160a01b031690565b905060606001600160a01b0382161561045d576040517fd68f60250000000000000000000000000000000000000000000000000000000081526001600160a01b0383169063d68f60259061041890339034905f903690600401612494565b5f604051808303815f875af1158015610433573d5f5f3e3d5ffd5b505050506040513d5f823e601f3d908101601f1916820160405261045a91908101906124da565b90505b61046b83607f60f91b6111e5565b156104d957836001600160a01b03166104848a8a6111fc565b604051610491919061258d565b5f60405180830381855afa9150503d805f81146104c9576040519150601f19603f3d011682016040523d82523d5f602084013e6104ce565b606091505b509097509550610587565b6104e3835f6111e5565b1561054457836001600160a01b0316346104fd8b8b6111fc565b60405161050a919061258d565b5f6040518083038185875af1925050503d805f81146104c9576040519150601f19603f3d011682016040523d82523d5f602084013e6104ce565b6040517fb96fcfe40000000000000000000000000000000000000000000000000000000081526001600160f81b0319841660048201526024015b60405180910390fd5b8661059457855160208701fd5b6001600160a01b03821615610616576040517f173bf7da0000000000000000000000000000000000000000000000000000000081526001600160a01b0383169063173bf7da906105e8908490600401612384565b5f604051808303815f87803b1580156105ff575f5ffd5b505af1158015610611573d5f5f3e3d5ffd5b505050505b855160208701f35b5f3560e01c63150b7a02811463f23a6e61821463bc197c81831417171561064957806020526020603cf35b6040517f08c63e270000000000000000000000000000000000000000000000000000000081526001600160e01b03195f3516600482015260240161057e565b610690611231565b61069c84848484611287565b6106a7878787611366565b60408051600181526001600160a01b03891660208201525f5160206129a45f395f51905f5291015b60405180910390a150505050505050565b5f6107127f0bb70095b32b9671358306b0339b4c06e7cbd8cb82505941fba30d1eb5b82f03546001600160a01b031690565b905090565b6040516306d61fe760e41b81526001600160a01b037f00000000000000000000000000000000000000000000000000000000000000001690636d61fe709061076590859085906004016125a3565b5f604051808303815f87803b15801561077c575f5ffd5b505af115801561078e573d5f5f3e3d5ffd5b505050505050565b6040516306d61fe760e41b81526001600160a01b037f00000000000000000000000000000000000000000000000000000000000000001690636d61fe70906107e4908e908e906004016125a3565b5f604051808303815f87803b1580156107fb575f5ffd5b505af115801561080d573d5f5f3e3d5ffd5b505f925050505b88811015610934575f8a8a8381811061082f5761082f6125be565b905060200281019061084191906125d2565b61084f9060208101906125f0565b6001600160a01b03161461092c576108c98a8a83818110610872576108726125be565b905060200281019061088491906125d2565b6108929060208101906125f0565b8b8b848181106108a4576108a46125be565b90506020028101906108b691906125d2565b6108c490602081019061260b565b6114ee565b5f5160206129a45f395f51905f5260028b8b848181106108eb576108eb6125be565b90506020028101906108fd91906125d2565b61090b9060208101906125f0565b604080519283526001600160a01b0390911660208301520160405180910390a15b600101610814565b505f61094360208901896125f0565b6001600160a01b0316146109b15761097361096160208901896125f0565b61096e60208a018a61260b565b6115a9565b5f5160206129a45f395f51905f52600461099060208a018a6125f0565b604080519283526001600160a01b0390911660208301520160405180910390a15b5f5b85811015610ad3575f8787838181106109ce576109ce6125be565b90506020028101906109e091906125d2565b6109ee9060208101906125f0565b6001600160a01b031614610acb57610a68878783818110610a1157610a116125be565b9050602002810190610a2391906125d2565b610a319060208101906125f0565b888884818110610a4357610a436125be565b9050602002810190610a5591906125d2565b610a6390602081019061260b565b611766565b5f5160206129a45f395f51905f526003888884818110610a8a57610a8a6125be565b9050602002810190610a9c91906125d2565b610aaa9060208101906125f0565b604080519283526001600160a01b0390911660208301520160405180910390a15b6001016109b3565b505050505050505050505050565b610ae9611231565b610af584848484611287565b5f5b86811015610bd557610b6b888883818110610b1457610b146125be565b9050602002810190610b2691906125d2565b610b349060208101906125f0565b898984818110610b4657610b466125be565b9050602002810190610b5891906125d2565b610b6690602081019061260b565b611366565b5f5160206129a45f395f51905f526001898984818110610b8d57610b8d6125be565b9050602002810190610b9f91906125d2565b610bad9060208101906125f0565b604080519283526001600160a01b0390911660208301520160405180910390a1600101610af7565b505f610be460208701876125f0565b6001600160a01b031614610c4957610c0f610c0260208701876125f0565b61096e602088018861260b565b5f5160206129a45f395f51905f526004610c2c60208801886125f0565b604080519283526001600160a01b039091166020830152016106cf565b50505050505050565b60605f610c807f0bb70095b32b9671358306b0339b4c06e7cbd8cb82505941fba30d1eb5b82f008585611ace565b909590945092505050565b606030806301fe9ff2610ca160208a018a6125f0565b610cae60208b018b61260b565b8a8a8a8a604051602401610cc89796959493929190612696565b604051602081830303815290604052915060e01b6020820180516001600160e01b038381831617835250505050604051602001610d069291906126f2565b604051602081830303815290604052905095945050505050565b7f0f000000000000000000000000000000000000000000000000000000000000006060805f808083610db6604080518082018252600e81527f4e65787573426f6f7473747261700000000000000000000000000000000000006020808301919091528251808401909352600583527f312e322e300000000000000000000000000000000000000000000000000000009083015291565b97989097965046955030945091925090565b606030306001600160a01b03166355470cf18a8a8a8a8a8a8a604051602401610df797969594939291906127f4565b604051602081830303815290604052915060e01b6020820180516001600160e01b038381831617835250505050604051602001610e359291906126f2565b6040516020818303038152906040529050979650505050505050565b606030306001600160a01b031663d6fe71f18e8e8e8e8e8e8e8e8e8e8e604051602401610e889b9a9998979695949392919061283d565b604051602081830303815290604052915060e01b6020820180516001600160e01b038381831617835250505050604051602001610ec69291906126f2565b60405160208183030381529060405290509b9a5050505050505050505050565b610eee611231565b610efa84848484611287565b5f5b8a811015610fb557610f4b8c8c83818110610f1957610f196125be565b9050602002810190610f2b91906125d2565b610f399060208101906125f0565b8d8d84818110610b4657610b466125be565b5f5160206129a45f395f51905f5260018d8d84818110610f6d57610f6d6125be565b9050602002810190610f7f91906125d2565b610f8d9060208101906125f0565b604080519283526001600160a01b0390911660208301520160405180910390a1600101610efc565b505f5b88811015611081575f8a8a83818110610fd357610fd36125be565b9050602002810190610fe591906125d2565b610ff39060208101906125f0565b6001600160a01b031614611079576110168a8a83818110610872576108726125be565b5f5160206129a45f395f51905f5260028b8b84818110611038576110386125be565b905060200281019061104a91906125d2565b6110589060208101906125f0565b604080519283526001600160a01b0390911660208301520160405180910390a15b600101610fb8565b505f61109060208901896125f0565b6001600160a01b0316146110ec576110ae61096160208901896125f0565b5f5160206129a45f395f51905f5260046110cb60208a018a6125f0565b604080519283526001600160a01b0390911660208301520160405180910390a15b5f5b85811015610ad3575f878783818110611109576111096125be565b905060200281019061111b91906125d2565b6111299060208101906125f0565b6001600160a01b0316146111af5761114c878783818110610a1157610a116125be565b5f5160206129a45f395f51905f52600388888481811061116e5761116e6125be565b905060200281019061118091906125d2565b61118e9060208101906125f0565b604080519283526001600160a01b0390911660208301520160405180910390a15b6001016110ee565b60605f610c807f0bb70095b32b9671358306b0339b4c06e7cbd8cb82505941fba30d1eb5b82f018585611ace565b6001600160f81b0319828116908216145b92915050565b6060604080513681016020019091529050601436018152365f602083013760408051601481019091523360601b905292915050565b7f0bb70095b32b9671358306b0339b4c06e7cbd8cb82505941fba30d1eb5b82f0061127b7f0bb70095b32b9671358306b0339b4c06e7cbd8cb82505941fba30d1eb5b82f01611ae8565b61128481611ae8565b50565b5f805473ffffffffffffffffffffffffffffffffffffffff19166001600160a01b0386169081179091551561132d576040517ff05c04e10000000000000000000000000000000000000000000000000000000081526001600160a01b0385169063f05c04e1906112ff908490879087906004016128cc565b5f604051808303815f87803b158015611316575f5ffd5b505af1158015611328573d5f5f3e3d5ffd5b505050505b6040516001600160a01b038516907ff98c8404c5b1bfef2e6ba9233c6e88845aedfd36eea8b192725d8c199571cf32905f90a250505050565b8260016113738282611b69565b60405163ecd0596160e01b8152600160048201526001600160a01b0386169063ecd0596190602401602060405180830381865afa1580156113b6573d5f5f3e3d5ffd5b505050506040513d601f19601f820116820180604052508101906113da91906128e8565b6113f757604051631c4f83bb60e31b815260040160405180910390fd5b7f00000000000000000000000000000000000000000000000000000000000000006001600160a01b0316856001600160a01b031603611462576040517fabc3af7900000000000000000000000000000000000000000000000000000000815260040160405180910390fd5b61148c7f0bb70095b32b9671358306b0339b4c06e7cbd8cb82505941fba30d1eb5b82f0086611bf0565b6040516306d61fe760e41b81526001600160a01b03861690636d61fe70906114ba90879087906004016125a3565b5f604051808303815f87803b1580156114d1575f5ffd5b505af11580156114e3573d5f5f3e3d5ffd5b505050505050505050565b8260026114fb8282611b69565b60405163ecd0596160e01b8152600260048201526001600160a01b0386169063ecd0596190602401602060405180830381865afa15801561153e573d5f5f3e3d5ffd5b505050506040513d601f19601f8201168201806040525081019061156291906128e8565b61157f57604051631c4f83bb60e31b815260040160405180910390fd5b61148c7f0bb70095b32b9671358306b0339b4c06e7cbd8cb82505941fba30d1eb5b82f0186611bf0565b8260046115b68282611b69565b60405163ecd0596160e01b81526004808201526001600160a01b0386169063ecd0596190602401602060405180830381865afa1580156115f8573d5f5f3e3d5ffd5b505050506040513d601f19601f8201168201806040525081019061161c91906128e8565b61163957604051631c4f83bb60e31b815260040160405180910390fd5b5f61166b7f0bb70095b32b9671358306b0339b4c06e7cbd8cb82505941fba30d1eb5b82f03546001600160a01b031690565b9050806001600160a01b038116156116bb576040517f741cbe030000000000000000000000000000000000000000000000000000000081526001600160a01b03909116600482015260240161057e565b507f0bb70095b32b9671358306b0339b4c06e7cbd8cb82505941fba30d1eb5b82f03805473ffffffffffffffffffffffffffffffffffffffff19166001600160a01b0388161790556040516306d61fe760e41b81526001600160a01b03871690636d61fe709061173190889088906004016125a3565b5f604051808303815f87803b158015611748575f5ffd5b505af115801561175a573d5f5f3e3d5ffd5b50505050505050505050565b8260036117738282611b69565b60405163ecd0596160e01b8152600360048201526001600160a01b0386169063ecd0596190602401602060405180830381865afa1580156117b6573d5f5f3e3d5ffd5b505050506040513d601f19601f820116820180604052508101906117da91906128e8565b6117f757604051631c4f83bb60e31b815260040160405180910390fd5b5f6118056004828688612907565b61180e9161292e565b90505f85856004818110611824576118246125be565b9050013560f81c60f81b905061183d815f60f81b6111e5565b80611851575061185181607f60f91b6111e5565b611887576040517f867a1dcf00000000000000000000000000000000000000000000000000000000815260040160405180910390fd5b5f611895866005818a612907565b8080601f0160208091040260200160405190810160405280939291908181526020018383808284375f920191909152509293505050506001600160e01b031983166306d61fe760e41b148061191357506001600160e01b031983167f8a91b0e300000000000000000000000000000000000000000000000000000000145b8061192657506001600160e01b03198316155b1561195d576040517fc001660b00000000000000000000000000000000000000000000000000000000815260040160405180910390fd5b6001600160e01b031983165f9081527f0bb70095b32b9671358306b0339b4c06e7cbd8cb82505941fba30d1eb5b82f02602052604090205483906001600160a01b0316156119e4576040517fa56a04dd0000000000000000000000000000000000000000000000000000000081526001600160e01b0319909116600482015260240161057e565b506040805180820182526001600160a01b038a81168083526001600160f81b0319861660208085019182526001600160e01b031989165f9081527f0bb70095b32b9671358306b0339b4c06e7cbd8cb82505941fba30d1eb5b82f0290915285902093518454915160f81c600160a01b027fffffffffffffffffffffff0000000000000000000000000000000000000000009092169316929092179190911790915590516306d61fe760e41b8152636d61fe7090611aa5908490600401612384565b5f604051808303815f87803b158015611abc575f5ffd5b505af1158015610ad3573d5f5f3e3d5ffd5b60605f611adc858585611cea565b90969095509350505050565b60015f908152602082905260409020546001600160a01b031615611b38576040517f53c85e6600000000000000000000000000000000000000000000000000000000815260040160405180910390fd5b60015f8181526020929092526040909120805473ffffffffffffffffffffffffffffffffffffffff19169091179055565b5f546001600160a01b03168015611beb576040517f96fb72170000000000000000000000000000000000000000000000000000000081526001600160a01b038481166004830152602482018490528216906396fb7217906044015f6040518083038186803b158015611bd9575f5ffd5b505afa158015610c49573d5f5f3e3d5ffd5b505050565b6001600160a01b0381161580611c0f57506001600160a01b0381166001145b15611c3857604051637c84ecfb60e01b81526001600160a01b038216600482015260240161057e565b6001600160a01b038181165f908152602084905260409020541615611c94576040517f40d3d1a40000000000000000000000000000000000000000000000000000000081526001600160a01b038216600482015260240161057e565b60015f818152602093909352604080842080546001600160a01b0394851680875292862080549590911673ffffffffffffffffffffffffffffffffffffffff199586161790559190935280549091169091179055565b60605f6001600160a01b038416600114801590611d0e5750611d0c8585611eab565b155b15611d3757604051637c84ecfb60e01b81526001600160a01b038516600482015260240161057e565b825f03611d70576040517ff725081700000000000000000000000000000000000000000000000000000000815260040160405180910390fd5b8267ffffffffffffffff811115611d8957611d896124c6565b604051908082528060200260200182016040528015611db2578160200160208202803683370190505b506001600160a01b038086165f90815260208890526040812054929450911691505b6001600160a01b03821615801590611df657506001600160a01b038216600114155b8015611e0157508381105b15611e5a5781838281518110611e1957611e196125be565b6001600160a01b039283166020918202929092018101919091529281165f908152928790526040909220549091169080611e5281612978565b915050611dd4565b6001600160a01b038216600114801590611e7357505f81115b15611e9f5782611e84600183612990565b81518110611e9457611e946125be565b602002602001015191505b80835250935093915050565b5f60016001600160a01b03831614801590611ede57506001600160a01b038281165f908152602085905260409020541615155b9392505050565b6001600160a01b0381168114611284575f5ffd5b5f5f83601f840112611f09575f5ffd5b50813567ffffffffffffffff811115611f20575f5ffd5b602083019150836020828501011115611f37575f5ffd5b9250929050565b8035611f4981611ee5565b919050565b5f5f83601f840112611f5e575f5ffd5b50813567ffffffffffffffff811115611f75575f5ffd5b6020830191508360208260051b8501011115611f37575f5ffd5b803560ff81168114611f49575f5ffd5b5f5f5f5f5f5f5f60a0888a031215611fb5575f5ffd5b8735611fc081611ee5565b9650602088013567ffffffffffffffff811115611fdb575f5ffd5b611fe78a828b01611ef9565b9097509550506040880135611ffb81611ee5565b9350606088013567ffffffffffffffff811115612016575f5ffd5b6120228a828b01611f4e565b9094509250612035905060808901611f8f565b905092959891949750929550565b5f5f60208385031215612054575f5ffd5b823567ffffffffffffffff81111561206a575f5ffd5b611adc85828601611ef9565b5f60408284031215612086575f5ffd5b50919050565b5f5f5f5f5f5f5f5f5f5f5f60e08c8e0312156120a6575f5ffd5b8b3567ffffffffffffffff8111156120bc575f5ffd5b6120c88e828f01611ef9565b909c509a505060208c013567ffffffffffffffff8111156120e7575f5ffd5b6120f38e828f01611f4e565b909a5098505060408c013567ffffffffffffffff811115612112575f5ffd5b61211e8e828f01612076565b97505060608c013567ffffffffffffffff81111561213a575f5ffd5b6121468e828f01611f4e565b9097509550612159905060808d01611f3e565b935060a08c013567ffffffffffffffff811115612174575f5ffd5b6121808e828f01611f4e565b9094509250612193905060c08d01611f8f565b90509295989b509295989b9093969950565b5f602082840312156121b5575f5ffd5b81356001600160e01b031981168114611ede575f5ffd5b5f5f5f5f5f5f5f60a0888a0312156121e2575f5ffd5b873567ffffffffffffffff8111156121f8575f5ffd5b6122048a828b01611f4e565b909850965050602088013567ffffffffffffffff811115612223575f5ffd5b61222f8a828b01612076565b9550506040880135611ffb81611ee5565b5f5f60408385031215612251575f5ffd5b823561225c81611ee5565b946020939093013593505050565b604080825283519082018190525f9060208501906060840190835b818110156122ac5783516001600160a01b0316835260209384019390920191600101612285565b505080925050506001600160a01b03831660208301529392505050565b5f5f5f5f5f608086880312156122dd575f5ffd5b853567ffffffffffffffff8111156122f3575f5ffd5b6122ff88828901612076565b955050602086013561231081611ee5565b9350604086013567ffffffffffffffff81111561232b575f5ffd5b61233788828901611f4e565b909450925061234a905060608701611f8f565b90509295509295909350565b5f81518084528060208401602086015e5f602082860101526020601f19601f83011685010191505092915050565b602081525f611ede6020830184612356565b6001600160f81b03198816815260e060208201525f6123b860e0830189612356565b82810360408401526123ca8189612356565b606084018890526001600160a01b038716608085015260a0840186905283810360c0850152845180825260208087019350909101905f5b8181101561241f578351835260209384019390920191600101612401565b50909b9a5050505050505050505050565b5f5f5f5f5f5f5f5f5f5f5f60e08c8e03121561244a575f5ffd5b8b3567ffffffffffffffff811115612460575f5ffd5b6120c88e828f01611f4e565b81835281816020850137505f828201602090810191909152601f909101601f19169091010190565b6001600160a01b0385168152836020820152606060408201525f6124bc60608301848661246c565b9695505050505050565b634e487b7160e01b5f52604160045260245ffd5b5f602082840312156124ea575f5ffd5b815167ffffffffffffffff811115612500575f5ffd5b8201601f81018413612510575f5ffd5b805167ffffffffffffffff81111561252a5761252a6124c6565b604051601f8201601f19908116603f0116810167ffffffffffffffff81118282101715612559576125596124c6565b604052818152828201602001861015612570575f5ffd5b8160208401602083015e5f91810160200191909152949350505050565b5f82518060208501845e5f920191825250919050565b602081525f6125b660208301848661246c565b949350505050565b634e487b7160e01b5f52603260045260245ffd5b5f8235603e198336030181126125e6575f5ffd5b9190910192915050565b5f60208284031215612600575f5ffd5b8135611ede81611ee5565b5f5f8335601e19843603018112612620575f5ffd5b83018035915067ffffffffffffffff82111561263a575f5ffd5b602001915036819003821315611f37575f5ffd5b8183526020830192505f815f5b8481101561268c57813561266e81611ee5565b6001600160a01b03168652602095860195919091019060010161265b565b5093949350505050565b6001600160a01b038816815260a060208201525f6126b860a08301888a61246c565b6001600160a01b038716604084015282810360608401526126da81868861264e565b91505060ff8316608083015298975050505050505050565b6001600160a01b0383168152604060208201525f6125b66040830184612356565b5f813561271f81611ee5565b6001600160a01b03168352602082013536839003601e19018112612741575f5ffd5b820160208101903567ffffffffffffffff81111561275d575f5ffd5b80360382131561276b575f5ffd5b6040602086015261278060408601828461246c565b95945050505050565b5f8383855260208501945060208460051b820101835f5b868110156127e857838303601f19018852813536879003603e190181126127c5575f5ffd5b6127d184888301612713565b6020998a01999094509290920191506001016127a0565b50909695505050505050565b60a081525f61280760a08301898b612789565b82810360208401526128198189612713565b90506001600160a01b038716604084015282810360608401526126da81868861264e565b60e081525f61285060e083018d8f612789565b8281036020840152612863818c8e612789565b90508281036040840152612877818b612713565b9050828103606084015261288c81898b612789565b90506001600160a01b038716608084015282810360a08401526128b081868861264e565b91505060ff831660c08301529c9b505050505050505050505050565b60ff84168152604060208201525f61278060408301848661264e565b5f602082840312156128f8575f5ffd5b81518015158114611ede575f5ffd5b5f5f85851115612915575f5ffd5b83861115612921575f5ffd5b5050820193919092039150565b80356001600160e01b0319811690600484101561295d576001600160e01b0319808560040360031b1b82161691505b5092915050565b634e487b7160e01b5f52601160045260245ffd5b5f6001820161298957612989612964565b5060010190565b818103818111156111f6576111f661296456fed21d0b289f126c4b473ea641963e766833c2f13866e4ff480abd787c100ef123a164736f6c634300081b000a","linkReferences":{}},"methodIdentifiers":{"eip712Domain()":"84b0196e","getActiveHook()":"0a664dba","getExecutorsPaginated(address,uint256)":"ea5f61d0","getFallbackHandlerBySelector(bytes4)":"481ddd23","getInitNexusCalldata((address,bytes)[],(address,bytes)[],(address,bytes),(address,bytes)[],address,address[],uint8)":"9e2533ed","getInitNexusScopedCalldata((address,bytes)[],(address,bytes),address,address[],uint8)":"85a924cc","getInitNexusWithSingleValidatorCalldata((address,bytes),address,address[],uint8)":"837b892e","getValidatorsPaginated(address,uint256)":"5faac46b","initNexus((address,bytes)[],(address,bytes)[],(address,bytes),(address,bytes)[],address,address[],uint8)":"d6fe71f1","initNexusScoped((address,bytes)[],(address,bytes),address,address[],uint8)":"55470cf1","initNexusWithDefaultValidator(bytes)":"31025984","initNexusWithDefaultValidatorAndOtherModules(bytes,(address,bytes)[],(address,bytes),(address,bytes)[],address,address[],uint8)":"45808b17","initNexusWithSingleValidator(address,bytes,address,address[],uint8)":"01fe9ff2","registry()":"7b103999"},"id":69}