{"abi":[{"type":"fallback","stateMutability":"payable"},{"type":"receive","stateMutability":"payable"},{"type":"function","name":"eip712Domain","inputs":[],"outputs":[{"name":"fields","type":"bytes1","internalType":"bytes1"},{"name":"name","type":"string","internalType":"string"},{"name":"version","type":"string","internalType":"string"},{"name":"chainId","type":"uint256","internalType":"uint256"},{"name":"verifyingContract","type":"address","internalType":"address"},{"name":"salt","type":"bytes32","internalType":"bytes32"},{"name":"extensions","type":"uint256[]","internalType":"uint256[]"}],"stateMutability":"view"},{"type":"function","name":"getActiveHook","inputs":[],"outputs":[{"name":"hook","type":"address","internalType":"address"}],"stateMutability":"view"},{"type":"function","name":"getExecutorsPaginated","inputs":[{"name":"cursor","type":"address","internalType":"address"},{"name":"size","type":"uint256","internalType":"uint256"}],"outputs":[{"name":"array","type":"address[]","internalType":"address[]"},{"name":"next","type":"address","internalType":"address"}],"stateMutability":"view"},{"type":"function","name":"getFallbackHandlerBySelector","inputs":[{"name":"selector","type":"bytes4","internalType":"bytes4"}],"outputs":[{"name":"","type":"bytes1","internalType":"CallType"},{"name":"","type":"address","internalType":"address"}],"stateMutability":"view"},{"type":"function","name":"getInitNexusCalldata","inputs":[{"name":"validators","type":"tuple[]","internalType":"struct BootstrapConfig[]","components":[{"name":"module","type":"address","internalType":"address"},{"name":"data","type":"bytes","internalType":"bytes"}]},{"name":"executors","type":"tuple[]","internalType":"struct BootstrapConfig[]","components":[{"name":"module","type":"address","internalType":"address"},{"name":"data","type":"bytes","internalType":"bytes"}]},{"name":"hook","type":"tuple","internalType":"struct BootstrapConfig","components":[{"name":"module","type":"address","internalType":"address"},{"name":"data","type":"bytes","internalType":"bytes"}]},{"name":"fallbacks","type":"tuple[]","internalType":"struct BootstrapConfig[]","components":[{"name":"module","type":"address","internalType":"address"},{"name":"data","type":"bytes","internalType":"bytes"}]},{"name":"registry","type":"address","internalType":"contract IERC7484"},{"name":"attesters","type":"address[]","internalType":"address[]"},{"name":"threshold","type":"uint8","internalType":"uint8"}],"outputs":[{"name":"init","type":"bytes","internalType":"bytes"}],"stateMutability":"view"},{"type":"function","name":"getInitNexusScopedCalldata","inputs":[{"name":"validators","type":"tuple[]","internalType":"struct BootstrapConfig[]","components":[{"name":"module","type":"address","internalType":"address"},{"name":"data","type":"bytes","internalType":"bytes"}]},{"name":"hook","type":"tuple","internalType":"struct BootstrapConfig","components":[{"name":"module","type":"address","internalType":"address"},{"name":"data","type":"bytes","internalType":"bytes"}]},{"name":"registry","type":"address","internalType":"contract IERC7484"},{"name":"attesters","type":"address[]","internalType":"address[]"},{"name":"threshold","type":"uint8","internalType":"uint8"}],"outputs":[{"name":"init","type":"bytes","internalType":"bytes"}],"stateMutability":"view"},{"type":"function","name":"getInitNexusWithSingleValidatorCalldata","inputs":[{"name":"validator","type":"tuple","internalType":"struct BootstrapConfig","components":[{"name":"module","type":"address","internalType":"address"},{"name":"data","type":"bytes","internalType":"bytes"}]},{"name":"registry","type":"address","internalType":"contract IERC7484"},{"name":"attesters","type":"address[]","internalType":"address[]"},{"name":"threshold","type":"uint8","internalType":"uint8"}],"outputs":[{"name":"init","type":"bytes","internalType":"bytes"}],"stateMutability":"view"},{"type":"function","name":"getValidatorsPaginated","inputs":[{"name":"cursor","type":"address","internalType":"address"},{"name":"size","type":"uint256","internalType":"uint256"}],"outputs":[{"name":"array","type":"address[]","internalType":"address[]"},{"name":"next","type":"address","internalType":"address"}],"stateMutability":"view"},{"type":"function","name":"initNexus","inputs":[{"name":"validators","type":"tuple[]","internalType":"struct BootstrapConfig[]","components":[{"name":"module","type":"address","internalType":"address"},{"name":"data","type":"bytes","internalType":"bytes"}]},{"name":"executors","type":"tuple[]","internalType":"struct BootstrapConfig[]","components":[{"name":"module","type":"address","internalType":"address"},{"name":"data","type":"bytes","internalType":"bytes"}]},{"name":"hook","type":"tuple","internalType":"struct BootstrapConfig","components":[{"name":"module","type":"address","internalType":"address"},{"name":"data","type":"bytes","internalType":"bytes"}]},{"name":"fallbacks","type":"tuple[]","internalType":"struct BootstrapConfig[]","components":[{"name":"module","type":"address","internalType":"address"},{"name":"data","type":"bytes","internalType":"bytes"}]},{"name":"registry","type":"address","internalType":"contract IERC7484"},{"name":"attesters","type":"address[]","internalType":"address[]"},{"name":"threshold","type":"uint8","internalType":"uint8"}],"outputs":[],"stateMutability":"nonpayable"},{"type":"function","name":"initNexusScoped","inputs":[{"name":"validators","type":"tuple[]","internalType":"struct BootstrapConfig[]","components":[{"name":"module","type":"address","internalType":"address"},{"name":"data","type":"bytes","internalType":"bytes"}]},{"name":"hook","type":"tuple","internalType":"struct BootstrapConfig","components":[{"name":"module","type":"address","internalType":"address"},{"name":"data","type":"bytes","internalType":"bytes"}]},{"name":"registry","type":"address","internalType":"contract IERC7484"},{"name":"attesters","type":"address[]","internalType":"address[]"},{"name":"threshold","type":"uint8","internalType":"uint8"}],"outputs":[],"stateMutability":"nonpayable"},{"type":"function","name":"initNexusWithSingleValidator","inputs":[{"name":"validator","type":"address","internalType":"contract IModule"},{"name":"data","type":"bytes","internalType":"bytes"},{"name":"registry","type":"address","internalType":"contract IERC7484"},{"name":"attesters","type":"address[]","internalType":"address[]"},{"name":"threshold","type":"uint8","internalType":"uint8"}],"outputs":[],"stateMutability":"nonpayable"},{"type":"function","name":"registry","inputs":[],"outputs":[{"name":"","type":"address","internalType":"contract IERC7484"}],"stateMutability":"view"},{"type":"event","name":"ERC7484RegistryConfigured","inputs":[{"name":"registry","type":"address","indexed":true,"internalType":"contract IERC7484"}],"anonymous":false},{"type":"event","name":"ModuleInstalled","inputs":[{"name":"moduleTypeId","type":"uint256","indexed":false,"internalType":"uint256"},{"name":"module","type":"address","indexed":false,"internalType":"address"}],"anonymous":false},{"type":"event","name":"ModuleUninstalled","inputs":[{"name":"moduleTypeId","type":"uint256","indexed":false,"internalType":"uint256"},{"name":"module","type":"address","indexed":false,"internalType":"address"}],"anonymous":false},{"type":"error","name":"CanNotRemoveLastValidator","inputs":[]},{"type":"error","name":"EnableModeSigError","inputs":[]},{"type":"error","name":"FallbackAlreadyInstalledForSelector","inputs":[{"name":"selector","type":"bytes4","internalType":"bytes4"}]},{"type":"error","name":"FallbackCallTypeInvalid","inputs":[]},{"type":"error","name":"FallbackHandlerUninstallFailed","inputs":[]},{"type":"error","name":"FallbackNotInstalledForSelector","inputs":[{"name":"selector","type":"bytes4","internalType":"bytes4"}]},{"type":"error","name":"FallbackSelectorForbidden","inputs":[]},{"type":"error","name":"HookAlreadyInstalled","inputs":[{"name":"currentHook","type":"address","internalType":"address"}]},{"type":"error","name":"HookPostCheckFailed","inputs":[]},{"type":"error","name":"InvalidInput","inputs":[]},{"type":"error","name":"InvalidModule","inputs":[{"name":"module","type":"address","internalType":"address"}]},{"type":"error","name":"InvalidModuleTypeId","inputs":[{"name":"moduleTypeId","type":"uint256","internalType":"uint256"}]},{"type":"error","name":"LinkedList_EntryAlreadyInList","inputs":[{"name":"entry","type":"address","internalType":"address"}]},{"type":"error","name":"LinkedList_InvalidEntry","inputs":[{"name":"entry","type":"address","internalType":"address"}]},{"type":"error","name":"LinkedList_InvalidPage","inputs":[]},{"type":"error","name":"MismatchModuleTypeId","inputs":[{"name":"moduleTypeId","type":"uint256","internalType":"uint256"}]},{"type":"error","name":"MissingFallbackHandler","inputs":[{"name":"selector","type":"bytes4","internalType":"bytes4"}]},{"type":"error","name":"ModuleAddressCanNotBeZero","inputs":[]},{"type":"error","name":"ModuleAlreadyInstalled","inputs":[{"name":"moduleTypeId","type":"uint256","internalType":"uint256"},{"name":"module","type":"address","internalType":"address"}]},{"type":"error","name":"ModuleNotInstalled","inputs":[{"name":"moduleTypeId","type":"uint256","internalType":"uint256"},{"name":"module","type":"address","internalType":"address"}]},{"type":"error","name":"NoValidatorInstalled","inputs":[]},{"type":"error","name":"UnauthorizedOperation","inputs":[{"name":"operator","type":"address","internalType":"address"}]},{"type":"error","name":"UnsupportedCallType","inputs":[{"name":"callType","type":"bytes1","internalType":"CallType"}]},{"type":"error","name":"ValidatorNotInstalled","inputs":[{"name":"module","type":"address","internalType":"address"}]}],"bytecode":{"object":"0x610120604052348015600f575f5ffd5b50306080524660a0526060806061604080518082018252600e81526d04e65787573426f6f7473747261760941b602080830191909152825180840190935260058352640312e302e360dc1b9083015291565b815160209283012081519183019190912060c082905260e0819052604080517f8b73c3c69bb8fe3d512ecc4cf759cc79239f7b179b0ffacaa9a75d522b39400f8152938401929092529082015246606082015230608082015260a09020610100525060c99050565b60805160a05160c05160e051610100516122966100f75f395f50505f50505f50505f50505f50506122965ff3fe6080604052600436106100ca575f3560e01c8063837b892e116100735780639e2533ed1161004d5780639e2533ed14610406578063d6fe71f114610425578063ea5f61d014610444576100d1565b8063837b892e1461039457806384b0196e146103c057806385a924cc146103e7576100d1565b806355470cf1116100a457806355470cf11461032a5780635faac46b146103495780637b10399914610376576100d1565b806301fe9ff2146102285780630a664dba14610247578063481ddd2314610278576100d1565b366100d157005b5f6101037f0bb70095b32b9671358306b0339b4c06e7cbd8cb82505941fba30d1eb5b82f03546001600160a01b031690565b90506001600160a01b03811661011f5761011d5f36610463565b005b6040517fd68f60250000000000000000000000000000000000000000000000000000000081525f906001600160a01b0383169063d68f60259061016c903390349086903690600401611870565b5f604051808303815f875af1158015610187573d5f5f3e3d5ffd5b505050506040513d5f823e601f3d908101601f191682016040526101ae91908101906118b6565b90506101ba5f36610463565b6040517f173bf7da0000000000000000000000000000000000000000000000000000000081526001600160a01b0383169063173bf7da906101ff908490600401611997565b5f604051808303815f87803b158015610216575f5ffd5b505af115801561011d573d5f5f3e3d5ffd5b348015610233575f5ffd5b5061011d610242366004611a28565b610685565b348015610252575f5ffd5b5061025b61069c565b6040516001600160a01b0390911681526020015b60405180910390f35b348015610283575f5ffd5b50610302610292366004611af9565b6001600160e01b0319165f9081527f0bb70095b32b9671358306b0339b4c06e7cbd8cb82505941fba30d1eb5b82f0260209081526040918290208251808401909352546001600160a01b038116808452600160a01b90910460f81b6001600160f81b031916929091018290529091565b604080516001600160f81b031990931683526001600160a01b0390911660208301520161026f565b348015610335575f5ffd5b5061011d610344366004611b36565b6106d3565b348015610354575f5ffd5b50610368610363366004611baa565b61079c565b60405161026f929190611bd4565b348015610381575f5ffd5b505f5461025b906001600160a01b031681565b34801561039f575f5ffd5b506103b36103ae366004611c33565b6107d5565b60405161026f9190611997565b3480156103cb575f5ffd5b506103d461086a565b60405161026f9796959493929190611cc0565b3480156103f2575f5ffd5b506103b3610401366004611b36565b610912565b348015610411575f5ffd5b506103b3610420366004611d5a565b61099b565b348015610430575f5ffd5b5061011d61043f366004611d5a565b610a30565b34801561044f575f5ffd5b5061036861045e366004611baa565b610c5c565b5f80356001600160e01b03191681527f0bb70095b32b9671358306b0339b4c06e7cbd8cb82505941fba30d1eb5b82f02602052604081208054606091906001600160a01b03811690600160a01b900460f81b81156105fa576104c981607f60f91b610c8a565b1561053757816001600160a01b03166104e28888610ca1565b6040516104ef9190611e73565b5f60405180830381855afa9150503d805f8114610527576040519150601f19603f3d011682016040523d82523d5f602084013e61052c565b606091505b5090955093506105e5565b610541815f610c8a565b156105a257816001600160a01b03163461055b8989610ca1565b6040516105689190611e73565b5f6040518083038185875af1925050503d805f8114610527576040519150601f19603f3d011682016040523d82523d5f602084013e61052c565b6040517fb96fcfe40000000000000000000000000000000000000000000000000000000081526001600160f81b0319821660048201526024015b60405180910390fd5b846105f257835160208501fd5b835160208501f35b5f3560e01c63150b7a02811463f23a6e61821463bc197c8183141717156106295760019550806020526020603cf35b6001600160e01b03195f351686610679576040517f08c63e270000000000000000000000000000000000000000000000000000000081526001600160e01b031990911660048201526024016105dc565b50505b50505050505050565b61069184848484610cd6565b61067c878787610db5565b5f6106ce7f0bb70095b32b9671358306b0339b4c06e7cbd8cb82505941fba30d1eb5b82f03546001600160a01b031690565b905090565b6106df84848484610cd6565b5f5b8681101561075d576107558888838181106106fe576106fe611e89565b90506020028101906107109190611e9d565b61071e906020810190611ebb565b89898481811061073057610730611e89565b90506020028101906107429190611e9d565b610750906020810190611ed6565b610db5565b6001016106e1565b505f61076c6020870187611ebb565b6001600160a01b03161461067c5761067c61078a6020870187611ebb565b6107976020880188611ed6565b610eca565b60605f6107ca7f0bb70095b32b9671358306b0339b4c06e7cbd8cb82505941fba30d1eb5b82f008585611089565b909590945092505050565b606030806301fe9ff26107eb60208a018a611ebb565b6107f860208b018b611ed6565b8a8a8a8a6040516024016108129796959493929190611f61565b604051602081830303815290604052915060e01b6020820180516001600160e01b038381831617835250505050604051602001610850929190611fbd565b604051602081830303815290604052905095945050505050565b7f0f000000000000000000000000000000000000000000000000000000000000006060805f808083610900604080518082018252600e81527f4e65787573426f6f7473747261700000000000000000000000000000000000006020808301919091528251808401909352600583527f312e302e300000000000000000000000000000000000000000000000000000009083015291565b97989097965046955030945091925090565b606030306001600160a01b03166355470cf18a8a8a8a8a8a8a60405160240161094197969594939291906120c7565b604051602081830303815290604052915060e01b6020820180516001600160e01b03838183161783525050505060405160200161097f929190611fbd565b6040516020818303038152906040529050979650505050505050565b606030306001600160a01b031663d6fe71f18e8e8e8e8e8e8e8e8e8e8e6040516024016109d29b9a99989796959493929190612110565b604051602081830303815290604052915060e01b6020820180516001600160e01b038381831617835250505050604051602001610a10929190611fbd565b60405160208183030381529060405290509b9a5050505050505050505050565b610a3c84848484610cd6565b5f5b8a811015610a9557610a8d8c8c83818110610a5b57610a5b611e89565b9050602002810190610a6d9190611e9d565b610a7b906020810190611ebb565b8d8d8481811061073057610730611e89565b600101610a3e565b505f5b88811015610b55575f8a8a83818110610ab357610ab3611e89565b9050602002810190610ac59190611e9d565b610ad3906020810190611ebb565b6001600160a01b031614610b4d57610b4d8a8a83818110610af657610af6611e89565b9050602002810190610b089190611e9d565b610b16906020810190611ebb565b8b8b84818110610b2857610b28611e89565b9050602002810190610b3a9190611e9d565b610b48906020810190611ed6565b6110a3565b600101610a98565b505f610b646020890189611ebb565b6001600160a01b031614610b8f57610b8f610b826020890189611ebb565b61079760208a018a611ed6565b5f5b85811015610c4e575f878783818110610bac57610bac611e89565b9050602002810190610bbe9190611e9d565b610bcc906020810190611ebb565b6001600160a01b031614610c4657610c46878783818110610bef57610bef611e89565b9050602002810190610c019190611e9d565b610c0f906020810190611ebb565b888884818110610c2157610c21611e89565b9050602002810190610c339190611e9d565b610c41906020810190611ed6565b611161565b600101610b91565b505050505050505050505050565b60605f6107ca7f0bb70095b32b9671358306b0339b4c06e7cbd8cb82505941fba30d1eb5b82f018585611089565b6001600160f81b0319828116908216145b92915050565b6060604080513681016020019091529050601436018152365f602083013760408051601481019091523360601b905292915050565b5f805473ffffffffffffffffffffffffffffffffffffffff19166001600160a01b03861690811790915515610d7c576040517ff05c04e10000000000000000000000000000000000000000000000000000000081526001600160a01b0385169063f05c04e190610d4e9084908790879060040161219f565b5f604051808303815f87803b158015610d65575f5ffd5b505af1158015610d77573d5f5f3e3d5ffd5b505050505b6040516001600160a01b038516907ff98c8404c5b1bfef2e6ba9233c6e88845aedfd36eea8b192725d8c199571cf32905f90a250505050565b826001610dc282826114cc565b60405163ecd0596160e01b8152600160048201526001600160a01b0386169063ecd0596190602401602060405180830381865afa158015610e05573d5f5f3e3d5ffd5b505050506040513d601f19601f82011682018060405250810190610e2991906121bb565b610e49576040516369c9a24560e11b8152600160048201526024016105dc565b610e737f0bb70095b32b9671358306b0339b4c06e7cbd8cb82505941fba30d1eb5b82f0086611553565b6040516306d61fe760e41b81526001600160a01b03861690636d61fe7090610ea190879087906004016121da565b5f604051808303815f87803b158015610eb8575f5ffd5b505af1158015610679573d5f5f3e3d5ffd5b826004610ed782826114cc565b60405163ecd0596160e01b81526004808201526001600160a01b0386169063ecd0596190602401602060405180830381865afa158015610f19573d5f5f3e3d5ffd5b505050506040513d601f19601f82011682018060405250810190610f3d91906121bb565b610f5c576040516369c9a24560e11b81526004818101526024016105dc565b5f610f8e7f0bb70095b32b9671358306b0339b4c06e7cbd8cb82505941fba30d1eb5b82f03546001600160a01b031690565b9050806001600160a01b03811615610fde576040517f741cbe030000000000000000000000000000000000000000000000000000000081526001600160a01b0390911660048201526024016105dc565b507f0bb70095b32b9671358306b0339b4c06e7cbd8cb82505941fba30d1eb5b82f03805473ffffffffffffffffffffffffffffffffffffffff19166001600160a01b0388161790556040516306d61fe760e41b81526001600160a01b03871690636d61fe709061105490889088906004016121da565b5f604051808303815f87803b15801561106b575f5ffd5b505af115801561107d573d5f5f3e3d5ffd5b50505050505050505050565b60605f61109785858561164d565b90969095509350505050565b8260026110b082826114cc565b60405163ecd0596160e01b8152600260048201526001600160a01b0386169063ecd0596190602401602060405180830381865afa1580156110f3573d5f5f3e3d5ffd5b505050506040513d601f19601f8201168201806040525081019061111791906121bb565b611137576040516369c9a24560e11b8152600260048201526024016105dc565b610e737f0bb70095b32b9671358306b0339b4c06e7cbd8cb82505941fba30d1eb5b82f0186611553565b82600361116e82826114cc565b60405163ecd0596160e01b8152600360048201526001600160a01b0386169063ecd0596190602401602060405180830381865afa1580156111b1573d5f5f3e3d5ffd5b505050506040513d601f19601f820116820180604052508101906111d591906121bb565b6111f5576040516369c9a24560e11b8152600360048201526024016105dc565b5f61120360048286886121ed565b61120c91612214565b90505f8585600481811061122257611222611e89565b9050013560f81c60f81b905061123b815f60f81b610c8a565b8061124f575061124f81607f60f91b610c8a565b611285576040517f867a1dcf00000000000000000000000000000000000000000000000000000000815260040160405180910390fd5b5f611293866005818a6121ed565b8080601f0160208091040260200160405190810160405280939291908181526020018383808284375f920191909152509293505050506001600160e01b031983166306d61fe760e41b148061131157506001600160e01b031983167f8a91b0e300000000000000000000000000000000000000000000000000000000145b8061132457506001600160e01b03198316155b1561135b576040517fc001660b00000000000000000000000000000000000000000000000000000000815260040160405180910390fd5b6001600160e01b031983165f9081527f0bb70095b32b9671358306b0339b4c06e7cbd8cb82505941fba30d1eb5b82f02602052604090205483906001600160a01b0316156113e2576040517fa56a04dd0000000000000000000000000000000000000000000000000000000081526001600160e01b031990911660048201526024016105dc565b506040805180820182526001600160a01b038a81168083526001600160f81b0319861660208085019182526001600160e01b031989165f9081527f0bb70095b32b9671358306b0339b4c06e7cbd8cb82505941fba30d1eb5b82f0290915285902093518454915160f81c600160a01b027fffffffffffffffffffffff0000000000000000000000000000000000000000009092169316929092179190911790915590516306d61fe760e41b8152636d61fe70906114a3908490600401611997565b5f604051808303815f87803b1580156114ba575f5ffd5b505af1158015610c4e573d5f5f3e3d5ffd5b5f546001600160a01b0316801561154e576040517f96fb72170000000000000000000000000000000000000000000000000000000081526001600160a01b038481166004830152602482018490528216906396fb7217906044015f6040518083038186803b15801561153c575f5ffd5b505afa15801561067c573d5f5f3e3d5ffd5b505050565b6001600160a01b038116158061157257506001600160a01b0381166001145b1561159b57604051637c84ecfb60e01b81526001600160a01b03821660048201526024016105dc565b6001600160a01b038181165f9081526020849052604090205416156115f7576040517f40d3d1a40000000000000000000000000000000000000000000000000000000081526001600160a01b03821660048201526024016105dc565b60015f818152602093909352604080842080546001600160a01b0394851680875292862080549590911673ffffffffffffffffffffffffffffffffffffffff199586161790559190935280549091169091179055565b60605f6001600160a01b038416600114801590611671575061166f858561180e565b155b1561169a57604051637c84ecfb60e01b81526001600160a01b03851660048201526024016105dc565b825f036116d3576040517ff725081700000000000000000000000000000000000000000000000000000000815260040160405180910390fd5b8267ffffffffffffffff8111156116ec576116ec6118a2565b604051908082528060200260200182016040528015611715578160200160208202803683370190505b506001600160a01b038086165f90815260208890526040812054929450911691505b6001600160a01b0382161580159061175957506001600160a01b038216600114155b801561176457508381105b156117bd578183828151811061177c5761177c611e89565b6001600160a01b039283166020918202929092018101919091529281165f9081529287905260409092205490911690806117b58161225e565b915050611737565b6001600160a01b0382166001148015906117d657505f81115b1561180257826117e7600183612276565b815181106117f7576117f7611e89565b602002602001015191505b80835250935093915050565b5f60016001600160a01b0383161480159061184157506001600160a01b038281165f908152602085905260409020541615155b9392505050565b81835281816020850137505f828201602090810191909152601f909101601f19169091010190565b6001600160a01b0385168152836020820152606060408201525f611898606083018486611848565b9695505050505050565b634e487b7160e01b5f52604160045260245ffd5b5f602082840312156118c6575f5ffd5b815167ffffffffffffffff8111156118dc575f5ffd5b8201601f810184136118ec575f5ffd5b805167ffffffffffffffff811115611906576119066118a2565b604051601f8201601f19908116603f0116810167ffffffffffffffff81118282101715611935576119356118a2565b60405281815282820160200186101561194c575f5ffd5b8160208401602083015e5f91810160200191909152949350505050565b5f81518084528060208401602086015e5f602082860101526020601f19601f83011685010191505092915050565b602081525f6118416020830184611969565b6001600160a01b03811681146119bd575f5ffd5b50565b80356119cb816119a9565b919050565b5f5f83601f8401126119e0575f5ffd5b50813567ffffffffffffffff8111156119f7575f5ffd5b6020830191508360208260051b8501011115611a11575f5ffd5b9250929050565b803560ff811681146119cb575f5ffd5b5f5f5f5f5f5f5f60a0888a031215611a3e575f5ffd5b8735611a49816119a9565b9650602088013567ffffffffffffffff811115611a64575f5ffd5b8801601f81018a13611a74575f5ffd5b803567ffffffffffffffff811115611a8a575f5ffd5b8a6020828401011115611a9b575f5ffd5b60209190910196509450611ab1604089016119c0565b9350606088013567ffffffffffffffff811115611acc575f5ffd5b611ad88a828b016119d0565b9094509250611aeb905060808901611a18565b905092959891949750929550565b5f60208284031215611b09575f5ffd5b81356001600160e01b031981168114611841575f5ffd5b5f60408284031215611b30575f5ffd5b50919050565b5f5f5f5f5f5f5f60a0888a031215611b4c575f5ffd5b873567ffffffffffffffff811115611b62575f5ffd5b611b6e8a828b016119d0565b909850965050602088013567ffffffffffffffff811115611b8d575f5ffd5b611b998a828b01611b20565b9550506040880135611ab1816119a9565b5f5f60408385031215611bbb575f5ffd5b8235611bc6816119a9565b946020939093013593505050565b604080825283519082018190525f9060208501906060840190835b81811015611c165783516001600160a01b0316835260209384019390920191600101611bef565b505080925050506001600160a01b03831660208301529392505050565b5f5f5f5f5f60808688031215611c47575f5ffd5b853567ffffffffffffffff811115611c5d575f5ffd5b611c6988828901611b20565b9550506020860135611c7a816119a9565b9350604086013567ffffffffffffffff811115611c95575f5ffd5b611ca1888289016119d0565b9094509250611cb4905060608701611a18565b90509295509295909350565b6001600160f81b03198816815260e060208201525f611ce260e0830189611969565b8281036040840152611cf48189611969565b606084018890526001600160a01b038716608085015260a0840186905283810360c0850152845180825260208087019350909101905f5b81811015611d49578351835260209384019390920191600101611d2b565b50909b9a5050505050505050505050565b5f5f5f5f5f5f5f5f5f5f5f60e08c8e031215611d74575f5ffd5b8b3567ffffffffffffffff811115611d8a575f5ffd5b611d968e828f016119d0565b909c509a505060208c013567ffffffffffffffff811115611db5575f5ffd5b611dc18e828f016119d0565b909a5098505060408c013567ffffffffffffffff811115611de0575f5ffd5b611dec8e828f01611b20565b97505060608c013567ffffffffffffffff811115611e08575f5ffd5b611e148e828f016119d0565b9097509550611e27905060808d016119c0565b935060a08c013567ffffffffffffffff811115611e42575f5ffd5b611e4e8e828f016119d0565b9094509250611e61905060c08d01611a18565b90509295989b509295989b9093969950565b5f82518060208501845e5f920191825250919050565b634e487b7160e01b5f52603260045260245ffd5b5f8235603e19833603018112611eb1575f5ffd5b9190910192915050565b5f60208284031215611ecb575f5ffd5b8135611841816119a9565b5f5f8335601e19843603018112611eeb575f5ffd5b83018035915067ffffffffffffffff821115611f05575f5ffd5b602001915036819003821315611a11575f5ffd5b8183526020830192505f815f5b84811015611f57578135611f39816119a9565b6001600160a01b031686526020958601959190910190600101611f26565b5093949350505050565b6001600160a01b038816815260a060208201525f611f8360a08301888a611848565b6001600160a01b03871660408401528281036060840152611fa5818688611f19565b91505060ff8316608083015298975050505050505050565b6001600160a01b0383168152604060208201525f611fde6040830184611969565b949350505050565b5f8135611ff2816119a9565b6001600160a01b03168352602082013536839003601e19018112612014575f5ffd5b820160208101903567ffffffffffffffff811115612030575f5ffd5b80360382131561203e575f5ffd5b60406020860152612053604086018284611848565b95945050505050565b5f8383855260208501945060208460051b820101835f5b868110156120bb57838303601f19018852813536879003603e19018112612098575f5ffd5b6120a484888301611fe6565b6020998a0199909450929092019150600101612073565b50909695505050505050565b60a081525f6120da60a08301898b61205c565b82810360208401526120ec8189611fe6565b90506001600160a01b03871660408401528281036060840152611fa5818688611f19565b60e081525f61212360e083018d8f61205c565b8281036020840152612136818c8e61205c565b9050828103604084015261214a818b611fe6565b9050828103606084015261215f81898b61205c565b90506001600160a01b038716608084015282810360a0840152612183818688611f19565b91505060ff831660c08301529c9b505050505050505050505050565b60ff84168152604060208201525f612053604083018486611f19565b5f602082840312156121cb575f5ffd5b81518015158114611841575f5ffd5b602081525f611fde602083018486611848565b5f5f858511156121fb575f5ffd5b83861115612207575f5ffd5b5050820193919092039150565b80356001600160e01b03198116906004841015612243576001600160e01b0319808560040360031b1b82161691505b5092915050565b634e487b7160e01b5f52601160045260245ffd5b5f6001820161226f5761226f61224a565b5060010190565b81810381811115610c9b57610c9b61224a56fea164736f6c634300081b000a","linkReferences":{}},"methodIdentifiers":{"eip712Domain()":"84b0196e","getActiveHook()":"0a664dba","getExecutorsPaginated(address,uint256)":"ea5f61d0","getFallbackHandlerBySelector(bytes4)":"481ddd23","getInitNexusCalldata((address,bytes)[],(address,bytes)[],(address,bytes),(address,bytes)[],address,address[],uint8)":"9e2533ed","getInitNexusScopedCalldata((address,bytes)[],(address,bytes),address,address[],uint8)":"85a924cc","getInitNexusWithSingleValidatorCalldata((address,bytes),address,address[],uint8)":"837b892e","getValidatorsPaginated(address,uint256)":"5faac46b","initNexus((address,bytes)[],(address,bytes)[],(address,bytes),(address,bytes)[],address,address[],uint8)":"d6fe71f1","initNexusScoped((address,bytes)[],(address,bytes),address,address[],uint8)":"55470cf1","initNexusWithSingleValidator(address,bytes,address,address[],uint8)":"01fe9ff2","registry()":"7b103999"},"id":58}