{"abi":[{"type":"constructor","inputs":[{"name":"defaultValidator","type":"address","internalType":"address"},{"name":"initData","type":"bytes","internalType":"bytes"}],"stateMutability":"nonpayable"},{"type":"fallback","stateMutability":"payable"},{"type":"receive","stateMutability":"payable"},{"type":"function","name":"eip712Domain","inputs":[],"outputs":[{"name":"fields","type":"bytes1","internalType":"bytes1"},{"name":"name","type":"string","internalType":"string"},{"name":"version","type":"string","internalType":"string"},{"name":"chainId","type":"uint256","internalType":"uint256"},{"name":"verifyingContract","type":"address","internalType":"address"},{"name":"salt","type":"bytes32","internalType":"bytes32"},{"name":"extensions","type":"uint256[]","internalType":"uint256[]"}],"stateMutability":"view"},{"type":"function","name":"getActiveHook","inputs":[],"outputs":[{"name":"hook","type":"address","internalType":"address"}],"stateMutability":"view"},{"type":"function","name":"getExecutorsPaginated","inputs":[{"name":"cursor","type":"address","internalType":"address"},{"name":"size","type":"uint256","internalType":"uint256"}],"outputs":[{"name":"array","type":"address[]","internalType":"address[]"},{"name":"next","type":"address","internalType":"address"}],"stateMutability":"view"},{"type":"function","name":"getFallbackHandlerBySelector","inputs":[{"name":"selector","type":"bytes4","internalType":"bytes4"}],"outputs":[{"name":"","type":"bytes1","internalType":"CallType"},{"name":"","type":"address","internalType":"address"}],"stateMutability":"view"},{"type":"function","name":"getInitNexusCalldata","inputs":[{"name":"validators","type":"tuple[]","internalType":"struct BootstrapConfig[]","components":[{"name":"module","type":"address","internalType":"address"},{"name":"data","type":"bytes","internalType":"bytes"}]},{"name":"executors","type":"tuple[]","internalType":"struct BootstrapConfig[]","components":[{"name":"module","type":"address","internalType":"address"},{"name":"data","type":"bytes","internalType":"bytes"}]},{"name":"hook","type":"tuple","internalType":"struct BootstrapConfig","components":[{"name":"module","type":"address","internalType":"address"},{"name":"data","type":"bytes","internalType":"bytes"}]},{"name":"fallbacks","type":"tuple[]","internalType":"struct BootstrapConfig[]","components":[{"name":"module","type":"address","internalType":"address"},{"name":"data","type":"bytes","internalType":"bytes"}]},{"name":"registry","type":"address","internalType":"contract IERC7484"},{"name":"attesters","type":"address[]","internalType":"address[]"},{"name":"threshold","type":"uint8","internalType":"uint8"}],"outputs":[{"name":"init","type":"bytes","internalType":"bytes"}],"stateMutability":"view"},{"type":"function","name":"getInitNexusScopedCalldata","inputs":[{"name":"validators","type":"tuple[]","internalType":"struct BootstrapConfig[]","components":[{"name":"module","type":"address","internalType":"address"},{"name":"data","type":"bytes","internalType":"bytes"}]},{"name":"hook","type":"tuple","internalType":"struct BootstrapConfig","components":[{"name":"module","type":"address","internalType":"address"},{"name":"data","type":"bytes","internalType":"bytes"}]},{"name":"registry","type":"address","internalType":"contract IERC7484"},{"name":"attesters","type":"address[]","internalType":"address[]"},{"name":"threshold","type":"uint8","internalType":"uint8"}],"outputs":[{"name":"init","type":"bytes","internalType":"bytes"}],"stateMutability":"view"},{"type":"function","name":"getInitNexusWithSingleValidatorCalldata","inputs":[{"name":"validator","type":"tuple","internalType":"struct BootstrapConfig","components":[{"name":"module","type":"address","internalType":"address"},{"name":"data","type":"bytes","internalType":"bytes"}]},{"name":"registry","type":"address","internalType":"contract IERC7484"},{"name":"attesters","type":"address[]","internalType":"address[]"},{"name":"threshold","type":"uint8","internalType":"uint8"}],"outputs":[{"name":"init","type":"bytes","internalType":"bytes"}],"stateMutability":"view"},{"type":"function","name":"getValidatorsPaginated","inputs":[{"name":"cursor","type":"address","internalType":"address"},{"name":"size","type":"uint256","internalType":"uint256"}],"outputs":[{"name":"array","type":"address[]","internalType":"address[]"},{"name":"next","type":"address","internalType":"address"}],"stateMutability":"view"},{"type":"function","name":"initNexus","inputs":[{"name":"validators","type":"tuple[]","internalType":"struct BootstrapConfig[]","components":[{"name":"module","type":"address","internalType":"address"},{"name":"data","type":"bytes","internalType":"bytes"}]},{"name":"executors","type":"tuple[]","internalType":"struct BootstrapConfig[]","components":[{"name":"module","type":"address","internalType":"address"},{"name":"data","type":"bytes","internalType":"bytes"}]},{"name":"hook","type":"tuple","internalType":"struct BootstrapConfig","components":[{"name":"module","type":"address","internalType":"address"},{"name":"data","type":"bytes","internalType":"bytes"}]},{"name":"fallbacks","type":"tuple[]","internalType":"struct BootstrapConfig[]","components":[{"name":"module","type":"address","internalType":"address"},{"name":"data","type":"bytes","internalType":"bytes"}]},{"name":"registry","type":"address","internalType":"contract IERC7484"},{"name":"attesters","type":"address[]","internalType":"address[]"},{"name":"threshold","type":"uint8","internalType":"uint8"}],"outputs":[],"stateMutability":"payable"},{"type":"function","name":"initNexusScoped","inputs":[{"name":"validators","type":"tuple[]","internalType":"struct BootstrapConfig[]","components":[{"name":"module","type":"address","internalType":"address"},{"name":"data","type":"bytes","internalType":"bytes"}]},{"name":"hook","type":"tuple","internalType":"struct BootstrapConfig","components":[{"name":"module","type":"address","internalType":"address"},{"name":"data","type":"bytes","internalType":"bytes"}]},{"name":"registry","type":"address","internalType":"contract IERC7484"},{"name":"attesters","type":"address[]","internalType":"address[]"},{"name":"threshold","type":"uint8","internalType":"uint8"}],"outputs":[],"stateMutability":"payable"},{"type":"function","name":"initNexusWithDefaultValidator","inputs":[{"name":"data","type":"bytes","internalType":"bytes"}],"outputs":[],"stateMutability":"payable"},{"type":"function","name":"initNexusWithSingleValidator","inputs":[{"name":"validator","type":"address","internalType":"contract IModule"},{"name":"data","type":"bytes","internalType":"bytes"},{"name":"registry","type":"address","internalType":"contract IERC7484"},{"name":"attesters","type":"address[]","internalType":"address[]"},{"name":"threshold","type":"uint8","internalType":"uint8"}],"outputs":[],"stateMutability":"payable"},{"type":"function","name":"registry","inputs":[],"outputs":[{"name":"","type":"address","internalType":"contract IERC7484"}],"stateMutability":"view"},{"type":"event","name":"ERC7484RegistryConfigured","inputs":[{"name":"registry","type":"address","indexed":true,"internalType":"contract IERC7484"}],"anonymous":false},{"type":"event","name":"ModuleInstalled","inputs":[{"name":"moduleTypeId","type":"uint256","indexed":false,"internalType":"uint256"},{"name":"module","type":"address","indexed":false,"internalType":"address"}],"anonymous":false},{"type":"event","name":"ModuleUninstalled","inputs":[{"name":"moduleTypeId","type":"uint256","indexed":false,"internalType":"uint256"},{"name":"module","type":"address","indexed":false,"internalType":"address"}],"anonymous":false},{"type":"error","name":"CanNotRemoveLastValidator","inputs":[]},{"type":"error","name":"DefaultValidatorAlreadyInstalled","inputs":[]},{"type":"error","name":"EmergencyUninstallSigError","inputs":[]},{"type":"error","name":"EnableModeSigError","inputs":[]},{"type":"error","name":"FallbackAlreadyInstalledForSelector","inputs":[{"name":"selector","type":"bytes4","internalType":"bytes4"}]},{"type":"error","name":"FallbackCallTypeInvalid","inputs":[]},{"type":"error","name":"FallbackHandlerUninstallFailed","inputs":[]},{"type":"error","name":"FallbackNotInstalledForSelector","inputs":[{"name":"selector","type":"bytes4","internalType":"bytes4"}]},{"type":"error","name":"FallbackSelectorForbidden","inputs":[]},{"type":"error","name":"HookAlreadyInstalled","inputs":[{"name":"currentHook","type":"address","internalType":"address"}]},{"type":"error","name":"HookPostCheckFailed","inputs":[]},{"type":"error","name":"InvalidInput","inputs":[]},{"type":"error","name":"InvalidModule","inputs":[{"name":"module","type":"address","internalType":"address"}]},{"type":"error","name":"InvalidModuleTypeId","inputs":[{"name":"moduleTypeId","type":"uint256","internalType":"uint256"}]},{"type":"error","name":"InvalidNonce","inputs":[]},{"type":"error","name":"LinkedList_AlreadyInitialized","inputs":[]},{"type":"error","name":"LinkedList_EntryAlreadyInList","inputs":[{"name":"entry","type":"address","internalType":"address"}]},{"type":"error","name":"LinkedList_InvalidEntry","inputs":[{"name":"entry","type":"address","internalType":"address"}]},{"type":"error","name":"LinkedList_InvalidPage","inputs":[]},{"type":"error","name":"MismatchModuleTypeId","inputs":[]},{"type":"error","name":"MissingFallbackHandler","inputs":[{"name":"selector","type":"bytes4","internalType":"bytes4"}]},{"type":"error","name":"ModuleAddressCanNotBeZero","inputs":[]},{"type":"error","name":"ModuleAlreadyInstalled","inputs":[{"name":"moduleTypeId","type":"uint256","internalType":"uint256"},{"name":"module","type":"address","internalType":"address"}]},{"type":"error","name":"ModuleNotInstalled","inputs":[{"name":"moduleTypeId","type":"uint256","internalType":"uint256"},{"name":"module","type":"address","internalType":"address"}]},{"type":"error","name":"NoValidatorInstalled","inputs":[]},{"type":"error","name":"PrevalidationHookAlreadyInstalled","inputs":[{"name":"currentPreValidationHook","type":"address","internalType":"address"}]},{"type":"error","name":"UnauthorizedOperation","inputs":[{"name":"operator","type":"address","internalType":"address"}]},{"type":"error","name":"UnsupportedCallType","inputs":[{"name":"callType","type":"bytes1","internalType":"CallType"}]},{"type":"error","name":"ValidatorNotInstalled","inputs":[{"name":"module","type":"address","internalType":"address"}]}],"bytecode":{"object":"0x610140604052348015610010575f5ffd5b50604051612abb380380612abb83398101604081905261002f916101f4565b306080524660a0528181606080610083604080518082018252600e81526d04e65787573426f6f7473747261760941b602080830191909152825180840190935260058352640312e322e360dc1b9083015291565b815160209283012081519183019190912060c082905260e0819052604080517f8b73c3c69bb8fe3d512ecc4cf759cc79239f7b179b0ffacaa9a75d522b39400f8152808501939093528281019190915246606083015230608083015260a090912061010052805163ecd0596160e01b81526001600482015290516001600160a01b038716945063ecd059619350602480830193928290030181865afa15801561012e573d5f5f3e3d5ffd5b505050506040513d601f19601f8201168201806040525081019061015291906102c3565b61016f57604051631c4f83bb60e31b815260040160405180910390fd5b6040516306d61fe760e41b81526001600160a01b03831690636d61fe709061019b9084906004016102e9565b5f604051808303815f87803b1580156101b2575f5ffd5b505af11580156101c4573d5f5f3e3d5ffd5b5050506001600160a01b03909216610120525061031e92505050565b634e487b7160e01b5f52604160045260245ffd5b5f5f60408385031215610205575f5ffd5b82516001600160a01b038116811461021b575f5ffd5b60208401519092506001600160401b03811115610236575f5ffd5b8301601f81018513610246575f5ffd5b80516001600160401b0381111561025f5761025f6101e0565b604051601f8201601f19908116603f011681016001600160401b038111828210171561028d5761028d6101e0565b6040528181528282016020018710156102a4575f5ffd5b8160208401602083015e5f602083830101528093505050509250929050565b5f602082840312156102d3575f5ffd5b815180151581146102e2575f5ffd5b9392505050565b602081525f82518060208401528060208501604085015e5f604082850101526040601f19601f83011684010191505092915050565b60805160a05160c05160e051610100516101205161275e61035d5f395f818161072301526111e301525f50505f50505f50505f50505f505061275e5ff3fe6080604052600436106100d5575f3560e01c80637b1039991161007e57806385a924cc1161005857806385a924cc146102a25780639e2533ed146102c1578063d6fe71f1146102e0578063ea5f61d0146102f3576100dc565b80637b10399914610231578063837b892e1461024f57806384b0196e1461027b576100dc565b8063481ddd23116100af578063481ddd231461013f57806355470cf1146101f15780635faac46b14610204576100dc565b806301fe9ff2146100e85780630a664dba146100fb578063310259841461012c576100dc565b366100dc57005b6100e65f36610312565b005b6100e66100f6366004611d89565b61066a565b348015610106575f5ffd5b5061010f6106d5565b6040516001600160a01b0390911681526020015b60405180910390f35b6100e661013a366004611e2d565b61070c565b34801561014a575f5ffd5b506101c9610159366004611e60565b6001600160e01b0319165f9081527f0bb70095b32b9671358306b0339b4c06e7cbd8cb82505941fba30d1eb5b82f0260209081526040918290208251808401909352546001600160a01b038116808452600160a01b90910460f81b6001600160f81b031916929091018290529091565b604080516001600160f81b031990931683526001600160a01b03909116602083015201610123565b6100e66101ff366004611e9d565b61078b565b34801561020f575f5ffd5b5061022361021e366004611f11565b610927565b604051610123929190611f3b565b34801561023c575f5ffd5b505f5461010f906001600160a01b031681565b34801561025a575f5ffd5b5061026e610269366004611f9a565b610960565b6040516101239190612055565b348015610286575f5ffd5b5061028f6109f5565b6040516101239796959493929190612067565b3480156102ad575f5ffd5b5061026e6102bc366004611e9d565b610a9d565b3480156102cc575f5ffd5b5061026e6102db366004612101565b610b26565b6100e66102ee366004612101565b610bbb565b3480156102fe575f5ffd5b5061022361030d366004611f11565b610fa1565b5f80356001600160e01b03191681527f0bb70095b32b9671358306b0339b4c06e7cbd8cb82505941fba30d1eb5b82f02602052604081208054606091906001600160a01b03811690600160a01b900460f81b8115610600575f61039c7f0bb70095b32b9671358306b0339b4c06e7cbd8cb82505941fba30d1eb5b82f03546001600160a01b031690565b905060606001600160a01b0382161561043f576040517fd68f60250000000000000000000000000000000000000000000000000000000081526001600160a01b0383169063d68f6025906103fa90339034905f903690600401612242565b5f604051808303815f875af1158015610415573d5f5f3e3d5ffd5b505050506040513d5f823e601f3d908101601f1916820160405261043c9190810190612288565b90505b61044d83607f60f91b610fcf565b156104bb57836001600160a01b03166104668a8a610fe6565b604051610473919061233b565b5f60405180830381855afa9150503d805f81146104ab576040519150601f19603f3d011682016040523d82523d5f602084013e6104b0565b606091505b509097509550610569565b6104c5835f610fcf565b1561052657836001600160a01b0316346104df8b8b610fe6565b6040516104ec919061233b565b5f6040518083038185875af1925050503d805f81146104ab576040519150601f19603f3d011682016040523d82523d5f602084013e6104b0565b6040517fb96fcfe40000000000000000000000000000000000000000000000000000000081526001600160f81b0319841660048201526024015b60405180910390fd5b8661057657855160208701fd5b6001600160a01b038216156105f8576040517f173bf7da0000000000000000000000000000000000000000000000000000000081526001600160a01b0383169063173bf7da906105ca908490600401612055565b5f604051808303815f87803b1580156105e1575f5ffd5b505af11580156105f3573d5f5f3e3d5ffd5b505050505b855160208701f35b5f3560e01c63150b7a02811463f23a6e61821463bc197c81831417171561062b57806020526020603cf35b6040517f08c63e270000000000000000000000000000000000000000000000000000000081526001600160e01b03195f35166004820152602401610560565b61067261101b565b61067e84848484611071565b610689878787611150565b60408051600181526001600160a01b03891660208201527fd21d0b289f126c4b473ea641963e766833c2f13866e4ff480abd787c100ef12391015b60405180910390a150505050505050565b5f6107077f0bb70095b32b9671358306b0339b4c06e7cbd8cb82505941fba30d1eb5b82f03546001600160a01b031690565b905090565b6040516306d61fe760e41b81526001600160a01b037f00000000000000000000000000000000000000000000000000000000000000001690636d61fe709061075a9085908590600401612351565b5f604051808303815f87803b158015610771575f5ffd5b505af1158015610783573d5f5f3e3d5ffd5b505050505050565b61079361101b565b61079f84848484611071565b5f5b86811015610892576108158888838181106107be576107be61236c565b90506020028101906107d09190612380565b6107de90602081019061239e565b8989848181106107f0576107f061236c565b90506020028101906108029190612380565b6108109060208101906123b9565b611150565b7fd21d0b289f126c4b473ea641963e766833c2f13866e4ff480abd787c100ef123600189898481811061084a5761084a61236c565b905060200281019061085c9190612380565b61086a90602081019061239e565b604080519283526001600160a01b0390911660208301520160405180910390a16001016107a1565b505f6108a1602087018761239e565b6001600160a01b03161461091e576108d16108bf602087018761239e565b6108cc60208801886123b9565b6112d8565b7fd21d0b289f126c4b473ea641963e766833c2f13866e4ff480abd787c100ef1236004610901602088018861239e565b604080519283526001600160a01b039091166020830152016106c4565b50505050505050565b60605f6109557f0bb70095b32b9671358306b0339b4c06e7cbd8cb82505941fba30d1eb5b82f008585611495565b909590945092505050565b606030806301fe9ff261097660208a018a61239e565b61098360208b018b6123b9565b8a8a8a8a60405160240161099d9796959493929190612444565b604051602081830303815290604052915060e01b6020820180516001600160e01b0383818316178352505050506040516020016109db9291906124a0565b604051602081830303815290604052905095945050505050565b7f0f000000000000000000000000000000000000000000000000000000000000006060805f808083610a8b604080518082018252600e81527f4e65787573426f6f7473747261700000000000000000000000000000000000006020808301919091528251808401909352600583527f312e322e300000000000000000000000000000000000000000000000000000009083015291565b97989097965046955030945091925090565b606030306001600160a01b03166355470cf18a8a8a8a8a8a8a604051602401610acc97969594939291906125a2565b604051602081830303815290604052915060e01b6020820180516001600160e01b038381831617835250505050604051602001610b0a9291906124a0565b6040516020818303038152906040529050979650505050505050565b606030306001600160a01b031663d6fe71f18e8e8e8e8e8e8e8e8e8e8e604051602401610b5d9b9a999897969594939291906125eb565b604051602081830303815290604052915060e01b6020820180516001600160e01b038381831617835250505050604051602001610b9b9291906124a0565b60405160208183030381529060405290509b9a5050505050505050505050565b610bc361101b565b610bcf84848484611071565b5f5b8a811015610c9d57610c208c8c83818110610bee57610bee61236c565b9050602002810190610c009190612380565b610c0e90602081019061239e565b8d8d848181106107f0576107f061236c565b7fd21d0b289f126c4b473ea641963e766833c2f13866e4ff480abd787c100ef12360018d8d84818110610c5557610c5561236c565b9050602002810190610c679190612380565b610c7590602081019061239e565b604080519283526001600160a01b0390911660208301520160405180910390a1600101610bd1565b505f5b88811015610dd3575f8a8a83818110610cbb57610cbb61236c565b9050602002810190610ccd9190612380565b610cdb90602081019061239e565b6001600160a01b031614610dcb57610d558a8a83818110610cfe57610cfe61236c565b9050602002810190610d109190612380565b610d1e90602081019061239e565b8b8b84818110610d3057610d3061236c565b9050602002810190610d429190612380565b610d509060208101906123b9565b6114af565b7fd21d0b289f126c4b473ea641963e766833c2f13866e4ff480abd787c100ef12360028b8b84818110610d8a57610d8a61236c565b9050602002810190610d9c9190612380565b610daa90602081019061239e565b604080519283526001600160a01b0390911660208301520160405180910390a15b600101610ca0565b505f610de2602089018961239e565b6001600160a01b031614610e5e57610e0d610e00602089018961239e565b6108cc60208a018a6123b9565b7fd21d0b289f126c4b473ea641963e766833c2f13866e4ff480abd787c100ef1236004610e3d60208a018a61239e565b604080519283526001600160a01b0390911660208301520160405180910390a15b5f5b85811015610f93575f878783818110610e7b57610e7b61236c565b9050602002810190610e8d9190612380565b610e9b90602081019061239e565b6001600160a01b031614610f8b57610f15878783818110610ebe57610ebe61236c565b9050602002810190610ed09190612380565b610ede90602081019061239e565b888884818110610ef057610ef061236c565b9050602002810190610f029190612380565b610f109060208101906123b9565b61156a565b7fd21d0b289f126c4b473ea641963e766833c2f13866e4ff480abd787c100ef1236003888884818110610f4a57610f4a61236c565b9050602002810190610f5c9190612380565b610f6a90602081019061239e565b604080519283526001600160a01b0390911660208301520160405180910390a15b600101610e60565b505050505050505050505050565b60605f6109557f0bb70095b32b9671358306b0339b4c06e7cbd8cb82505941fba30d1eb5b82f018585611495565b6001600160f81b0319828116908216145b92915050565b6060604080513681016020019091529050601436018152365f602083013760408051601481019091523360601b905292915050565b7f0bb70095b32b9671358306b0339b4c06e7cbd8cb82505941fba30d1eb5b82f006110657f0bb70095b32b9671358306b0339b4c06e7cbd8cb82505941fba30d1eb5b82f016118d2565b61106e816118d2565b50565b5f805473ffffffffffffffffffffffffffffffffffffffff19166001600160a01b03861690811790915515611117576040517ff05c04e10000000000000000000000000000000000000000000000000000000081526001600160a01b0385169063f05c04e1906110e99084908790879060040161267a565b5f604051808303815f87803b158015611100575f5ffd5b505af1158015611112573d5f5f3e3d5ffd5b505050505b6040516001600160a01b038516907ff98c8404c5b1bfef2e6ba9233c6e88845aedfd36eea8b192725d8c199571cf32905f90a250505050565b82600161115d8282611953565b60405163ecd0596160e01b8152600160048201526001600160a01b0386169063ecd0596190602401602060405180830381865afa1580156111a0573d5f5f3e3d5ffd5b505050506040513d601f19601f820116820180604052508101906111c49190612696565b6111e157604051631c4f83bb60e31b815260040160405180910390fd5b7f00000000000000000000000000000000000000000000000000000000000000006001600160a01b0316856001600160a01b03160361124c576040517fabc3af7900000000000000000000000000000000000000000000000000000000815260040160405180910390fd5b6112767f0bb70095b32b9671358306b0339b4c06e7cbd8cb82505941fba30d1eb5b82f00866119da565b6040516306d61fe760e41b81526001600160a01b03861690636d61fe70906112a49087908790600401612351565b5f604051808303815f87803b1580156112bb575f5ffd5b505af11580156112cd573d5f5f3e3d5ffd5b505050505050505050565b8260046112e58282611953565b60405163ecd0596160e01b81526004808201526001600160a01b0386169063ecd0596190602401602060405180830381865afa158015611327573d5f5f3e3d5ffd5b505050506040513d601f19601f8201168201806040525081019061134b9190612696565b61136857604051631c4f83bb60e31b815260040160405180910390fd5b5f61139a7f0bb70095b32b9671358306b0339b4c06e7cbd8cb82505941fba30d1eb5b82f03546001600160a01b031690565b9050806001600160a01b038116156113ea576040517f741cbe030000000000000000000000000000000000000000000000000000000081526001600160a01b039091166004820152602401610560565b507f0bb70095b32b9671358306b0339b4c06e7cbd8cb82505941fba30d1eb5b82f03805473ffffffffffffffffffffffffffffffffffffffff19166001600160a01b0388161790556040516306d61fe760e41b81526001600160a01b03871690636d61fe70906114609088908890600401612351565b5f604051808303815f87803b158015611477575f5ffd5b505af1158015611489573d5f5f3e3d5ffd5b50505050505050505050565b60605f6114a3858585611ad4565b90969095509350505050565b8260026114bc8282611953565b60405163ecd0596160e01b8152600260048201526001600160a01b0386169063ecd0596190602401602060405180830381865afa1580156114ff573d5f5f3e3d5ffd5b505050506040513d601f19601f820116820180604052508101906115239190612696565b61154057604051631c4f83bb60e31b815260040160405180910390fd5b6112767f0bb70095b32b9671358306b0339b4c06e7cbd8cb82505941fba30d1eb5b82f01866119da565b8260036115778282611953565b60405163ecd0596160e01b8152600360048201526001600160a01b0386169063ecd0596190602401602060405180830381865afa1580156115ba573d5f5f3e3d5ffd5b505050506040513d601f19601f820116820180604052508101906115de9190612696565b6115fb57604051631c4f83bb60e31b815260040160405180910390fd5b5f61160960048286886126b5565b611612916126dc565b90505f858560048181106116285761162861236c565b9050013560f81c60f81b9050611641815f60f81b610fcf565b80611655575061165581607f60f91b610fcf565b61168b576040517f867a1dcf00000000000000000000000000000000000000000000000000000000815260040160405180910390fd5b5f611699866005818a6126b5565b8080601f0160208091040260200160405190810160405280939291908181526020018383808284375f920191909152509293505050506001600160e01b031983166306d61fe760e41b148061171757506001600160e01b031983167f8a91b0e300000000000000000000000000000000000000000000000000000000145b8061172a57506001600160e01b03198316155b15611761576040517fc001660b00000000000000000000000000000000000000000000000000000000815260040160405180910390fd5b6001600160e01b031983165f9081527f0bb70095b32b9671358306b0339b4c06e7cbd8cb82505941fba30d1eb5b82f02602052604090205483906001600160a01b0316156117e8576040517fa56a04dd0000000000000000000000000000000000000000000000000000000081526001600160e01b03199091166004820152602401610560565b506040805180820182526001600160a01b038a81168083526001600160f81b0319861660208085019182526001600160e01b031989165f9081527f0bb70095b32b9671358306b0339b4c06e7cbd8cb82505941fba30d1eb5b82f0290915285902093518454915160f81c600160a01b027fffffffffffffffffffffff0000000000000000000000000000000000000000009092169316929092179190911790915590516306d61fe760e41b8152636d61fe70906118a9908490600401612055565b5f604051808303815f87803b1580156118c0575f5ffd5b505af1158015610f93573d5f5f3e3d5ffd5b60015f908152602082905260409020546001600160a01b031615611922576040517f53c85e6600000000000000000000000000000000000000000000000000000000815260040160405180910390fd5b60015f8181526020929092526040909120805473ffffffffffffffffffffffffffffffffffffffff19169091179055565b5f546001600160a01b031680156119d5576040517f96fb72170000000000000000000000000000000000000000000000000000000081526001600160a01b038481166004830152602482018490528216906396fb7217906044015f6040518083038186803b1580156119c3575f5ffd5b505afa15801561091e573d5f5f3e3d5ffd5b505050565b6001600160a01b03811615806119f957506001600160a01b0381166001145b15611a2257604051637c84ecfb60e01b81526001600160a01b0382166004820152602401610560565b6001600160a01b038181165f908152602084905260409020541615611a7e576040517f40d3d1a40000000000000000000000000000000000000000000000000000000081526001600160a01b0382166004820152602401610560565b60015f818152602093909352604080842080546001600160a01b0394851680875292862080549590911673ffffffffffffffffffffffffffffffffffffffff199586161790559190935280549091169091179055565b60605f6001600160a01b038416600114801590611af85750611af68585611c95565b155b15611b2157604051637c84ecfb60e01b81526001600160a01b0385166004820152602401610560565b825f03611b5a576040517ff725081700000000000000000000000000000000000000000000000000000000815260040160405180910390fd5b8267ffffffffffffffff811115611b7357611b73612274565b604051908082528060200260200182016040528015611b9c578160200160208202803683370190505b506001600160a01b038086165f90815260208890526040812054929450911691505b6001600160a01b03821615801590611be057506001600160a01b038216600114155b8015611beb57508381105b15611c445781838281518110611c0357611c0361236c565b6001600160a01b039283166020918202929092018101919091529281165f908152928790526040909220549091169080611c3c81612726565b915050611bbe565b6001600160a01b038216600114801590611c5d57505f81115b15611c895782611c6e60018361273e565b81518110611c7e57611c7e61236c565b602002602001015191505b80835250935093915050565b5f60016001600160a01b03831614801590611cc857506001600160a01b038281165f908152602085905260409020541615155b9392505050565b6001600160a01b038116811461106e575f5ffd5b5f5f83601f840112611cf3575f5ffd5b50813567ffffffffffffffff811115611d0a575f5ffd5b602083019150836020828501011115611d21575f5ffd5b9250929050565b8035611d3381611ccf565b919050565b5f5f83601f840112611d48575f5ffd5b50813567ffffffffffffffff811115611d5f575f5ffd5b6020830191508360208260051b8501011115611d21575f5ffd5b803560ff81168114611d33575f5ffd5b5f5f5f5f5f5f5f60a0888a031215611d9f575f5ffd5b8735611daa81611ccf565b9650602088013567ffffffffffffffff811115611dc5575f5ffd5b611dd18a828b01611ce3565b9097509550506040880135611de581611ccf565b9350606088013567ffffffffffffffff811115611e00575f5ffd5b611e0c8a828b01611d38565b9094509250611e1f905060808901611d79565b905092959891949750929550565b5f5f60208385031215611e3e575f5ffd5b823567ffffffffffffffff811115611e54575f5ffd5b6114a385828601611ce3565b5f60208284031215611e70575f5ffd5b81356001600160e01b031981168114611cc8575f5ffd5b5f60408284031215611e97575f5ffd5b50919050565b5f5f5f5f5f5f5f60a0888a031215611eb3575f5ffd5b873567ffffffffffffffff811115611ec9575f5ffd5b611ed58a828b01611d38565b909850965050602088013567ffffffffffffffff811115611ef4575f5ffd5b611f008a828b01611e87565b9550506040880135611de581611ccf565b5f5f60408385031215611f22575f5ffd5b8235611f2d81611ccf565b946020939093013593505050565b604080825283519082018190525f9060208501906060840190835b81811015611f7d5783516001600160a01b0316835260209384019390920191600101611f56565b505080925050506001600160a01b03831660208301529392505050565b5f5f5f5f5f60808688031215611fae575f5ffd5b853567ffffffffffffffff811115611fc4575f5ffd5b611fd088828901611e87565b9550506020860135611fe181611ccf565b9350604086013567ffffffffffffffff811115611ffc575f5ffd5b61200888828901611d38565b909450925061201b905060608701611d79565b90509295509295909350565b5f81518084528060208401602086015e5f602082860101526020601f19601f83011685010191505092915050565b602081525f611cc86020830184612027565b6001600160f81b03198816815260e060208201525f61208960e0830189612027565b828103604084015261209b8189612027565b606084018890526001600160a01b038716608085015260a0840186905283810360c0850152845180825260208087019350909101905f5b818110156120f05783518352602093840193909201916001016120d2565b50909b9a5050505050505050505050565b5f5f5f5f5f5f5f5f5f5f5f60e08c8e03121561211b575f5ffd5b8b3567ffffffffffffffff811115612131575f5ffd5b61213d8e828f01611d38565b909c509a505060208c013567ffffffffffffffff81111561215c575f5ffd5b6121688e828f01611d38565b909a5098505060408c013567ffffffffffffffff811115612187575f5ffd5b6121938e828f01611e87565b97505060608c013567ffffffffffffffff8111156121af575f5ffd5b6121bb8e828f01611d38565b90975095506121ce905060808d01611d28565b935060a08c013567ffffffffffffffff8111156121e9575f5ffd5b6121f58e828f01611d38565b9094509250612208905060c08d01611d79565b90509295989b509295989b9093969950565b81835281816020850137505f828201602090810191909152601f909101601f19169091010190565b6001600160a01b0385168152836020820152606060408201525f61226a60608301848661221a565b9695505050505050565b634e487b7160e01b5f52604160045260245ffd5b5f60208284031215612298575f5ffd5b815167ffffffffffffffff8111156122ae575f5ffd5b8201601f810184136122be575f5ffd5b805167ffffffffffffffff8111156122d8576122d8612274565b604051601f8201601f19908116603f0116810167ffffffffffffffff8111828210171561230757612307612274565b60405281815282820160200186101561231e575f5ffd5b8160208401602083015e5f91810160200191909152949350505050565b5f82518060208501845e5f920191825250919050565b602081525f61236460208301848661221a565b949350505050565b634e487b7160e01b5f52603260045260245ffd5b5f8235603e19833603018112612394575f5ffd5b9190910192915050565b5f602082840312156123ae575f5ffd5b8135611cc881611ccf565b5f5f8335601e198436030181126123ce575f5ffd5b83018035915067ffffffffffffffff8211156123e8575f5ffd5b602001915036819003821315611d21575f5ffd5b8183526020830192505f815f5b8481101561243a57813561241c81611ccf565b6001600160a01b031686526020958601959190910190600101612409565b5093949350505050565b6001600160a01b038816815260a060208201525f61246660a08301888a61221a565b6001600160a01b038716604084015282810360608401526124888186886123fc565b91505060ff8316608083015298975050505050505050565b6001600160a01b0383168152604060208201525f6123646040830184612027565b5f81356124cd81611ccf565b6001600160a01b03168352602082013536839003601e190181126124ef575f5ffd5b820160208101903567ffffffffffffffff81111561250b575f5ffd5b803603821315612519575f5ffd5b6040602086015261252e60408601828461221a565b95945050505050565b5f8383855260208501945060208460051b820101835f5b8681101561259657838303601f19018852813536879003603e19018112612573575f5ffd5b61257f848883016124c1565b6020998a019990945092909201915060010161254e565b50909695505050505050565b60a081525f6125b560a08301898b612537565b82810360208401526125c781896124c1565b90506001600160a01b038716604084015282810360608401526124888186886123fc565b60e081525f6125fe60e083018d8f612537565b8281036020840152612611818c8e612537565b90508281036040840152612625818b6124c1565b9050828103606084015261263a81898b612537565b90506001600160a01b038716608084015282810360a084015261265e8186886123fc565b91505060ff831660c08301529c9b505050505050505050505050565b60ff84168152604060208201525f61252e6040830184866123fc565b5f602082840312156126a6575f5ffd5b81518015158114611cc8575f5ffd5b5f5f858511156126c3575f5ffd5b838611156126cf575f5ffd5b5050820193919092039150565b80356001600160e01b0319811690600484101561270b576001600160e01b0319808560040360031b1b82161691505b5092915050565b634e487b7160e01b5f52601160045260245ffd5b5f6001820161273757612737612712565b5060010190565b81810381811115610fe057610fe061271256fea164736f6c634300081b000a","linkReferences":{}},"methodIdentifiers":{"eip712Domain()":"84b0196e","getActiveHook()":"0a664dba","getExecutorsPaginated(address,uint256)":"ea5f61d0","getFallbackHandlerBySelector(bytes4)":"481ddd23","getInitNexusCalldata((address,bytes)[],(address,bytes)[],(address,bytes),(address,bytes)[],address,address[],uint8)":"9e2533ed","getInitNexusScopedCalldata((address,bytes)[],(address,bytes),address,address[],uint8)":"85a924cc","getInitNexusWithSingleValidatorCalldata((address,bytes),address,address[],uint8)":"837b892e","getValidatorsPaginated(address,uint256)":"5faac46b","initNexus((address,bytes)[],(address,bytes)[],(address,bytes),(address,bytes)[],address,address[],uint8)":"d6fe71f1","initNexusScoped((address,bytes)[],(address,bytes),address,address[],uint8)":"55470cf1","initNexusWithDefaultValidator(bytes)":"31025984","initNexusWithSingleValidator(address,bytes,address,address[],uint8)":"01fe9ff2","registry()":"7b103999"},"id":72}