{"abi":[{"type":"constructor","inputs":[{"name":"defaultValidator","type":"address","internalType":"address"},{"name":"initData","type":"bytes","internalType":"bytes"}],"stateMutability":"nonpayable"},{"type":"fallback","stateMutability":"payable"},{"type":"receive","stateMutability":"payable"},{"type":"function","name":"eip712Domain","inputs":[],"outputs":[{"name":"fields","type":"bytes1","internalType":"bytes1"},{"name":"name","type":"string","internalType":"string"},{"name":"version","type":"string","internalType":"string"},{"name":"chainId","type":"uint256","internalType":"uint256"},{"name":"verifyingContract","type":"address","internalType":"address"},{"name":"salt","type":"bytes32","internalType":"bytes32"},{"name":"extensions","type":"uint256[]","internalType":"uint256[]"}],"stateMutability":"view"},{"type":"function","name":"getActiveHook","inputs":[],"outputs":[{"name":"hook","type":"address","internalType":"address"}],"stateMutability":"view"},{"type":"function","name":"getExecutorsPaginated","inputs":[{"name":"cursor","type":"address","internalType":"address"},{"name":"size","type":"uint256","internalType":"uint256"}],"outputs":[{"name":"array","type":"address[]","internalType":"address[]"},{"name":"next","type":"address","internalType":"address"}],"stateMutability":"view"},{"type":"function","name":"getFallbackHandlerBySelector","inputs":[{"name":"selector","type":"bytes4","internalType":"bytes4"}],"outputs":[{"name":"","type":"bytes1","internalType":"CallType"},{"name":"","type":"address","internalType":"address"}],"stateMutability":"view"},{"type":"function","name":"getInitNexusCalldata","inputs":[{"name":"validators","type":"tuple[]","internalType":"struct BootstrapConfig[]","components":[{"name":"module","type":"address","internalType":"address"},{"name":"data","type":"bytes","internalType":"bytes"}]},{"name":"executors","type":"tuple[]","internalType":"struct BootstrapConfig[]","components":[{"name":"module","type":"address","internalType":"address"},{"name":"data","type":"bytes","internalType":"bytes"}]},{"name":"hook","type":"tuple","internalType":"struct BootstrapConfig","components":[{"name":"module","type":"address","internalType":"address"},{"name":"data","type":"bytes","internalType":"bytes"}]},{"name":"fallbacks","type":"tuple[]","internalType":"struct BootstrapConfig[]","components":[{"name":"module","type":"address","internalType":"address"},{"name":"data","type":"bytes","internalType":"bytes"}]},{"name":"registry","type":"address","internalType":"contract IERC7484"},{"name":"attesters","type":"address[]","internalType":"address[]"},{"name":"threshold","type":"uint8","internalType":"uint8"}],"outputs":[{"name":"init","type":"bytes","internalType":"bytes"}],"stateMutability":"view"},{"type":"function","name":"getInitNexusScopedCalldata","inputs":[{"name":"validators","type":"tuple[]","internalType":"struct BootstrapConfig[]","components":[{"name":"module","type":"address","internalType":"address"},{"name":"data","type":"bytes","internalType":"bytes"}]},{"name":"hook","type":"tuple","internalType":"struct BootstrapConfig","components":[{"name":"module","type":"address","internalType":"address"},{"name":"data","type":"bytes","internalType":"bytes"}]},{"name":"registry","type":"address","internalType":"contract IERC7484"},{"name":"attesters","type":"address[]","internalType":"address[]"},{"name":"threshold","type":"uint8","internalType":"uint8"}],"outputs":[{"name":"init","type":"bytes","internalType":"bytes"}],"stateMutability":"view"},{"type":"function","name":"getInitNexusWithSingleValidatorCalldata","inputs":[{"name":"validator","type":"tuple","internalType":"struct BootstrapConfig","components":[{"name":"module","type":"address","internalType":"address"},{"name":"data","type":"bytes","internalType":"bytes"}]},{"name":"registry","type":"address","internalType":"contract IERC7484"},{"name":"attesters","type":"address[]","internalType":"address[]"},{"name":"threshold","type":"uint8","internalType":"uint8"}],"outputs":[{"name":"init","type":"bytes","internalType":"bytes"}],"stateMutability":"view"},{"type":"function","name":"getValidatorsPaginated","inputs":[{"name":"cursor","type":"address","internalType":"address"},{"name":"size","type":"uint256","internalType":"uint256"}],"outputs":[{"name":"array","type":"address[]","internalType":"address[]"},{"name":"next","type":"address","internalType":"address"}],"stateMutability":"view"},{"type":"function","name":"initNexus","inputs":[{"name":"validators","type":"tuple[]","internalType":"struct BootstrapConfig[]","components":[{"name":"module","type":"address","internalType":"address"},{"name":"data","type":"bytes","internalType":"bytes"}]},{"name":"executors","type":"tuple[]","internalType":"struct BootstrapConfig[]","components":[{"name":"module","type":"address","internalType":"address"},{"name":"data","type":"bytes","internalType":"bytes"}]},{"name":"hook","type":"tuple","internalType":"struct BootstrapConfig","components":[{"name":"module","type":"address","internalType":"address"},{"name":"data","type":"bytes","internalType":"bytes"}]},{"name":"fallbacks","type":"tuple[]","internalType":"struct BootstrapConfig[]","components":[{"name":"module","type":"address","internalType":"address"},{"name":"data","type":"bytes","internalType":"bytes"}]},{"name":"registry","type":"address","internalType":"contract IERC7484"},{"name":"attesters","type":"address[]","internalType":"address[]"},{"name":"threshold","type":"uint8","internalType":"uint8"}],"outputs":[],"stateMutability":"payable"},{"type":"function","name":"initNexusNoRegistry","inputs":[{"name":"validators","type":"tuple[]","internalType":"struct BootstrapConfig[]","components":[{"name":"module","type":"address","internalType":"address"},{"name":"data","type":"bytes","internalType":"bytes"}]},{"name":"executors","type":"tuple[]","internalType":"struct BootstrapConfig[]","components":[{"name":"module","type":"address","internalType":"address"},{"name":"data","type":"bytes","internalType":"bytes"}]},{"name":"hook","type":"tuple","internalType":"struct BootstrapConfig","components":[{"name":"module","type":"address","internalType":"address"},{"name":"data","type":"bytes","internalType":"bytes"}]},{"name":"fallbacks","type":"tuple[]","internalType":"struct BootstrapConfig[]","components":[{"name":"module","type":"address","internalType":"address"},{"name":"data","type":"bytes","internalType":"bytes"}]}],"outputs":[],"stateMutability":"payable"},{"type":"function","name":"initNexusScoped","inputs":[{"name":"validators","type":"tuple[]","internalType":"struct BootstrapConfig[]","components":[{"name":"module","type":"address","internalType":"address"},{"name":"data","type":"bytes","internalType":"bytes"}]},{"name":"hook","type":"tuple","internalType":"struct BootstrapConfig","components":[{"name":"module","type":"address","internalType":"address"},{"name":"data","type":"bytes","internalType":"bytes"}]},{"name":"registry","type":"address","internalType":"contract IERC7484"},{"name":"attesters","type":"address[]","internalType":"address[]"},{"name":"threshold","type":"uint8","internalType":"uint8"}],"outputs":[],"stateMutability":"payable"},{"type":"function","name":"initNexusScopedNoRegistry","inputs":[{"name":"validators","type":"tuple[]","internalType":"struct BootstrapConfig[]","components":[{"name":"module","type":"address","internalType":"address"},{"name":"data","type":"bytes","internalType":"bytes"}]},{"name":"hook","type":"tuple","internalType":"struct BootstrapConfig","components":[{"name":"module","type":"address","internalType":"address"},{"name":"data","type":"bytes","internalType":"bytes"}]}],"outputs":[],"stateMutability":"payable"},{"type":"function","name":"initNexusWithDefaultValidator","inputs":[{"name":"data","type":"bytes","internalType":"bytes"}],"outputs":[],"stateMutability":"payable"},{"type":"function","name":"initNexusWithDefaultValidatorAndOtherModules","inputs":[{"name":"defaultValidatorInitData","type":"bytes","internalType":"bytes"},{"name":"executors","type":"tuple[]","internalType":"struct BootstrapConfig[]","components":[{"name":"module","type":"address","internalType":"address"},{"name":"data","type":"bytes","internalType":"bytes"}]},{"name":"hook","type":"tuple","internalType":"struct BootstrapConfig","components":[{"name":"module","type":"address","internalType":"address"},{"name":"data","type":"bytes","internalType":"bytes"}]},{"name":"fallbacks","type":"tuple[]","internalType":"struct BootstrapConfig[]","components":[{"name":"module","type":"address","internalType":"address"},{"name":"data","type":"bytes","internalType":"bytes"}]},{"name":"registry","type":"address","internalType":"contract IERC7484"},{"name":"attesters","type":"address[]","internalType":"address[]"},{"name":"threshold","type":"uint8","internalType":"uint8"}],"outputs":[],"stateMutability":"payable"},{"type":"function","name":"initNexusWithDefaultValidatorAndOtherModulesNoRegistry","inputs":[{"name":"defaultValidatorInitData","type":"bytes","internalType":"bytes"},{"name":"executors","type":"tuple[]","internalType":"struct BootstrapConfig[]","components":[{"name":"module","type":"address","internalType":"address"},{"name":"data","type":"bytes","internalType":"bytes"}]},{"name":"hook","type":"tuple","internalType":"struct BootstrapConfig","components":[{"name":"module","type":"address","internalType":"address"},{"name":"data","type":"bytes","internalType":"bytes"}]},{"name":"fallbacks","type":"tuple[]","internalType":"struct BootstrapConfig[]","components":[{"name":"module","type":"address","internalType":"address"},{"name":"data","type":"bytes","internalType":"bytes"}]}],"outputs":[],"stateMutability":"payable"},{"type":"function","name":"initNexusWithSingleValidator","inputs":[{"name":"validator","type":"address","internalType":"contract IModule"},{"name":"data","type":"bytes","internalType":"bytes"},{"name":"registry","type":"address","internalType":"contract IERC7484"},{"name":"attesters","type":"address[]","internalType":"address[]"},{"name":"threshold","type":"uint8","internalType":"uint8"}],"outputs":[],"stateMutability":"payable"},{"type":"function","name":"initNexusWithSingleValidatorNoRegistry","inputs":[{"name":"validator","type":"address","internalType":"contract IModule"},{"name":"data","type":"bytes","internalType":"bytes"}],"outputs":[],"stateMutability":"payable"},{"type":"function","name":"registry","inputs":[],"outputs":[{"name":"","type":"address","internalType":"contract IERC7484"}],"stateMutability":"view"},{"type":"event","name":"ERC7484RegistryConfigured","inputs":[{"name":"registry","type":"address","indexed":true,"internalType":"contract IERC7484"}],"anonymous":false},{"type":"event","name":"ModuleInstalled","inputs":[{"name":"moduleTypeId","type":"uint256","indexed":false,"internalType":"uint256"},{"name":"module","type":"address","indexed":false,"internalType":"address"}],"anonymous":false},{"type":"event","name":"ModuleUninstalled","inputs":[{"name":"moduleTypeId","type":"uint256","indexed":false,"internalType":"uint256"},{"name":"module","type":"address","indexed":false,"internalType":"address"}],"anonymous":false},{"type":"error","name":"CanNotRemoveLastValidator","inputs":[]},{"type":"error","name":"DefaultValidatorAlreadyInstalled","inputs":[]},{"type":"error","name":"EmergencyUninstallSigError","inputs":[]},{"type":"error","name":"EnableModeSigError","inputs":[]},{"type":"error","name":"FallbackAlreadyInstalledForSelector","inputs":[{"name":"selector","type":"bytes4","internalType":"bytes4"}]},{"type":"error","name":"FallbackCallTypeInvalid","inputs":[]},{"type":"error","name":"FallbackHandlerUninstallFailed","inputs":[]},{"type":"error","name":"FallbackNotInstalledForSelector","inputs":[{"name":"selector","type":"bytes4","internalType":"bytes4"}]},{"type":"error","name":"FallbackSelectorForbidden","inputs":[]},{"type":"error","name":"HookAlreadyInstalled","inputs":[{"name":"currentHook","type":"address","internalType":"address"}]},{"type":"error","name":"HookPostCheckFailed","inputs":[]},{"type":"error","name":"InvalidInput","inputs":[]},{"type":"error","name":"InvalidModule","inputs":[{"name":"module","type":"address","internalType":"address"}]},{"type":"error","name":"InvalidModuleTypeId","inputs":[{"name":"moduleTypeId","type":"uint256","internalType":"uint256"}]},{"type":"error","name":"InvalidNonce","inputs":[]},{"type":"error","name":"LinkedList_AlreadyInitialized","inputs":[]},{"type":"error","name":"LinkedList_EntryAlreadyInList","inputs":[{"name":"entry","type":"address","internalType":"address"}]},{"type":"error","name":"LinkedList_InvalidEntry","inputs":[{"name":"entry","type":"address","internalType":"address"}]},{"type":"error","name":"LinkedList_InvalidPage","inputs":[]},{"type":"error","name":"MismatchModuleTypeId","inputs":[]},{"type":"error","name":"MissingFallbackHandler","inputs":[{"name":"selector","type":"bytes4","internalType":"bytes4"}]},{"type":"error","name":"ModuleAddressCanNotBeZero","inputs":[]},{"type":"error","name":"ModuleAlreadyInstalled","inputs":[{"name":"moduleTypeId","type":"uint256","internalType":"uint256"},{"name":"module","type":"address","internalType":"address"}]},{"type":"error","name":"ModuleNotInstalled","inputs":[{"name":"moduleTypeId","type":"uint256","internalType":"uint256"},{"name":"module","type":"address","internalType":"address"}]},{"type":"error","name":"NoValidatorInstalled","inputs":[]},{"type":"error","name":"PrevalidationHookAlreadyInstalled","inputs":[{"name":"currentPreValidationHook","type":"address","internalType":"address"}]},{"type":"error","name":"UnauthorizedOperation","inputs":[{"name":"operator","type":"address","internalType":"address"}]},{"type":"error","name":"UnsupportedCallType","inputs":[{"name":"callType","type":"bytes1","internalType":"CallType"}]},{"type":"error","name":"ValidatorNotInstalled","inputs":[{"name":"module","type":"address","internalType":"address"}]}],"bytecode":{"object":"0x610140604052348015610010575f5ffd5b5060405161320138038061320183398101604081905261002f916101f4565b306080524660a0528181606080610083604080518082018252600e81526d04e65787573426f6f7473747261760941b602080830191909152825180840190935260058352640312e322e360dc1b9083015291565b815160209283012081519183019190912060c082905260e0819052604080517f8b73c3c69bb8fe3d512ecc4cf759cc79239f7b179b0ffacaa9a75d522b39400f8152808501939093528281019190915246606083015230608083015260a090912061010052805163ecd0596160e01b81526001600482015290516001600160a01b038716945063ecd059619350602480830193928290030181865afa15801561012e573d5f5f3e3d5ffd5b505050506040513d601f19601f8201168201806040525081019061015291906102c3565b61016f57604051631c4f83bb60e31b815260040160405180910390fd5b6040516306d61fe760e41b81526001600160a01b03831690636d61fe709061019b9084906004016102e9565b5f604051808303815f87803b1580156101b2575f5ffd5b505af11580156101c4573d5f5f3e3d5ffd5b5050506001600160a01b03909216610120525061031e92505050565b634e487b7160e01b5f52604160045260245ffd5b5f5f60408385031215610205575f5ffd5b82516001600160a01b038116811461021b575f5ffd5b60208401519092506001600160401b03811115610236575f5ffd5b8301601f81018513610246575f5ffd5b80516001600160401b0381111561025f5761025f6101e0565b604051601f8201601f19908116603f011681016001600160401b038111828210171561028d5761028d6101e0565b6040528181528282016020018710156102a4575f5ffd5b8160208401602083015e5f602083830101528093505050509250929050565b5f602082840312156102d3575f5ffd5b815180151581146102e2575f5ffd5b9392505050565b602081525f82518060208401528060208501604085015e5f604082850101526040601f19601f83011684010191505092915050565b60805160a05160c05160e0516101005161012051612e9d6103645f395f81816107a801528181610d0e015261164a01525f50505f50505f50505f50505f5050612e9d5ff3fe60806040526004361061012c575f3560e01c80637b103999116100a457806385a924cc11610073578063d6fe71f111610058578063d6fe71f114610383578063ea5f61d014610396578063f27ea725146103b557610133565b806385a924cc146103455780639e2533ed1461036457610133565b80637b103999146102c1578063835ed2c4146102df578063837b892e146102f257806384b0196e1461031e57610133565b806345808b17116100fb57806354ed06d5116100e057806354ed06d51461026e57806355470cf1146102815780635faac46b1461029457610133565b806345808b17146101a9578063481ddd23146101bc57610133565b806301fe9ff21461013f5780630a664dba1461015257806310b7fca914610183578063310259841461019657610133565b3661013357005b61013d5f366103c8565b005b61013d61014d3660046121e3565b610720565b34801561015d575f5ffd5b50610166610736565b6040516001600160a01b0390911681526020015b60405180910390f35b61013d6101913660046122fc565b61076d565b61013d6101a436600461234d565b610791565b61013d6101b73660046123d7565b610808565b3480156101c7575f5ffd5b506102466101d63660046124f0565b6001600160e01b0319165f9081527f0bb70095b32b9671358306b0339b4c06e7cbd8cb82505941fba30d1eb5b82f0260209081526040918290208251808401909352546001600160a01b038116808452600160a01b90910460f81b6001600160f81b031916929091018290529091565b604080516001600160f81b031990931683526001600160a01b0390911660208301520161017a565b61013d61027c366004612517565b61085a565b61013d61028f366004612580565b610879565b34801561029f575f5ffd5b506102b36102ae36600461263c565b6108c3565b60405161017a9291906126a9565b3480156102cc575f5ffd5b505f54610166906001600160a01b031681565b61013d6102ed3660046126d3565b6108fc565b3480156102fd575f5ffd5b5061031161030c36600461279c565b610938565b60405161017a9190612857565b348015610329575f5ffd5b506103326109cd565b60405161017a9796959493929190612869565b348015610350575f5ffd5b5061031161035f366004612580565b610a75565b34801561036f575f5ffd5b5061031161037e366004612903565b610afe565b61013d610391366004612903565b610b93565b3480156103a1575f5ffd5b506102b36103b036600461263c565b610bd8565b61013d6103c336600461293f565b610c06565b5f80356001600160e01b03191681527f0bb70095b32b9671358306b0339b4c06e7cbd8cb82505941fba30d1eb5b82f02602052604081208054606091906001600160a01b03811690600160a01b900460f81b81156106b6575f6104527f0bb70095b32b9671358306b0339b4c06e7cbd8cb82505941fba30d1eb5b82f03546001600160a01b031690565b905060606001600160a01b038216156104f5576040517fd68f60250000000000000000000000000000000000000000000000000000000081526001600160a01b0383169063d68f6025906104b090339034905f90369060040161299f565b5f604051808303815f875af11580156104cb573d5f5f3e3d5ffd5b505050506040513d5f823e601f3d908101601f191682016040526104f291908101906129d1565b90505b61050383607f60f91b610c42565b1561057157836001600160a01b031661051c8a8a610c59565b6040516105299190612a65565b5f60405180830381855afa9150503d805f8114610561576040519150601f19603f3d011682016040523d82523d5f602084013e610566565b606091505b50909750955061061f565b61057b835f610c42565b156105dc57836001600160a01b0316346105958b8b610c59565b6040516105a29190612a65565b5f6040518083038185875af1925050503d805f8114610561576040519150601f19603f3d011682016040523d82523d5f602084013e610566565b6040517fb96fcfe40000000000000000000000000000000000000000000000000000000081526001600160f81b0319841660048201526024015b60405180910390fd5b8661062c57855160208701fd5b6001600160a01b038216156106ae576040517f173bf7da0000000000000000000000000000000000000000000000000000000081526001600160a01b0383169063173bf7da90610680908490600401612857565b5f604051808303815f87803b158015610697575f5ffd5b505af11580156106a9573d5f5f3e3d5ffd5b505050505b855160208701f35b5f3560e01c63150b7a02811463f23a6e61821463bc197c8183141717156106e157806020526020603cf35b6040517f08c63e270000000000000000000000000000000000000000000000000000000081526001600160e01b03195f35166004820152602401610616565b61072e868686868686610c8e565b505050505050565b5f6107687f0bb70095b32b9671358306b0339b4c06e7cbd8cb82505941fba30d1eb5b82f03546001600160a01b031690565b905090565b604080515f8082526020820190925261078c918591859185915f610c8e565b505050565b6040516306d61fe760e41b81526001600160a01b037f00000000000000000000000000000000000000000000000000000000000000001690636d61fe70906107df9085908590600401612a7b565b5f604051808303815f87803b1580156107f6575f5ffd5b505af115801561072e573d5f5f3e3d5ffd5b61084d8b8b8b8b8b8b8b8b8b8b808060200260200160405190810160405280939291908181526020018383602002808284375f920191909152508d9250610ce4915050565b5050505050505050505050565b604080515f8082526020820190925261078c918591859185915f611034565b6108ba878787878787808060200260200160405190810160405280939291908181526020018383602002808284375f92019190915250899250611034915050565b50505050505050565b60605f6108f17f0bb70095b32b9671358306b0339b4c06e7cbd8cb82505941fba30d1eb5b82f00858561119b565b909590945092505050565b6108ba878787878787875f80604051908082528060200260200182016040528015610931578160200160208202803683370190505b505f6111b5565b606030806301fe9ff261094e60208a018a612a96565b61095b60208b018b612ab1565b8a8a8a8a6040516024016109759796959493929190612b32565b604051602081830303815290604052915060e01b6020820180516001600160e01b0383818316178352505050506040516020016109b3929190612b8e565b604051602081830303815290604052905095945050505050565b7f0f000000000000000000000000000000000000000000000000000000000000006060805f808083610a63604080518082018252600e81527f4e65787573426f6f7473747261700000000000000000000000000000000000006020808301919091528251808401909352600583527f312e322e300000000000000000000000000000000000000000000000000000009083015291565b97989097965046955030945091925090565b606030306001600160a01b03166355470cf18a8a8a8a8a8a8a604051602401610aa49796959493929190612c90565b604051602081830303815290604052915060e01b6020820180516001600160e01b038381831617835250505050604051602001610ae2929190612b8e565b6040516020818303038152906040529050979650505050505050565b606030306001600160a01b031663d6fe71f18e8e8e8e8e8e8e8e8e8e8e604051602401610b359b9a99989796959493929190612cd9565b604051602081830303815290604052915060e01b6020820180516001600160e01b038381831617835250505050604051602001610b73929190612b8e565b60405160208183030381529060405290509b9a5050505050505050505050565b61084d8b8b8b8b8b8b8b8b8b8b808060200260200160405190810160405280939291908181526020018383602002808284375f920191909152508d92506111b5915050565b60605f6108f17f0bb70095b32b9671358306b0339b4c06e7cbd8cb82505941fba30d1eb5b82f01858561119b565b6108ba878787878787875f80604051908082528060200260200182016040528015610c3b578160200160208202803683370190505b505f610ce4565b6001600160f81b0319828116908216145b92915050565b6060604080513681016020019091529050601436018152365f602083013760408051601481019091523360601b905292915050565b610c96611485565b610ca18383836114db565b610cac8686866115b7565b60408051600181526001600160a01b03881660208201525f516020612e715f395f51905f5291015b60405180910390a1505050505050565b610cec611485565b610cf78383836114db565b6040516306d61fe760e41b81526001600160a01b037f00000000000000000000000000000000000000000000000000000000000000001690636d61fe7090610d45908d908d90600401612a7b565b5f604051808303815f87803b158015610d5c575f5ffd5b505af1158015610d6e573d5f5f3e3d5ffd5b505f925050505b87811015610e95575f898983818110610d9057610d90612d68565b9050602002810190610da29190612d7c565b610db0906020810190612a96565b6001600160a01b031614610e8d57610e2a898983818110610dd357610dd3612d68565b9050602002810190610de59190612d7c565b610df3906020810190612a96565b8a8a84818110610e0557610e05612d68565b9050602002810190610e179190612d7c565b610e25906020810190612ab1565b61173f565b5f516020612e715f395f51905f5260028a8a84818110610e4c57610e4c612d68565b9050602002810190610e5e9190612d7c565b610e6c906020810190612a96565b604080519283526001600160a01b0390911660208301520160405180910390a15b600101610d75565b505f610ea46020880188612a96565b6001600160a01b031614610f1257610ed4610ec26020880188612a96565b610ecf6020890189612ab1565b6117fa565b5f516020612e715f395f51905f526004610ef16020890189612a96565b604080519283526001600160a01b0390911660208301520160405180910390a15b5f5b8481101561084d575f868683818110610f2f57610f2f612d68565b9050602002810190610f419190612d7c565b610f4f906020810190612a96565b6001600160a01b03161461102c57610fc9868683818110610f7257610f72612d68565b9050602002810190610f849190612d7c565b610f92906020810190612a96565b878784818110610fa457610fa4612d68565b9050602002810190610fb69190612d7c565b610fc4906020810190612ab1565b6119b7565b5f516020612e715f395f51905f526003878784818110610feb57610feb612d68565b9050602002810190610ffd9190612d7c565b61100b906020810190612a96565b604080519283526001600160a01b0390911660208301520160405180910390a15b600101610f14565b61103c611485565b6110478383836114db565b5f5b85811015611127576110bd87878381811061106657611066612d68565b90506020028101906110789190612d7c565b611086906020810190612a96565b88888481811061109857611098612d68565b90506020028101906110aa9190612d7c565b6110b8906020810190612ab1565b6115b7565b5f516020612e715f395f51905f5260018888848181106110df576110df612d68565b90506020028101906110f19190612d7c565b6110ff906020810190612a96565b604080519283526001600160a01b0390911660208301520160405180910390a1600101611049565b505f6111366020860186612a96565b6001600160a01b03161461072e576111616111546020860186612a96565b610ecf6020870187612ab1565b5f516020612e715f395f51905f52600461117e6020870187612a96565b604080519283526001600160a01b03909116602083015201610cd4565b60605f6111a9858585611d2d565b90969095509350505050565b6111bd611485565b6111c88383836114db565b5f5b89811015611283576112198b8b838181106111e7576111e7612d68565b90506020028101906111f99190612d7c565b611207906020810190612a96565b8c8c8481811061109857611098612d68565b5f516020612e715f395f51905f5260018c8c8481811061123b5761123b612d68565b905060200281019061124d9190612d7c565b61125b906020810190612a96565b604080519283526001600160a01b0390911660208301520160405180910390a16001016111ca565b505f5b8781101561134f575f8989838181106112a1576112a1612d68565b90506020028101906112b39190612d7c565b6112c1906020810190612a96565b6001600160a01b031614611347576112e4898983818110610dd357610dd3612d68565b5f516020612e715f395f51905f5260028a8a8481811061130657611306612d68565b90506020028101906113189190612d7c565b611326906020810190612a96565b604080519283526001600160a01b0390911660208301520160405180910390a15b600101611286565b505f61135e6020880188612a96565b6001600160a01b0316146113ba5761137c610ec26020880188612a96565b5f516020612e715f395f51905f5260046113996020890189612a96565b604080519283526001600160a01b0390911660208301520160405180910390a15b5f5b8481101561084d575f8686838181106113d7576113d7612d68565b90506020028101906113e99190612d7c565b6113f7906020810190612a96565b6001600160a01b03161461147d5761141a868683818110610f7257610f72612d68565b5f516020612e715f395f51905f52600387878481811061143c5761143c612d68565b905060200281019061144e9190612d7c565b61145c906020810190612a96565b604080519283526001600160a01b0390911660208301520160405180910390a15b6001016113bc565b7f0bb70095b32b9671358306b0339b4c06e7cbd8cb82505941fba30d1eb5b82f006114cf7f0bb70095b32b9671358306b0339b4c06e7cbd8cb82505941fba30d1eb5b82f01611eee565b6114d881611eee565b50565b5f805473ffffffffffffffffffffffffffffffffffffffff19166001600160a01b0385169081179091551561157f576040517ff05c04e10000000000000000000000000000000000000000000000000000000081526001600160a01b0384169063f05c04e1906115519084908690600401612d9a565b5f604051808303815f87803b158015611568575f5ffd5b505af115801561157a573d5f5f3e3d5ffd5b505050505b6040516001600160a01b038416907ff98c8404c5b1bfef2e6ba9233c6e88845aedfd36eea8b192725d8c199571cf32905f90a2505050565b8260016115c48282611f6f565b60405163ecd0596160e01b8152600160048201526001600160a01b0386169063ecd0596190602401602060405180830381865afa158015611607573d5f5f3e3d5ffd5b505050506040513d601f19601f8201168201806040525081019061162b9190612db5565b61164857604051631c4f83bb60e31b815260040160405180910390fd5b7f00000000000000000000000000000000000000000000000000000000000000006001600160a01b0316856001600160a01b0316036116b3576040517fabc3af7900000000000000000000000000000000000000000000000000000000815260040160405180910390fd5b6116dd7f0bb70095b32b9671358306b0339b4c06e7cbd8cb82505941fba30d1eb5b82f0086611ff1565b6040516306d61fe760e41b81526001600160a01b03861690636d61fe709061170b9087908790600401612a7b565b5f604051808303815f87803b158015611722575f5ffd5b505af1158015611734573d5f5f3e3d5ffd5b505050505050505050565b82600261174c8282611f6f565b60405163ecd0596160e01b8152600260048201526001600160a01b0386169063ecd0596190602401602060405180830381865afa15801561178f573d5f5f3e3d5ffd5b505050506040513d601f19601f820116820180604052508101906117b39190612db5565b6117d057604051631c4f83bb60e31b815260040160405180910390fd5b6116dd7f0bb70095b32b9671358306b0339b4c06e7cbd8cb82505941fba30d1eb5b82f0186611ff1565b8260046118078282611f6f565b60405163ecd0596160e01b81526004808201526001600160a01b0386169063ecd0596190602401602060405180830381865afa158015611849573d5f5f3e3d5ffd5b505050506040513d601f19601f8201168201806040525081019061186d9190612db5565b61188a57604051631c4f83bb60e31b815260040160405180910390fd5b5f6118bc7f0bb70095b32b9671358306b0339b4c06e7cbd8cb82505941fba30d1eb5b82f03546001600160a01b031690565b9050806001600160a01b0381161561190c576040517f741cbe030000000000000000000000000000000000000000000000000000000081526001600160a01b039091166004820152602401610616565b507f0bb70095b32b9671358306b0339b4c06e7cbd8cb82505941fba30d1eb5b82f03805473ffffffffffffffffffffffffffffffffffffffff19166001600160a01b0388161790556040516306d61fe760e41b81526001600160a01b03871690636d61fe70906119829088908890600401612a7b565b5f604051808303815f87803b158015611999575f5ffd5b505af11580156119ab573d5f5f3e3d5ffd5b50505050505050505050565b8260036119c48282611f6f565b60405163ecd0596160e01b8152600360048201526001600160a01b0386169063ecd0596190602401602060405180830381865afa158015611a07573d5f5f3e3d5ffd5b505050506040513d601f19601f82011682018060405250810190611a2b9190612db5565b611a4857604051631c4f83bb60e31b815260040160405180910390fd5b5f611a566004828688612dd4565b611a5f91612dfb565b90505f85856004818110611a7557611a75612d68565b9050013560f81c60f81b9050611a8e815f60f81b610c42565b80611aa25750611aa281607f60f91b610c42565b611ad8576040517f867a1dcf00000000000000000000000000000000000000000000000000000000815260040160405180910390fd5b5f611ae6866005818a612dd4565b8080601f0160208091040260200160405190810160405280939291908181526020018383808284375f920191909152509293505050506001600160e01b031983166306d61fe760e41b1480611b6457506001600160e01b031983167f8a91b0e300000000000000000000000000000000000000000000000000000000145b80611b7757506001600160e01b03198316155b15611bae576040517fc001660b00000000000000000000000000000000000000000000000000000000815260040160405180910390fd5b6001600160e01b031983165f9081527f0bb70095b32b9671358306b0339b4c06e7cbd8cb82505941fba30d1eb5b82f02602052604090205483906001600160a01b031615611c35576040517fa56a04dd0000000000000000000000000000000000000000000000000000000081526001600160e01b03199091166004820152602401610616565b506040805180820182526001600160a01b038a81168083526001600160f81b0319861660208085019182526001600160e01b031989165f9081527f0bb70095b32b9671358306b0339b4c06e7cbd8cb82505941fba30d1eb5b82f0290915285902093518454915160f81c600160a01b027fffffffffffffffffffffff0000000000000000000000000000000000000000009092169316929092179190911790915590516306d61fe760e41b8152636d61fe7090611cf6908490600401612857565b5f604051808303815f87803b158015611d0d575f5ffd5b505af1158015611d1f573d5f5f3e3d5ffd5b505050505050505050505050565b60605f6001600160a01b038416600114801590611d515750611d4f85856120eb565b155b15611d7a57604051637c84ecfb60e01b81526001600160a01b0385166004820152602401610616565b825f03611db3576040517ff725081700000000000000000000000000000000000000000000000000000000815260040160405180910390fd5b8267ffffffffffffffff811115611dcc57611dcc61218e565b604051908082528060200260200182016040528015611df5578160200160208202803683370190505b506001600160a01b038086165f90815260208890526040812054929450911691505b6001600160a01b03821615801590611e3957506001600160a01b038216600114155b8015611e4457508381105b15611e9d5781838281518110611e5c57611e5c612d68565b6001600160a01b039283166020918202929092018101919091529281165f908152928790526040909220549091169080611e9581612e45565b915050611e17565b6001600160a01b038216600114801590611eb657505f81115b15611ee25782611ec7600183612e5d565b81518110611ed757611ed7612d68565b602002602001015191505b80835250935093915050565b60015f908152602082905260409020546001600160a01b031615611f3e576040517f53c85e6600000000000000000000000000000000000000000000000000000000815260040160405180910390fd5b60015f8181526020929092526040909120805473ffffffffffffffffffffffffffffffffffffffff19169091179055565b5f546001600160a01b0316801561078c576040517f96fb72170000000000000000000000000000000000000000000000000000000081526001600160a01b038481166004830152602482018490528216906396fb7217906044015f6040518083038186803b158015611fdf575f5ffd5b505afa1580156108ba573d5f5f3e3d5ffd5b6001600160a01b038116158061201057506001600160a01b0381166001145b1561203957604051637c84ecfb60e01b81526001600160a01b0382166004820152602401610616565b6001600160a01b038181165f908152602084905260409020541615612095576040517f40d3d1a40000000000000000000000000000000000000000000000000000000081526001600160a01b0382166004820152602401610616565b60015f818152602093909352604080842080546001600160a01b0394851680875292862080549590911673ffffffffffffffffffffffffffffffffffffffff199586161790559190935280549091169091179055565b5f60016001600160a01b0383161480159061211e57506001600160a01b038281165f908152602085905260409020541615155b9392505050565b6001600160a01b03811681146114d8575f5ffd5b5f5f83601f840112612149575f5ffd5b50813567ffffffffffffffff811115612160575f5ffd5b602083019150836020828501011115612177575f5ffd5b9250929050565b803561218981612125565b919050565b634e487b7160e01b5f52604160045260245ffd5b604051601f8201601f1916810167ffffffffffffffff811182821017156121cb576121cb61218e565b604052919050565b803560ff81168114612189575f5ffd5b5f5f5f5f5f5f60a087890312156121f8575f5ffd5b863561220381612125565b9550602087013567ffffffffffffffff81111561221e575f5ffd5b61222a89828a01612139565b909650945050604087013561223e81612125565b9250606087013567ffffffffffffffff811115612259575f5ffd5b8701601f81018913612269575f5ffd5b803567ffffffffffffffff8111156122835761228361218e565b8060051b612293602082016121a2565b9182526020818401810192908101908c8411156122ae575f5ffd5b6020850194505b838510156122dc57843592506122ca83612125565b828252602094850194909101906122b5565b80965050505050506122f0608088016121d3565b90509295509295509295565b5f5f5f6040848603121561230e575f5ffd5b833561231981612125565b9250602084013567ffffffffffffffff811115612334575f5ffd5b61234086828701612139565b9497909650939450505050565b5f5f6020838503121561235e575f5ffd5b823567ffffffffffffffff811115612374575f5ffd5b6111a985828601612139565b5f5f83601f840112612390575f5ffd5b50813567ffffffffffffffff8111156123a7575f5ffd5b6020830191508360208260051b8501011115612177575f5ffd5b5f604082840312156123d1575f5ffd5b50919050565b5f5f5f5f5f5f5f5f5f5f5f60e08c8e0312156123f1575f5ffd5b8b3567ffffffffffffffff811115612407575f5ffd5b6124138e828f01612139565b909c509a505060208c013567ffffffffffffffff811115612432575f5ffd5b61243e8e828f01612380565b909a5098505060408c013567ffffffffffffffff81111561245d575f5ffd5b6124698e828f016123c1565b97505060608c013567ffffffffffffffff811115612485575f5ffd5b6124918e828f01612380565b90975095506124a4905060808d0161217e565b935060a08c013567ffffffffffffffff8111156124bf575f5ffd5b6124cb8e828f01612380565b90945092506124de905060c08d016121d3565b90509295989b509295989b9093969950565b5f60208284031215612500575f5ffd5b81356001600160e01b03198116811461211e575f5ffd5b5f5f5f60408486031215612529575f5ffd5b833567ffffffffffffffff81111561253f575f5ffd5b61254b86828701612380565b909450925050602084013567ffffffffffffffff81111561256a575f5ffd5b612576868287016123c1565b9150509250925092565b5f5f5f5f5f5f5f60a0888a031215612596575f5ffd5b873567ffffffffffffffff8111156125ac575f5ffd5b6125b88a828b01612380565b909850965050602088013567ffffffffffffffff8111156125d7575f5ffd5b6125e38a828b016123c1565b95505060408801356125f481612125565b9350606088013567ffffffffffffffff81111561260f575f5ffd5b61261b8a828b01612380565b909450925061262e9050608089016121d3565b905092959891949750929550565b5f5f6040838503121561264d575f5ffd5b823561265881612125565b946020939093013593505050565b5f8151808452602084019350602083015f5b8281101561269f5781516001600160a01b0316865260209586019590910190600101612678565b5093949350505050565b604081525f6126bb6040830185612666565b90506001600160a01b03831660208301529392505050565b5f5f5f5f5f5f5f6080888a0312156126e9575f5ffd5b873567ffffffffffffffff8111156126ff575f5ffd5b61270b8a828b01612380565b909850965050602088013567ffffffffffffffff81111561272a575f5ffd5b6127368a828b01612380565b909650945050604088013567ffffffffffffffff811115612755575f5ffd5b6127618a828b016123c1565b935050606088013567ffffffffffffffff81111561277d575f5ffd5b6127898a828b01612380565b989b979a50959850939692959293505050565b5f5f5f5f5f608086880312156127b0575f5ffd5b853567ffffffffffffffff8111156127c6575f5ffd5b6127d2888289016123c1565b95505060208601356127e381612125565b9350604086013567ffffffffffffffff8111156127fe575f5ffd5b61280a88828901612380565b909450925061281d9050606087016121d3565b90509295509295909350565b5f81518084528060208401602086015e5f602082860101526020601f19601f83011685010191505092915050565b602081525f61211e6020830184612829565b6001600160f81b03198816815260e060208201525f61288b60e0830189612829565b828103604084015261289d8189612829565b606084018890526001600160a01b038716608085015260a0840186905283810360c0850152845180825260208087019350909101905f5b818110156128f25783518352602093840193909201916001016128d4565b50909b9a5050505050505050505050565b5f5f5f5f5f5f5f5f5f5f5f60e08c8e03121561291d575f5ffd5b8b3567ffffffffffffffff811115612933575f5ffd5b6124138e828f01612380565b5f5f5f5f5f5f5f6080888a031215612955575f5ffd5b873567ffffffffffffffff81111561296b575f5ffd5b61270b8a828b01612139565b81835281816020850137505f828201602090810191909152601f909101601f19169091010190565b6001600160a01b0385168152836020820152606060408201525f6129c7606083018486612977565b9695505050505050565b5f602082840312156129e1575f5ffd5b815167ffffffffffffffff8111156129f7575f5ffd5b8201601f81018413612a07575f5ffd5b805167ffffffffffffffff811115612a2157612a2161218e565b612a34601f8201601f19166020016121a2565b818152856020838501011115612a48575f5ffd5b8160208401602083015e5f91810160200191909152949350505050565b5f82518060208501845e5f920191825250919050565b602081525f612a8e602083018486612977565b949350505050565b5f60208284031215612aa6575f5ffd5b813561211e81612125565b5f5f8335601e19843603018112612ac6575f5ffd5b83018035915067ffffffffffffffff821115612ae0575f5ffd5b602001915036819003821315612177575f5ffd5b8183526020830192505f815f5b8481101561269f578135612b1481612125565b6001600160a01b031686526020958601959190910190600101612b01565b6001600160a01b038816815260a060208201525f612b5460a08301888a612977565b6001600160a01b03871660408401528281036060840152612b76818688612af4565b91505060ff8316608083015298975050505050505050565b6001600160a01b0383168152604060208201525f612a8e6040830184612829565b5f8135612bbb81612125565b6001600160a01b03168352602082013536839003601e19018112612bdd575f5ffd5b820160208101903567ffffffffffffffff811115612bf9575f5ffd5b803603821315612c07575f5ffd5b60406020860152612c1c604086018284612977565b95945050505050565b5f8383855260208501945060208460051b820101835f5b86811015612c8457838303601f19018852813536879003603e19018112612c61575f5ffd5b612c6d84888301612baf565b6020998a0199909450929092019150600101612c3c565b50909695505050505050565b60a081525f612ca360a08301898b612c25565b8281036020840152612cb58189612baf565b90506001600160a01b03871660408401528281036060840152612b76818688612af4565b60e081525f612cec60e083018d8f612c25565b8281036020840152612cff818c8e612c25565b90508281036040840152612d13818b612baf565b90508281036060840152612d2881898b612c25565b90506001600160a01b038716608084015282810360a0840152612d4c818688612af4565b91505060ff831660c08301529c9b505050505050505050505050565b634e487b7160e01b5f52603260045260245ffd5b5f8235603e19833603018112612d90575f5ffd5b9190910192915050565b60ff83168152604060208201525f612a8e6040830184612666565b5f60208284031215612dc5575f5ffd5b8151801515811461211e575f5ffd5b5f5f85851115612de2575f5ffd5b83861115612dee575f5ffd5b5050820193919092039150565b80356001600160e01b03198116906004841015612e2a576001600160e01b0319808560040360031b1b82161691505b5092915050565b634e487b7160e01b5f52601160045260245ffd5b5f60018201612e5657612e56612e31565b5060010190565b81810381811115610c5357610c53612e3156fed21d0b289f126c4b473ea641963e766833c2f13866e4ff480abd787c100ef123a164736f6c634300081b000a","linkReferences":{}},"methodIdentifiers":{"eip712Domain()":"84b0196e","getActiveHook()":"0a664dba","getExecutorsPaginated(address,uint256)":"ea5f61d0","getFallbackHandlerBySelector(bytes4)":"481ddd23","getInitNexusCalldata((address,bytes)[],(address,bytes)[],(address,bytes),(address,bytes)[],address,address[],uint8)":"9e2533ed","getInitNexusScopedCalldata((address,bytes)[],(address,bytes),address,address[],uint8)":"85a924cc","getInitNexusWithSingleValidatorCalldata((address,bytes),address,address[],uint8)":"837b892e","getValidatorsPaginated(address,uint256)":"5faac46b","initNexus((address,bytes)[],(address,bytes)[],(address,bytes),(address,bytes)[],address,address[],uint8)":"d6fe71f1","initNexusNoRegistry((address,bytes)[],(address,bytes)[],(address,bytes),(address,bytes)[])":"835ed2c4","initNexusScoped((address,bytes)[],(address,bytes),address,address[],uint8)":"55470cf1","initNexusScopedNoRegistry((address,bytes)[],(address,bytes))":"54ed06d5","initNexusWithDefaultValidator(bytes)":"31025984","initNexusWithDefaultValidatorAndOtherModules(bytes,(address,bytes)[],(address,bytes),(address,bytes)[],address,address[],uint8)":"45808b17","initNexusWithDefaultValidatorAndOtherModulesNoRegistry(bytes,(address,bytes)[],(address,bytes),(address,bytes)[])":"f27ea725","initNexusWithSingleValidator(address,bytes,address,address[],uint8)":"01fe9ff2","initNexusWithSingleValidatorNoRegistry(address,bytes)":"10b7fca9","registry()":"7b103999"},"id":70}