{"abi":[{"type":"constructor","inputs":[{"name":"defaultValidator","type":"address","internalType":"address"},{"name":"initData","type":"bytes","internalType":"bytes"}],"stateMutability":"nonpayable"},{"type":"fallback","stateMutability":"payable"},{"type":"receive","stateMutability":"payable"},{"type":"function","name":"eip712Domain","inputs":[],"outputs":[{"name":"fields","type":"bytes1","internalType":"bytes1"},{"name":"name","type":"string","internalType":"string"},{"name":"version","type":"string","internalType":"string"},{"name":"chainId","type":"uint256","internalType":"uint256"},{"name":"verifyingContract","type":"address","internalType":"address"},{"name":"salt","type":"bytes32","internalType":"bytes32"},{"name":"extensions","type":"uint256[]","internalType":"uint256[]"}],"stateMutability":"view"},{"type":"function","name":"getActiveHook","inputs":[],"outputs":[{"name":"hook","type":"address","internalType":"address"}],"stateMutability":"view"},{"type":"function","name":"getExecutorsPaginated","inputs":[{"name":"cursor","type":"address","internalType":"address"},{"name":"size","type":"uint256","internalType":"uint256"}],"outputs":[{"name":"array","type":"address[]","internalType":"address[]"},{"name":"next","type":"address","internalType":"address"}],"stateMutability":"view"},{"type":"function","name":"getFallbackHandlerBySelector","inputs":[{"name":"selector","type":"bytes4","internalType":"bytes4"}],"outputs":[{"name":"","type":"bytes1","internalType":"CallType"},{"name":"","type":"address","internalType":"address"}],"stateMutability":"view"},{"type":"function","name":"getRegistry","inputs":[],"outputs":[{"name":"","type":"address","internalType":"contract IERC7484"}],"stateMutability":"view"},{"type":"function","name":"getValidatorsPaginated","inputs":[{"name":"cursor","type":"address","internalType":"address"},{"name":"size","type":"uint256","internalType":"uint256"}],"outputs":[{"name":"array","type":"address[]","internalType":"address[]"},{"name":"next","type":"address","internalType":"address"}],"stateMutability":"view"},{"type":"function","name":"initNexus","inputs":[{"name":"validators","type":"tuple[]","internalType":"struct BootstrapConfig[]","components":[{"name":"module","type":"address","internalType":"address"},{"name":"data","type":"bytes","internalType":"bytes"}]},{"name":"executors","type":"tuple[]","internalType":"struct BootstrapConfig[]","components":[{"name":"module","type":"address","internalType":"address"},{"name":"data","type":"bytes","internalType":"bytes"}]},{"name":"hook","type":"tuple","internalType":"struct BootstrapConfig","components":[{"name":"module","type":"address","internalType":"address"},{"name":"data","type":"bytes","internalType":"bytes"}]},{"name":"fallbacks","type":"tuple[]","internalType":"struct BootstrapConfig[]","components":[{"name":"module","type":"address","internalType":"address"},{"name":"data","type":"bytes","internalType":"bytes"}]},{"name":"preValidationHooks","type":"tuple[]","internalType":"struct BootstrapPreValidationHookConfig[]","components":[{"name":"hookType","type":"uint256","internalType":"uint256"},{"name":"module","type":"address","internalType":"address"},{"name":"data","type":"bytes","internalType":"bytes"}]},{"name":"registryConfig","type":"tuple","internalType":"struct RegistryConfig","components":[{"name":"registry","type":"address","internalType":"contract IERC7484"},{"name":"attesters","type":"address[]","internalType":"address[]"},{"name":"threshold","type":"uint8","internalType":"uint8"}]}],"outputs":[],"stateMutability":"payable"},{"type":"function","name":"initNexusNoRegistry","inputs":[{"name":"validators","type":"tuple[]","internalType":"struct BootstrapConfig[]","components":[{"name":"module","type":"address","internalType":"address"},{"name":"data","type":"bytes","internalType":"bytes"}]},{"name":"executors","type":"tuple[]","internalType":"struct BootstrapConfig[]","components":[{"name":"module","type":"address","internalType":"address"},{"name":"data","type":"bytes","internalType":"bytes"}]},{"name":"hook","type":"tuple","internalType":"struct BootstrapConfig","components":[{"name":"module","type":"address","internalType":"address"},{"name":"data","type":"bytes","internalType":"bytes"}]},{"name":"fallbacks","type":"tuple[]","internalType":"struct BootstrapConfig[]","components":[{"name":"module","type":"address","internalType":"address"},{"name":"data","type":"bytes","internalType":"bytes"}]},{"name":"preValidationHooks","type":"tuple[]","internalType":"struct BootstrapPreValidationHookConfig[]","components":[{"name":"hookType","type":"uint256","internalType":"uint256"},{"name":"module","type":"address","internalType":"address"},{"name":"data","type":"bytes","internalType":"bytes"}]}],"outputs":[],"stateMutability":"payable"},{"type":"function","name":"initNexusScoped","inputs":[{"name":"validators","type":"tuple[]","internalType":"struct BootstrapConfig[]","components":[{"name":"module","type":"address","internalType":"address"},{"name":"data","type":"bytes","internalType":"bytes"}]},{"name":"hook","type":"tuple","internalType":"struct BootstrapConfig","components":[{"name":"module","type":"address","internalType":"address"},{"name":"data","type":"bytes","internalType":"bytes"}]},{"name":"registryConfig","type":"tuple","internalType":"struct RegistryConfig","components":[{"name":"registry","type":"address","internalType":"contract IERC7484"},{"name":"attesters","type":"address[]","internalType":"address[]"},{"name":"threshold","type":"uint8","internalType":"uint8"}]}],"outputs":[],"stateMutability":"payable"},{"type":"function","name":"initNexusScopedNoRegistry","inputs":[{"name":"validators","type":"tuple[]","internalType":"struct BootstrapConfig[]","components":[{"name":"module","type":"address","internalType":"address"},{"name":"data","type":"bytes","internalType":"bytes"}]},{"name":"hook","type":"tuple","internalType":"struct BootstrapConfig","components":[{"name":"module","type":"address","internalType":"address"},{"name":"data","type":"bytes","internalType":"bytes"}]}],"outputs":[],"stateMutability":"payable"},{"type":"function","name":"initNexusWithDefaultValidator","inputs":[{"name":"data","type":"bytes","internalType":"bytes"}],"outputs":[],"stateMutability":"payable"},{"type":"function","name":"initNexusWithDefaultValidatorAndOtherModules","inputs":[{"name":"defaultValidatorInitData","type":"bytes","internalType":"bytes"},{"name":"executors","type":"tuple[]","internalType":"struct BootstrapConfig[]","components":[{"name":"module","type":"address","internalType":"address"},{"name":"data","type":"bytes","internalType":"bytes"}]},{"name":"hook","type":"tuple","internalType":"struct BootstrapConfig","components":[{"name":"module","type":"address","internalType":"address"},{"name":"data","type":"bytes","internalType":"bytes"}]},{"name":"fallbacks","type":"tuple[]","internalType":"struct BootstrapConfig[]","components":[{"name":"module","type":"address","internalType":"address"},{"name":"data","type":"bytes","internalType":"bytes"}]},{"name":"preValidationHooks","type":"tuple[]","internalType":"struct BootstrapPreValidationHookConfig[]","components":[{"name":"hookType","type":"uint256","internalType":"uint256"},{"name":"module","type":"address","internalType":"address"},{"name":"data","type":"bytes","internalType":"bytes"}]},{"name":"registryConfig","type":"tuple","internalType":"struct RegistryConfig","components":[{"name":"registry","type":"address","internalType":"contract IERC7484"},{"name":"attesters","type":"address[]","internalType":"address[]"},{"name":"threshold","type":"uint8","internalType":"uint8"}]}],"outputs":[],"stateMutability":"payable"},{"type":"function","name":"initNexusWithDefaultValidatorAndOtherModulesNoRegistry","inputs":[{"name":"defaultValidatorInitData","type":"bytes","internalType":"bytes"},{"name":"executors","type":"tuple[]","internalType":"struct BootstrapConfig[]","components":[{"name":"module","type":"address","internalType":"address"},{"name":"data","type":"bytes","internalType":"bytes"}]},{"name":"hook","type":"tuple","internalType":"struct BootstrapConfig","components":[{"name":"module","type":"address","internalType":"address"},{"name":"data","type":"bytes","internalType":"bytes"}]},{"name":"fallbacks","type":"tuple[]","internalType":"struct BootstrapConfig[]","components":[{"name":"module","type":"address","internalType":"address"},{"name":"data","type":"bytes","internalType":"bytes"}]},{"name":"preValidationHooks","type":"tuple[]","internalType":"struct BootstrapPreValidationHookConfig[]","components":[{"name":"hookType","type":"uint256","internalType":"uint256"},{"name":"module","type":"address","internalType":"address"},{"name":"data","type":"bytes","internalType":"bytes"}]}],"outputs":[],"stateMutability":"payable"},{"type":"function","name":"initNexusWithSingleValidator","inputs":[{"name":"validator","type":"address","internalType":"address"},{"name":"data","type":"bytes","internalType":"bytes"},{"name":"registryConfig","type":"tuple","internalType":"struct RegistryConfig","components":[{"name":"registry","type":"address","internalType":"contract IERC7484"},{"name":"attesters","type":"address[]","internalType":"address[]"},{"name":"threshold","type":"uint8","internalType":"uint8"}]}],"outputs":[],"stateMutability":"payable"},{"type":"function","name":"initNexusWithSingleValidatorNoRegistry","inputs":[{"name":"validator","type":"address","internalType":"address"},{"name":"data","type":"bytes","internalType":"bytes"}],"outputs":[],"stateMutability":"payable"},{"type":"function","name":"installModule","inputs":[{"name":"moduleTypeId","type":"uint256","internalType":"uint256"},{"name":"module","type":"address","internalType":"address"},{"name":"initData","type":"bytes","internalType":"bytes"}],"outputs":[],"stateMutability":"payable"},{"type":"function","name":"isModuleInstalled","inputs":[{"name":"moduleTypeId","type":"uint256","internalType":"uint256"},{"name":"module","type":"address","internalType":"address"},{"name":"additionalContext","type":"bytes","internalType":"bytes"}],"outputs":[{"name":"installed","type":"bool","internalType":"bool"}],"stateMutability":"view"},{"type":"function","name":"uninstallModule","inputs":[{"name":"moduleTypeId","type":"uint256","internalType":"uint256"},{"name":"module","type":"address","internalType":"address"},{"name":"deInitData","type":"bytes","internalType":"bytes"}],"outputs":[],"stateMutability":"payable"},{"type":"event","name":"ERC7484RegistryConfigured","inputs":[{"name":"registry","type":"address","indexed":true,"internalType":"contract IERC7484"}],"anonymous":false},{"type":"event","name":"ModuleInstalled","inputs":[{"name":"moduleTypeId","type":"uint256","indexed":false,"internalType":"uint256"},{"name":"module","type":"address","indexed":false,"internalType":"address"}],"anonymous":false},{"type":"event","name":"ModuleUninstalled","inputs":[{"name":"moduleTypeId","type":"uint256","indexed":false,"internalType":"uint256"},{"name":"module","type":"address","indexed":false,"internalType":"address"}],"anonymous":false},{"type":"error","name":"CanNotRemoveLastValidator","inputs":[]},{"type":"error","name":"DefaultValidatorAlreadyInstalled","inputs":[]},{"type":"error","name":"EmergencyUninstallSigError","inputs":[]},{"type":"error","name":"EnableModeSigError","inputs":[]},{"type":"error","name":"FallbackAlreadyInstalledForSelector","inputs":[{"name":"selector","type":"bytes4","internalType":"bytes4"}]},{"type":"error","name":"FallbackCallTypeInvalid","inputs":[]},{"type":"error","name":"FallbackHandlerUninstallFailed","inputs":[]},{"type":"error","name":"FallbackNotInstalledForSelector","inputs":[{"name":"selector","type":"bytes4","internalType":"bytes4"}]},{"type":"error","name":"FallbackSelectorForbidden","inputs":[]},{"type":"error","name":"HookAlreadyInstalled","inputs":[{"name":"currentHook","type":"address","internalType":"address"}]},{"type":"error","name":"HookPostCheckFailed","inputs":[]},{"type":"error","name":"InvalidInput","inputs":[]},{"type":"error","name":"InvalidModule","inputs":[{"name":"module","type":"address","internalType":"address"}]},{"type":"error","name":"InvalidModuleTypeId","inputs":[{"name":"moduleTypeId","type":"uint256","internalType":"uint256"}]},{"type":"error","name":"InvalidNonce","inputs":[]},{"type":"error","name":"LinkedList_AlreadyInitialized","inputs":[]},{"type":"error","name":"LinkedList_EntryAlreadyInList","inputs":[{"name":"entry","type":"address","internalType":"address"}]},{"type":"error","name":"LinkedList_InvalidEntry","inputs":[{"name":"entry","type":"address","internalType":"address"}]},{"type":"error","name":"LinkedList_InvalidPage","inputs":[]},{"type":"error","name":"MismatchModuleTypeId","inputs":[]},{"type":"error","name":"MissingFallbackHandler","inputs":[{"name":"selector","type":"bytes4","internalType":"bytes4"}]},{"type":"error","name":"ModuleAddressCanNotBeZero","inputs":[]},{"type":"error","name":"ModuleAlreadyInstalled","inputs":[{"name":"moduleTypeId","type":"uint256","internalType":"uint256"},{"name":"module","type":"address","internalType":"address"}]},{"type":"error","name":"ModuleNotInstalled","inputs":[{"name":"moduleTypeId","type":"uint256","internalType":"uint256"},{"name":"module","type":"address","internalType":"address"}]},{"type":"error","name":"NoValidatorInstalled","inputs":[]},{"type":"error","name":"PrevalidationHookAlreadyInstalled","inputs":[{"name":"currentPreValidationHook","type":"address","internalType":"address"}]},{"type":"error","name":"UnauthorizedOperation","inputs":[{"name":"operator","type":"address","internalType":"address"}]},{"type":"error","name":"UnsupportedCallType","inputs":[{"name":"callType","type":"bytes1","internalType":"CallType"}]},{"type":"error","name":"ValidatorNotInstalled","inputs":[{"name":"module","type":"address","internalType":"address"}]}],"bytecode":{"object":"0x610140806040523461023e57613398803803809161001d82856102aa565b833981019060408183031261023e578051906001600160a01b0382169081830361023e576020810151906001600160401b03821161023e570183601f8201121561023e5780516001600160401b0381116102965760405191610089601f8301601f1916602001846102aa565b81835260208301956020838301011161023e57815f926020809301885e83010152306080524660a05260409360a085516100c387826102aa565b600e815260208101906d04e65787573426f6f7473747261760941b82528751916100ed89846102aa565b600583526020830191640312e322e360dc1b8352519020915190208160c0528060e0528751917f8b73c3c69bb8fe3d512ecc4cf759cc79239f7b179b0ffacaa9a75d522b39400f83526020830152878201524660608201523060808201522061010052845163ecd0596160e01b815260016004820152602081602481875afa90811561028c575f91610251575b501561024257823b1561023e576044925f928387519586809581946306d61fe760e41b8352602060048401525180918160248501528484015e8181018301849052601f01601f191681010301925af1801561023457610224575b5061012052516130ca90816102ce823960805181505060a05181505060c05181505060e0518150506101005181505061012051818181610429015281816111f501528181611b4101526120190152f35b5f61022e916102aa565b5f6101d4565b83513d5f823e3d90fd5b5f80fd5b631c4f83bb60e31b5f5260045ffd5b90506020813d602011610284575b8161026c602093836102aa565b8101031261023e5751801515810361023e575f61017a565b3d915061025f565b86513d5f823e3d90fd5b634e487b7160e01b5f52604160045260245ffd5b601f909101601f19168101906001600160401b038211908210176102965760405256fe60806040526004361015610015575b3661168057005b5f3560e01c80630a664dba1461012f57806310b7fca91461012a578063112d3a7d146101255780633102598414610120578063481ddd231461011b578063544d58601461011657806354ed06d5146101115780635ab1bd531461010c5780635faac46b1461010757806365ff89c91461010257806384b0196e146100fd57806386437876146100f85780638cc8ff1d146100f35780639517e29f146100e45780639afb7c8d146100ee578063a667eca4146100e9578063a71763a8146100e45763ea5f61d00361000e57611058565b610ee6565b610f7c565b610eef565b610def565b610d30565b610c48565b610b65565b6109c8565b610933565b6107b3565b6106d7565b61049b565b6103f2565b6103d6565b6101bc565b610142565b5f91031261013e57565b5f80fd5b3461013e575f36600319011261013e5760206001600160a01b035f51602061305e5f395f51905f5254166001600160a01b0360405191168152f35b6001600160a01b0381160361013e57565b9181601f8401121561013e5782359167ffffffffffffffff831161013e576020838186019501011161013e57565b604036600319011261013e576004356101d48161017d565b60243567ffffffffffffffff811161013e576101f490369060040161018e565b610247610202939293611154565b60405161020e816105a7565b5f81526020810191825260ff6001600160a01b0360408301925f8452610232612941565b61023a6129c3565b5116925191511691611e20565b6001600160a01b0361026d6001600160a01b035f51602061305e5f395f51905f52541690565b16806102b75750906102916102b2925f51602061301e5f395f51905f529483611fc8565b60408051600181526001600160a01b03909216602083015290918291820190565b0390a1005b906040519363d68f602560e01b85525f85806102d836343360048501611dba565b038183875af1948515610367575f9561036c575b50906102f89184611fc8565b803b1561013e57604051630b9dfbed60e11b8152925f9184918290849082906103249060048301611e0f565b03925af1908115610367575f51602061301e5f395f51905f52926102b29261034d575b50610291565b8061035b5f610361936105c3565b80610134565b5f610347565b6111d5565b6102f89291955061038e903d805f833e61038681836105c3565b810190611d57565b9490916102ec565b606060031982011261013e57600435916024356103b28161017d565b916044359067ffffffffffffffff821161013e576103d29160040161018e565b9091565b3461013e576103e436610396565b5050505060206040515f8152f35b5f602036600319011261013e5760043567ffffffffffffffff811161013e5761041f90369060040161018e565b6001600160a01b037f00000000000000000000000000000000000000000000000000000000000000001691823b1561013e5761047b925f92836040518096819582946306d61fe760e41b845260206004850181815201916111a1565b03925af180156103675761048d575080f35b61049991505f906105c3565b005b3461013e57602036600319011261013e576004356001600160e01b03198116810361013e576001600160e01b0319165f9081527f0bb70095b32b9671358306b0339b4c06e7cbd8cb82505941fba30d1eb5b82f026020526040902060405190604082019082821067ffffffffffffffff83111761054f576040918252546001600160a01b03811680845260589190911b6001600160f81b0319166020938401819052825190815292830152819081015b0390f35b610593565b9181601f8401121561013e5782359167ffffffffffffffff831161013e576020808501948460051b01011161013e57565b9081604091031261013e5790565b634e487b7160e01b5f52604160045260245ffd5b6060810190811067ffffffffffffffff82111761054f57604052565b90601f8019910116810190811067ffffffffffffffff82111761054f57604052565b604051906105f46040836105c3565b565b67ffffffffffffffff811161054f5760051b60200190565b359060ff8216820361013e57565b91909160608184031261013e5760405190610636826105a7565b819381356106438161017d565b8352602082013567ffffffffffffffff811161013e5782019080601f8301121561013e578135610672816105f6565b9261068060405194856105c3565b81845260208085019260051b82010192831161013e57602001905b8282106106bd57505050604080926106b89260208601520161060e565b910152565b6020809183356106cc8161017d565b81520191019061069b565b60c036600319011261013e5760043567ffffffffffffffff811161013e57610703903690600401610554565b9060243567ffffffffffffffff811161013e57610724903690600401610554565b9060443567ffffffffffffffff811161013e57610745903690600401610585565b60643567ffffffffffffffff811161013e57610765903690600401610554565b9160843567ffffffffffffffff811161013e57610786903690600401610554565b95909460a4359867ffffffffffffffff8a1161013e576107ad6104999a369060040161061c565b986118a3565b604036600319011261013e5760043567ffffffffffffffff811161013e576107df903690600401610554565b9060243567ffffffffffffffff811161013e57610800903690600401610585565b9161085d61080c611154565b604051610818816105a7565b5f81526020810191825261085761084d60408301925f8452610838612941565b6108406129c3565b516001600160a01b031690565b9251915160ff1690565b91611e20565b5f5b8181106108d957836001600160a01b0361087882611ac3565b1661087f57005b6102b26108b8826108b36108a05f51602061301e5f395f51905f5295611ac3565b6108ad6020840184611acd565b916125f0565b611ac3565b60408051600481526001600160a01b03909216602083015290918291820190565b8061090b6108ed6108b36001948688611a9c565b6109056108fb848789611a9c565b6020810190611acd565b91611ee3565b5f51602061301e5f395f51905f5261092a6102916108b3848789611a9c565b0390a10161085f565b3461013e575f36600319011261013e5760206001600160a01b035f51602061307e5f395f51905f525416604051908152f35b90602080835192838152019201905f5b8181106109825750505090565b82516001600160a01b0316845260209384019390920191600101610975565b906001600160a01b036109c1602092959495604085526040850190610965565b9416910152565b3461013e57604036600319011261013e576004356109e58161017d565b6024359060016001600160a01b038216141580610b4f575b610b34578115610b255790610a118161116f565b610a49610a3c5f946001600160a01b03165f525f51602061303e5f395f51905f5260205260405f2090565b546001600160a01b031690565b6001600160a01b0381168015159081610b19575b5080610b10575b15610abe57610ab2610a3c82610a8f610ab894610a8189886128cb565b906001600160a01b03169052565b6001600160a01b03165f525f51602061303e5f395f51905f5260205260405f2090565b936128f3565b92610a49565b908360016001600160a01b038416141580610b07575b610aea575b815261054b604051928392836109a1565b9150610b01610840610afb84612906565b836128cb565b91610ad9565b50801515610ad4565b50828410610a64565b6001915014155f610a5d565b63f725081760e01b5f5260045ffd5b637c84ecfb60e01b5f526001600160a01b031660045260245ffd5b50610b60610b5c82612f9d565b1590565b6109fd565b60a036600319011261013e5760043567ffffffffffffffff811161013e57610b9190369060040161018e565b60243567ffffffffffffffff811161013e57610bb1903690600401610554565b60449391933567ffffffffffffffff811161013e57610bd4903690600401610585565b9060643567ffffffffffffffff811161013e57610bf5903690600401610554565b9290916084359667ffffffffffffffff881161013e57610c1c610499983690600401610554565b9790966111e0565b805180835260209291819084018484015e5f828201840152601f01601f1916010190565b3461013e575f36600319011261013e57610cd26040610cdf815191610c6d81846105c3565b600e83527f4e65787573426f6f74737472617000000000000000000000000000000000000060208401528051610ca382826105c3565b60058152640312e322e360dc1b60208201528151948594600f60f81b865260e0602087015260e0860190610c24565b9184830390850152610c24565b4660608301523060808301525f60a083015281810360c083015260206060519182815201906080905f5b818110610d17575050500390f35b8251845285945060209384019390920191600101610d09565b60a036600319011261013e5760043567ffffffffffffffff811161013e57610d5c903690600401610554565b60243567ffffffffffffffff811161013e57610d7c903690600401610554565b60449391933567ffffffffffffffff811161013e57610d9f903690600401610585565b9060643567ffffffffffffffff811161013e57610dc0903690600401610554565b9290916084359667ffffffffffffffff881161013e57610de7610499983690600401610554565b97909661149d565b606036600319011261013e5760043567ffffffffffffffff811161013e57610e1b903690600401610554565b9060243567ffffffffffffffff811161013e57610e3c903690600401610585565b9160443567ffffffffffffffff811161013e57610e60610e8f91369060040161061c565b610e68612941565b610e706129c3565b80516001600160a01b0316906108576040602083015192015160ff1690565b5f5b818110610eaa57836001600160a01b0361087882611ac3565b80610ebe6108ed6108b36001948688611a9c565b5f51602061301e5f395f51905f52610edd6102916108b3848789611a9c565b0390a101610e91565b61049936610396565b606036600319011261013e57600435610f078161017d565b60243567ffffffffffffffff811161013e57610f2790369060040161018e565b60449291923567ffffffffffffffff811161013e57610f4d61024791369060040161061c565b610f55612941565b610f5d6129c3565b6001600160a01b038151169060ff604060208301519201511691611e20565b60c036600319011261013e5760043567ffffffffffffffff811161013e57610fa890369060040161018e565b9060243567ffffffffffffffff811161013e57610fc9903690600401610554565b9060443567ffffffffffffffff811161013e57610fea903690600401610585565b60643567ffffffffffffffff811161013e5761100a903690600401610554565b9160843567ffffffffffffffff811161013e5761102b903690600401610554565b95909460a4359867ffffffffffffffff8a1161013e576110526104999a369060040161061c565b98611b22565b3461013e57604036600319011261013e576004356110758161017d565b6024359060016001600160a01b038216141580611142575b610b34578115610b2557906110a18161116f565b6110cc610a3c5f946001600160a01b03165f525f51602061309e5f395f51905f5260205260405f2090565b6001600160a01b0381168015159081611136575b508061112d575b15610abe57610ab2610a3c8261110461112794610a8189886128cb565b6001600160a01b03165f525f51602061309e5f395f51905f5260205260405f2090565b926110cc565b508284106110e7565b6001915014155f6110e0565b5061114f610b5c82612fdd565b61108d565b604051906111636020836105c3565b5f808352366020840137565b90611179826105f6565b61118660405191826105c3565b8281528092611197601f19916105f6565b0190602036910137565b908060209392818452848401375f828201840152601f01601f1916010190565b9160206111d29381815201916111a1565b90565b6040513d5f823e3d90fd5b6111eb61080c611154565b6001600160a01b037f00000000000000000000000000000000000000000000000000000000000000001691823b1561013e57611240925f92836040518096819582946306d61fe760e41b8452600484016111c1565b03925af1801561036757611489575b505f5b8281106113fc5750505061127461126882611ac3565b6001600160a01b031690565b6113d2575b505f5b828110611345575050505f5b82811061129457505050565b806112b061126860206112aa6001958888611b00565b01611ac3565b15611340576112f56112c3828686611b00565b356112d460206112aa858989611b00565b906112ed6112e3858989611b00565b6040810190611acd565b92909161277c565b5f51602061301e5f395f51905f5261130e828686611b00565b3561131f60206112aa858989611b00565b604080519283526001600160a01b0391909116602083015290a15b01611288565b61133a565b806113596112686108b36001948787611a9c565b156113cd5761138361136f6108b3838787611a9c565b61137d6108fb848888611a9c565b916121e0565b5f51602061301e5f395f51905f526113c36113a26108b3848888611a9c565b60408051600381526001600160a01b03909216602083015290918291820190565b0390a15b0161127c565b6113c7565b6113f36108b8826108b36108a05f51602061301e5f395f51905f5295611ac3565b0390a15f611279565b806114106112686108b36001948787611a9c565b156114845761143a6114266108b3838787611a9c565b6114346108fb848888611a9c565b916120d7565b5f51602061301e5f395f51905f5261147a6114596108b3848888611a9c565b60408051600281526001600160a01b03909216602083015290918291820190565b0390a15b01611252565b61147e565b8061035b5f611497936105c3565b5f61124f565b90959493956114ad61080c611154565b5f5b818110611644575050505f5b8281106115ec575050505f5b828110611594575050506114dd61126882611ac3565b61156a575b505f5b8281106114f157505050565b8061150761126860206112aa6001958888611b00565b156115655761151a6112c3828686611b00565b5f51602061301e5f395f51905f52611533828686611b00565b3561154460206112aa858989611b00565b604080519283526001600160a01b0391909116602083015290a15b016114e5565b61155f565b61158b6108b8826108b36108a05f51602061301e5f395f51905f5295611ac3565b0390a15f6114e2565b806115a86112686108b36001948787611a9c565b156115e7576115be61136f6108b3838787611a9c565b5f51602061301e5f395f51905f526115dd6113a26108b3848888611a9c565b0390a15b016114c7565b6115e1565b806116006112686108b36001948787611a9c565b1561163f576116166114266108b3838787611a9c565b5f51602061301e5f395f51905f526116356114596108b3848888611a9c565b0390a15b016114bb565b611639565b806116586108ed6108b36001948688611a9c565b5f51602061301e5f395f51905f526116776102916108b3848789611a9c565b0390a1016114af565b5f80356001600160e01b031981168083527f0bb70095b32b9671358306b0339b4c06e7cbd8cb82505941fba30d1eb5b82f026020526040909220546116d96001600160a01b0382169160581b6001600160f81b03191690565b906001600160a01b03811661172f57505060e01c9063bc197c81821463f23a6e6183141763150b7a02831417611725576308c63e2760e01b5f526001600160e01b03191660045260245ffd5b506020526020603cf35b5f51602061305e5f395f51905f52546001600160a01b031680151592606092908461184c575b6001600160f81b03198116607f60f91b036117fa57505f8091611776612914565b90602082519201905afa92611789611de0565b935b156117f25761179d575b825160208401f35b803b1561013e57604051630b9dfbed60e11b8152915f9183918290849082906117c99060048301611e0f565b03925af18015610367576117de575b80611795565b8061035b5f6117ec936105c3565b816117d8565b835160208501fd5b6001600160f81b0319811661183057505f8091611815612914565b906020825192019034905af19261182a611de0565b9361178b565b632e5bf3f960e21b5f526001600160f81b03191660045260245ffd5b60405163d68f602560e01b81529093505f818061186e36343360048501611dba565b038183875af1908115610367575f91611889575b5092611755565b61189d91503d805f833e61038681836105c3565b85611882565b9192939697986118b590610e68612941565b5f5b818110611a4c575050505f5b8281106119f4575050505f5b82811061199c575050506118e561126882611ac3565b611972575b505f5b8281106118f957505050565b8061190f61126860206112aa6001958888611b00565b1561196d576119226112c3828686611b00565b5f51602061301e5f395f51905f5261193b828686611b00565b3561194c60206112aa858989611b00565b604080519283526001600160a01b0391909116602083015290a15b016118ed565b611967565b6119936108b8826108b36108a05f51602061301e5f395f51905f5295611ac3565b0390a15f6118ea565b806119b06112686108b36001948787611a9c565b156119ef576119c661136f6108b3838787611a9c565b5f51602061301e5f395f51905f526119e56113a26108b3848888611a9c565b0390a15b016118cf565b6119e9565b80611a086112686108b36001948787611a9c565b15611a4757611a1e6114266108b3838787611a9c565b5f51602061301e5f395f51905f52611a3d6114596108b3848888611a9c565b0390a15b016118c3565b611a41565b80611a606108ed6108b36001948688611a9c565b5f51602061301e5f395f51905f52611a7f6102916108b3848789611a9c565b0390a1016118b7565b634e487b7160e01b5f52603260045260245ffd5b9190811015611abe5760051b81013590603e198136030182121561013e570190565b611a88565b356111d28161017d565b903590601e198136030182121561013e570180359067ffffffffffffffff821161013e5760200191813603831361013e57565b9190811015611abe5760051b81013590605e198136030182121561013e570190565b909192939495969798611b3790610e68612941565b6001600160a01b037f00000000000000000000000000000000000000000000000000000000000000001691823b1561013e57611b8c925f92836040518096819582946306d61fe760e41b8452600484016111c1565b03925af1801561036757611d27575b505f5b828110611ccf57505050611bb461126882611ac3565b611ca5575b505f5b828110611c4d575050505f5b828110611bd457505050565b80611bea61126860206112aa6001958888611b00565b15611c4857611bfd6112c3828686611b00565b5f51602061301e5f395f51905f52611c16828686611b00565b35611c2760206112aa858989611b00565b604080519283526001600160a01b0391909116602083015290a15b01611bc8565b611c42565b80611c616112686108b36001948787611a9c565b15611ca057611c7761136f6108b3838787611a9c565b5f51602061301e5f395f51905f52611c966113a26108b3848888611a9c565b0390a15b01611bbc565b611c9a565b611cc66108b8826108b36108a05f51602061301e5f395f51905f5295611ac3565b0390a15f611bb9565b80611ce36112686108b36001948787611a9c565b15611d2257611cf96114266108b3838787611a9c565b5f51602061301e5f395f51905f52611d186114596108b3848888611a9c565b0390a15b01611b9e565b611d1c565b8061035b5f611d35936105c3565b5f611b9b565b67ffffffffffffffff811161054f57601f01601f191660200190565b60208183031261013e5780519067ffffffffffffffff821161013e570181601f8201121561013e57805190611d8b82611d3b565b92611d9960405194856105c3565b8284526020838301011161013e57815f9260208093018386015e8301015290565b6111d293926001600160a01b03606093168252602082015281604082015201905f6111a1565b3d15611e0a573d90611df182611d3b565b91611dff60405193846105c3565b82523d5f602084013e565b606090565b9060206111d2928181520190610c24565b6001600160a01b031691826001600160a01b03195f51602061307e5f395f51905f525416175f51602061307e5f395f51905f525582611e82575b50507ff98c8404c5b1bfef2e6ba9233c6e88845aedfd36eea8b192725d8c199571cf325f80a2565b823b1561013e5760405f91611eb88251948593849363f05c04e160e01b855260ff60048601911681528160208201520190610965565b038183865af1801561036757611ecf575b80611e5a565b8061035b5f611edd936105c3565b5f611ec9565b91906001600160a01b03611f0b6001600160a01b035f51602061305e5f395f51905f52541690565b1680611f1b57506105f492611fc8565b60405163d68f602560e01b81529290915f8480611f3d36343360048501611dba565b038183875af1938415610367575f94611fa8575b50611f5d929394611fc8565b803b1561013e57604051630b9dfbed60e11b8152915f918391829084908290611f899060048301611e0f565b03925af1801561036757611f9a5750565b8061035b5f6105f4936105c3565b611f5d939450611fc1903d805f833e61038681836105c3565b9392611f51565b91611fd283612a36565b60405163ecd0596160e01b8152600160048201526001600160a01b0384169390602081602481885afa908115610367575f91612090575b5015612081576001600160a01b037f00000000000000000000000000000000000000000000000000000000000000001684146120725761204890612c4b565b823b1561013e57611f89925f92836040518096819582946306d61fe760e41b8452600484016111c1565b63abc3af7960e01b5f5260045ffd5b631c4f83bb60e31b5f5260045ffd5b6120b2915060203d6020116120b8575b6120aa81836105c3565b8101906120bf565b5f612009565b503d6120a0565b9081602091031261013e5751801515810361013e5790565b91906001600160a01b036120ff6001600160a01b035f51602061305e5f395f51905f52541690565b168061210f57506105f492612171565b60405163d68f602560e01b81529290915f848061213136343360048501611dba565b038183875af1938415610367575f94612151575b50611f5d929394612171565b611f5d93945061216a903d805f833e61038681836105c3565b9392612145565b9161217b83612ab1565b60405163ecd0596160e01b8152600260048201526001600160a01b0384169390602081602481885afa908115610367575f916121c1575b50156120815761204890612d83565b6121da915060203d6020116120b8576120aa81836105c3565b5f6121b2565b91906001600160a01b036122086001600160a01b035f51602061305e5f395f51905f52541690565b168061221857506105f49261227a565b60405163d68f602560e01b81529290915f848061223a36343360048501611dba565b038183875af1938415610367575f9461225a575b50611f5d92939461227a565b611f5d939450612273903d805f833e61038681836105c3565b939261224e565b909161228582612b17565b60405163ecd0596160e01b8152600360048201526001600160a01b0383169290602081602481875afa908115610367575f916124dc575b501561208157612420846123ea61233b61233486806123126123056122f7836122f16122eb61247f9e8c6124fb565b90612526565b9961255c565b356001600160f81b03191690565b6001600160f81b03191690565b9a6001600160f81b03198c161580156124c5575b61232f9061256b565b612509565b3691612581565b9661236a6001600160e01b031984166306d61fe760e41b81149081156124b4575b81156124ab575b50156125b7565b6123bf836123ba610b5c826001600160e01b0319165f9081527f0bb70095b32b9671358306b0339b4c06e7cbd8cb82505941fba30d1eb5b82f0260205260409020546001600160a01b0316151590565b6125cd565b6123d96123ca6105e5565b6001600160a01b039096168652565b6001600160f81b0319166020850152565b63ffffffff60e01b165f527f0bb70095b32b9671358306b0339b4c06e7cbd8cb82505941fba30d1eb5b82f0260205260405f2090565b8151815460209093015174ff000000000000000000000000000000000000000060589190911c167fffffffffffffffffffffff0000000000000000000000000000000000000000009093166001600160a01b0390911617919091179055565b803b1561013e576040516306d61fe760e41b8152915f918391829084908290611f899060048301611e0f565b9050155f612363565b638a91b0e360e01b8114915061235c565b50607f60f91b6001600160f81b03198d1614612326565b6124f5915060203d6020116120b8576120aa81836105c3565b5f6122bc565b9060041161013e5790600490565b909291928360051161013e57831161013e57600501916004190190565b356001600160e01b0319811692919060048210612541575050565b6001600160e01b031960049290920360031b82901b16169150565b9060041015611abe5760040190565b1561257257565b63867a1dcf60e01b5f5260045ffd5b92919261258d82611d3b565b9161259b60405193846105c3565b82948184528183011161013e578281602093845f960137010152565b156125be57565b63c001660b60e01b5f5260045ffd5b156125d55750565b63a56a04dd60e01b5f5263ffffffff60e01b1660045260245ffd5b91906001600160a01b036126186001600160a01b035f51602061305e5f395f51905f52541690565b168061262857506105f49261268a565b60405163d68f602560e01b81529290915f848061264a36343360048501611dba565b038183875af1938415610367575f9461266a575b50611f5d92939461268a565b611f5d939450612683903d805f833e61038681836105c3565b939261265e565b9161269483612b7d565b60405163ecd0596160e01b81526004808201526001600160a01b0384169390602081602481885afa908115610367575f91612739575b501561208157612048906127056126f56001600160a01b035f51602061305e5f395f51905f52541690565b6001600160a01b03811615612758565b6001600160a01b03166001600160a01b03195f51602061305e5f395f51905f525416175f51602061305e5f395f51905f5255565b612752915060203d6020116120b8576120aa81836105c3565b5f6126ca565b156127605750565b6001600160a01b039063741cbe0360e01b5f521660045260245ffd5b9291906001600160a01b036127a56001600160a01b035f51602061305e5f395f51905f52541690565b16806127b557506105f493612819565b60405163d68f602560e01b815293909290915f85806127d936343360048501611dba565b038183885af1948515610367575f956127f9575b50611f5d939495612819565b611f5d949550612812903d805f833e61038681836105c3565b94936127ed565b9290926128268185612be5565b60405163ecd0596160e01b8152600481018290526001600160a01b0385169490602081602481895afa908115610367575f91612888575b5015612081578161288361287361204894612e73565b6001600160a01b038116156128a7565b612ed6565b6128a1915060203d6020116120b8576120aa81836105c3565b5f61285d565b156128af5750565b6001600160a01b039063c689cd9760e01b5f521660045260245ffd5b8051821015611abe5760209160051b010190565b634e487b7160e01b5f52601160045260245ffd5b5f1981146129015760010190565b6128df565b5f1981019190821161290157565b60405190602036830101604052816014360181525f602036920137604051601481016040523360601b9052565b60015f525f51602061309e5f395f51905f526020527fbdfeb076d903611fa58576955630d640569633049bcf40ad9c22db9251b54a13546001600160a01b03166129b45760015f525f51602061309e5f395f51905f526020526105f460405f2060016001600160a01b0319825416179055565b6329e42f3360e11b5f5260045ffd5b60015f525f51602061303e5f395f51905f526020527ffe44ceacbf4f03c6ac19f86826dd265fa9ec25125e8b1766c207f24cd3bc73c7546001600160a01b03166129b45760015f525f51602061303e5f395f51905f526020526105f460405f2060016001600160a01b0319825416179055565b6001600160a01b035f51602061307e5f395f51905f5254169081612a58575050565b813b1561013e576040516396fb721760e01b81526001600160a01b03909116600482015260016024820152905f90829060449082905afa801561036757612a9c5750565b80612aa85f80936105c3565b80031261013e57565b6001600160a01b035f51602061307e5f395f51905f5254169081612ad3575050565b813b1561013e576040516396fb721760e01b81526001600160a01b03909116600482015260026024820152905f90829060449082905afa801561036757612a9c5750565b6001600160a01b035f51602061307e5f395f51905f5254169081612b39575050565b813b1561013e576040516396fb721760e01b81526001600160a01b03909116600482015260036024820152905f90829060449082905afa801561036757612a9c5750565b6001600160a01b035f51602061307e5f395f51905f5254169081612b9f575050565b813b1561013e576040516396fb721760e01b81526001600160a01b039091166004808301919091526024820152905f90829060449082905afa801561036757612a9c5750565b6001600160a01b035f51602061307e5f395f51905f5254169182612c0857505050565b823b1561013e576040516396fb721760e01b81526001600160a01b039290921660048301526024820152905f90829060449082905afa801561036757612a9c5750565b6001600160a01b03811680158015612d79575b612d67575f9081525f51602061303e5f395f51905f5260205260409020546001600160a01b0316612d4c5760015f525f51602061303e5f395f51905f526020526105f490612d11612cce7ffe44ceacbf4f03c6ac19f86826dd265fa9ec25125e8b1766c207f24cd3bc73c7610a3c565b612cf6835f51602061303e5f395f51905f52906001600160a01b03165f5260205260405f2090565b906001600160a01b03166001600160a01b0319825416179055565b60015f525f51602061303e5f395f51905f526020527ffe44ceacbf4f03c6ac19f86826dd265fa9ec25125e8b1766c207f24cd3bc73c7612cf6565b631034f46960e21b5f526001600160a01b031660045260245ffd5b637c84ecfb60e01b5f5260045260245ffd5b5060018114612c5e565b6001600160a01b03811680158015612e69575b612d67575f9081525f51602061309e5f395f51905f5260205260409020546001600160a01b0316612d4c5760015f525f51602061309e5f395f51905f526020526105f490612e2e612e067fbdfeb076d903611fa58576955630d640569633049bcf40ad9c22db9251b54a13610a3c565b612cf6835f51602061309e5f395f51905f52906001600160a01b03165f5260205260405f2090565b60015f525f51602061309e5f395f51905f526020527fbdfeb076d903611fa58576955630d640569633049bcf40ad9c22db9251b54a13612cf6565b5060018114612d96565b600803612ea8576001600160a01b037f0bb70095b32b9671358306b0339b4c06e7cbd8cb82505941fba30d1eb5b82f06541690565b6001600160a01b037f0bb70095b32b9671358306b0339b4c06e7cbd8cb82505941fba30d1eb5b82f05541690565b60088103612f3957506001600160a01b03166001600160a01b03197f0bb70095b32b9671358306b0339b4c06e7cbd8cb82505941fba30d1eb5b82f065416177f0bb70095b32b9671358306b0339b4c06e7cbd8cb82505941fba30d1eb5b82f0655565b600914612f435750565b6001600160a01b03166001600160a01b03197f0bb70095b32b9671358306b0339b4c06e7cbd8cb82505941fba30d1eb5b82f055416177f0bb70095b32b9671358306b0339b4c06e7cbd8cb82505941fba30d1eb5b82f0555565b6001600160a01b031680600114159081612fb5575090565b90505f525f51602061303e5f395f51905f526020526001600160a01b0360405f205416151590565b6001600160a01b031680600114159081612ff5575090565b90505f525f51602061309e5f395f51905f526020526001600160a01b0360405f20541615159056fed21d0b289f126c4b473ea641963e766833c2f13866e4ff480abd787c100ef1230bb70095b32b9671358306b0339b4c06e7cbd8cb82505941fba30d1eb5b82f000bb70095b32b9671358306b0339b4c06e7cbd8cb82505941fba30d1eb5b82f030bb70095b32b9671358306b0339b4c06e7cbd8cb82505941fba30d1eb5b82f080bb70095b32b9671358306b0339b4c06e7cbd8cb82505941fba30d1eb5b82f01a164736f6c634300081b000a","linkReferences":{}},"methodIdentifiers":{"eip712Domain()":"84b0196e","getActiveHook()":"0a664dba","getExecutorsPaginated(address,uint256)":"ea5f61d0","getFallbackHandlerBySelector(bytes4)":"481ddd23","getRegistry()":"5ab1bd53","getValidatorsPaginated(address,uint256)":"5faac46b","initNexus((address,bytes)[],(address,bytes)[],(address,bytes),(address,bytes)[],(uint256,address,bytes)[],(address,address[],uint8))":"544d5860","initNexusNoRegistry((address,bytes)[],(address,bytes)[],(address,bytes),(address,bytes)[],(uint256,address,bytes)[])":"86437876","initNexusScoped((address,bytes)[],(address,bytes),(address,address[],uint8))":"8cc8ff1d","initNexusScopedNoRegistry((address,bytes)[],(address,bytes))":"54ed06d5","initNexusWithDefaultValidator(bytes)":"31025984","initNexusWithDefaultValidatorAndOtherModules(bytes,(address,bytes)[],(address,bytes),(address,bytes)[],(uint256,address,bytes)[],(address,address[],uint8))":"a667eca4","initNexusWithDefaultValidatorAndOtherModulesNoRegistry(bytes,(address,bytes)[],(address,bytes),(address,bytes)[],(uint256,address,bytes)[])":"65ff89c9","initNexusWithSingleValidator(address,bytes,(address,address[],uint8))":"9afb7c8d","initNexusWithSingleValidatorNoRegistry(address,bytes)":"10b7fca9","installModule(uint256,address,bytes)":"9517e29f","isModuleInstalled(uint256,address,bytes)":"112d3a7d","uninstallModule(uint256,address,bytes)":"a71763a8"},"id":73}