{"abi":[{"type":"constructor","inputs":[{"name":"defaultValidator","type":"address","internalType":"address"},{"name":"initData","type":"bytes","internalType":"bytes"}],"stateMutability":"nonpayable"},{"type":"fallback","stateMutability":"payable"},{"type":"receive","stateMutability":"payable"},{"type":"function","name":"eip712Domain","inputs":[],"outputs":[{"name":"fields","type":"bytes1","internalType":"bytes1"},{"name":"name","type":"string","internalType":"string"},{"name":"version","type":"string","internalType":"string"},{"name":"chainId","type":"uint256","internalType":"uint256"},{"name":"verifyingContract","type":"address","internalType":"address"},{"name":"salt","type":"bytes32","internalType":"bytes32"},{"name":"extensions","type":"uint256[]","internalType":"uint256[]"}],"stateMutability":"view"},{"type":"function","name":"getActiveHook","inputs":[],"outputs":[{"name":"hook","type":"address","internalType":"address"}],"stateMutability":"view"},{"type":"function","name":"getExecutorsPaginated","inputs":[{"name":"cursor","type":"address","internalType":"address"},{"name":"size","type":"uint256","internalType":"uint256"}],"outputs":[{"name":"array","type":"address[]","internalType":"address[]"},{"name":"next","type":"address","internalType":"address"}],"stateMutability":"view"},{"type":"function","name":"getFallbackHandlerBySelector","inputs":[{"name":"selector","type":"bytes4","internalType":"bytes4"}],"outputs":[{"name":"","type":"bytes1","internalType":"CallType"},{"name":"","type":"address","internalType":"address"}],"stateMutability":"view"},{"type":"function","name":"getRegistry","inputs":[],"outputs":[{"name":"","type":"address","internalType":"contract IERC7484"}],"stateMutability":"view"},{"type":"function","name":"getValidatorsPaginated","inputs":[{"name":"cursor","type":"address","internalType":"address"},{"name":"size","type":"uint256","internalType":"uint256"}],"outputs":[{"name":"array","type":"address[]","internalType":"address[]"},{"name":"next","type":"address","internalType":"address"}],"stateMutability":"view"},{"type":"function","name":"initNexus","inputs":[{"name":"validators","type":"tuple[]","internalType":"struct BootstrapConfig[]","components":[{"name":"module","type":"address","internalType":"address"},{"name":"data","type":"bytes","internalType":"bytes"}]},{"name":"executors","type":"tuple[]","internalType":"struct BootstrapConfig[]","components":[{"name":"module","type":"address","internalType":"address"},{"name":"data","type":"bytes","internalType":"bytes"}]},{"name":"hook","type":"tuple","internalType":"struct BootstrapConfig","components":[{"name":"module","type":"address","internalType":"address"},{"name":"data","type":"bytes","internalType":"bytes"}]},{"name":"fallbacks","type":"tuple[]","internalType":"struct BootstrapConfig[]","components":[{"name":"module","type":"address","internalType":"address"},{"name":"data","type":"bytes","internalType":"bytes"}]},{"name":"preValidationHooks","type":"tuple[]","internalType":"struct BootstrapPreValidationHookConfig[]","components":[{"name":"hookType","type":"uint256","internalType":"uint256"},{"name":"module","type":"address","internalType":"address"},{"name":"data","type":"bytes","internalType":"bytes"}]},{"name":"registryConfig","type":"tuple","internalType":"struct RegistryConfig","components":[{"name":"registry","type":"address","internalType":"contract IERC7484"},{"name":"attesters","type":"address[]","internalType":"address[]"},{"name":"threshold","type":"uint8","internalType":"uint8"}]}],"outputs":[],"stateMutability":"payable"},{"type":"function","name":"initNexusNoRegistry","inputs":[{"name":"validators","type":"tuple[]","internalType":"struct BootstrapConfig[]","components":[{"name":"module","type":"address","internalType":"address"},{"name":"data","type":"bytes","internalType":"bytes"}]},{"name":"executors","type":"tuple[]","internalType":"struct BootstrapConfig[]","components":[{"name":"module","type":"address","internalType":"address"},{"name":"data","type":"bytes","internalType":"bytes"}]},{"name":"hook","type":"tuple","internalType":"struct BootstrapConfig","components":[{"name":"module","type":"address","internalType":"address"},{"name":"data","type":"bytes","internalType":"bytes"}]},{"name":"fallbacks","type":"tuple[]","internalType":"struct BootstrapConfig[]","components":[{"name":"module","type":"address","internalType":"address"},{"name":"data","type":"bytes","internalType":"bytes"}]},{"name":"preValidationHooks","type":"tuple[]","internalType":"struct BootstrapPreValidationHookConfig[]","components":[{"name":"hookType","type":"uint256","internalType":"uint256"},{"name":"module","type":"address","internalType":"address"},{"name":"data","type":"bytes","internalType":"bytes"}]}],"outputs":[],"stateMutability":"payable"},{"type":"function","name":"initNexusScoped","inputs":[{"name":"validators","type":"tuple[]","internalType":"struct BootstrapConfig[]","components":[{"name":"module","type":"address","internalType":"address"},{"name":"data","type":"bytes","internalType":"bytes"}]},{"name":"hook","type":"tuple","internalType":"struct BootstrapConfig","components":[{"name":"module","type":"address","internalType":"address"},{"name":"data","type":"bytes","internalType":"bytes"}]},{"name":"registryConfig","type":"tuple","internalType":"struct RegistryConfig","components":[{"name":"registry","type":"address","internalType":"contract IERC7484"},{"name":"attesters","type":"address[]","internalType":"address[]"},{"name":"threshold","type":"uint8","internalType":"uint8"}]}],"outputs":[],"stateMutability":"payable"},{"type":"function","name":"initNexusScopedNoRegistry","inputs":[{"name":"validators","type":"tuple[]","internalType":"struct BootstrapConfig[]","components":[{"name":"module","type":"address","internalType":"address"},{"name":"data","type":"bytes","internalType":"bytes"}]},{"name":"hook","type":"tuple","internalType":"struct BootstrapConfig","components":[{"name":"module","type":"address","internalType":"address"},{"name":"data","type":"bytes","internalType":"bytes"}]}],"outputs":[],"stateMutability":"payable"},{"type":"function","name":"initNexusWithDefaultValidator","inputs":[{"name":"data","type":"bytes","internalType":"bytes"}],"outputs":[],"stateMutability":"payable"},{"type":"function","name":"initNexusWithDefaultValidatorAndOtherModules","inputs":[{"name":"defaultValidatorInitData","type":"bytes","internalType":"bytes"},{"name":"validators","type":"tuple[]","internalType":"struct BootstrapConfig[]","components":[{"name":"module","type":"address","internalType":"address"},{"name":"data","type":"bytes","internalType":"bytes"}]},{"name":"executors","type":"tuple[]","internalType":"struct BootstrapConfig[]","components":[{"name":"module","type":"address","internalType":"address"},{"name":"data","type":"bytes","internalType":"bytes"}]},{"name":"hook","type":"tuple","internalType":"struct BootstrapConfig","components":[{"name":"module","type":"address","internalType":"address"},{"name":"data","type":"bytes","internalType":"bytes"}]},{"name":"fallbacks","type":"tuple[]","internalType":"struct BootstrapConfig[]","components":[{"name":"module","type":"address","internalType":"address"},{"name":"data","type":"bytes","internalType":"bytes"}]},{"name":"preValidationHooks","type":"tuple[]","internalType":"struct BootstrapPreValidationHookConfig[]","components":[{"name":"hookType","type":"uint256","internalType":"uint256"},{"name":"module","type":"address","internalType":"address"},{"name":"data","type":"bytes","internalType":"bytes"}]},{"name":"registryConfig","type":"tuple","internalType":"struct RegistryConfig","components":[{"name":"registry","type":"address","internalType":"contract IERC7484"},{"name":"attesters","type":"address[]","internalType":"address[]"},{"name":"threshold","type":"uint8","internalType":"uint8"}]}],"outputs":[],"stateMutability":"payable"},{"type":"function","name":"initNexusWithDefaultValidatorAndOtherModulesNoRegistry","inputs":[{"name":"defaultValidatorInitData","type":"bytes","internalType":"bytes"},{"name":"validators","type":"tuple[]","internalType":"struct BootstrapConfig[]","components":[{"name":"module","type":"address","internalType":"address"},{"name":"data","type":"bytes","internalType":"bytes"}]},{"name":"executors","type":"tuple[]","internalType":"struct BootstrapConfig[]","components":[{"name":"module","type":"address","internalType":"address"},{"name":"data","type":"bytes","internalType":"bytes"}]},{"name":"hook","type":"tuple","internalType":"struct BootstrapConfig","components":[{"name":"module","type":"address","internalType":"address"},{"name":"data","type":"bytes","internalType":"bytes"}]},{"name":"fallbacks","type":"tuple[]","internalType":"struct BootstrapConfig[]","components":[{"name":"module","type":"address","internalType":"address"},{"name":"data","type":"bytes","internalType":"bytes"}]},{"name":"preValidationHooks","type":"tuple[]","internalType":"struct BootstrapPreValidationHookConfig[]","components":[{"name":"hookType","type":"uint256","internalType":"uint256"},{"name":"module","type":"address","internalType":"address"},{"name":"data","type":"bytes","internalType":"bytes"}]}],"outputs":[],"stateMutability":"payable"},{"type":"function","name":"initNexusWithSingleValidator","inputs":[{"name":"validator","type":"address","internalType":"address"},{"name":"data","type":"bytes","internalType":"bytes"},{"name":"registryConfig","type":"tuple","internalType":"struct RegistryConfig","components":[{"name":"registry","type":"address","internalType":"contract IERC7484"},{"name":"attesters","type":"address[]","internalType":"address[]"},{"name":"threshold","type":"uint8","internalType":"uint8"}]}],"outputs":[],"stateMutability":"payable"},{"type":"function","name":"initNexusWithSingleValidatorNoRegistry","inputs":[{"name":"validator","type":"address","internalType":"address"},{"name":"data","type":"bytes","internalType":"bytes"}],"outputs":[],"stateMutability":"payable"},{"type":"function","name":"installModule","inputs":[{"name":"moduleTypeId","type":"uint256","internalType":"uint256"},{"name":"module","type":"address","internalType":"address"},{"name":"initData","type":"bytes","internalType":"bytes"}],"outputs":[],"stateMutability":"payable"},{"type":"function","name":"isModuleInstalled","inputs":[{"name":"moduleTypeId","type":"uint256","internalType":"uint256"},{"name":"module","type":"address","internalType":"address"},{"name":"additionalContext","type":"bytes","internalType":"bytes"}],"outputs":[{"name":"installed","type":"bool","internalType":"bool"}],"stateMutability":"view"},{"type":"function","name":"uninstallModule","inputs":[{"name":"moduleTypeId","type":"uint256","internalType":"uint256"},{"name":"module","type":"address","internalType":"address"},{"name":"deInitData","type":"bytes","internalType":"bytes"}],"outputs":[],"stateMutability":"payable"},{"type":"event","name":"ERC7484RegistryConfigured","inputs":[{"name":"registry","type":"address","indexed":true,"internalType":"contract IERC7484"}],"anonymous":false},{"type":"event","name":"ModuleInstalled","inputs":[{"name":"moduleTypeId","type":"uint256","indexed":false,"internalType":"uint256"},{"name":"module","type":"address","indexed":false,"internalType":"address"}],"anonymous":false},{"type":"event","name":"ModuleUninstalled","inputs":[{"name":"moduleTypeId","type":"uint256","indexed":false,"internalType":"uint256"},{"name":"module","type":"address","indexed":false,"internalType":"address"}],"anonymous":false},{"type":"error","name":"CanNotRemoveLastValidator","inputs":[]},{"type":"error","name":"DefaultValidatorAlreadyInstalled","inputs":[]},{"type":"error","name":"EmergencyUninstallSigError","inputs":[]},{"type":"error","name":"EnableModeSigError","inputs":[]},{"type":"error","name":"FallbackAlreadyInstalledForSelector","inputs":[{"name":"selector","type":"bytes4","internalType":"bytes4"}]},{"type":"error","name":"FallbackCallTypeInvalid","inputs":[]},{"type":"error","name":"FallbackHandlerUninstallFailed","inputs":[]},{"type":"error","name":"FallbackNotInstalledForSelector","inputs":[{"name":"selector","type":"bytes4","internalType":"bytes4"}]},{"type":"error","name":"FallbackSelectorForbidden","inputs":[]},{"type":"error","name":"HookAlreadyInstalled","inputs":[{"name":"currentHook","type":"address","internalType":"address"}]},{"type":"error","name":"HookPostCheckFailed","inputs":[]},{"type":"error","name":"InvalidInput","inputs":[]},{"type":"error","name":"InvalidModule","inputs":[{"name":"module","type":"address","internalType":"address"}]},{"type":"error","name":"InvalidModuleTypeId","inputs":[{"name":"moduleTypeId","type":"uint256","internalType":"uint256"}]},{"type":"error","name":"InvalidNonce","inputs":[]},{"type":"error","name":"LinkedList_AlreadyInitialized","inputs":[]},{"type":"error","name":"LinkedList_EntryAlreadyInList","inputs":[{"name":"entry","type":"address","internalType":"address"}]},{"type":"error","name":"LinkedList_InvalidEntry","inputs":[{"name":"entry","type":"address","internalType":"address"}]},{"type":"error","name":"LinkedList_InvalidPage","inputs":[]},{"type":"error","name":"MismatchModuleTypeId","inputs":[]},{"type":"error","name":"MissingFallbackHandler","inputs":[{"name":"selector","type":"bytes4","internalType":"bytes4"}]},{"type":"error","name":"ModuleAddressCanNotBeZero","inputs":[]},{"type":"error","name":"ModuleAlreadyInstalled","inputs":[{"name":"moduleTypeId","type":"uint256","internalType":"uint256"},{"name":"module","type":"address","internalType":"address"}]},{"type":"error","name":"ModuleNotInstalled","inputs":[{"name":"moduleTypeId","type":"uint256","internalType":"uint256"},{"name":"module","type":"address","internalType":"address"}]},{"type":"error","name":"NoValidatorInstalled","inputs":[]},{"type":"error","name":"PrevalidationHookAlreadyInstalled","inputs":[{"name":"currentPreValidationHook","type":"address","internalType":"address"}]},{"type":"error","name":"UnauthorizedOperation","inputs":[{"name":"operator","type":"address","internalType":"address"}]},{"type":"error","name":"UnsupportedCallType","inputs":[{"name":"callType","type":"bytes1","internalType":"CallType"}]},{"type":"error","name":"ValidatorNotInstalled","inputs":[{"name":"module","type":"address","internalType":"address"}]}],"bytecode":{"object":"0x610140806040523461023e576134b1803803809161001d82856102aa565b833981019060408183031261023e578051906001600160a01b0382169081830361023e576020810151906001600160401b03821161023e570183601f8201121561023e5780516001600160401b0381116102965760405191610089601f8301601f1916602001846102aa565b81835260208301956020838301011161023e57815f926020809301885e83010152306080524660a05260409360a085516100c387826102aa565b600e815260208101906d04e65787573426f6f7473747261760941b82528751916100ed89846102aa565b60058352602083019164312e322e3160d81b8352519020915190208160c0528060e0528751917f8b73c3c69bb8fe3d512ecc4cf759cc79239f7b179b0ffacaa9a75d522b39400f83526020830152878201524660608201523060808201522061010052845163ecd0596160e01b815260016004820152602081602481875afa90811561028c575f91610251575b501561024257823b1561023e576044925f928387519586809581946306d61fe760e41b8352602060048401525180918160248501528484015e8181018301849052601f01601f191681010301925af1801561023457610224575b5061012052516131e390816102ce823960805181505060a05181505060c05181505060e0518150506101005181505061012051818181610429015281816112360152818161197701526121320152f35b5f61022e916102aa565b5f6101d4565b83513d5f823e3d90fd5b5f80fd5b631c4f83bb60e31b5f5260045ffd5b90506020813d602011610284575b8161026c602093836102aa565b8101031261023e5751801515810361023e575f61017a565b3d915061025f565b86513d5f823e3d90fd5b634e487b7160e01b5f52604160045260245ffd5b601f909101601f19168101906001600160401b038211908210176102965760405256fe60806040526004361015610015575b3661173357005b5f3560e01c80630a664dba1461012f57806310b7fca91461012a578063112d3a7d14610125578063310259841461012057806341bede031461011b578063481ddd2314610116578063544d58601461011157806354ed06d51461010c5780635ab1bd53146101075780635faac46b1461010257806377182ae6146100fd57806384b0196e146100f857806386437876146100f35780638cc8ff1d146100ee5780639517e29f146100e45780639afb7c8d146100e9578063a71763a8146100e45763ea5f61d00361000e57611099565b611003565b61100c565b610f0c565b610e4d565b610d65565b610c42565b610aa5565b610a10565b610890565b6107b4565b6105bc565b6104da565b6103f2565b6103d6565b6101bc565b610142565b5f91031261013e57565b5f80fd5b3461013e575f36600319011261013e5760206001600160a01b035f5160206131775f395f51905f5254166001600160a01b0360405191168152f35b6001600160a01b0381160361013e57565b9181601f8401121561013e5782359167ffffffffffffffff831161013e576020838186019501011161013e57565b604036600319011261013e576004356101d48161017d565b60243567ffffffffffffffff811161013e576101f490369060040161018e565b610247610202939293611195565b60405161020e81610684565b5f81526020810191825260ff6001600160a01b0360408301925f8452610232612a5a565b61023a612adc565b5116925191511691611f39565b6001600160a01b0361026d6001600160a01b035f5160206131775f395f51905f52541690565b16806102b75750906102916102b2925f5160206131375f395f51905f5294836120e1565b60408051600181526001600160a01b03909216602083015290918291820190565b0390a1005b906040519363d68f602560e01b85525f85806102d836343360048501611ed3565b038183875af1948515610367575f9561036c575b50906102f891846120e1565b803b1561013e57604051630b9dfbed60e11b8152925f9184918290849082906103249060048301611f28565b03925af1908115610367575f5160206131375f395f51905f52926102b29261034d575b50610291565b8061035b5f610361936106a0565b80610134565b5f610347565b611216565b6102f89291955061038e903d805f833e61038681836106a0565b810190611e70565b9490916102ec565b606060031982011261013e57600435916024356103b28161017d565b916044359067ffffffffffffffff821161013e576103d29160040161018e565b9091565b3461013e576103e436610396565b5050505060206040515f8152f35b5f602036600319011261013e5760043567ffffffffffffffff811161013e5761041f90369060040161018e565b6001600160a01b037f00000000000000000000000000000000000000000000000000000000000000001691823b1561013e5761047b925f92836040518096819582946306d61fe760e41b845260206004850181815201916111e2565b03925af180156103675761048d575080f35b61049991505f906106a0565b005b9181601f8401121561013e5782359167ffffffffffffffff831161013e576020808501948460051b01011161013e57565b9081604091031261013e5790565b60c036600319011261013e5760043567ffffffffffffffff811161013e5761050690369060040161018e565b60243567ffffffffffffffff811161013e5761052690369060040161049b565b60449391933567ffffffffffffffff811161013e5761054990369060040161049b565b60649291923567ffffffffffffffff811161013e5761056c9036906004016104cc565b9060843567ffffffffffffffff811161013e5761058d90369060040161049b565b94909360a4359867ffffffffffffffff8a1161013e576105b46104999a369060040161049b565b999098611221565b3461013e57602036600319011261013e576004356001600160e01b03198116810361013e576001600160e01b0319165f9081527f0bb70095b32b9671358306b0339b4c06e7cbd8cb82505941fba30d1eb5b82f026020526040902060405190604082019082821067ffffffffffffffff831117610670576040918252546001600160a01b03811680845260589190911b6001600160f81b0319166020938401819052825190815292830152819081015b0390f35b634e487b7160e01b5f52604160045260245ffd5b6060810190811067ffffffffffffffff82111761067057604052565b90601f8019910116810190811067ffffffffffffffff82111761067057604052565b604051906106d16040836106a0565b565b67ffffffffffffffff81116106705760051b60200190565b359060ff8216820361013e57565b91909160608184031261013e576040519061071382610684565b819381356107208161017d565b8352602082013567ffffffffffffffff811161013e5782019080601f8301121561013e57813561074f816106d3565b9261075d60405194856106a0565b81845260208085019260051b82010192831161013e57602001905b82821061079a5750505060408092610795926020860152016106eb565b910152565b6020809183356107a98161017d565b815201910190610778565b60c036600319011261013e5760043567ffffffffffffffff811161013e576107e090369060040161049b565b9060243567ffffffffffffffff811161013e5761080190369060040161049b565b9060443567ffffffffffffffff811161013e576108229036906004016104cc565b60643567ffffffffffffffff811161013e5761084290369060040161049b565b9160843567ffffffffffffffff811161013e5761086390369060040161049b565b95909460a4359867ffffffffffffffff8a1161013e5761088a6104999a36906004016106f9565b98611c6f565b604036600319011261013e5760043567ffffffffffffffff811161013e576108bc90369060040161049b565b9060243567ffffffffffffffff811161013e576108dd9036906004016104cc565b9161093a6108e9611195565b6040516108f581610684565b5f81526020810191825261093461092a60408301925f8452610915612a5a565b61091d612adc565b516001600160a01b031690565b9251915160ff1690565b91611f39565b5f5b8181106109b657836001600160a01b0361095582611c10565b1661095c57005b6102b26109958261099061097d5f5160206131375f395f51905f5295611c10565b61098a6020840184611c1a565b916122f9565b611c10565b60408051600481526001600160a01b03909216602083015290918291820190565b806109e86109ca6109906001948688611be9565b6109e26109d8848789611be9565b6020810190611c1a565b91611ffc565b5f5160206131375f395f51905f52610a07610291610990848789611be9565b0390a10161093c565b3461013e575f36600319011261013e5760206001600160a01b035f5160206131975f395f51905f525416604051908152f35b90602080835192838152019201905f5b818110610a5f5750505090565b82516001600160a01b0316845260209384019390920191600101610a52565b906001600160a01b03610a9e602092959495604085526040850190610a42565b9416910152565b3461013e57604036600319011261013e57600435610ac28161017d565b6024359060016001600160a01b038216141580610c2c575b610c11578115610c025790610aee816111b0565b610b26610b195f946001600160a01b03165f525f5160206131575f395f51905f5260205260405f2090565b546001600160a01b031690565b6001600160a01b0381168015159081610bf6575b5080610bed575b15610b9b57610b8f610b1982610b6c610b9594610b5e89886129e4565b906001600160a01b03169052565b6001600160a01b03165f525f5160206131575f395f51905f5260205260405f2090565b93612a0c565b92610b26565b908360016001600160a01b038416141580610be4575b610bc7575b815261066c60405192839283610a7e565b9150610bde61091d610bd884612a1f565b836129e4565b91610bb6565b50801515610bb1565b50828410610b41565b6001915014155f610b3a565b63f725081760e01b5f5260045ffd5b637c84ecfb60e01b5f526001600160a01b031660045260245ffd5b50610c3d610c39826130b6565b1590565b610ada565b60e036600319011261013e5760043567ffffffffffffffff811161013e57610c6e90369060040161018e565b9060243567ffffffffffffffff811161013e57610c8f90369060040161049b565b9060443567ffffffffffffffff811161013e57610cb090369060040161049b565b9060643567ffffffffffffffff811161013e57610cd19036906004016104cc565b60843567ffffffffffffffff811161013e57610cf190369060040161049b565b93909260a43567ffffffffffffffff811161013e57610d1490369060040161049b565b97909660c4359a67ffffffffffffffff8c1161013e57610d3b6104999c36906004016106f9565b9a611956565b805180835260209291819084018484015e5f828201840152601f01601f1916010190565b3461013e575f36600319011261013e57610def6040610dfc815191610d8a81846106a0565b600e83527f4e65787573426f6f74737472617000000000000000000000000000000000000060208401528051610dc082826106a0565b6005815264312e322e3160d81b60208201528151948594600f60f81b865260e0602087015260e0860190610d41565b9184830390850152610d41565b4660608301523060808301525f60a083015281810360c083015260206060519182815201906080905f5b818110610e34575050500390f35b8251845285945060209384019390920191600101610e26565b60a036600319011261013e5760043567ffffffffffffffff811161013e57610e7990369060040161049b565b60243567ffffffffffffffff811161013e57610e9990369060040161049b565b60449391933567ffffffffffffffff811161013e57610ebc9036906004016104cc565b9060643567ffffffffffffffff811161013e57610edd90369060040161049b565b9290916084359667ffffffffffffffff881161013e57610f0461049998369060040161049b565b979096611550565b606036600319011261013e5760043567ffffffffffffffff811161013e57610f3890369060040161049b565b9060243567ffffffffffffffff811161013e57610f599036906004016104cc565b9160443567ffffffffffffffff811161013e57610f7d610fac9136906004016106f9565b610f85612a5a565b610f8d612adc565b80516001600160a01b0316906109346040602083015192015160ff1690565b5f5b818110610fc757836001600160a01b0361095582611c10565b80610fdb6109ca6109906001948688611be9565b5f5160206131375f395f51905f52610ffa610291610990848789611be9565b0390a101610fae565b61049936610396565b606036600319011261013e576004356110248161017d565b60243567ffffffffffffffff811161013e5761104490369060040161018e565b60449291923567ffffffffffffffff811161013e5761106a6102479136906004016106f9565b611072612a5a565b61107a612adc565b6001600160a01b038151169060ff604060208301519201511691611f39565b3461013e57604036600319011261013e576004356110b68161017d565b6024359060016001600160a01b038216141580611183575b610c11578115610c0257906110e2816111b0565b61110d610b195f946001600160a01b03165f525f5160206131b75f395f51905f5260205260405f2090565b6001600160a01b0381168015159081611177575b508061116e575b15610b9b57610b8f610b198261114561116894610b5e89886129e4565b6001600160a01b03165f525f5160206131b75f395f51905f5260205260405f2090565b9261110d565b50828410611128565b6001915014155f611121565b50611190610c39826130f6565b6110ce565b604051906111a46020836106a0565b5f808352366020840137565b906111ba826106d3565b6111c760405191826106a0565b82815280926111d8601f19916106d3565b0190602036910137565b908060209392818452848401375f828201840152601f01601f1916010190565b9160206112139381815201916111e2565b90565b6040513d5f823e3d90fd5b61122c6108e9611195565b6001600160a01b037f00000000000000000000000000000000000000000000000000000000000000001691823b1561013e57611281925f92836040518096819582946306d61fe760e41b845260048401611202565b03925af180156103675761153c575b505f5b8281106114d6575050505f5b828110611449575050506112c16112b582611c10565b6001600160a01b031690565b61141f575b505f5b828110611392575050505f5b8281106112e157505050565b806112fd6112b560206112f76001958888611c4d565b01611c10565b1561138d57611342611310828686611c4d565b3561132160206112f7858989611c4d565b9061133a611330858989611c4d565b6040810190611c1a565b929091612895565b5f5160206131375f395f51905f5261135b828686611c4d565b3561136c60206112f7858989611c4d565b604080519283526001600160a01b0391909116602083015290a15b016112d5565b611387565b806113a66112b56109906001948787611be9565b1561141a576113d06113bc610990838787611be9565b6113ca6109d8848888611be9565b91612485565b5f5160206131375f395f51905f526114106113ef610990848888611be9565b60408051600381526001600160a01b03909216602083015290918291820190565b0390a15b016112c9565b611414565b6114406109958261099061097d5f5160206131375f395f51905f5295611c10565b0390a15f6112c6565b8061145d6112b56109906001948787611be9565b156114d157611487611473610990838787611be9565b6114816109d8848888611be9565b916121f0565b5f5160206131375f395f51905f526114c76114a6610990848888611be9565b60408051600281526001600160a01b03909216602083015290918291820190565b0390a15b0161129f565b6114cb565b806114ea6112b56109906001948787611be9565b156115375761150e611500610990838787611be9565b6109e26109d8848888611be9565b5f5160206131375f395f51905f5261152d610291610990848888611be9565b0390a15b01611293565b611531565b8061035b5f61154a936106a0565b5f611290565b90959493956115606108e9611195565b5f5b8181106116f7575050505f5b82811061169f575050505f5b828110611647575050506115906112b582611c10565b61161d575b505f5b8281106115a457505050565b806115ba6112b560206112f76001958888611c4d565b15611618576115cd611310828686611c4d565b5f5160206131375f395f51905f526115e6828686611c4d565b356115f760206112f7858989611c4d565b604080519283526001600160a01b0391909116602083015290a15b01611598565b611612565b61163e6109958261099061097d5f5160206131375f395f51905f5295611c10565b0390a15f611595565b8061165b6112b56109906001948787611be9565b1561169a576116716113bc610990838787611be9565b5f5160206131375f395f51905f526116906113ef610990848888611be9565b0390a15b0161157a565b611694565b806116b36112b56109906001948787611be9565b156116f2576116c9611473610990838787611be9565b5f5160206131375f395f51905f526116e86114a6610990848888611be9565b0390a15b0161156e565b6116ec565b8061170b6109ca6109906001948688611be9565b5f5160206131375f395f51905f5261172a610291610990848789611be9565b0390a101611562565b5f80356001600160e01b031981168083527f0bb70095b32b9671358306b0339b4c06e7cbd8cb82505941fba30d1eb5b82f0260205260409092205461178c6001600160a01b0382169160581b6001600160f81b03191690565b906001600160a01b0381166117e257505060e01c9063bc197c81821463f23a6e6183141763150b7a028314176117d8576308c63e2760e01b5f526001600160e01b03191660045260245ffd5b506020526020603cf35b5f5160206131775f395f51905f52546001600160a01b03168015159260609290846118ff575b6001600160f81b03198116607f60f91b036118ad57505f8091611829612a2d565b90602082519201905afa9261183c611ef9565b935b156118a557611850575b825160208401f35b803b1561013e57604051630b9dfbed60e11b8152915f91839182908490829061187c9060048301611f28565b03925af1801561036757611891575b80611848565b8061035b5f61189f936106a0565b8161188b565b835160208501fd5b6001600160f81b031981166118e357505f80916118c8612a2d565b906020825192019034905af1926118dd611ef9565b9361183e565b632e5bf3f960e21b5f526001600160f81b03191660045260245ffd5b60405163d68f602560e01b81529093505f818061192136343360048501611ed3565b038183875af1908115610367575f9161193c575b5092611808565b61195091503d805f833e61038681836106a0565b85611935565b909192939495969798999a61196d90610f85612a5a565b6001600160a01b037f00000000000000000000000000000000000000000000000000000000000000001691823b1561013e576119c2925f92836040518096819582946306d61fe760e41b845260048401611202565b03925af1801561036757611bc1575b505f5b828110611b69575050505f5b828110611b11575050506119f66112b582611c10565b611ae7575b505f5b828110611a8f575050505f5b828110611a1657505050565b80611a2c6112b560206112f76001958888611c4d565b15611a8a57611a3f611310828686611c4d565b5f5160206131375f395f51905f52611a58828686611c4d565b35611a6960206112f7858989611c4d565b604080519283526001600160a01b0391909116602083015290a15b01611a0a565b611a84565b80611aa36112b56109906001948787611be9565b15611ae257611ab96113bc610990838787611be9565b5f5160206131375f395f51905f52611ad86113ef610990848888611be9565b0390a15b016119fe565b611adc565b611b086109958261099061097d5f5160206131375f395f51905f5295611c10565b0390a15f6119fb565b80611b256112b56109906001948787611be9565b15611b6457611b3b611473610990838787611be9565b5f5160206131375f395f51905f52611b5a6114a6610990848888611be9565b0390a15b016119e0565b611b5e565b80611b7d6112b56109906001948787611be9565b15611bbc57611b93611500610990838787611be9565b5f5160206131375f395f51905f52611bb2610291610990848888611be9565b0390a15b016119d4565b611bb6565b8061035b5f611bcf936106a0565b5f6119d1565b634e487b7160e01b5f52603260045260245ffd5b9190811015611c0b5760051b81013590603e198136030182121561013e570190565b611bd5565b356112138161017d565b903590601e198136030182121561013e570180359067ffffffffffffffff821161013e5760200191813603831361013e57565b9190811015611c0b5760051b81013590605e198136030182121561013e570190565b919293969798611c8190610f85612a5a565b5f5b818110611e18575050505f5b828110611dc0575050505f5b828110611d6857505050611cb16112b582611c10565b611d3e575b505f5b828110611cc557505050565b80611cdb6112b560206112f76001958888611c4d565b15611d3957611cee611310828686611c4d565b5f5160206131375f395f51905f52611d07828686611c4d565b35611d1860206112f7858989611c4d565b604080519283526001600160a01b0391909116602083015290a15b01611cb9565b611d33565b611d5f6109958261099061097d5f5160206131375f395f51905f5295611c10565b0390a15f611cb6565b80611d7c6112b56109906001948787611be9565b15611dbb57611d926113bc610990838787611be9565b5f5160206131375f395f51905f52611db16113ef610990848888611be9565b0390a15b01611c9b565b611db5565b80611dd46112b56109906001948787611be9565b15611e1357611dea611473610990838787611be9565b5f5160206131375f395f51905f52611e096114a6610990848888611be9565b0390a15b01611c8f565b611e0d565b80611e2c6109ca6109906001948688611be9565b5f5160206131375f395f51905f52611e4b610291610990848789611be9565b0390a101611c83565b67ffffffffffffffff811161067057601f01601f191660200190565b60208183031261013e5780519067ffffffffffffffff821161013e570181601f8201121561013e57805190611ea482611e54565b92611eb260405194856106a0565b8284526020838301011161013e57815f9260208093018386015e8301015290565b61121393926001600160a01b03606093168252602082015281604082015201905f6111e2565b3d15611f23573d90611f0a82611e54565b91611f1860405193846106a0565b82523d5f602084013e565b606090565b906020611213928181520190610d41565b6001600160a01b031691826001600160a01b03195f5160206131975f395f51905f525416175f5160206131975f395f51905f525582611f9b575b50507ff98c8404c5b1bfef2e6ba9233c6e88845aedfd36eea8b192725d8c199571cf325f80a2565b823b1561013e5760405f91611fd18251948593849363f05c04e160e01b855260ff60048601911681528160208201520190610a42565b038183865af1801561036757611fe8575b80611f73565b8061035b5f611ff6936106a0565b5f611fe2565b91906001600160a01b036120246001600160a01b035f5160206131775f395f51905f52541690565b168061203457506106d1926120e1565b60405163d68f602560e01b81529290915f848061205636343360048501611ed3565b038183875af1938415610367575f946120c1575b506120769293946120e1565b803b1561013e57604051630b9dfbed60e11b8152915f9183918290849082906120a29060048301611f28565b03925af18015610367576120b35750565b8061035b5f6106d1936106a0565b6120769394506120da903d805f833e61038681836106a0565b939261206a565b916120eb83612b4f565b60405163ecd0596160e01b8152600160048201526001600160a01b0384169390602081602481885afa908115610367575f916121a9575b501561219a576001600160a01b037f000000000000000000000000000000000000000000000000000000000000000016841461218b5761216190612d64565b823b1561013e576120a2925f92836040518096819582946306d61fe760e41b845260048401611202565b63abc3af7960e01b5f5260045ffd5b631c4f83bb60e31b5f5260045ffd5b6121cb915060203d6020116121d1575b6121c381836106a0565b8101906121d8565b5f612122565b503d6121b9565b9081602091031261013e5751801515810361013e5790565b91906001600160a01b036122186001600160a01b035f5160206131775f395f51905f52541690565b168061222857506106d19261228a565b60405163d68f602560e01b81529290915f848061224a36343360048501611ed3565b038183875af1938415610367575f9461226a575b5061207692939461228a565b612076939450612283903d805f833e61038681836106a0565b939261225e565b9161229483612bca565b60405163ecd0596160e01b8152600260048201526001600160a01b0384169390602081602481885afa908115610367575f916122da575b501561219a5761216190612e9c565b6122f3915060203d6020116121d1576121c381836106a0565b5f6122cb565b91906001600160a01b036123216001600160a01b035f5160206131775f395f51905f52541690565b168061233157506106d192612393565b60405163d68f602560e01b81529290915f848061235336343360048501611ed3565b038183875af1938415610367575f94612373575b50612076929394612393565b61207693945061238c903d805f833e61038681836106a0565b9392612367565b9161239d83612c30565b60405163ecd0596160e01b81526004808201526001600160a01b0384169390602081602481885afa908115610367575f91612442575b501561219a576121619061240e6123fe6001600160a01b035f5160206131775f395f51905f52541690565b6001600160a01b03811615612461565b6001600160a01b03166001600160a01b03195f5160206131775f395f51905f525416175f5160206131775f395f51905f5255565b61245b915060203d6020116121d1576121c381836106a0565b5f6123d3565b156124695750565b6001600160a01b039063741cbe0360e01b5f521660045260245ffd5b91906001600160a01b036124ad6001600160a01b035f5160206131775f395f51905f52541690565b16806124bd57506106d19261251f565b60405163d68f602560e01b81529290915f84806124df36343360048501611ed3565b038183875af1938415610367575f946124ff575b5061207692939461251f565b612076939450612518903d805f833e61038681836106a0565b93926124f3565b909161252a82612c98565b60405163ecd0596160e01b8152600360048201526001600160a01b0383169290602081602481875afa908115610367575f91612781575b501561219a576126c58461268f6125e06125d986806125b76125aa61259c836125966125906127249e8c6127a0565b906127cb565b99612801565b356001600160f81b03191690565b6001600160f81b03191690565b9a6001600160f81b03198c1615801561276a575b6125d490612810565b6127ae565b3691612826565b9661260f6001600160e01b031984166306d61fe760e41b8114908115612759575b8115612750575b501561285c565b6126648361265f610c39826001600160e01b0319165f9081527f0bb70095b32b9671358306b0339b4c06e7cbd8cb82505941fba30d1eb5b82f0260205260409020546001600160a01b0316151590565b612872565b61267e61266f6106c2565b6001600160a01b039096168652565b6001600160f81b0319166020850152565b63ffffffff60e01b165f527f0bb70095b32b9671358306b0339b4c06e7cbd8cb82505941fba30d1eb5b82f0260205260405f2090565b8151815460209093015174ff000000000000000000000000000000000000000060589190911c167fffffffffffffffffffffff0000000000000000000000000000000000000000009093166001600160a01b0390911617919091179055565b803b1561013e576040516306d61fe760e41b8152915f9183918290849082906120a29060048301611f28565b9050155f612608565b638a91b0e360e01b81149150612601565b50607f60f91b6001600160f81b03198d16146125cb565b61279a915060203d6020116121d1576121c381836106a0565b5f612561565b9060041161013e5790600490565b909291928360051161013e57831161013e57600501916004190190565b356001600160e01b03198116929190600482106127e6575050565b6001600160e01b031960049290920360031b82901b16169150565b9060041015611c0b5760040190565b1561281757565b63867a1dcf60e01b5f5260045ffd5b92919261283282611e54565b9161284060405193846106a0565b82948184528183011161013e578281602093845f960137010152565b1561286357565b63c001660b60e01b5f5260045ffd5b1561287a5750565b63a56a04dd60e01b5f5263ffffffff60e01b1660045260245ffd5b9291906001600160a01b036128be6001600160a01b035f5160206131775f395f51905f52541690565b16806128ce57506106d193612932565b60405163d68f602560e01b815293909290915f85806128f236343360048501611ed3565b038183885af1948515610367575f95612912575b50612076939495612932565b61207694955061292b903d805f833e61038681836106a0565b9493612906565b92909261293f8185612cfe565b60405163ecd0596160e01b8152600481018290526001600160a01b0385169490602081602481895afa908115610367575f916129a1575b501561219a578161299c61298c61216194612f8c565b6001600160a01b038116156129c0565b612fef565b6129ba915060203d6020116121d1576121c381836106a0565b5f612976565b156129c85750565b6001600160a01b039063c689cd9760e01b5f521660045260245ffd5b8051821015611c0b5760209160051b010190565b634e487b7160e01b5f52601160045260245ffd5b5f198114612a1a5760010190565b6129f8565b5f19810191908211612a1a57565b60405190602036830101604052816014360181525f602036920137604051601481016040523360601b9052565b60015f525f5160206131b75f395f51905f526020527fbdfeb076d903611fa58576955630d640569633049bcf40ad9c22db9251b54a13546001600160a01b0316612acd5760015f525f5160206131b75f395f51905f526020526106d160405f2060016001600160a01b0319825416179055565b6329e42f3360e11b5f5260045ffd5b60015f525f5160206131575f395f51905f526020527ffe44ceacbf4f03c6ac19f86826dd265fa9ec25125e8b1766c207f24cd3bc73c7546001600160a01b0316612acd5760015f525f5160206131575f395f51905f526020526106d160405f2060016001600160a01b0319825416179055565b6001600160a01b035f5160206131975f395f51905f5254169081612b71575050565b813b1561013e576040516396fb721760e01b81526001600160a01b03909116600482015260016024820152905f90829060449082905afa801561036757612bb55750565b80612bc15f80936106a0565b80031261013e57565b6001600160a01b035f5160206131975f395f51905f5254169081612bec575050565b813b1561013e576040516396fb721760e01b81526001600160a01b03909116600482015260026024820152905f90829060449082905afa801561036757612bb55750565b6001600160a01b035f5160206131975f395f51905f5254169081612c52575050565b813b1561013e576040516396fb721760e01b81526001600160a01b039091166004808301919091526024820152905f90829060449082905afa801561036757612bb55750565b6001600160a01b035f5160206131975f395f51905f5254169081612cba575050565b813b1561013e576040516396fb721760e01b81526001600160a01b03909116600482015260036024820152905f90829060449082905afa801561036757612bb55750565b6001600160a01b035f5160206131975f395f51905f5254169182612d2157505050565b823b1561013e576040516396fb721760e01b81526001600160a01b039290921660048301526024820152905f90829060449082905afa801561036757612bb55750565b6001600160a01b03811680158015612e92575b612e80575f9081525f5160206131575f395f51905f5260205260409020546001600160a01b0316612e655760015f525f5160206131575f395f51905f526020526106d190612e2a612de77ffe44ceacbf4f03c6ac19f86826dd265fa9ec25125e8b1766c207f24cd3bc73c7610b19565b612e0f835f5160206131575f395f51905f52906001600160a01b03165f5260205260405f2090565b906001600160a01b03166001600160a01b0319825416179055565b60015f525f5160206131575f395f51905f526020527ffe44ceacbf4f03c6ac19f86826dd265fa9ec25125e8b1766c207f24cd3bc73c7612e0f565b631034f46960e21b5f526001600160a01b031660045260245ffd5b637c84ecfb60e01b5f5260045260245ffd5b5060018114612d77565b6001600160a01b03811680158015612f82575b612e80575f9081525f5160206131b75f395f51905f5260205260409020546001600160a01b0316612e655760015f525f5160206131b75f395f51905f526020526106d190612f47612f1f7fbdfeb076d903611fa58576955630d640569633049bcf40ad9c22db9251b54a13610b19565b612e0f835f5160206131b75f395f51905f52906001600160a01b03165f5260205260405f2090565b60015f525f5160206131b75f395f51905f526020527fbdfeb076d903611fa58576955630d640569633049bcf40ad9c22db9251b54a13612e0f565b5060018114612eaf565b600803612fc1576001600160a01b037f0bb70095b32b9671358306b0339b4c06e7cbd8cb82505941fba30d1eb5b82f06541690565b6001600160a01b037f0bb70095b32b9671358306b0339b4c06e7cbd8cb82505941fba30d1eb5b82f05541690565b6008810361305257506001600160a01b03166001600160a01b03197f0bb70095b32b9671358306b0339b4c06e7cbd8cb82505941fba30d1eb5b82f065416177f0bb70095b32b9671358306b0339b4c06e7cbd8cb82505941fba30d1eb5b82f0655565b60091461305c5750565b6001600160a01b03166001600160a01b03197f0bb70095b32b9671358306b0339b4c06e7cbd8cb82505941fba30d1eb5b82f055416177f0bb70095b32b9671358306b0339b4c06e7cbd8cb82505941fba30d1eb5b82f0555565b6001600160a01b0316806001141590816130ce575090565b90505f525f5160206131575f395f51905f526020526001600160a01b0360405f205416151590565b6001600160a01b03168060011415908161310e575090565b90505f525f5160206131b75f395f51905f526020526001600160a01b0360405f20541615159056fed21d0b289f126c4b473ea641963e766833c2f13866e4ff480abd787c100ef1230bb70095b32b9671358306b0339b4c06e7cbd8cb82505941fba30d1eb5b82f000bb70095b32b9671358306b0339b4c06e7cbd8cb82505941fba30d1eb5b82f030bb70095b32b9671358306b0339b4c06e7cbd8cb82505941fba30d1eb5b82f080bb70095b32b9671358306b0339b4c06e7cbd8cb82505941fba30d1eb5b82f01a164736f6c634300081b000a","linkReferences":{}},"methodIdentifiers":{"eip712Domain()":"84b0196e","getActiveHook()":"0a664dba","getExecutorsPaginated(address,uint256)":"ea5f61d0","getFallbackHandlerBySelector(bytes4)":"481ddd23","getRegistry()":"5ab1bd53","getValidatorsPaginated(address,uint256)":"5faac46b","initNexus((address,bytes)[],(address,bytes)[],(address,bytes),(address,bytes)[],(uint256,address,bytes)[],(address,address[],uint8))":"544d5860","initNexusNoRegistry((address,bytes)[],(address,bytes)[],(address,bytes),(address,bytes)[],(uint256,address,bytes)[])":"86437876","initNexusScoped((address,bytes)[],(address,bytes),(address,address[],uint8))":"8cc8ff1d","initNexusScopedNoRegistry((address,bytes)[],(address,bytes))":"54ed06d5","initNexusWithDefaultValidator(bytes)":"31025984","initNexusWithDefaultValidatorAndOtherModules(bytes,(address,bytes)[],(address,bytes)[],(address,bytes),(address,bytes)[],(uint256,address,bytes)[],(address,address[],uint8))":"77182ae6","initNexusWithDefaultValidatorAndOtherModulesNoRegistry(bytes,(address,bytes)[],(address,bytes)[],(address,bytes),(address,bytes)[],(uint256,address,bytes)[])":"41bede03","initNexusWithSingleValidator(address,bytes,(address,address[],uint8))":"9afb7c8d","initNexusWithSingleValidatorNoRegistry(address,bytes)":"10b7fca9","installModule(uint256,address,bytes)":"9517e29f","isModuleInstalled(uint256,address,bytes)":"112d3a7d","uninstallModule(uint256,address,bytes)":"a71763a8"},"id":74}