{"abi":[{"type":"fallback","stateMutability":"payable"},{"type":"receive","stateMutability":"payable"},{"type":"function","name":"eip712Domain","inputs":[],"outputs":[{"name":"fields","type":"bytes1","internalType":"bytes1"},{"name":"name","type":"string","internalType":"string"},{"name":"version","type":"string","internalType":"string"},{"name":"chainId","type":"uint256","internalType":"uint256"},{"name":"verifyingContract","type":"address","internalType":"address"},{"name":"salt","type":"bytes32","internalType":"bytes32"},{"name":"extensions","type":"uint256[]","internalType":"uint256[]"}],"stateMutability":"view"},{"type":"function","name":"getActiveHook","inputs":[],"outputs":[{"name":"hook","type":"address","internalType":"address"}],"stateMutability":"view"},{"type":"function","name":"getExecutorsPaginated","inputs":[{"name":"cursor","type":"address","internalType":"address"},{"name":"size","type":"uint256","internalType":"uint256"}],"outputs":[{"name":"array","type":"address[]","internalType":"address[]"},{"name":"next","type":"address","internalType":"address"}],"stateMutability":"view"},{"type":"function","name":"getFallbackHandlerBySelector","inputs":[{"name":"selector","type":"bytes4","internalType":"bytes4"}],"outputs":[{"name":"","type":"bytes1","internalType":"CallType"},{"name":"","type":"address","internalType":"address"}],"stateMutability":"view"},{"type":"function","name":"getInitNexusCalldata","inputs":[{"name":"validators","type":"tuple[]","internalType":"struct BootstrapConfig[]","components":[{"name":"module","type":"address","internalType":"address"},{"name":"data","type":"bytes","internalType":"bytes"}]},{"name":"executors","type":"tuple[]","internalType":"struct BootstrapConfig[]","components":[{"name":"module","type":"address","internalType":"address"},{"name":"data","type":"bytes","internalType":"bytes"}]},{"name":"hook","type":"tuple","internalType":"struct BootstrapConfig","components":[{"name":"module","type":"address","internalType":"address"},{"name":"data","type":"bytes","internalType":"bytes"}]},{"name":"fallbacks","type":"tuple[]","internalType":"struct BootstrapConfig[]","components":[{"name":"module","type":"address","internalType":"address"},{"name":"data","type":"bytes","internalType":"bytes"}]},{"name":"registry","type":"address","internalType":"contract IERC7484"},{"name":"attesters","type":"address[]","internalType":"address[]"},{"name":"threshold","type":"uint8","internalType":"uint8"}],"outputs":[{"name":"init","type":"bytes","internalType":"bytes"}],"stateMutability":"view"},{"type":"function","name":"getInitNexusScopedCalldata","inputs":[{"name":"validators","type":"tuple[]","internalType":"struct BootstrapConfig[]","components":[{"name":"module","type":"address","internalType":"address"},{"name":"data","type":"bytes","internalType":"bytes"}]},{"name":"hook","type":"tuple","internalType":"struct BootstrapConfig","components":[{"name":"module","type":"address","internalType":"address"},{"name":"data","type":"bytes","internalType":"bytes"}]},{"name":"registry","type":"address","internalType":"contract IERC7484"},{"name":"attesters","type":"address[]","internalType":"address[]"},{"name":"threshold","type":"uint8","internalType":"uint8"}],"outputs":[{"name":"init","type":"bytes","internalType":"bytes"}],"stateMutability":"view"},{"type":"function","name":"getInitNexusWithSingleValidatorCalldata","inputs":[{"name":"validator","type":"tuple","internalType":"struct BootstrapConfig","components":[{"name":"module","type":"address","internalType":"address"},{"name":"data","type":"bytes","internalType":"bytes"}]},{"name":"registry","type":"address","internalType":"contract IERC7484"},{"name":"attesters","type":"address[]","internalType":"address[]"},{"name":"threshold","type":"uint8","internalType":"uint8"}],"outputs":[{"name":"init","type":"bytes","internalType":"bytes"}],"stateMutability":"view"},{"type":"function","name":"getValidatorsPaginated","inputs":[{"name":"cursor","type":"address","internalType":"address"},{"name":"size","type":"uint256","internalType":"uint256"}],"outputs":[{"name":"array","type":"address[]","internalType":"address[]"},{"name":"next","type":"address","internalType":"address"}],"stateMutability":"view"},{"type":"function","name":"initNexus","inputs":[{"name":"validators","type":"tuple[]","internalType":"struct BootstrapConfig[]","components":[{"name":"module","type":"address","internalType":"address"},{"name":"data","type":"bytes","internalType":"bytes"}]},{"name":"executors","type":"tuple[]","internalType":"struct BootstrapConfig[]","components":[{"name":"module","type":"address","internalType":"address"},{"name":"data","type":"bytes","internalType":"bytes"}]},{"name":"hook","type":"tuple","internalType":"struct BootstrapConfig","components":[{"name":"module","type":"address","internalType":"address"},{"name":"data","type":"bytes","internalType":"bytes"}]},{"name":"fallbacks","type":"tuple[]","internalType":"struct BootstrapConfig[]","components":[{"name":"module","type":"address","internalType":"address"},{"name":"data","type":"bytes","internalType":"bytes"}]},{"name":"registry","type":"address","internalType":"contract IERC7484"},{"name":"attesters","type":"address[]","internalType":"address[]"},{"name":"threshold","type":"uint8","internalType":"uint8"}],"outputs":[],"stateMutability":"nonpayable"},{"type":"function","name":"initNexusScoped","inputs":[{"name":"validators","type":"tuple[]","internalType":"struct BootstrapConfig[]","components":[{"name":"module","type":"address","internalType":"address"},{"name":"data","type":"bytes","internalType":"bytes"}]},{"name":"hook","type":"tuple","internalType":"struct BootstrapConfig","components":[{"name":"module","type":"address","internalType":"address"},{"name":"data","type":"bytes","internalType":"bytes"}]},{"name":"registry","type":"address","internalType":"contract IERC7484"},{"name":"attesters","type":"address[]","internalType":"address[]"},{"name":"threshold","type":"uint8","internalType":"uint8"}],"outputs":[],"stateMutability":"nonpayable"},{"type":"function","name":"initNexusWithSingleValidator","inputs":[{"name":"validator","type":"address","internalType":"contract IModule"},{"name":"data","type":"bytes","internalType":"bytes"},{"name":"registry","type":"address","internalType":"contract IERC7484"},{"name":"attesters","type":"address[]","internalType":"address[]"},{"name":"threshold","type":"uint8","internalType":"uint8"}],"outputs":[],"stateMutability":"nonpayable"},{"type":"function","name":"registry","inputs":[],"outputs":[{"name":"","type":"address","internalType":"contract IERC7484"}],"stateMutability":"view"},{"type":"event","name":"ERC7484RegistryConfigured","inputs":[{"name":"registry","type":"address","indexed":true,"internalType":"contract IERC7484"}],"anonymous":false},{"type":"event","name":"ModuleInstalled","inputs":[{"name":"moduleTypeId","type":"uint256","indexed":false,"internalType":"uint256"},{"name":"module","type":"address","indexed":false,"internalType":"address"}],"anonymous":false},{"type":"event","name":"ModuleUninstalled","inputs":[{"name":"moduleTypeId","type":"uint256","indexed":false,"internalType":"uint256"},{"name":"module","type":"address","indexed":false,"internalType":"address"}],"anonymous":false},{"type":"error","name":"CanNotRemoveLastValidator","inputs":[]},{"type":"error","name":"EnableModeSigError","inputs":[]},{"type":"error","name":"FallbackAlreadyInstalledForSelector","inputs":[{"name":"selector","type":"bytes4","internalType":"bytes4"}]},{"type":"error","name":"FallbackCallTypeInvalid","inputs":[]},{"type":"error","name":"FallbackHandlerUninstallFailed","inputs":[]},{"type":"error","name":"FallbackNotInstalledForSelector","inputs":[{"name":"selector","type":"bytes4","internalType":"bytes4"}]},{"type":"error","name":"FallbackSelectorForbidden","inputs":[]},{"type":"error","name":"HookAlreadyInstalled","inputs":[{"name":"currentHook","type":"address","internalType":"address"}]},{"type":"error","name":"HookPostCheckFailed","inputs":[]},{"type":"error","name":"InvalidInput","inputs":[]},{"type":"error","name":"InvalidModule","inputs":[{"name":"module","type":"address","internalType":"address"}]},{"type":"error","name":"InvalidModuleTypeId","inputs":[{"name":"moduleTypeId","type":"uint256","internalType":"uint256"}]},{"type":"error","name":"LinkedList_EntryAlreadyInList","inputs":[{"name":"entry","type":"address","internalType":"address"}]},{"type":"error","name":"LinkedList_InvalidEntry","inputs":[{"name":"entry","type":"address","internalType":"address"}]},{"type":"error","name":"LinkedList_InvalidPage","inputs":[]},{"type":"error","name":"MismatchModuleTypeId","inputs":[{"name":"moduleTypeId","type":"uint256","internalType":"uint256"}]},{"type":"error","name":"MissingFallbackHandler","inputs":[{"name":"selector","type":"bytes4","internalType":"bytes4"}]},{"type":"error","name":"ModuleAddressCanNotBeZero","inputs":[]},{"type":"error","name":"ModuleAlreadyInstalled","inputs":[{"name":"moduleTypeId","type":"uint256","internalType":"uint256"},{"name":"module","type":"address","internalType":"address"}]},{"type":"error","name":"ModuleNotInstalled","inputs":[{"name":"moduleTypeId","type":"uint256","internalType":"uint256"},{"name":"module","type":"address","internalType":"address"}]},{"type":"error","name":"NoValidatorInstalled","inputs":[]},{"type":"error","name":"UnauthorizedOperation","inputs":[{"name":"operator","type":"address","internalType":"address"}]},{"type":"error","name":"UnsupportedCallType","inputs":[{"name":"callType","type":"bytes1","internalType":"CallType"}]},{"type":"error","name":"ValidatorNotInstalled","inputs":[{"name":"module","type":"address","internalType":"address"}]}],"bytecode":{"object":"0x610120604052348015600f575f5ffd5b50306080524660a0526060806061604080518082018252600e81526d04e65787573426f6f7473747261760941b602080830191909152825180840190935260058352640312e302e360dc1b9083015291565b815160209283012081519183019190912060c082905260e0819052604080517f8b73c3c69bb8fe3d512ecc4cf759cc79239f7b179b0ffacaa9a75d522b39400f8152938401929092529082015246606082015230608082015260a09020610100525060c99050565b60805160a05160c05160e051610100516122956100f75f395f50505f50505f50505f50505f50506122955ff3fe6080604052600436106100ca575f3560e01c8063837b892e116100735780639e2533ed1161004d5780639e2533ed146102bb578063d6fe71f1146102da578063ea5f61d0146102f9576100d1565b8063837b892e1461024957806384b0196e1461027557806385a924cc1461029c576100d1565b806355470cf1116100a457806355470cf1146101df5780635faac46b146101fe5780637b1039991461022b576100d1565b806301fe9ff2146100dd5780630a664dba146100fc578063481ddd231461012d576100d1565b366100d157005b6100db5f36610318565b005b3480156100e8575f5ffd5b506100db6100f73660046118c6565b610670565b348015610107575f5ffd5b50610110610690565b6040516001600160a01b0390911681526020015b60405180910390f35b348015610138575f5ffd5b506101b7610147366004611997565b6001600160e01b0319165f9081527f0bb70095b32b9671358306b0339b4c06e7cbd8cb82505941fba30d1eb5b82f0260209081526040918290208251808401909352546001600160a01b038116808452600160a01b90910460f81b6001600160f81b031916929091018290529091565b604080516001600160f81b031990931683526001600160a01b03909116602083015201610124565b3480156101ea575f5ffd5b506100db6101f93660046119d4565b6106c7565b348015610209575f5ffd5b5061021d610218366004611a48565b610790565b604051610124929190611a72565b348015610236575f5ffd5b505f54610110906001600160a01b031681565b348015610254575f5ffd5b50610268610263366004611ad1565b6107c9565b6040516101249190611b8c565b348015610280575f5ffd5b5061028961085e565b6040516101249796959493929190611b9e565b3480156102a7575f5ffd5b506102686102b63660046119d4565b610906565b3480156102c6575f5ffd5b506102686102d5366004611c38565b61098f565b3480156102e5575f5ffd5b506100db6102f4366004611c38565b610a24565b348015610304575f5ffd5b5061021d610313366004611a48565b610c50565b5f80356001600160e01b03191681527f0bb70095b32b9671358306b0339b4c06e7cbd8cb82505941fba30d1eb5b82f02602052604081208054606091906001600160a01b03811690600160a01b900460f81b8115610606575f6103a27f0bb70095b32b9671358306b0339b4c06e7cbd8cb82505941fba30d1eb5b82f03546001600160a01b031690565b905060606001600160a01b03821615610445576040517fd68f60250000000000000000000000000000000000000000000000000000000081526001600160a01b0383169063d68f60259061040090339034905f903690600401611d79565b5f604051808303815f875af115801561041b573d5f5f3e3d5ffd5b505050506040513d5f823e601f3d908101601f191682016040526104429190810190611dbf565b90505b61045383607f60f91b610c7e565b156104c157836001600160a01b031661046c8a8a610c95565b6040516104799190611e72565b5f60405180830381855afa9150503d805f81146104b1576040519150601f19603f3d011682016040523d82523d5f602084013e6104b6565b606091505b50909750955061056f565b6104cb835f610c7e565b1561052c57836001600160a01b0316346104e58b8b610c95565b6040516104f29190611e72565b5f6040518083038185875af1925050503d805f81146104b1576040519150601f19603f3d011682016040523d82523d5f602084013e6104b6565b6040517fb96fcfe40000000000000000000000000000000000000000000000000000000081526001600160f81b0319841660048201526024015b60405180910390fd5b8661057c57855160208701fd5b6001600160a01b038216156105fe576040517f173bf7da0000000000000000000000000000000000000000000000000000000081526001600160a01b0383169063173bf7da906105d0908490600401611b8c565b5f604051808303815f87803b1580156105e7575f5ffd5b505af11580156105f9573d5f5f3e3d5ffd5b505050505b855160208701f35b5f3560e01c63150b7a02811463f23a6e61821463bc197c81831417171561063157806020526020603cf35b6040517f08c63e270000000000000000000000000000000000000000000000000000000081526001600160e01b03195f35166004820152602401610566565b61067c84848484610cca565b610687878787610da9565b50505050505050565b5f6106c27f0bb70095b32b9671358306b0339b4c06e7cbd8cb82505941fba30d1eb5b82f03546001600160a01b031690565b905090565b6106d384848484610cca565b5f5b86811015610751576107498888838181106106f2576106f2611e88565b90506020028101906107049190611e9c565b610712906020810190611eba565b89898481811061072457610724611e88565b90506020028101906107369190611e9c565b610744906020810190611ed5565b610da9565b6001016106d5565b505f6107606020870187611eba565b6001600160a01b0316146106875761068761077e6020870187611eba565b61078b6020880188611ed5565b610ec9565b60605f6107be7f0bb70095b32b9671358306b0339b4c06e7cbd8cb82505941fba30d1eb5b82f008585611088565b909590945092505050565b606030806301fe9ff26107df60208a018a611eba565b6107ec60208b018b611ed5565b8a8a8a8a6040516024016108069796959493929190611f60565b604051602081830303815290604052915060e01b6020820180516001600160e01b038381831617835250505050604051602001610844929190611fbc565b604051602081830303815290604052905095945050505050565b7f0f000000000000000000000000000000000000000000000000000000000000006060805f8080836108f4604080518082018252600e81527f4e65787573426f6f7473747261700000000000000000000000000000000000006020808301919091528251808401909352600583527f312e302e300000000000000000000000000000000000000000000000000000009083015291565b97989097965046955030945091925090565b606030306001600160a01b03166355470cf18a8a8a8a8a8a8a60405160240161093597969594939291906120c6565b604051602081830303815290604052915060e01b6020820180516001600160e01b038381831617835250505050604051602001610973929190611fbc565b6040516020818303038152906040529050979650505050505050565b606030306001600160a01b031663d6fe71f18e8e8e8e8e8e8e8e8e8e8e6040516024016109c69b9a9998979695949392919061210f565b604051602081830303815290604052915060e01b6020820180516001600160e01b038381831617835250505050604051602001610a04929190611fbc565b60405160208183030381529060405290509b9a5050505050505050505050565b610a3084848484610cca565b5f5b8a811015610a8957610a818c8c83818110610a4f57610a4f611e88565b9050602002810190610a619190611e9c565b610a6f906020810190611eba565b8d8d8481811061072457610724611e88565b600101610a32565b505f5b88811015610b49575f8a8a83818110610aa757610aa7611e88565b9050602002810190610ab99190611e9c565b610ac7906020810190611eba565b6001600160a01b031614610b4157610b418a8a83818110610aea57610aea611e88565b9050602002810190610afc9190611e9c565b610b0a906020810190611eba565b8b8b84818110610b1c57610b1c611e88565b9050602002810190610b2e9190611e9c565b610b3c906020810190611ed5565b6110a2565b600101610a8c565b505f610b586020890189611eba565b6001600160a01b031614610b8357610b83610b766020890189611eba565b61078b60208a018a611ed5565b5f5b85811015610c42575f878783818110610ba057610ba0611e88565b9050602002810190610bb29190611e9c565b610bc0906020810190611eba565b6001600160a01b031614610c3a57610c3a878783818110610be357610be3611e88565b9050602002810190610bf59190611e9c565b610c03906020810190611eba565b888884818110610c1557610c15611e88565b9050602002810190610c279190611e9c565b610c35906020810190611ed5565b611160565b600101610b85565b505050505050505050505050565b60605f6107be7f0bb70095b32b9671358306b0339b4c06e7cbd8cb82505941fba30d1eb5b82f018585611088565b6001600160f81b0319828116908216145b92915050565b6060604080513681016020019091529050601436018152365f602083013760408051601481019091523360601b905292915050565b5f805473ffffffffffffffffffffffffffffffffffffffff19166001600160a01b03861690811790915515610d70576040517ff05c04e10000000000000000000000000000000000000000000000000000000081526001600160a01b0385169063f05c04e190610d429084908790879060040161219e565b5f604051808303815f87803b158015610d59575f5ffd5b505af1158015610d6b573d5f5f3e3d5ffd5b505050505b6040516001600160a01b038516907ff98c8404c5b1bfef2e6ba9233c6e88845aedfd36eea8b192725d8c199571cf32905f90a250505050565b826001610db682826114cb565b60405163ecd0596160e01b8152600160048201526001600160a01b0386169063ecd0596190602401602060405180830381865afa158015610df9573d5f5f3e3d5ffd5b505050506040513d601f19601f82011682018060405250810190610e1d91906121ba565b610e3d576040516369c9a24560e11b815260016004820152602401610566565b610e677f0bb70095b32b9671358306b0339b4c06e7cbd8cb82505941fba30d1eb5b82f0086611552565b6040516306d61fe760e41b81526001600160a01b03861690636d61fe7090610e9590879087906004016121d9565b5f604051808303815f87803b158015610eac575f5ffd5b505af1158015610ebe573d5f5f3e3d5ffd5b505050505050505050565b826004610ed682826114cb565b60405163ecd0596160e01b81526004808201526001600160a01b0386169063ecd0596190602401602060405180830381865afa158015610f18573d5f5f3e3d5ffd5b505050506040513d601f19601f82011682018060405250810190610f3c91906121ba565b610f5b576040516369c9a24560e11b8152600481810152602401610566565b5f610f8d7f0bb70095b32b9671358306b0339b4c06e7cbd8cb82505941fba30d1eb5b82f03546001600160a01b031690565b9050806001600160a01b03811615610fdd576040517f741cbe030000000000000000000000000000000000000000000000000000000081526001600160a01b039091166004820152602401610566565b507f0bb70095b32b9671358306b0339b4c06e7cbd8cb82505941fba30d1eb5b82f03805473ffffffffffffffffffffffffffffffffffffffff19166001600160a01b0388161790556040516306d61fe760e41b81526001600160a01b03871690636d61fe709061105390889088906004016121d9565b5f604051808303815f87803b15801561106a575f5ffd5b505af115801561107c573d5f5f3e3d5ffd5b50505050505050505050565b60605f61109685858561164c565b90969095509350505050565b8260026110af82826114cb565b60405163ecd0596160e01b8152600260048201526001600160a01b0386169063ecd0596190602401602060405180830381865afa1580156110f2573d5f5f3e3d5ffd5b505050506040513d601f19601f8201168201806040525081019061111691906121ba565b611136576040516369c9a24560e11b815260026004820152602401610566565b610e677f0bb70095b32b9671358306b0339b4c06e7cbd8cb82505941fba30d1eb5b82f0186611552565b82600361116d82826114cb565b60405163ecd0596160e01b8152600360048201526001600160a01b0386169063ecd0596190602401602060405180830381865afa1580156111b0573d5f5f3e3d5ffd5b505050506040513d601f19601f820116820180604052508101906111d491906121ba565b6111f4576040516369c9a24560e11b815260036004820152602401610566565b5f61120260048286886121ec565b61120b91612213565b90505f8585600481811061122157611221611e88565b9050013560f81c60f81b905061123a815f60f81b610c7e565b8061124e575061124e81607f60f91b610c7e565b611284576040517f867a1dcf00000000000000000000000000000000000000000000000000000000815260040160405180910390fd5b5f611292866005818a6121ec565b8080601f0160208091040260200160405190810160405280939291908181526020018383808284375f920191909152509293505050506001600160e01b031983166306d61fe760e41b148061131057506001600160e01b031983167f8a91b0e300000000000000000000000000000000000000000000000000000000145b8061132357506001600160e01b03198316155b1561135a576040517fc001660b00000000000000000000000000000000000000000000000000000000815260040160405180910390fd5b6001600160e01b031983165f9081527f0bb70095b32b9671358306b0339b4c06e7cbd8cb82505941fba30d1eb5b82f02602052604090205483906001600160a01b0316156113e1576040517fa56a04dd0000000000000000000000000000000000000000000000000000000081526001600160e01b03199091166004820152602401610566565b506040805180820182526001600160a01b038a81168083526001600160f81b0319861660208085019182526001600160e01b031989165f9081527f0bb70095b32b9671358306b0339b4c06e7cbd8cb82505941fba30d1eb5b82f0290915285902093518454915160f81c600160a01b027fffffffffffffffffffffff0000000000000000000000000000000000000000009092169316929092179190911790915590516306d61fe760e41b8152636d61fe70906114a2908490600401611b8c565b5f604051808303815f87803b1580156114b9575f5ffd5b505af1158015610c42573d5f5f3e3d5ffd5b5f546001600160a01b0316801561154d576040517f96fb72170000000000000000000000000000000000000000000000000000000081526001600160a01b038481166004830152602482018490528216906396fb7217906044015f6040518083038186803b15801561153b575f5ffd5b505afa158015610687573d5f5f3e3d5ffd5b505050565b6001600160a01b038116158061157157506001600160a01b0381166001145b1561159a57604051637c84ecfb60e01b81526001600160a01b0382166004820152602401610566565b6001600160a01b038181165f9081526020849052604090205416156115f6576040517f40d3d1a40000000000000000000000000000000000000000000000000000000081526001600160a01b0382166004820152602401610566565b60015f818152602093909352604080842080546001600160a01b0394851680875292862080549590911673ffffffffffffffffffffffffffffffffffffffff199586161790559190935280549091169091179055565b60605f6001600160a01b038416600114801590611670575061166e858561180d565b155b1561169957604051637c84ecfb60e01b81526001600160a01b0385166004820152602401610566565b825f036116d2576040517ff725081700000000000000000000000000000000000000000000000000000000815260040160405180910390fd5b8267ffffffffffffffff8111156116eb576116eb611dab565b604051908082528060200260200182016040528015611714578160200160208202803683370190505b506001600160a01b038086165f90815260208890526040812054929450911691505b6001600160a01b0382161580159061175857506001600160a01b038216600114155b801561176357508381105b156117bc578183828151811061177b5761177b611e88565b6001600160a01b039283166020918202929092018101919091529281165f9081529287905260409092205490911690806117b48161225d565b915050611736565b6001600160a01b0382166001148015906117d557505f81115b1561180157826117e6600183612275565b815181106117f6576117f6611e88565b602002602001015191505b80835250935093915050565b5f60016001600160a01b0383161480159061184057506001600160a01b038281165f908152602085905260409020541615155b9392505050565b6001600160a01b038116811461185b575f5ffd5b50565b803561186981611847565b919050565b5f5f83601f84011261187e575f5ffd5b50813567ffffffffffffffff811115611895575f5ffd5b6020830191508360208260051b85010111156118af575f5ffd5b9250929050565b803560ff81168114611869575f5ffd5b5f5f5f5f5f5f5f60a0888a0312156118dc575f5ffd5b87356118e781611847565b9650602088013567ffffffffffffffff811115611902575f5ffd5b8801601f81018a13611912575f5ffd5b803567ffffffffffffffff811115611928575f5ffd5b8a6020828401011115611939575f5ffd5b6020919091019650945061194f6040890161185e565b9350606088013567ffffffffffffffff81111561196a575f5ffd5b6119768a828b0161186e565b90945092506119899050608089016118b6565b905092959891949750929550565b5f602082840312156119a7575f5ffd5b81356001600160e01b031981168114611840575f5ffd5b5f604082840312156119ce575f5ffd5b50919050565b5f5f5f5f5f5f5f60a0888a0312156119ea575f5ffd5b873567ffffffffffffffff811115611a00575f5ffd5b611a0c8a828b0161186e565b909850965050602088013567ffffffffffffffff811115611a2b575f5ffd5b611a378a828b016119be565b955050604088013561194f81611847565b5f5f60408385031215611a59575f5ffd5b8235611a6481611847565b946020939093013593505050565b604080825283519082018190525f9060208501906060840190835b81811015611ab45783516001600160a01b0316835260209384019390920191600101611a8d565b505080925050506001600160a01b03831660208301529392505050565b5f5f5f5f5f60808688031215611ae5575f5ffd5b853567ffffffffffffffff811115611afb575f5ffd5b611b07888289016119be565b9550506020860135611b1881611847565b9350604086013567ffffffffffffffff811115611b33575f5ffd5b611b3f8882890161186e565b9094509250611b529050606087016118b6565b90509295509295909350565b5f81518084528060208401602086015e5f602082860101526020601f19601f83011685010191505092915050565b602081525f6118406020830184611b5e565b6001600160f81b03198816815260e060208201525f611bc060e0830189611b5e565b8281036040840152611bd28189611b5e565b606084018890526001600160a01b038716608085015260a0840186905283810360c0850152845180825260208087019350909101905f5b81811015611c27578351835260209384019390920191600101611c09565b50909b9a5050505050505050505050565b5f5f5f5f5f5f5f5f5f5f5f60e08c8e031215611c52575f5ffd5b8b3567ffffffffffffffff811115611c68575f5ffd5b611c748e828f0161186e565b909c509a505060208c013567ffffffffffffffff811115611c93575f5ffd5b611c9f8e828f0161186e565b909a5098505060408c013567ffffffffffffffff811115611cbe575f5ffd5b611cca8e828f016119be565b97505060608c013567ffffffffffffffff811115611ce6575f5ffd5b611cf28e828f0161186e565b9097509550611d05905060808d0161185e565b935060a08c013567ffffffffffffffff811115611d20575f5ffd5b611d2c8e828f0161186e565b9094509250611d3f905060c08d016118b6565b90509295989b509295989b9093969950565b81835281816020850137505f828201602090810191909152601f909101601f19169091010190565b6001600160a01b0385168152836020820152606060408201525f611da1606083018486611d51565b9695505050505050565b634e487b7160e01b5f52604160045260245ffd5b5f60208284031215611dcf575f5ffd5b815167ffffffffffffffff811115611de5575f5ffd5b8201601f81018413611df5575f5ffd5b805167ffffffffffffffff811115611e0f57611e0f611dab565b604051601f8201601f19908116603f0116810167ffffffffffffffff81118282101715611e3e57611e3e611dab565b604052818152828201602001861015611e55575f5ffd5b8160208401602083015e5f91810160200191909152949350505050565b5f82518060208501845e5f920191825250919050565b634e487b7160e01b5f52603260045260245ffd5b5f8235603e19833603018112611eb0575f5ffd5b9190910192915050565b5f60208284031215611eca575f5ffd5b813561184081611847565b5f5f8335601e19843603018112611eea575f5ffd5b83018035915067ffffffffffffffff821115611f04575f5ffd5b6020019150368190038213156118af575f5ffd5b8183526020830192505f815f5b84811015611f56578135611f3881611847565b6001600160a01b031686526020958601959190910190600101611f25565b5093949350505050565b6001600160a01b038816815260a060208201525f611f8260a08301888a611d51565b6001600160a01b03871660408401528281036060840152611fa4818688611f18565b91505060ff8316608083015298975050505050505050565b6001600160a01b0383168152604060208201525f611fdd6040830184611b5e565b949350505050565b5f8135611ff181611847565b6001600160a01b03168352602082013536839003601e19018112612013575f5ffd5b820160208101903567ffffffffffffffff81111561202f575f5ffd5b80360382131561203d575f5ffd5b60406020860152612052604086018284611d51565b95945050505050565b5f8383855260208501945060208460051b820101835f5b868110156120ba57838303601f19018852813536879003603e19018112612097575f5ffd5b6120a384888301611fe5565b6020998a0199909450929092019150600101612072565b50909695505050505050565b60a081525f6120d960a08301898b61205b565b82810360208401526120eb8189611fe5565b90506001600160a01b03871660408401528281036060840152611fa4818688611f18565b60e081525f61212260e083018d8f61205b565b8281036020840152612135818c8e61205b565b90508281036040840152612149818b611fe5565b9050828103606084015261215e81898b61205b565b90506001600160a01b038716608084015282810360a0840152612182818688611f18565b91505060ff831660c08301529c9b505050505050505050505050565b60ff84168152604060208201525f612052604083018486611f18565b5f602082840312156121ca575f5ffd5b81518015158114611840575f5ffd5b602081525f611fdd602083018486611d51565b5f5f858511156121fa575f5ffd5b83861115612206575f5ffd5b5050820193919092039150565b80356001600160e01b03198116906004841015612242576001600160e01b0319808560040360031b1b82161691505b5092915050565b634e487b7160e01b5f52601160045260245ffd5b5f6001820161226e5761226e612249565b5060010190565b81810381811115610c8f57610c8f61224956fea164736f6c634300081b000a","linkReferences":{}},"methodIdentifiers":{"eip712Domain()":"84b0196e","getActiveHook()":"0a664dba","getExecutorsPaginated(address,uint256)":"ea5f61d0","getFallbackHandlerBySelector(bytes4)":"481ddd23","getInitNexusCalldata((address,bytes)[],(address,bytes)[],(address,bytes),(address,bytes)[],address,address[],uint8)":"9e2533ed","getInitNexusScopedCalldata((address,bytes)[],(address,bytes),address,address[],uint8)":"85a924cc","getInitNexusWithSingleValidatorCalldata((address,bytes),address,address[],uint8)":"837b892e","getValidatorsPaginated(address,uint256)":"5faac46b","initNexus((address,bytes)[],(address,bytes)[],(address,bytes),(address,bytes)[],address,address[],uint8)":"d6fe71f1","initNexusScoped((address,bytes)[],(address,bytes),address,address[],uint8)":"55470cf1","initNexusWithSingleValidator(address,bytes,address,address[],uint8)":"01fe9ff2","registry()":"7b103999"},"id":58}