{"abi":[{"type":"function","name":"addSafeSender","inputs":[{"name":"sender","type":"address","internalType":"address"}],"outputs":[],"stateMutability":"nonpayable"},{"type":"function","name":"getOwner","inputs":[{"name":"smartAccount","type":"address","internalType":"address"}],"outputs":[{"name":"","type":"address","internalType":"address"}],"stateMutability":"view"},{"type":"function","name":"isInitialized","inputs":[{"name":"smartAccount","type":"address","internalType":"address"}],"outputs":[{"name":"","type":"bool","internalType":"bool"}],"stateMutability":"view"},{"type":"function","name":"isModuleType","inputs":[{"name":"typeId","type":"uint256","internalType":"uint256"}],"outputs":[{"name":"","type":"bool","internalType":"bool"}],"stateMutability":"pure"},{"type":"function","name":"isSafeSender","inputs":[{"name":"sender","type":"address","internalType":"address"},{"name":"smartAccount","type":"address","internalType":"address"}],"outputs":[{"name":"","type":"bool","internalType":"bool"}],"stateMutability":"view"},{"type":"function","name":"isValidSignatureWithSender","inputs":[{"name":"sender","type":"address","internalType":"address"},{"name":"hash","type":"bytes32","internalType":"bytes32"},{"name":"signature","type":"bytes","internalType":"bytes"}],"outputs":[{"name":"","type":"bytes4","internalType":"bytes4"}],"stateMutability":"view"},{"type":"function","name":"name","inputs":[],"outputs":[{"name":"","type":"string","internalType":"string"}],"stateMutability":"pure"},{"type":"function","name":"onInstall","inputs":[{"name":"data","type":"bytes","internalType":"bytes"}],"outputs":[],"stateMutability":"nonpayable"},{"type":"function","name":"onUninstall","inputs":[{"name":"","type":"bytes","internalType":"bytes"}],"outputs":[],"stateMutability":"nonpayable"},{"type":"function","name":"removeSafeSender","inputs":[{"name":"sender","type":"address","internalType":"address"}],"outputs":[],"stateMutability":"nonpayable"},{"type":"function","name":"supportsNestedTypedDataSign","inputs":[],"outputs":[{"name":"result","type":"bytes32","internalType":"bytes32"}],"stateMutability":"view"},{"type":"function","name":"transferOwnership","inputs":[{"name":"newOwner","type":"address","internalType":"address"}],"outputs":[],"stateMutability":"nonpayable"},{"type":"function","name":"validateSignatureWithData","inputs":[{"name":"hash","type":"bytes32","internalType":"bytes32"},{"name":"sig","type":"bytes","internalType":"bytes"},{"name":"data","type":"bytes","internalType":"bytes"}],"outputs":[{"name":"validSig","type":"bool","internalType":"bool"}],"stateMutability":"view"},{"type":"function","name":"validateUserOp","inputs":[{"name":"userOp","type":"tuple","internalType":"struct PackedUserOperation","components":[{"name":"sender","type":"address","internalType":"address"},{"name":"nonce","type":"uint256","internalType":"uint256"},{"name":"initCode","type":"bytes","internalType":"bytes"},{"name":"callData","type":"bytes","internalType":"bytes"},{"name":"accountGasLimits","type":"bytes32","internalType":"bytes32"},{"name":"preVerificationGas","type":"uint256","internalType":"uint256"},{"name":"gasFees","type":"bytes32","internalType":"bytes32"},{"name":"paymasterAndData","type":"bytes","internalType":"bytes"},{"name":"signature","type":"bytes","internalType":"bytes"}]},{"name":"userOpHash","type":"bytes32","internalType":"bytes32"}],"outputs":[{"name":"","type":"uint256","internalType":"uint256"}],"stateMutability":"view"},{"type":"function","name":"version","inputs":[],"outputs":[{"name":"","type":"string","internalType":"string"}],"stateMutability":"pure"},{"type":"event","name":"OwnerSet","inputs":[{"name":"smartAccount","type":"address","indexed":true,"internalType":"address"},{"name":"owner","type":"address","indexed":true,"internalType":"address"}],"anonymous":false},{"type":"error","name":"InvalidDataLength","inputs":[]},{"type":"error","name":"InvalidSafeSendersLength","inputs":[]},{"type":"error","name":"InvalidSignature","inputs":[]},{"type":"error","name":"ModuleAlreadyInitialized","inputs":[]},{"type":"error","name":"NoOwnerProvided","inputs":[]},{"type":"error","name":"OwnerCannotBeZeroAddress","inputs":[]},{"type":"error","name":"ZeroAddressNotAllowed","inputs":[]}],"bytecode":{"object":"0x6080806040523460155761145d908161001a8239f35b5f80fdfe60806040526004361015610011575f80fd5b5f3560e01c806306fdde03146101045780630807dbc1146100ff57806354fd4d50146100fa5780635c81ca68146100f55780636d61fe70146100f05780638a91b0e3146100eb578063940d3840146100e657806397003203146100e1578063d60b347f146100dc578063d620c85a146100d7578063e824b568146100d2578063ecd05961146100cd578063f2fde38b146100c8578063f551e2ee146100c35763fa544161146100be575f80fd5b6107e9565b610736565b61069b565b61067b565b61064c565b61062a565b6105dc565b61052b565b610493565b6103ea565b6102d3565b610245565b610206565b6101a3565b610133565b602060409281835280519182918282860152018484015e5f828201840152601f01601f1916010190565b3461018e575f36600319011261018e5761018a604051610154604082610830565b600b81527f4b3156616c696461746f72000000000000000000000000000000000000000000602082015260405191829182610109565b0390f35b5f80fd5b6001600160a01b0381160361018e57565b3461018e57604036600319011261018e5760206101fb6004356101c581610192565b6001600160a01b03602435916101da83610192565b165f526002835260405f20906001600160a01b03165f5260205260405f2090565b541515604051908152f35b3461018e575f36600319011261018e5761018a604051610227604082610830565b60058152640312e322e360dc1b602082015260405191829182610109565b3461018e57602036600319011261018e576102746001600160a01b0360043561026d81610192565b1633610b92565b005b9181601f8401121561018e5782359167ffffffffffffffff831161018e576020838186019501011161018e57565b602060031982011261018e576004359067ffffffffffffffff821161018e576102cf91600401610276565b9091565b3461018e576102e1366102a4565b9081156103db5761030e336001600160a01b03165f525f6020526001600160a01b0360405f205416151590565b6103cc578160141161018e5761032e61032860148361088c565b60601c90565b6103896001600160a01b038216916103478315156108cc565b610361336001600160a01b03165f525f60205260405f2090565b906001600160a01b031673ffffffffffffffffffffffffffffffffffffffff19825416179055565b337f342827c97908e5e2f71151c08502a66d44b6f758e3ac2f1de95f02eb95f0a7355f80a3601482116103b857005b81610274926103c692610857565b9061094e565b637396742f60e11b5f5260045ffd5b6307ca8e0760e21b5f5260045ffd5b3461018e576103f8366102a4565b5050335f525f60205260405f2073ffffffffffffffffffffffffffffffffffffffff198154169055335f52600160205260405f205460015b81811115610460575f337f342827c97908e5e2f71151c08502a66d44b6f758e3ac2f1de95f02eb95f0a7358280a3005b80820382811161048e5761047761047d913361139b565b33610c79565b505f19811461048e57600101610430565b610929565b3461018e57606036600319011261018e5760043560243567ffffffffffffffff811161018e576104c7903690600401610276565b60443567ffffffffffffffff811161018e576104e7903690600401610276565b6014819492940361051c5760141161018e5761018a9361050a933560601c6109c4565b60405190151581529081906020820190565b630dfe930960e41b5f5260045ffd5b3461018e57604036600319011261018e5760043567ffffffffffffffff811161018e5780360361012060031982011261018e5760243590610578836004013561057381610192565b6108e2565b92610104810135916022190182121561018e57019060048201359167ffffffffffffffff831161018e5760240190823603821361018e576105b8936109c4565b156105d25761018a5f5b6040519081529081906020820190565b61018a60016105c2565b3461018e57602036600319011261018e5760206106206004356105fe81610192565b6001600160a01b03165f525f6020526001600160a01b0360405f205416151590565b6040519015158152f35b3461018e575f36600319011261018e57604051636b10642d60e11b8152602090f35b3461018e57602036600319011261018e576102746001600160a01b0360043561067481610192565b1633610c79565b3461018e57602036600319011261018e5760206040516001600435148152f35b3461018e57602036600319011261018e576004356106b881610192565b6001600160a01b0381169081156107275761070090335f525f60205260405f20906001600160a01b031673ffffffffffffffffffffffffffffffffffffffff19825416179055565b337f342827c97908e5e2f71151c08502a66d44b6f758e3ac2f1de95f02eb95f0a7355f80a3005b6342bcdf7f60e11b5f5260045ffd5b3461018e57606036600319011261018e5760043561075381610192565b60443560243567ffffffffffffffff821161018e5761018a9261077d6107a1933690600401610276565b92909182808501601f19013561649261ffff30801c190402146107d4575b50610a35565b6040517fffffffff0000000000000000000000000000000000000000000000000000000090911681529081906020820190565b6040810135018035945060200192505f61079b565b3461018e57602036600319011261018e57602061080b60043561057381610192565b6001600160a01b0360405191168152f35b634e487b7160e01b5f52604160045260245ffd5b90601f8019910116810190811067ffffffffffffffff82111761085257604052565b61081c565b909291928360141161018e57831161018e57601401916013190190565b9093929384831161018e57841161018e578101920390565b356bffffffffffffffffffffffff198116929190601482106108ac575050565b6bffffffffffffffffffffffff1960149290920360031b82901b16169150565b156108d357565b630640d5fb60e51b5f5260045ffd5b6001600160a01b0381165f525f6020526001600160a01b0360405f20541680155f1461090c575090565b905090565b6001600160a01b036109269216906001610c19565b90565b634e487b7160e01b5f52601160045260245ffd5b908160140291601483040361048e57565b601482066109b5575f5b60148304811061096757505050565b806014029060148204810361048e57600181019182821161048e576109a86103286109a26109ae9361099a60019761093d565b908989610874565b9061088c565b33610911565b5001610958565b637c148cd960e01b5f5260045ffd5b926001600160a01b0393846109da83868661124a565b911694168414610a2c576001600160a01b0392610a1d926020527b19457468657265756d205369676e6564204d6573736167653a0a33325f52603c60042061124a565b1614610a27575f90565b600190565b50505050600190565b9291908215610b45575b7f7fffffffffffffffffffffffffffffff5d576e7357a4501ddfe92f46681b20a0602083013511610b36576001600160a01b035f94166dd9ecebf3c23529de49815dac1c4c8114908115610b2c575b8115610afc575b50610ae0575b8315610acd575b8315610abb575b505050155f03631626ba7e1760e01b90565b610ac593506111a6565b5f8080610aa9565b9250610ada828285610ec5565b92610aa2565b9250610af6828285610af1336108e2565b6109c4565b92610a9b565b90505f526002602052610b233360405f20906001600160a01b03165f5260205260405f2090565b5415155f610a95565b3381149150610a8e565b638baa579f60e01b5f5260045ffd5b61773961ffff841904028103610a3f5750637739000160e01b9392505050565b600190610b8c935f520160205260405f20906001600160a01b03165f5260205260405f2090565b54151590565b815f5260018001602052610bba8160405f20906001600160a01b03165f5260205260405f2090565b54610c135780610c0d915f52600160205260405f20600181540190848260051b82015555805f52600160205260405f2054925f52600260205260405f20906001600160a01b03165f5260205260405f2090565b55600190565b50505f90565b90610c25838284610b65565b610c72575f81815260208390526040902080546001908101600581901b830186905591829055610c0d939091945f520160205260405f20906001600160a01b03165f5260205260405f2090565b5050505f90565b90805f526002602052610ca08260405f20906001600160a01b03165f5260205260405f2090565b54918215610c72575f1983019183831161048e575f828152600160205260409020545f1981019190821161048e575f94848484610cff95610c0d9803610d15575b509050610cf091506001611408565b6002905f5260205260405f2090565b906001600160a01b03165f5260205260405f2090565b610d3592610cf0610d2b610cff938560016113cb565b80928560016113ea565b555f808481610ce1565b81601f8201121561018e5780519067ffffffffffffffff82116108525760405192610d74601f8401601f191660200185610830565b8284526020838301011161018e57815f9260208093018386015e8301015290565b5190610da082610192565b565b9080601f8301121561018e5781519167ffffffffffffffff8311610852578260051b9060405193610dd66020840186610830565b845260208085019282010192831161018e57602001905b828210610dfa5750505090565b8151815260209182019101610ded565b9060e08282031261018e5781517fff000000000000000000000000000000000000000000000000000000000000008116810361018e5792602083015167ffffffffffffffff811161018e5782610e61918501610d3f565b92604081015167ffffffffffffffff811161018e5783610e82918301610d3f565b92606082015192610e9560808401610d95565b9260a08101519260c082015167ffffffffffffffff811161018e576109269201610da2565b6040513d5f823e3d90fd5b90923093306110f9575b60405190600119858201013560f01c94600e830196869187810384016041198101976119015f5260408960203789158a604201841017816042601e2018176110b957507f5479706564446174615369676e2800000000000000000000000000000000000086526001198101999889818c82378188016028600e8201526029600d8201515f1a03611063575b506f07fffffe000000000000010000000000919250999899515f1a1c5b88515f1a60288114610f985790651201000000016001921c17980197610f77565b509294969990869860406109269b83605c96989a957f20636f6e74656e74732c737472696e67206e616d652c737472696e670000000085527f2076657273696f6e2c75696e7432353620636861696e49642c61646472657373601c8601527f20766572696679696e67436f6e74726163742c627974657333322073616c7429603c8601528785013788370103018620835260e08320604052600116604201601e2092604119910301935b60405215611054575b610af1336108e2565b61105e90336112d8565b61104b565b60015f5b016029600d82840301515f1a14848210111561108557600190611067565b6028915080806040600e936f07fffffe000000000000010000000000970397886041199101010185378a0101538291610f5a565b94969950509550505061092694505f907f983e65e5148e570cd828ead231ee759a8d7958721a768f93bc4483ba005c32de5f5260205260405f2091611042565b6040516342580cb760e11b815294505f85600481335afa80156111a1575f955f5f905f925f94611168575b50906001600160a01b039291604051996020815191012060408b01526020815191012060608a015260808901521660a087015260c086015260e08501604052610ecf565b925050506001600160a01b03965061119291503d805f833e61118a8183610830565b810190610e0a565b50939993945092909190611124565b610eba565b9092915f933a156111b657505050565b90919293503a3a5260203a3a386d378edcd5b5b0a24f5342d8c1048561fffffa503a51156111ec575b61092692610af1336108e2565b60405192631626ba7e3a526d378edcd5b5b0a24f5342d8c1048560205260408052454561ffff011793845a106d378edcd5b5b0a24f5342d8c1048583141761124857610926943a906064601c3a923090fa5060405292506111df565bfe5b604080515f959490939181146112955760411461126657505050565b604080929395508101355f1a60205281375b5f526020604060805f60015afa505f6060523d6060185191604052565b507f7fffffffffffffffffffffffffffffffffffffffffffffffffffffffffffffff91929450602081013590601b8260ff1c016020523560405216606052611278565b5f6001600160a01b03916004604051809481936342580cb760e11b8352165afa9081156111a15760a0915f915f5f915f93611376575b50604051937f8b73c3c69bb8fe3d512ecc4cf759cc79239f7b179b0ffacaa9a75d522b39400f855260208151910120602085015260208151910120604084015260608301526080820152206719010000000000005f52601a52603a526042601820905f603a52565b9250505061138e91503d805f833e61118a8183610830565b509394509250905f61130e565b5f52600160205260405f209081548110156113bb5760010160051b015490565b638277484f5f526020526024601cfd5b905f5260205260405f209081548110156113bb5760010160051b015490565b905f5260205260405f209081548110156113bb5760010160051b0155565b905f5260205260405f20805490811561144c575f1982019180831161048e57815483101561143b575f9060051b82015555565b82638277484f5f526020526024601cfd5b505056fea164736f6c634300081b000a","linkReferences":{}},"methodIdentifiers":{"addSafeSender(address)":"5c81ca68","getOwner(address)":"fa544161","isInitialized(address)":"d60b347f","isModuleType(uint256)":"ecd05961","isSafeSender(address,address)":"0807dbc1","isValidSignatureWithSender(address,bytes32,bytes)":"f551e2ee","name()":"06fdde03","onInstall(bytes)":"6d61fe70","onUninstall(bytes)":"8a91b0e3","removeSafeSender(address)":"e824b568","supportsNestedTypedDataSign()":"d620c85a","transferOwnership(address)":"f2fde38b","validateSignatureWithData(bytes32,bytes,bytes)":"940d3840","validateUserOp((address,uint256,bytes,bytes,bytes32,uint256,bytes32,bytes,bytes),bytes32)":"97003203","version()":"54fd4d50"},"id":71}