{"abi":[{"type":"function","name":"addSafeSender","inputs":[{"name":"sender","type":"address","internalType":"address"}],"outputs":[],"stateMutability":"nonpayable"},{"type":"function","name":"getOwner","inputs":[{"name":"smartAccount","type":"address","internalType":"address"}],"outputs":[{"name":"","type":"address","internalType":"address"}],"stateMutability":"view"},{"type":"function","name":"isInitialized","inputs":[{"name":"smartAccount","type":"address","internalType":"address"}],"outputs":[{"name":"","type":"bool","internalType":"bool"}],"stateMutability":"view"},{"type":"function","name":"isModuleType","inputs":[{"name":"typeId","type":"uint256","internalType":"uint256"}],"outputs":[{"name":"","type":"bool","internalType":"bool"}],"stateMutability":"pure"},{"type":"function","name":"isSafeSender","inputs":[{"name":"sender","type":"address","internalType":"address"},{"name":"smartAccount","type":"address","internalType":"address"}],"outputs":[{"name":"","type":"bool","internalType":"bool"}],"stateMutability":"view"},{"type":"function","name":"isValidSignatureWithSender","inputs":[{"name":"sender","type":"address","internalType":"address"},{"name":"hash","type":"bytes32","internalType":"bytes32"},{"name":"signature","type":"bytes","internalType":"bytes"}],"outputs":[{"name":"","type":"bytes4","internalType":"bytes4"}],"stateMutability":"view"},{"type":"function","name":"name","inputs":[],"outputs":[{"name":"","type":"string","internalType":"string"}],"stateMutability":"pure"},{"type":"function","name":"onInstall","inputs":[{"name":"data","type":"bytes","internalType":"bytes"}],"outputs":[],"stateMutability":"nonpayable"},{"type":"function","name":"onUninstall","inputs":[{"name":"","type":"bytes","internalType":"bytes"}],"outputs":[],"stateMutability":"nonpayable"},{"type":"function","name":"removeSafeSender","inputs":[{"name":"sender","type":"address","internalType":"address"}],"outputs":[],"stateMutability":"nonpayable"},{"type":"function","name":"supportsNestedTypedDataSign","inputs":[],"outputs":[{"name":"result","type":"bytes32","internalType":"bytes32"}],"stateMutability":"view"},{"type":"function","name":"transferOwnership","inputs":[{"name":"newOwner","type":"address","internalType":"address"}],"outputs":[],"stateMutability":"nonpayable"},{"type":"function","name":"validateSignatureWithData","inputs":[{"name":"hash","type":"bytes32","internalType":"bytes32"},{"name":"sig","type":"bytes","internalType":"bytes"},{"name":"data","type":"bytes","internalType":"bytes"}],"outputs":[{"name":"validSig","type":"bool","internalType":"bool"}],"stateMutability":"view"},{"type":"function","name":"validateUserOp","inputs":[{"name":"userOp","type":"tuple","internalType":"struct PackedUserOperation","components":[{"name":"sender","type":"address","internalType":"address"},{"name":"nonce","type":"uint256","internalType":"uint256"},{"name":"initCode","type":"bytes","internalType":"bytes"},{"name":"callData","type":"bytes","internalType":"bytes"},{"name":"accountGasLimits","type":"bytes32","internalType":"bytes32"},{"name":"preVerificationGas","type":"uint256","internalType":"uint256"},{"name":"gasFees","type":"bytes32","internalType":"bytes32"},{"name":"paymasterAndData","type":"bytes","internalType":"bytes"},{"name":"signature","type":"bytes","internalType":"bytes"}]},{"name":"userOpHash","type":"bytes32","internalType":"bytes32"}],"outputs":[{"name":"","type":"uint256","internalType":"uint256"}],"stateMutability":"view"},{"type":"function","name":"version","inputs":[],"outputs":[{"name":"","type":"string","internalType":"string"}],"stateMutability":"pure"},{"type":"error","name":"InvalidDataLength","inputs":[]},{"type":"error","name":"InvalidSafeSendersLength","inputs":[]},{"type":"error","name":"InvalidSignature","inputs":[]},{"type":"error","name":"ModuleAlreadyInitialized","inputs":[]},{"type":"error","name":"NoOwnerProvided","inputs":[]},{"type":"error","name":"OwnerCannotBeZeroAddress","inputs":[]},{"type":"error","name":"ZeroAddressNotAllowed","inputs":[]}],"bytecode":{"object":"0x6080604052348015600e575f5ffd5b506116838061001c5f395ff3fe608060405234801561000f575f5ffd5b50600436106100f0575f3560e01c80639700320311610093578063ecd0596111610063578063ecd0596114610256578063f2fde38b1461026a578063f551e2ee1461027d578063fa544161146102c1575f5ffd5b806397003203146101e9578063d60b347f1461020a578063d620c85a1461021d578063e824b56814610243575f5ffd5b80635c81ca68116100ce5780635c81ca681461019b5780636d61fe70146101b05780638a91b0e3146101c3578063940d3840146101d6575f5ffd5b806306fdde03146100f45780630807dbc11461013f57806354fd4d5014610162575b5f5ffd5b60408051808201909152600b81527f4b3156616c696461746f7200000000000000000000000000000000000000000060208201525b60405161013691906110a6565b60405180910390f35b61015261014d3660046110f2565b6102ec565b6040519015158152602001610136565b60408051808201909152600581527f312e322e300000000000000000000000000000000000000000000000000000006020820152610129565b6101ae6101a9366004611129565b61031f565b005b6101ae6101be366004611182565b61032f565b6101ae6101d1366004611182565b610462565b6101526101e43660046111c1565b610497565b6101fc6101f736600461123a565b610505565b604051908152602001610136565b610152610218366004611129565b610540565b7fd620c85a000000000000000000000000000000000000000000000000000000006101fc565b6101ae610251366004611129565b610563565b610152610264366004611281565b60011490565b6101ae610278366004611129565b61056f565b61029061028b366004611298565b6105ea565b6040517fffffffff000000000000000000000000000000000000000000000000000000009091168152602001610136565b6102d46102cf366004611129565b61060a565b6040516001600160a01b039091168152602001610136565b6001600160a01b038083165f90815260026020908152604080832093851683529290529081205415155b90505b92915050565b61032b6001338361063b565b5050565b5f819003610369576040517f1f2a381c00000000000000000000000000000000000000000000000000000000815260040160405180910390fd5b335f908152602081905260409020546001600160a01b0316156103b8576040517fe72ce85e00000000000000000000000000000000000000000000000000000000815260040160405180910390fd5b5f6103c660148284866112f0565b6103cf91611317565b60601c90508061040b576040517fc81abf6000000000000000000000000000000000000000000000000000000000815260040160405180910390fd5b335f908152602081905260409020805473ffffffffffffffffffffffffffffffffffffffff19166001600160a01b038316179055601482111561045d5761045d61045883601481876112f0565b610650565b505050565b335f818152602081905260409020805473ffffffffffffffffffffffffffffffffffffffff1916905561032b906001906106f9565b5f601482146104d2576040517fdfe9309000000000000000000000000000000000000000000000000000000000815260040160405180910390fd5b5f6104e060148285876112f0565b6104e991611317565b60601c90506104fa81888888610703565b979650505050505050565b5f61052d6105196102cf6020860186611129565b83610528610100870187611364565b610703565b610538576001610316565b505f92915050565b6001600160a01b038082165f908152602081905260408120549091161515610319565b61032b60013383610791565b6001600160a01b0381166105af576040517f8579befe00000000000000000000000000000000000000000000000000000000815260040160405180910390fd5b335f908152602081905260409020805473ffffffffffffffffffffffffffffffffffffffff19166001600160a01b0392909216919091179055565b5f6105ff85856105fa86866107a6565b6107d6565b90505b949350505050565b6001600160a01b038082165f9081526020819052604081205490911680156106325780610634565b825b9392505050565b5f61060284846001600160a01b0385166108b8565b61065b6014826113bb565b15610692576040517f7c148cd900000000000000000000000000000000000000000000000000000000815260040160405180910390fd5b5f5b61069f6014836113e2565b81101561045d576106f03384846106b78560146113f5565b906106c386600161140c565b6106ce9060146113f5565b926106db939291906112f0565b6106e491611317565b6001919060601c61063b565b50600101610694565b61032b828261093d565b5f846001600160a01b0316610719858585610991565b6001600160a01b03160361072f57506001610602565b846001600160a01b031661077161076a866020527b19457468657265756d205369676e6564204d6573736167653a0a33325f52603c60042090565b8585610991565b6001600160a01b03160361078757506001610602565b505f949350505050565b5f61060284846001600160a01b03851661099d565b818161649261ffff30801c190402818301601f190135036107cf57506040810135016020810190355b9250929050565b5f816108135761773961ffff83190402840361081357507f7739000100000000000000000000000000000000000000000000000000000000610602565b60208301357f7fffffffffffffffffffffffffffffff5d576e7357a4501ddfe92f46681b20a0811115610872576040517f8baa579f00000000000000000000000000000000000000000000000000000000815260040160405180910390fd5b5f61087f87878787610a83565b806108905750610890868686610a9d565b806108a157506108a1868686610d44565b155f03631626ba7e1760e01b979650505050505050565b5f81815260018401602090815260408083206001600160a01b0386168452909152812054610936575f8381526020858152604090912080546001019182028101849055556109068484610daf565b5f8381526001808701602090815260408084206001600160a01b0389168552909152909120919091559050610634565b505f610634565b5f6109488383610dc2565b905060015b81811161098b575f6109698585610964858761141f565b610dcd565b905061097685858361099d565b5050808061098390611432565b91505061094d565b50505050565b5f610602848484610dd9565b5f81815260018401602090815260408083206001600160a01b03861684529091528120548015610a72575f6109d360018361141f565b90505f60016109e28888610daf565b6109ec919061141f565b9050808214610a36575f610a01888884610e6c565b9050610a0f88888584610e78565b5f90815260018801602090815260408083206001600160a01b038a16845290915290208390555b610a408787610e84565b5050505f8281526001808601602090815260408084206001600160a01b03881685529091528220919091559050610634565b5f915050610634565b509392505050565b5f610a8d85610e8e565b15610602576105ff848484610eec565b5f308015610b56575f5f5f5f5f336001600160a01b03166384b0196e6040518163ffffffff1660e01b81526004015f60405180830381865afa158015610ae5573d5f5f3e3d5ffd5b505050506040513d5f823e601f3d908101601f19168201604052610b0c919081019061158b565b506040805186516020978801208183015285519590960194909420606086015260808501929092526001600160a01b031660a084015260c083015260e08201905296505050505050505b6040516002840385013560f01c8060420180860387016119015f52604081602037821582881017896042601e20181715610bc1575f94507f983e65e5148e570cd828ead231ee759a8d7958721a768f93bc4483ba005c32de8552886020526040852098505050610d1a565b7f5479706564446174615369676e280000000000000000000000000000000000008452600e84018360408301823760288185019081525f1901515f1a602914610c3a575f6001858301035b6001820191506029828203515f1a1486831011610c0c57508085039450808560408501018337602881830153505b6f07fffffe00000000000001000000000081515f1a1c5b602882515f1a14610c7757806512010000000183515f1a1c179050600182019150610c51565b7f20636f6e74656e74732c737472696e67206e616d652c737472696e670000000082527f2076657273696f6e2c75696e7432353620636861696e49642c61646472657373601c8301527f20766572696679696e67436f6e74726163742c627974657333322073616c7429603c830152605c820191508460408401833760408388379084018590038520865260e08620604052600116604201601e20985050909403935b5060405280610d3057610d2d3386610f01565b94505b610d3b858585610eec565b95945050505050565b5f3a610634573a3a526d378edcd5b5b0a24f5342d8c1048560203a3a388461fffffa503a51610da357604051631626ba7e3a528160205260408052454561ffff0117805a108388141715610d9457fe5b3a3a6064601c3085fa50506040525b50610602848484610eec565b5f81815260208390526040812054610316565b5f6103168383610daf565b5f610602848484610e6c565b5f6040518260408114610df45760418114610e345750610a7b565b60208581013560ff81901c601b0190915285356040527f7fffffffffffffffffffffffffffffffffffffffffffffffffffffffffffffff16606052610e45565b60408501355f1a6020526040856040375b50845f526020604060805f60015afa505f6060523d60601851915080604052509392505050565b5f610602848484610fec565b61098b84848484611003565b61032b828261101b565b5f6dd9ecebf3c23529de49815dac1c4c6001600160a01b0383161480610ebc57506001600160a01b03821633145b8061031957506001600160a01b0382165f9081526002602090815260408083203384529091529020541515610319565b5f610602610ef93361060a565b858585610703565b5f5f5f5f5f866001600160a01b03166384b0196e6040518163ffffffff1660e01b81526004015f60405180830381865afa158015610f41573d5f5f3e3d5ffd5b505050506040513d5f823e601f3d908101601f19168201604052610f68919081019061158b565b50509450945094509450506040517f8b73c3c69bb8fe3d512ecc4cf759cc79239f7b179b0ffacaa9a75d522b39400f815284516020860120602082015283516020850120604082015282606082015281608082015260a081209550506719010000000000005f5284601a5285603a52604260182094505f603a525050505092915050565b5f8281526020849052604081206106029083611057565b5f83815260208590526040902061098b90838361107d565b5f818152602083905260408120805490918190036110395750505050565b61104e8261104860018461141f565b5f61107d565b5f190190555050565b5f8254821061107157638277484f5f52816020526024601cfd5b50600101602002015490565b8254821061109657638277484f5f52816020526024601cfd5b8060018301602002840155505050565b602081525f82518060208401528060208501604085015e5f604082850101526040601f19601f83011684010191505092915050565b6001600160a01b03811681146110ef575f5ffd5b50565b5f5f60408385031215611103575f5ffd5b823561110e816110db565b9150602083013561111e816110db565b809150509250929050565b5f60208284031215611139575f5ffd5b8135610634816110db565b5f5f83601f840112611154575f5ffd5b50813567ffffffffffffffff81111561116b575f5ffd5b6020830191508360208285010111156107cf575f5ffd5b5f5f60208385031215611193575f5ffd5b823567ffffffffffffffff8111156111a9575f5ffd5b6111b585828601611144565b90969095509350505050565b5f5f5f5f5f606086880312156111d5575f5ffd5b85359450602086013567ffffffffffffffff8111156111f2575f5ffd5b6111fe88828901611144565b909550935050604086013567ffffffffffffffff81111561121d575f5ffd5b61122988828901611144565b969995985093965092949392505050565b5f5f6040838503121561124b575f5ffd5b823567ffffffffffffffff811115611261575f5ffd5b83016101208186031215611273575f5ffd5b946020939093013593505050565b5f60208284031215611291575f5ffd5b5035919050565b5f5f5f5f606085870312156112ab575f5ffd5b84356112b6816110db565b935060208501359250604085013567ffffffffffffffff8111156112d8575f5ffd5b6112e487828801611144565b95989497509550505050565b5f5f858511156112fe575f5ffd5b8386111561130a575f5ffd5b5050820193919092039150565b80356bffffffffffffffffffffffff19811690601484101561135d576bffffffffffffffffffffffff196bffffffffffffffffffffffff198560140360031b1b82161691505b5092915050565b5f5f8335601e19843603018112611379575f5ffd5b83018035915067ffffffffffffffff821115611393575f5ffd5b6020019150368190038213156107cf575f5ffd5b634e487b7160e01b5f52601260045260245ffd5b5f826113c9576113c96113a7565b500690565b634e487b7160e01b5f52601160045260245ffd5b5f826113f0576113f06113a7565b500490565b8082028115828204841417610319576103196113ce565b80820180821115610319576103196113ce565b81810381811115610319576103196113ce565b5f60018201611443576114436113ce565b5060010190565b634e487b7160e01b5f52604160045260245ffd5b604051601f8201601f1916810167ffffffffffffffff811182821017156114875761148761144a565b604052919050565b5f82601f83011261149e575f5ffd5b815167ffffffffffffffff8111156114b8576114b861144a565b6114cb601f8201601f191660200161145e565b8181528460208386010111156114df575f5ffd5b8160208501602083015e5f918101602001919091529392505050565b8051611506816110db565b919050565b5f82601f83011261151a575f5ffd5b815167ffffffffffffffff8111156115345761153461144a565b8060051b6115446020820161145e565b9182526020818501810192908101908684111561155f575f5ffd5b6020860192505b83831015611581578251825260209283019290910190611566565b9695505050505050565b5f5f5f5f5f5f5f60e0888a0312156115a1575f5ffd5b87517fff00000000000000000000000000000000000000000000000000000000000000811681146115d0575f5ffd5b602089015190975067ffffffffffffffff8111156115ec575f5ffd5b6115f88a828b0161148f565b965050604088015167ffffffffffffffff811115611614575f5ffd5b6116208a828b0161148f565b60608a015190965094506116389050608089016114fb565b60a089015160c08a0151919450925067ffffffffffffffff81111561165b575f5ffd5b6116678a828b0161150b565b9150509295989194975092955056fea164736f6c634300081b000a","linkReferences":{}},"methodIdentifiers":{"addSafeSender(address)":"5c81ca68","getOwner(address)":"fa544161","isInitialized(address)":"d60b347f","isModuleType(uint256)":"ecd05961","isSafeSender(address,address)":"0807dbc1","isValidSignatureWithSender(address,bytes32,bytes)":"f551e2ee","name()":"06fdde03","onInstall(bytes)":"6d61fe70","onUninstall(bytes)":"8a91b0e3","removeSafeSender(address)":"e824b568","supportsNestedTypedDataSign()":"d620c85a","transferOwnership(address)":"f2fde38b","validateSignatureWithData(bytes32,bytes,bytes)":"940d3840","validateUserOp((address,uint256,bytes,bytes,bytes32,uint256,bytes32,bytes,bytes),bytes32)":"97003203","version()":"54fd4d50"},"id":67}