{"abi":[{"type":"constructor","inputs":[{"name":"implementation_","type":"address","internalType":"address"},{"name":"owner_","type":"address","internalType":"address"}],"stateMutability":"nonpayable"},{"type":"function","name":"ACCOUNT_IMPLEMENTATION","inputs":[],"outputs":[{"name":"","type":"address","internalType":"address"}],"stateMutability":"view"},{"type":"function","name":"addStake","inputs":[{"name":"epAddress","type":"address","internalType":"address"},{"name":"unstakeDelaySec","type":"uint32","internalType":"uint32"}],"outputs":[],"stateMutability":"payable"},{"type":"function","name":"cancelOwnershipHandover","inputs":[],"outputs":[],"stateMutability":"payable"},{"type":"function","name":"completeOwnershipHandover","inputs":[{"name":"pendingOwner","type":"address","internalType":"address"}],"outputs":[],"stateMutability":"payable"},{"type":"function","name":"computeAccountAddress","inputs":[{"name":"initData","type":"bytes","internalType":"bytes"},{"name":"salt","type":"bytes32","internalType":"bytes32"}],"outputs":[{"name":"expectedAddress","type":"address","internalType":"address payable"}],"stateMutability":"view"},{"type":"function","name":"createAccount","inputs":[{"name":"initData","type":"bytes","internalType":"bytes"},{"name":"salt","type":"bytes32","internalType":"bytes32"}],"outputs":[{"name":"","type":"address","internalType":"address payable"}],"stateMutability":"payable"},{"type":"function","name":"owner","inputs":[],"outputs":[{"name":"result","type":"address","internalType":"address"}],"stateMutability":"view"},{"type":"function","name":"ownershipHandoverExpiresAt","inputs":[{"name":"pendingOwner","type":"address","internalType":"address"}],"outputs":[{"name":"result","type":"uint256","internalType":"uint256"}],"stateMutability":"view"},{"type":"function","name":"renounceOwnership","inputs":[],"outputs":[],"stateMutability":"payable"},{"type":"function","name":"requestOwnershipHandover","inputs":[],"outputs":[],"stateMutability":"payable"},{"type":"function","name":"transferOwnership","inputs":[{"name":"newOwner","type":"address","internalType":"address"}],"outputs":[],"stateMutability":"payable"},{"type":"function","name":"unlockStake","inputs":[{"name":"epAddress","type":"address","internalType":"address"}],"outputs":[],"stateMutability":"nonpayable"},{"type":"function","name":"withdrawStake","inputs":[{"name":"epAddress","type":"address","internalType":"address"},{"name":"withdrawAddress","type":"address","internalType":"address payable"}],"outputs":[],"stateMutability":"nonpayable"},{"type":"event","name":"AccountCreated","inputs":[{"name":"account","type":"address","indexed":true,"internalType":"address"},{"name":"initData","type":"bytes","indexed":true,"internalType":"bytes"},{"name":"salt","type":"bytes32","indexed":true,"internalType":"bytes32"}],"anonymous":false},{"type":"event","name":"OwnershipHandoverCanceled","inputs":[{"name":"pendingOwner","type":"address","indexed":true,"internalType":"address"}],"anonymous":false},{"type":"event","name":"OwnershipHandoverRequested","inputs":[{"name":"pendingOwner","type":"address","indexed":true,"internalType":"address"}],"anonymous":false},{"type":"event","name":"OwnershipTransferred","inputs":[{"name":"oldOwner","type":"address","indexed":true,"internalType":"address"},{"name":"newOwner","type":"address","indexed":true,"internalType":"address"}],"anonymous":false},{"type":"error","name":"AccountAlreadyDeployed","inputs":[{"name":"account","type":"address","internalType":"address"}]},{"type":"error","name":"AlreadyInitialized","inputs":[]},{"type":"error","name":"EthTransferFailed","inputs":[]},{"type":"error","name":"ImplementationAddressCanNotBeZero","inputs":[]},{"type":"error","name":"InvalidEntryPointAddress","inputs":[]},{"type":"error","name":"NewOwnerIsZeroAddress","inputs":[]},{"type":"error","name":"NoHandoverRequest","inputs":[]},{"type":"error","name":"Unauthorized","inputs":[]},{"type":"error","name":"ZeroAddressNotAllowed","inputs":[]}],"bytecode":{"object":"0x60a060405234801561000f575f5ffd5b50604051610fe5380380610fe583398101604081905261002e916100f1565b8061003881610099565b506001600160a01b03821661006057604051630abd577760e01b815260040160405180910390fd5b6001600160a01b038116610087576040516342bcdf7f60e11b815260040160405180910390fd5b506001600160a01b0316608052610122565b638b78c6d81980546001600160a01b039092169182907f8be0079c531659141344cd1fd0a4f28419497f9722a3daafe3b4186f6b6457e05f80a355565b80516001600160a01b03811681146100ec575f5ffd5b919050565b5f5f60408385031215610102575f5ffd5b61010b836100d6565b9150610119602084016100d6565b90509250929050565b608051610e9e6101475f395f818160ed015281816104a801526105ca0152610e9e5ff3fe6080604052600436106100ce575f3560e01c80638da5cb5b1161007c578063f04e283e11610057578063f04e283e146101b8578063f2fde38b146101cb578063fafa2b42146101de578063fee81cf4146101fd575f5ffd5b80638da5cb5b1461016e578063b36f970514610186578063ea6d13ac146101a5575f5ffd5b80634a1ce599116100ac5780634a1ce5991461013f57806354d1f13d1461015e578063715018a614610166575f5ffd5b806325692962146100d2578063290ab984146100dc578063451711591461012c575b5f5ffd5b6100da61023c565b005b3480156100e7575f5ffd5b5061010f7f000000000000000000000000000000000000000000000000000000000000000081565b6040516001600160a01b0390911681526020015b60405180910390f35b6100da61013a366004610913565b610289565b34801561014a575f5ffd5b506100da610159366004610952565b610332565b6100da6103b2565b6100da6103eb565b348015610179575f5ffd5b50638b78c6d8195461010f565b348015610191575f5ffd5b506100da6101a0366004610974565b6103fe565b61010f6101b33660046109a0565b6104a0565b6100da6101c6366004610952565b610561565b6100da6101d9366004610952565b61059e565b3480156101e9575f5ffd5b5061010f6101f83660046109a0565b6105c4565b348015610208575f5ffd5b5061022e610217366004610952565b63389a75e1600c9081525f91909152602090205490565b604051908152602001610123565b5f6202a30067ffffffffffffffff164201905063389a75e1600c52335f52806020600c2055337fdbf36a107da19e49527a7176a1babf963b4b0ff8cde35ee35d6cd8f1f9ac7e1d5f5fa250565b61029161062d565b6001600160a01b0382166102b8576040516391fdf19160e01b815260040160405180910390fd5b6040517f0396cb6000000000000000000000000000000000000000000000000000000000815263ffffffff821660048201526001600160a01b03831690630396cb609034906024015f604051808303818588803b158015610317575f5ffd5b505af1158015610329573d5f5f3e3d5ffd5b50505050505050565b61033a61062d565b6001600160a01b038116610361576040516391fdf19160e01b815260040160405180910390fd5b806001600160a01b031663bb9fe6bf6040518163ffffffff1660e01b81526004015f604051808303815f87803b158015610399575f5ffd5b505af11580156103ab573d5f5f3e3d5ffd5b5050505050565b63389a75e1600c52335f525f6020600c2055337ffa7b8eab7da67f412cc9575ed43464468f9bfbae89d1675917346ca6d8fe3c925f5fa2565b6103f361062d565b6103fc5f610647565b565b61040661062d565b6001600160a01b03821661042d576040516391fdf19160e01b815260040160405180910390fd5b6040517fc23a5cea0000000000000000000000000000000000000000000000000000000081526001600160a01b03828116600483015283169063c23a5cea906024015f604051808303815f87803b158015610486575f5ffd5b505af1158015610498573d5f5f3e3d5ffd5b505050505050565b5f5f5f6105037f00000000000000000000000000000000000000000000000000000000000000008588888080601f0160208091040260200160405190810160405280939291908181526020018383808284375f9201919091525061068492505050565b91509150816105585783868660405161051d929190610a12565b604051908190038120906001600160a01b038416907f47e5b5fc3bda028416e26dcf66ca5186488c0717e8ab55bb01806113f1839d58905f90a45b95945050505050565b61056961062d565b63389a75e1600c52805f526020600c20805442111561058f57636f5e88185f526004601cfd5b5f905561059b81610647565b50565b6105a661062d565b8060601b6105bb57637448fbae5f526004601cfd5b61059b81610647565b5f6106257f00000000000000000000000000000000000000000000000000000000000000008386868080601f0160208091040260200160405190810160405280939291908181526020018383808284375f920191909152506107c792505050565b949350505050565b638b78c6d8195433146103fc576382b429005f526004601cfd5b638b78c6d81980546001600160a01b039092169182907f8be0079c531659141344cd1fd0a4f28419497f9722a3daafe3b4186f6b6457e05f80a355565b5f5f6106918585856107c7565b90505f816001600160a01b03163b1191508161073457833486856040516024016106bb9190610a4f565b60408051601f198184030181529181526020820180517bffffffffffffffffffffffffffffffffffffffffffffffffffffffff16634b6a141960e01b17905251610704906108f2565b61070f929190610a61565b82906040518091039083f59150508015801561072d573d5f5f3e3d5ffd5b50506107bf565b5f816001600160a01b0316346040515f6040518083038185875af1925050503d805f811461077d576040519150601f19603f3d011682016040523d82523d5f602084013e610782565b606091505b50509050806107bd576040517f6d963f8800000000000000000000000000000000000000000000000000000000815260040160405180910390fd5b505b935093915050565b5f5f604051806020016107d9906108f2565b6020820181038252601f19601f8201166040525085846040516024016107ff9190610a4f565b60408051601f19818403018152918152602080830180517bffffffffffffffffffffffffffffffffffffffffffffffffffffffff16634b6a141960e01b179052905161084d93929101610a61565b60408051601f198184030181529082905261086b9291602001610a99565b60408051601f1981840301815282825280516020918201207fff00000000000000000000000000000000000000000000000000000000000000828501523060601b6bffffffffffffffffffffffff19166021850152603584019790975260558084019790975281518084039097018752607590920190528451940193909320949350505050565b6103e480610aae83390190565b6001600160a01b038116811461059b575f5ffd5b5f5f60408385031215610924575f5ffd5b823561092f816108ff565b9150602083013563ffffffff81168114610947575f5ffd5b809150509250929050565b5f60208284031215610962575f5ffd5b813561096d816108ff565b9392505050565b5f5f60408385031215610985575f5ffd5b8235610990816108ff565b91506020830135610947816108ff565b5f5f5f604084860312156109b2575f5ffd5b833567ffffffffffffffff8111156109c8575f5ffd5b8401601f810186136109d8575f5ffd5b803567ffffffffffffffff8111156109ee575f5ffd5b8660208284010111156109ff575f5ffd5b6020918201979096509401359392505050565b818382375f9101908152919050565b5f81518084528060208401602086015e5f602082860101526020601f19601f83011685010191505092915050565b602081525f61096d6020830184610a21565b6001600160a01b0383168152604060208201525f6106256040830184610a21565b5f81518060208401855e5f93019283525090919050565b5f610625610aa78386610a82565b84610a8256fe60806040526040516103e43803806103e48339810160408190526100229161026c565b61002a61003b565b6100348282610063565b5050610351565b7f90b772c2cb8a51aa7a8a65fc23543c6d022d5b3f8e2b92eed79fba7eef8293006001815d50565b61006c826100c1565b6040516001600160a01b038316907fbc7cd75a20ee27fd9adebab32041f755214dbc6bffa90cc0225b39da2e5c2d3b905f90a28051156100b5576100b0828261013c565b505050565b6100bd6101af565b5050565b806001600160a01b03163b5f036100fb57604051634c9c8ce360e01b81526001600160a01b03821660048201526024015b60405180910390fd5b7f360894a13ba1a3210667c828492db98dca3e2076cc3735a920a3ca505d382bbc80546001600160a01b0319166001600160a01b0392909216919091179055565b60605f5f846001600160a01b031684604051610158919061033b565b5f60405180830381855af49150503d805f8114610190576040519150601f19603f3d011682016040523d82523d5f602084013e610195565b606091505b5090925090506101a68583836101d0565b95945050505050565b34156101ce5760405163b398979f60e01b815260040160405180910390fd5b565b6060826101e5576101e08261022f565b610228565b81511580156101fc57506001600160a01b0384163b155b1561022557604051639996b31560e01b81526001600160a01b03851660048201526024016100f2565b50805b9392505050565b80511561023f5780518082602001fd5b60405163d6bda27560e01b815260040160405180910390fd5b634e487b7160e01b5f52604160045260245ffd5b5f5f6040838503121561027d575f5ffd5b82516001600160a01b0381168114610293575f5ffd5b60208401519092506001600160401b038111156102ae575f5ffd5b8301601f810185136102be575f5ffd5b80516001600160401b038111156102d7576102d7610258565b604051601f8201601f19908116603f011681016001600160401b038111828210171561030557610305610258565b60405281815282820160200187101561031c575f5ffd5b8160208401602083015e5f602083830101528093505050509250929050565b5f82518060208501845e5f920191825250919050565b60878061035d5f395ff3fe6080604052600a600c565b005b60186014601a565b605d565b565b5f60587f360894a13ba1a3210667c828492db98dca3e2076cc3735a920a3ca505d382bbc5473ffffffffffffffffffffffffffffffffffffffff1690565b905090565b365f5f375f5f365f845af43d5f5f3e8080156076573d5ff35b3d5ffdfea164736f6c634300081b000aa164736f6c634300081b000a","linkReferences":{}},"methodIdentifiers":{"ACCOUNT_IMPLEMENTATION()":"290ab984","addStake(address,uint32)":"45171159","cancelOwnershipHandover()":"54d1f13d","completeOwnershipHandover(address)":"f04e283e","computeAccountAddress(bytes,bytes32)":"fafa2b42","createAccount(bytes,bytes32)":"ea6d13ac","owner()":"8da5cb5b","ownershipHandoverExpiresAt(address)":"fee81cf4","renounceOwnership()":"715018a6","requestOwnershipHandover()":"25692962","transferOwnership(address)":"f2fde38b","unlockStake(address)":"4a1ce599","withdrawStake(address,address)":"b36f9705"},"id":9}