{"abi":[{"type":"constructor","inputs":[{"name":"implementation","type":"address","internalType":"address"},{"name":"factoryOwner","type":"address","internalType":"address"},{"name":"k1Validator","type":"address","internalType":"address"},{"name":"bootstrapper","type":"address","internalType":"contract NexusBootstrap"},{"name":"registry","type":"address","internalType":"contract IERC7484"}],"stateMutability":"nonpayable"},{"type":"function","name":"ACCOUNT_IMPLEMENTATION","inputs":[],"outputs":[{"name":"","type":"address","internalType":"address"}],"stateMutability":"view"},{"type":"function","name":"BOOTSTRAPPER","inputs":[],"outputs":[{"name":"","type":"address","internalType":"contract NexusBootstrap"}],"stateMutability":"view"},{"type":"function","name":"K1_VALIDATOR","inputs":[],"outputs":[{"name":"","type":"address","internalType":"address"}],"stateMutability":"view"},{"type":"function","name":"REGISTRY","inputs":[],"outputs":[{"name":"","type":"address","internalType":"contract IERC7484"}],"stateMutability":"view"},{"type":"function","name":"addStake","inputs":[{"name":"epAddress","type":"address","internalType":"address"},{"name":"unstakeDelaySec","type":"uint32","internalType":"uint32"}],"outputs":[],"stateMutability":"payable"},{"type":"function","name":"cancelOwnershipHandover","inputs":[],"outputs":[],"stateMutability":"payable"},{"type":"function","name":"completeOwnershipHandover","inputs":[{"name":"pendingOwner","type":"address","internalType":"address"}],"outputs":[],"stateMutability":"payable"},{"type":"function","name":"computeAccountAddress","inputs":[{"name":"eoaOwner","type":"address","internalType":"address"},{"name":"index","type":"uint256","internalType":"uint256"},{"name":"attesters","type":"address[]","internalType":"address[]"},{"name":"threshold","type":"uint8","internalType":"uint8"}],"outputs":[{"name":"expectedAddress","type":"address","internalType":"address payable"}],"stateMutability":"view"},{"type":"function","name":"createAccount","inputs":[{"name":"eoaOwner","type":"address","internalType":"address"},{"name":"index","type":"uint256","internalType":"uint256"},{"name":"attesters","type":"address[]","internalType":"address[]"},{"name":"threshold","type":"uint8","internalType":"uint8"}],"outputs":[{"name":"","type":"address","internalType":"address payable"}],"stateMutability":"payable"},{"type":"function","name":"owner","inputs":[],"outputs":[{"name":"result","type":"address","internalType":"address"}],"stateMutability":"view"},{"type":"function","name":"ownershipHandoverExpiresAt","inputs":[{"name":"pendingOwner","type":"address","internalType":"address"}],"outputs":[{"name":"result","type":"uint256","internalType":"uint256"}],"stateMutability":"view"},{"type":"function","name":"renounceOwnership","inputs":[],"outputs":[],"stateMutability":"payable"},{"type":"function","name":"requestOwnershipHandover","inputs":[],"outputs":[],"stateMutability":"payable"},{"type":"function","name":"transferOwnership","inputs":[{"name":"newOwner","type":"address","internalType":"address"}],"outputs":[],"stateMutability":"payable"},{"type":"function","name":"unlockStake","inputs":[{"name":"epAddress","type":"address","internalType":"address"}],"outputs":[],"stateMutability":"nonpayable"},{"type":"function","name":"withdrawStake","inputs":[{"name":"epAddress","type":"address","internalType":"address"},{"name":"withdrawAddress","type":"address","internalType":"address payable"}],"outputs":[],"stateMutability":"nonpayable"},{"type":"event","name":"AccountCreated","inputs":[{"name":"account","type":"address","indexed":true,"internalType":"address"},{"name":"owner","type":"address","indexed":true,"internalType":"address"},{"name":"index","type":"uint256","indexed":true,"internalType":"uint256"}],"anonymous":false},{"type":"event","name":"OwnershipHandoverCanceled","inputs":[{"name":"pendingOwner","type":"address","indexed":true,"internalType":"address"}],"anonymous":false},{"type":"event","name":"OwnershipHandoverRequested","inputs":[{"name":"pendingOwner","type":"address","indexed":true,"internalType":"address"}],"anonymous":false},{"type":"event","name":"OwnershipTransferred","inputs":[{"name":"oldOwner","type":"address","indexed":true,"internalType":"address"},{"name":"newOwner","type":"address","indexed":true,"internalType":"address"}],"anonymous":false},{"type":"error","name":"AlreadyInitialized","inputs":[]},{"type":"error","name":"ImplementationCodeCanNotBeEmpty","inputs":[]},{"type":"error","name":"InnerCallFailed","inputs":[]},{"type":"error","name":"InvalidEntryPointAddress","inputs":[]},{"type":"error","name":"NewOwnerIsZeroAddress","inputs":[]},{"type":"error","name":"NoHandoverRequest","inputs":[]},{"type":"error","name":"Unauthorized","inputs":[]},{"type":"error","name":"ZeroAddressNotAllowed","inputs":[]}],"bytecode":{"object":"0x610100604052348015610010575f5ffd5b5060405161100738038061100783398101604081905261002f9161013d565b83610039816100e8565b506001600160a01b038516158061005757506001600160a01b038316155b8061006957506001600160a01b038216155b8061007b57506001600160a01b038416155b15610099576040516342bcdf7f60e11b815260040160405180910390fd5b5f856001600160a01b03163b116100c35760405163659b0b3560e01b815260040160405180910390fd5b6001600160a01b0394851660805291841660a052831660c05290911660e052506101ae565b638b78c6d81980546001600160a01b039092169182907f8be0079c531659141344cd1fd0a4f28419497f9722a3daafe3b4186f6b6457e05f80a38190555b50565b6001600160a01b0381168114610126575f5ffd5b5f5f5f5f5f60a08688031215610151575f5ffd5b855161015c81610129565b602087015190955061016d81610129565b604087015190945061017e81610129565b606087015190935061018f81610129565b60808701519092506101a081610129565b809150509295509295909350565b60805160a05160c05160e051610e036102045f395f818161010401526103f601525f81816101fd01526103c601525f818161026f015261038e01525f81816101710152818161033101526105c80152610e035ff3fe6080604052600436106100ef575f3560e01c806367d2d1c911610087578063d0733b3b11610057578063d0733b3b1461025e578063f04e283e14610291578063f2fde38b146102a4578063fee81cf4146102b7575f5ffd5b806367d2d1c9146101ec578063715018a61461021f5780638da5cb5b14610227578063b36f97051461023f575f5ffd5b8063322cc8ca116100c2578063322cc8ca1461019357806345171159146101b25780634a1ce599146101c557806354d1f13d146101e4575f5ffd5b806306433b1b146100f35780630d51f0b7146101435780632569296214610156578063290ab98414610160575b5f5ffd5b3480156100fe575f5ffd5b506101267f000000000000000000000000000000000000000000000000000000000000000081565b6040516001600160a01b0390911681526020015b60405180910390f35b610126610151366004610a80565b6102f6565b61015e610543565b005b34801561016b575f5ffd5b506101267f000000000000000000000000000000000000000000000000000000000000000081565b34801561019e575f5ffd5b506101266101ad366004610a80565b610590565b61015e6101c0366004610b1d565b6105f9565b3480156101d0575f5ffd5b5061015e6101df366004610b5c565b6106a2565b61015e610722565b3480156101f7575f5ffd5b506101267f000000000000000000000000000000000000000000000000000000000000000081565b61015e61075b565b348015610232575f5ffd5b50638b78c6d81954610126565b34801561024a575f5ffd5b5061015e610259366004610b7e565b61076e565b348015610269575f5ffd5b506101267f000000000000000000000000000000000000000000000000000000000000000081565b61015e61029f366004610b5c565b610810565b61015e6102b2366004610b5c565b61084d565b3480156102c2575f5ffd5b506102e86102d1366004610b5c565b63389a75e1600c9081525f91909152602090205490565b60405190815260200161013a565b5f5f8686868686604051602001610311959493929190610baa565b6040516020818303038152906040528051906020012090505f5f610356347f000000000000000000000000000000000000000000000000000000000000000085610873565b6040805160608d901b6bffffffffffffffffffffffff1916602082015281516014818303018152607482019092526001600160a01b037f0000000000000000000000000000000000000000000000000000000000000000166034820190815260549091019190915291935091505f7f00000000000000000000000000000000000000000000000000000000000000006001600160a01b031663837b892e837f00000000000000000000000000000000000000000000000000000000000000008c8c8c6040518663ffffffff1660e01b8152600401610438959493929190610c65565b5f60405180830381865afa158015610452573d5f5f3e3d5ffd5b505050506040513d5f823e601f3d908101601f191682016040526104799190810190610d31565b905083610534576040517f4b6a14190000000000000000000000000000000000000000000000000000000081526001600160a01b03841690634b6a1419906104c5908490600401610de4565b5f604051808303815f87803b1580156104dc575f5ffd5b505af11580156104ee573d5f5f3e3d5ffd5b50505050898b6001600160a01b0316846001600160a01b03167f33310a89c32d8cc00057ad6ef6274d2f8fe22389a992cf89983e09fc84f6cfff60405160405180910390a45b50909998505050505050505050565b5f6202a30067ffffffffffffffff164201905063389a75e1600c52335f52806020600c2055337fdbf36a107da19e49527a7176a1babf963b4b0ff8cde35ee35d6cd8f1f9ac7e1d5f5fa250565b5f5f86868686866040516020016105ab959493929190610baa565b6040516020818303038152906040528051906020012090506105ee7f00000000000000000000000000000000000000000000000000000000000000008230610951565b979650505050505050565b6106016109e1565b6001600160a01b038216610628576040516391fdf19160e01b815260040160405180910390fd5b6040517f0396cb6000000000000000000000000000000000000000000000000000000000815263ffffffff821660048201526001600160a01b03831690630396cb609034906024015f604051808303818588803b158015610687575f5ffd5b505af1158015610699573d5f5f3e3d5ffd5b50505050505050565b6106aa6109e1565b6001600160a01b0381166106d1576040516391fdf19160e01b815260040160405180910390fd5b806001600160a01b031663bb9fe6bf6040518163ffffffff1660e01b81526004015f604051808303815f87803b158015610709575f5ffd5b505af115801561071b573d5f5f3e3d5ffd5b5050505050565b63389a75e1600c52335f525f6020600c2055337ffa7b8eab7da67f412cc9575ed43464468f9bfbae89d1675917346ca6d8fe3c925f5fa2565b6107636109e1565b61076c5f6109fb565b565b6107766109e1565b6001600160a01b03821661079d576040516391fdf19160e01b815260040160405180910390fd5b6040517fc23a5cea0000000000000000000000000000000000000000000000000000000081526001600160a01b03828116600483015283169063c23a5cea906024015f604051808303815f87803b1580156107f6575f5ffd5b505af1158015610808573d5f5f3e3d5ffd5b505050505050565b6108186109e1565b63389a75e1600c52805f526020600c20805442111561083e57636f5e88185f526004601cfd5b5f905561084a816109fb565b50565b6108556109e1565b8060601b61086a57637448fbae5f526004601cfd5b61084a816109fb565b5f5f6040517fcc3735a920a3ca505d382bbc545af43d6000803e6038573d6000fd5b3d6000f36060527f5155f3363d3d373d3d363d7f360894a13ba1a3210667c828492db98dca3e207660405261600960205284601e5268603d3d8160223d3973600a52605f60212060358201523060581b815260ff8153836015820152605581209150813b61091d5783605f602188f59150816109185763301164255f526004601cfd5b610940565b600192508515610940575f385f3889865af16109405763b12d13eb5f526004601cfd5b80604052505f606052935093915050565b5f5f6109cb85604080517fcc3735a920a3ca505d382bbc545af43d6000803e6038573d6000fd5b3d6000f360609081527f5155f3363d3d373d3d363d7f360894a13ba1a3210667c828492db98dca3e20768352616009602052601e9390935268603d3d8160223d3973600a52605f60212091525f90915290565b90506109d8818585610a38565b95945050505050565b638b78c6d81954331461076c576382b429005f526004601cfd5b638b78c6d81980546001600160a01b039092169182907f8be0079c531659141344cd1fd0a4f28419497f9722a3daafe3b4186f6b6457e05f80a355565b5f60ff5f5350603592835260601b60015260155260555f908120915290565b6001600160a01b038116811461084a575f5ffd5b803560ff81168114610a7b575f5ffd5b919050565b5f5f5f5f5f60808688031215610a94575f5ffd5b8535610a9f81610a57565b945060208601359350604086013567ffffffffffffffff811115610ac1575f5ffd5b8601601f81018813610ad1575f5ffd5b803567ffffffffffffffff811115610ae7575f5ffd5b8860208260051b8401011115610afb575f5ffd5b60209190910193509150610b1160608701610a6b565b90509295509295909350565b5f5f60408385031215610b2e575f5ffd5b8235610b3981610a57565b9150602083013563ffffffff81168114610b51575f5ffd5b809150509250929050565b5f60208284031215610b6c575f5ffd5b8135610b7781610a57565b9392505050565b5f5f60408385031215610b8f575f5ffd5b8235610b9a81610a57565b91506020830135610b5181610a57565b6bffffffffffffffffffffffff198660601b1681528460148201525f60348201855f5b86811015610bfe578135610be081610a57565b6001600160a01b031683526020928301929190910190600101610bcd565b505060f89390931b7fff000000000000000000000000000000000000000000000000000000000000001683525050600101949350505050565b5f81518084528060208401602086015e5f602082860101526020601f19601f83011685010191505092915050565b608081526001600160a01b0386511660808201525f6020870151604060a0840152610c9360c0840182610c37565b6001600160a01b0388166020858101919091528482036040860152868252879250015f5b86811015610ce7578235610cca81610a57565b6001600160a01b0316825260209283019290910190600101610cb7565b5060ff851660608501529150610cfa9050565b9695505050505050565b7f4e487b71000000000000000000000000000000000000000000000000000000005f52604160045260245ffd5b5f60208284031215610d41575f5ffd5b815167ffffffffffffffff811115610d57575f5ffd5b8201601f81018413610d67575f5ffd5b805167ffffffffffffffff811115610d8157610d81610d04565b604051601f8201601f19908116603f0116810167ffffffffffffffff81118282101715610db057610db0610d04565b604052818152828201602001861015610dc7575f5ffd5b8160208401602083015e5f91810160200191909152949350505050565b602081525f610b776020830184610c3756fea164736f6c634300081b000a","linkReferences":{}},"methodIdentifiers":{"ACCOUNT_IMPLEMENTATION()":"290ab984","BOOTSTRAPPER()":"67d2d1c9","K1_VALIDATOR()":"d0733b3b","REGISTRY()":"06433b1b","addStake(address,uint32)":"45171159","cancelOwnershipHandover()":"54d1f13d","completeOwnershipHandover(address)":"f04e283e","computeAccountAddress(address,uint256,address[],uint8)":"322cc8ca","createAccount(address,uint256,address[],uint8)":"0d51f0b7","owner()":"8da5cb5b","ownershipHandoverExpiresAt(address)":"fee81cf4","renounceOwnership()":"715018a6","requestOwnershipHandover()":"25692962","transferOwnership(address)":"f2fde38b","unlockStake(address)":"4a1ce599","withdrawStake(address,address)":"b36f9705"},"id":8}