{"abi":[{"type":"constructor","inputs":[{"name":"implementation","type":"address","internalType":"address"},{"name":"factoryOwner","type":"address","internalType":"address"},{"name":"k1Validator","type":"address","internalType":"address"},{"name":"bootstrapper","type":"address","internalType":"contract NexusBootstrap"},{"name":"registry","type":"address","internalType":"contract IERC7484"}],"stateMutability":"nonpayable"},{"type":"function","name":"ACCOUNT_IMPLEMENTATION","inputs":[],"outputs":[{"name":"","type":"address","internalType":"address"}],"stateMutability":"view"},{"type":"function","name":"BOOTSTRAPPER","inputs":[],"outputs":[{"name":"","type":"address","internalType":"contract NexusBootstrap"}],"stateMutability":"view"},{"type":"function","name":"K1_VALIDATOR","inputs":[],"outputs":[{"name":"","type":"address","internalType":"address"}],"stateMutability":"view"},{"type":"function","name":"REGISTRY","inputs":[],"outputs":[{"name":"","type":"address","internalType":"contract IERC7484"}],"stateMutability":"view"},{"type":"function","name":"addStake","inputs":[{"name":"epAddress","type":"address","internalType":"address"},{"name":"unstakeDelaySec","type":"uint32","internalType":"uint32"}],"outputs":[],"stateMutability":"payable"},{"type":"function","name":"cancelOwnershipHandover","inputs":[],"outputs":[],"stateMutability":"payable"},{"type":"function","name":"completeOwnershipHandover","inputs":[{"name":"pendingOwner","type":"address","internalType":"address"}],"outputs":[],"stateMutability":"payable"},{"type":"function","name":"computeAccountAddress","inputs":[{"name":"eoaOwner","type":"address","internalType":"address"},{"name":"index","type":"uint256","internalType":"uint256"},{"name":"attesters","type":"address[]","internalType":"address[]"},{"name":"threshold","type":"uint8","internalType":"uint8"}],"outputs":[{"name":"expectedAddress","type":"address","internalType":"address payable"}],"stateMutability":"view"},{"type":"function","name":"createAccount","inputs":[{"name":"eoaOwner","type":"address","internalType":"address"},{"name":"index","type":"uint256","internalType":"uint256"},{"name":"attesters","type":"address[]","internalType":"address[]"},{"name":"threshold","type":"uint8","internalType":"uint8"}],"outputs":[{"name":"","type":"address","internalType":"address payable"}],"stateMutability":"payable"},{"type":"function","name":"owner","inputs":[],"outputs":[{"name":"result","type":"address","internalType":"address"}],"stateMutability":"view"},{"type":"function","name":"ownershipHandoverExpiresAt","inputs":[{"name":"pendingOwner","type":"address","internalType":"address"}],"outputs":[{"name":"result","type":"uint256","internalType":"uint256"}],"stateMutability":"view"},{"type":"function","name":"renounceOwnership","inputs":[],"outputs":[],"stateMutability":"payable"},{"type":"function","name":"requestOwnershipHandover","inputs":[],"outputs":[],"stateMutability":"payable"},{"type":"function","name":"transferOwnership","inputs":[{"name":"newOwner","type":"address","internalType":"address"}],"outputs":[],"stateMutability":"payable"},{"type":"function","name":"unlockStake","inputs":[{"name":"epAddress","type":"address","internalType":"address"}],"outputs":[],"stateMutability":"nonpayable"},{"type":"function","name":"withdrawStake","inputs":[{"name":"epAddress","type":"address","internalType":"address"},{"name":"withdrawAddress","type":"address","internalType":"address payable"}],"outputs":[],"stateMutability":"nonpayable"},{"type":"event","name":"AccountCreated","inputs":[{"name":"account","type":"address","indexed":true,"internalType":"address"},{"name":"owner","type":"address","indexed":true,"internalType":"address"},{"name":"index","type":"uint256","indexed":true,"internalType":"uint256"}],"anonymous":false},{"type":"event","name":"OwnershipHandoverCanceled","inputs":[{"name":"pendingOwner","type":"address","indexed":true,"internalType":"address"}],"anonymous":false},{"type":"event","name":"OwnershipHandoverRequested","inputs":[{"name":"pendingOwner","type":"address","indexed":true,"internalType":"address"}],"anonymous":false},{"type":"event","name":"OwnershipTransferred","inputs":[{"name":"oldOwner","type":"address","indexed":true,"internalType":"address"},{"name":"newOwner","type":"address","indexed":true,"internalType":"address"}],"anonymous":false},{"type":"error","name":"AlreadyInitialized","inputs":[]},{"type":"error","name":"EthTransferFailed","inputs":[]},{"type":"error","name":"InvalidEntryPointAddress","inputs":[]},{"type":"error","name":"NewOwnerIsZeroAddress","inputs":[]},{"type":"error","name":"NoHandoverRequest","inputs":[]},{"type":"error","name":"Unauthorized","inputs":[]},{"type":"error","name":"ZeroAddressNotAllowed","inputs":[]}],"bytecode":{"object":"0x6101003461019957601f61119438819003918201601f19168301916001600160401b0383118484101761019d5780849260a09460405283398101031261019957610048816101b1565b90610055602082016101b1565b91610062604083016101b1565b6060830151929091906001600160a01b038416908185036101995760800151946001600160a01b03861686036101995760018060a01b031680638b78c6d819547f8be0079c531659141344cd1fd0a4f28419497f9722a3daafe3b4186f6b6457e05f80a3638b78c6d8198190556001600160a01b03831615918215610187575b821561017e575b508115610175575b506101665760805260a05260c05260e052604051610fce90816101c682396080518181816105d4015281816106280152610790015260a0518181816101b001528181610564015261071f015260c05181818161031a0152818161059c0152610757015260e05181818161051a01526109100152f35b6342bcdf7f60e11b5f5260045ffd5b9050155f6100f1565b1591505f6100e9565b6001600160a01b0385161592506100e2565b5f80fd5b634e487b7160e01b5f52604160045260245ffd5b51906001600160a01b03821682036101995756fe6080806040526004361015610012575f80fd5b5f905f3560e01c90816306433b1b146108f3575080630d51f0b714610695578063256929621461064c578063290ab98414610609578063322cc8ca1461048457806345171159146103e65780634a1ce5991461038457806354d1f13d1461033e57806367d2d1c9146102fa578063715018a6146102af5780638da5cb5b14610284578063b36f9705146101d4578063d0733b3b14610190578063f04e283e14610142578063f2fde38b146101035763fee81cf4146100ce575f80fd5b34610100576020366003190112610100576100e7610934565b9063389a75e1600c5252602080600c2054604051908152f35b80fd5b50602036600319011261010057610118610934565b610120610cbd565b8060601b156101355761013290610cd9565b80f35b637448fbae82526004601cfd5b50602036600319011261010057610157610934565b61015f610cbd565b63389a75e1600c528082526020600c20805442116101835790826101329255610cd9565b636f5e881883526004601cfd5b503461010057806003193601126101005760206040516001600160a01b037f0000000000000000000000000000000000000000000000000000000000000000168152f35b5034610100576040366003190112610100576101ee610934565b90602435916001600160a01b038316809303610280576001600160a01b0390610215610cbd565b168015610271578192813b1561026d57829160248392604051948593849263611d2e7560e11b845260048401525af18015610262576102515750f35b8161025b91610a7c565b6101005780f35b6040513d84823e3d90fd5b5050fd5b6391fdf19160e01b8252600482fd5b5080fd5b50346101005780600319360112610100576020638b78c6d819546001600160a01b0360405191168152f35b5080600319360112610100576102c3610cbd565b80638b78c6d819547f8be0079c531659141344cd1fd0a4f28419497f9722a3daafe3b4186f6b6457e08280a380638b78c6d8195580f35b503461010057806003193601126101005760206040516001600160a01b037f0000000000000000000000000000000000000000000000000000000000000000168152f35b50806003193601126101005763389a75e1600c52338152806020600c2055337ffa7b8eab7da67f412cc9575ed43464468f9bfbae89d1675917346ca6d8fe3c928280a280f35b5034610100576020366003190112610100576001600160a01b036103a6610934565b6103ae610cbd565b168015610271578082913b156103e35781809160046040518094819363bb9fe6bf60e01b83525af18015610262576102515750f35b50fd5b506040366003190112610471576103fb610934565b6024359063ffffffff8216809203610471576001600160a01b039061041e610cbd565b1690811561047557813b15610471575f90602460405180948193621cb65b60e51b8352600483015234905af1801561046657610458575080f35b61046491505f90610a7c565b005b6040513d5f823e3d90fd5b5f80fd5b6391fdf19160e01b5f5260045ffd5b346104715760206105f86105c460ff6105d261054361058c6104a53661095e565b919792816104d58a6104c78660409b969b519460209386948501978c896109d8565b03601f198101835282610a7c565b51902097604051946bffffffffffffffffffffffff199060601b168c86015260148552610503603486610a7c565b6040519661051088610a60565b6001600160a01b037f00000000000000000000000000000000000000000000000000000000000000001688523691610a9e565b8a8601521660408401526104c7604051938492639afb7c8d60e01b8b8501527f000000000000000000000000000000000000000000000000000000000000000060248501610b20565b6040519384916001600160a01b037f000000000000000000000000000000000000000000000000000000000000000016888401610bb1565b03601f198101845283610a7c565b7f0000000000000000000000000000000000000000000000000000000000000000610bd4565b6001600160a01b0360405191168152f35b34610471575f3660031901126104715760206040516001600160a01b037f0000000000000000000000000000000000000000000000000000000000000000168152f35b5f3660031901126104715763389a75e1600c52335f526202a30042016020600c2055337fdbf36a107da19e49527a7176a1babf963b4b0ff8cde35ee35d6cd8f1f9ac7e1d5f80a2005b61078e6107806107476106a73661095e565b969294909160ff85826106ca896104c78d896040519586946020860198896109d8565b519020986106fc604051936bffffffffffffffffffffffff198960601b16602086015260148552610503603486610a7c565b60208601521660408401526104c7604051938492639afb7c8d60e01b60208501527f000000000000000000000000000000000000000000000000000000000000000060248501610b20565b6040519485916001600160a01b037f00000000000000000000000000000000000000000000000000000000000000001660208401610bb1565b03601f198101855284610a7c565b7f0000000000000000000000000000000000000000000000000000000000000000936001600160a01b036107c3858388610bd4565b1693843b1595865f1461088f576107fb6105c492604051938491634b6a141960e01b6020840152602060248401526044830190610afc565b604051916102aa908184019284841067ffffffffffffffff85111761087b57849361082a93610d188639610bb1565b039034f515610466576020935b610846575b5050604051908152f35b6001600160a01b0316827f33310a89c32d8cc00057ad6ef6274d2f8fe22389a992cf89983e09fc84f6cfff5f80a4828061083c565b634e487b7160e01b5f52604160045260245ffd5b5050505f80808034875af13d156108ee573d67ffffffffffffffff811161087b57604051906108c8601f8201601f191660200183610a7c565b81525f60203d92013e5b156108df57602093610837565b630db2c7f160e31b5f5260045ffd5b6108d2565b34610471575f366003190112610471576020906001600160a01b037f0000000000000000000000000000000000000000000000000000000000000000168152f35b600435906001600160a01b038216820361047157565b35906001600160a01b038216820361047157565b906080600319830112610471576004356001600160a01b038116810361047157916024359160443567ffffffffffffffff811161047157826023820112156104715780600401359267ffffffffffffffff84116104715760248460051b8301011161047157602401919060643560ff811681036104715790565b909160349296959394966bffffffffffffffffffffffff199060601b168252601482015201915f945b808610610a3857505060f81b7fff000000000000000000000000000000000000000000000000000000000000001681526001019150565b90926020806001926001600160a01b03610a518861094a565b16815201940195019490610a01565b6060810190811067ffffffffffffffff82111761087b57604052565b90601f8019910116810190811067ffffffffffffffff82111761087b57604052565b9291909267ffffffffffffffff841161087b578360051b906020604051610ac782850182610a7c565b809681520191810192831161047157905b828210610ae457505050565b60208091610af18461094a565b815201910190610ad8565b805180835260209291819084018484015e5f828201840152601f01601f1916010190565b916001600160a01b03610b4192168352606060208401526060830190610afc565b90604081830391015260608101916001600160a01b0381511682526020810151926060602084015283518091526020608084019401905f5b818110610b925750505060ff6040809201511691015290565b82516001600160a01b0316865260209586019590920191600101610b79565b6040906001600160a01b03610bd194931681528160208201520190610afc565b90565b91610c42610c816001600160a01b039460206102aa91610c506104c7610c3260405198610c038688018b610a7c565b868a52858a0196610d188839604051634b6a141960e01b87820152602481018790529283916044830190610afc565b6040519687918583019485610bb1565b03601f198101875286610a7c565b60405194859383850197518091895e840190838201905f8252519283915e01015f815203601f198101835282610a7c565b51902060405190602082019260ff60f81b84523060601b60218401526035830152605582015260558152610cb6607582610a7c565b5190201690565b638b78c6d819543303610ccc57565b6382b429005f526004601cfd5b6001600160a01b031680638b78c6d819547f8be0079c531659141344cd1fd0a4f28419497f9722a3daafe3b4186f6b6457e05f80a3638b78c6d8195556fe60806040526102aa803803806100148161018c565b92833981016040828203126101885781516001600160a01b03811692909190838303610188576020810151906001600160401b03821161018857019281601f8501121561018857835161006e610069826101c5565b61018c565b9481865260208601936020838301011161018857815f926020809301865e8601015260017f90b772c2cb8a51aa7a8a65fc23543c6d022d5b3f8e2b92eed79fba7eef8293005d823b15610176577f360894a13ba1a3210667c828492db98dca3e2076cc3735a920a3ca505d382bbc80546001600160a01b031916821790557fbc7cd75a20ee27fd9adebab32041f755214dbc6bffa90cc0225b39da2e5c2d3b5f80a282511561015e575f8091610146945190845af43d15610156573d91610137610069846101c5565b9283523d5f602085013e6101e0565b505b604051606b908161023f8239f35b6060916101e0565b50505034156101485763b398979f60e01b5f5260045ffd5b634c9c8ce360e01b5f5260045260245ffd5b5f80fd5b6040519190601f01601f191682016001600160401b038111838210176101b157604052565b634e487b7160e01b5f52604160045260245ffd5b6001600160401b0381116101b157601f01601f191660200190565b9061020457508051156101f557805190602001fd5b63d6bda27560e01b5f5260045ffd5b81511580610235575b610215575090565b639996b31560e01b5f9081526001600160a01b0391909116600452602490fd5b50803b1561020d56fe60806040523615605c575f8073ffffffffffffffffffffffffffffffffffffffff7f360894a13ba1a3210667c828492db98dca3e2076cc3735a920a3ca505d382bbc5416368280378136915af43d5f803e156058573d5ff35b3d5ffd5b00fea164736f6c634300081b000aa164736f6c634300081b000a","linkReferences":{}},"methodIdentifiers":{"ACCOUNT_IMPLEMENTATION()":"290ab984","BOOTSTRAPPER()":"67d2d1c9","K1_VALIDATOR()":"d0733b3b","REGISTRY()":"06433b1b","addStake(address,uint32)":"45171159","cancelOwnershipHandover()":"54d1f13d","completeOwnershipHandover(address)":"f04e283e","computeAccountAddress(address,uint256,address[],uint8)":"322cc8ca","createAccount(address,uint256,address[],uint8)":"0d51f0b7","owner()":"8da5cb5b","ownershipHandoverExpiresAt(address)":"fee81cf4","renounceOwnership()":"715018a6","requestOwnershipHandover()":"25692962","transferOwnership(address)":"f2fde38b","unlockStake(address)":"4a1ce599","withdrawStake(address,address)":"b36f9705"},"id":8}