{"abi":[{"type":"constructor","inputs":[{"name":"anEntryPoint","type":"address","internalType":"address"},{"name":"defaultValidator","type":"address","internalType":"address"},{"name":"initData","type":"bytes","internalType":"bytes"}],"stateMutability":"nonpayable"},{"type":"fallback","stateMutability":"payable"},{"type":"receive","stateMutability":"payable"},{"type":"function","name":"accountId","inputs":[],"outputs":[{"name":"","type":"string","internalType":"string"}],"stateMutability":"pure"},{"type":"function","name":"addDeposit","inputs":[],"outputs":[],"stateMutability":"payable"},{"type":"function","name":"checkERC7739Support","inputs":[{"name":"hash","type":"bytes32","internalType":"bytes32"},{"name":"signature","type":"bytes","internalType":"bytes"}],"outputs":[{"name":"","type":"bytes4","internalType":"bytes4"}],"stateMutability":"view"},{"type":"function","name":"eip712Domain","inputs":[],"outputs":[{"name":"fields","type":"bytes1","internalType":"bytes1"},{"name":"name","type":"string","internalType":"string"},{"name":"version","type":"string","internalType":"string"},{"name":"chainId","type":"uint256","internalType":"uint256"},{"name":"verifyingContract","type":"address","internalType":"address"},{"name":"salt","type":"bytes32","internalType":"bytes32"},{"name":"extensions","type":"uint256[]","internalType":"uint256[]"}],"stateMutability":"view"},{"type":"function","name":"emergencyUninstallHook","inputs":[{"name":"data","type":"tuple","internalType":"struct EmergencyUninstall","components":[{"name":"hook","type":"address","internalType":"address"},{"name":"hookType","type":"uint256","internalType":"uint256"},{"name":"deInitData","type":"bytes","internalType":"bytes"},{"name":"nonce","type":"uint256","internalType":"uint256"}]},{"name":"signature","type":"bytes","internalType":"bytes"}],"outputs":[],"stateMutability":"payable"},{"type":"function","name":"entryPoint","inputs":[],"outputs":[{"name":"","type":"address","internalType":"address"}],"stateMutability":"view"},{"type":"function","name":"execute","inputs":[{"name":"mode","type":"bytes32","internalType":"ExecutionMode"},{"name":"executionCalldata","type":"bytes","internalType":"bytes"}],"outputs":[],"stateMutability":"payable"},{"type":"function","name":"executeComposable","inputs":[{"name":"executions","type":"tuple[]","internalType":"struct ComposableExecution[]","components":[{"name":"functionSig","type":"bytes4","internalType":"bytes4"},{"name":"inputParams","type":"tuple[]","internalType":"struct InputParam[]","components":[{"name":"paramType","type":"uint8","internalType":"enum InputParamType"},{"name":"fetcherType","type":"uint8","internalType":"enum InputParamFetcherType"},{"name":"paramData","type":"bytes","internalType":"bytes"},{"name":"constraints","type":"tuple[]","internalType":"struct Constraint[]","components":[{"name":"constraintType","type":"uint8","internalType":"enum ConstraintType"},{"name":"referenceData","type":"bytes","internalType":"bytes"}]}]},{"name":"outputParams","type":"tuple[]","internalType":"struct OutputParam[]","components":[{"name":"fetcherType","type":"uint8","internalType":"enum OutputParamFetcherType"},{"name":"paramData","type":"bytes","internalType":"bytes"}]}]}],"outputs":[],"stateMutability":"payable"},{"type":"function","name":"executeFromExecutor","inputs":[{"name":"mode","type":"bytes32","internalType":"ExecutionMode"},{"name":"executionCalldata","type":"bytes","internalType":"bytes"}],"outputs":[{"name":"returnData","type":"bytes[]","internalType":"bytes[]"}],"stateMutability":"payable"},{"type":"function","name":"executeUserOp","inputs":[{"name":"userOp","type":"tuple","internalType":"struct PackedUserOperation","components":[{"name":"sender","type":"address","internalType":"address"},{"name":"nonce","type":"uint256","internalType":"uint256"},{"name":"initCode","type":"bytes","internalType":"bytes"},{"name":"callData","type":"bytes","internalType":"bytes"},{"name":"accountGasLimits","type":"bytes32","internalType":"bytes32"},{"name":"preVerificationGas","type":"uint256","internalType":"uint256"},{"name":"gasFees","type":"bytes32","internalType":"bytes32"},{"name":"paymasterAndData","type":"bytes","internalType":"bytes"},{"name":"signature","type":"bytes","internalType":"bytes"}]},{"name":"","type":"bytes32","internalType":"bytes32"}],"outputs":[],"stateMutability":"payable"},{"type":"function","name":"getActiveHook","inputs":[],"outputs":[{"name":"hook","type":"address","internalType":"address"}],"stateMutability":"view"},{"type":"function","name":"getDeposit","inputs":[],"outputs":[{"name":"result","type":"uint256","internalType":"uint256"}],"stateMutability":"view"},{"type":"function","name":"getExecutorsPaginated","inputs":[{"name":"cursor","type":"address","internalType":"address"},{"name":"size","type":"uint256","internalType":"uint256"}],"outputs":[{"name":"array","type":"address[]","internalType":"address[]"},{"name":"next","type":"address","internalType":"address"}],"stateMutability":"view"},{"type":"function","name":"getFallbackHandlerBySelector","inputs":[{"name":"selector","type":"bytes4","internalType":"bytes4"}],"outputs":[{"name":"","type":"bytes1","internalType":"CallType"},{"name":"","type":"address","internalType":"address"}],"stateMutability":"view"},{"type":"function","name":"getImplementation","inputs":[],"outputs":[{"name":"implementation","type":"address","internalType":"address"}],"stateMutability":"view"},{"type":"function","name":"getRegistry","inputs":[],"outputs":[{"name":"","type":"address","internalType":"contract IERC7484"}],"stateMutability":"view"},{"type":"function","name":"getValidatorsPaginated","inputs":[{"name":"cursor","type":"address","internalType":"address"},{"name":"size","type":"uint256","internalType":"uint256"}],"outputs":[{"name":"array","type":"address[]","internalType":"address[]"},{"name":"next","type":"address","internalType":"address"}],"stateMutability":"view"},{"type":"function","name":"initializeAccount","inputs":[{"name":"initData","type":"bytes","internalType":"bytes"}],"outputs":[],"stateMutability":"payable"},{"type":"function","name":"installModule","inputs":[{"name":"moduleTypeId","type":"uint256","internalType":"uint256"},{"name":"module","type":"address","internalType":"address"},{"name":"initData","type":"bytes","internalType":"bytes"}],"outputs":[],"stateMutability":"payable"},{"type":"function","name":"isInitialized","inputs":[],"outputs":[{"name":"","type":"bool","internalType":"bool"}],"stateMutability":"view"},{"type":"function","name":"isModuleInstalled","inputs":[{"name":"moduleTypeId","type":"uint256","internalType":"uint256"},{"name":"module","type":"address","internalType":"address"},{"name":"additionalContext","type":"bytes","internalType":"bytes"}],"outputs":[{"name":"","type":"bool","internalType":"bool"}],"stateMutability":"view"},{"type":"function","name":"isValidSignature","inputs":[{"name":"hash","type":"bytes32","internalType":"bytes32"},{"name":"signature","type":"bytes","internalType":"bytes"}],"outputs":[{"name":"","type":"bytes4","internalType":"bytes4"}],"stateMutability":"view"},{"type":"function","name":"nonce","inputs":[{"name":"key","type":"uint192","internalType":"uint192"}],"outputs":[{"name":"","type":"uint256","internalType":"uint256"}],"stateMutability":"view"},{"type":"function","name":"proxiableUUID","inputs":[],"outputs":[{"name":"","type":"bytes32","internalType":"bytes32"}],"stateMutability":"view"},{"type":"function","name":"setRegistry","inputs":[{"name":"newRegistry","type":"address","internalType":"contract IERC7484"},{"name":"attesters","type":"address[]","internalType":"address[]"},{"name":"threshold","type":"uint8","internalType":"uint8"}],"outputs":[],"stateMutability":"payable"},{"type":"function","name":"supportsExecutionMode","inputs":[{"name":"mode","type":"bytes32","internalType":"ExecutionMode"}],"outputs":[{"name":"isSupported","type":"bool","internalType":"bool"}],"stateMutability":"view"},{"type":"function","name":"supportsModule","inputs":[{"name":"moduleTypeId","type":"uint256","internalType":"uint256"}],"outputs":[{"name":"","type":"bool","internalType":"bool"}],"stateMutability":"view"},{"type":"function","name":"uninstallModule","inputs":[{"name":"moduleTypeId","type":"uint256","internalType":"uint256"},{"name":"module","type":"address","internalType":"address"},{"name":"deInitData","type":"bytes","internalType":"bytes"}],"outputs":[],"stateMutability":"payable"},{"type":"function","name":"upgradeToAndCall","inputs":[{"name":"newImplementation","type":"address","internalType":"address"},{"name":"data","type":"bytes","internalType":"bytes"}],"outputs":[],"stateMutability":"payable"},{"type":"function","name":"validateUserOp","inputs":[{"name":"op","type":"tuple","internalType":"struct PackedUserOperation","components":[{"name":"sender","type":"address","internalType":"address"},{"name":"nonce","type":"uint256","internalType":"uint256"},{"name":"initCode","type":"bytes","internalType":"bytes"},{"name":"callData","type":"bytes","internalType":"bytes"},{"name":"accountGasLimits","type":"bytes32","internalType":"bytes32"},{"name":"preVerificationGas","type":"uint256","internalType":"uint256"},{"name":"gasFees","type":"bytes32","internalType":"bytes32"},{"name":"paymasterAndData","type":"bytes","internalType":"bytes"},{"name":"signature","type":"bytes","internalType":"bytes"}]},{"name":"userOpHash","type":"bytes32","internalType":"bytes32"},{"name":"missingAccountFunds","type":"uint256","internalType":"uint256"}],"outputs":[{"name":"validationData","type":"uint256","internalType":"uint256"}],"stateMutability":"nonpayable"},{"type":"function","name":"withdrawDepositTo","inputs":[{"name":"to","type":"address","internalType":"address"},{"name":"amount","type":"uint256","internalType":"uint256"}],"outputs":[],"stateMutability":"payable"},{"type":"event","name":"ERC7484RegistryConfigured","inputs":[{"name":"registry","type":"address","indexed":true,"internalType":"contract IERC7484"}],"anonymous":false},{"type":"event","name":"EmergencyHookUninstallRequest","inputs":[{"name":"hook","type":"address","indexed":false,"internalType":"address"},{"name":"timestamp","type":"uint256","indexed":false,"internalType":"uint256"}],"anonymous":false},{"type":"event","name":"EmergencyHookUninstallRequestReset","inputs":[{"name":"hook","type":"address","indexed":false,"internalType":"address"},{"name":"timestamp","type":"uint256","indexed":false,"internalType":"uint256"}],"anonymous":false},{"type":"event","name":"ModuleInstalled","inputs":[{"name":"moduleTypeId","type":"uint256","indexed":false,"internalType":"uint256"},{"name":"module","type":"address","indexed":false,"internalType":"address"}],"anonymous":false},{"type":"event","name":"ModuleUninstalled","inputs":[{"name":"moduleTypeId","type":"uint256","indexed":false,"internalType":"uint256"},{"name":"module","type":"address","indexed":false,"internalType":"address"}],"anonymous":false},{"type":"event","name":"PREPInitialized","inputs":[{"name":"r","type":"bytes32","indexed":false,"internalType":"bytes32"}],"anonymous":false},{"type":"event","name":"TryDelegateCallUnsuccessful","inputs":[{"name":"callData","type":"bytes","indexed":false,"internalType":"bytes"},{"name":"result","type":"bytes","indexed":false,"internalType":"bytes"}],"anonymous":false},{"type":"event","name":"TryExecuteUnsuccessful","inputs":[{"name":"callData","type":"bytes","indexed":false,"internalType":"bytes"},{"name":"result","type":"bytes","indexed":false,"internalType":"bytes"}],"anonymous":false},{"type":"event","name":"Upgraded","inputs":[{"name":"implementation","type":"address","indexed":true,"internalType":"address"}],"anonymous":false},{"type":"error","name":"AccountAccessUnauthorized","inputs":[]},{"type":"error","name":"AccountAlreadyInitialized","inputs":[]},{"type":"error","name":"AccountNotInitialized","inputs":[]},{"type":"error","name":"CanNotRemoveLastValidator","inputs":[]},{"type":"error","name":"ComposableExecutionFailed","inputs":[]},{"type":"error","name":"ConstraintNotMet","inputs":[{"name":"constraintType","type":"uint8","internalType":"enum ConstraintType"}]},{"type":"error","name":"DefaultValidatorAlreadyInstalled","inputs":[]},{"type":"error","name":"ERC7702AccountCannotBeUpgradedThisWay","inputs":[]},{"type":"error","name":"EmergencyTimeLockNotExpired","inputs":[]},{"type":"error","name":"EmergencyUninstallSigError","inputs":[]},{"type":"error","name":"EnableModeSigError","inputs":[]},{"type":"error","name":"EntryPointCanNotBeZero","inputs":[]},{"type":"error","name":"ExecutionFailed","inputs":[]},{"type":"error","name":"FallbackAlreadyInstalledForSelector","inputs":[{"name":"selector","type":"bytes4","internalType":"bytes4"}]},{"type":"error","name":"FallbackCallTypeInvalid","inputs":[]},{"type":"error","name":"FallbackHandlerUninstallFailed","inputs":[]},{"type":"error","name":"FallbackNotInstalledForSelector","inputs":[{"name":"selector","type":"bytes4","internalType":"bytes4"}]},{"type":"error","name":"FallbackSelectorForbidden","inputs":[]},{"type":"error","name":"HookAlreadyInstalled","inputs":[{"name":"currentHook","type":"address","internalType":"address"}]},{"type":"error","name":"HookPostCheckFailed","inputs":[]},{"type":"error","name":"ImplementationIsNotAContract","inputs":[]},{"type":"error","name":"InnerCallFailed","inputs":[]},{"type":"error","name":"InvalidConstraintType","inputs":[]},{"type":"error","name":"InvalidImplementationAddress","inputs":[]},{"type":"error","name":"InvalidInitData","inputs":[]},{"type":"error","name":"InvalidInput","inputs":[]},{"type":"error","name":"InvalidModule","inputs":[{"name":"module","type":"address","internalType":"address"}]},{"type":"error","name":"InvalidModuleTypeId","inputs":[{"name":"moduleTypeId","type":"uint256","internalType":"uint256"}]},{"type":"error","name":"InvalidNonce","inputs":[]},{"type":"error","name":"InvalidOutputParamFetcherType","inputs":[]},{"type":"error","name":"InvalidPREP","inputs":[]},{"type":"error","name":"InvalidParameterEncoding","inputs":[{"name":"message","type":"string","internalType":"string"}]},{"type":"error","name":"LinkedList_AlreadyInitialized","inputs":[]},{"type":"error","name":"LinkedList_EntryAlreadyInList","inputs":[{"name":"entry","type":"address","internalType":"address"}]},{"type":"error","name":"LinkedList_InvalidEntry","inputs":[{"name":"entry","type":"address","internalType":"address"}]},{"type":"error","name":"LinkedList_InvalidPage","inputs":[]},{"type":"error","name":"MismatchModuleTypeId","inputs":[]},{"type":"error","name":"MissingFallbackHandler","inputs":[{"name":"selector","type":"bytes4","internalType":"bytes4"}]},{"type":"error","name":"ModuleAddressCanNotBeZero","inputs":[]},{"type":"error","name":"ModuleAlreadyInstalled","inputs":[{"name":"moduleTypeId","type":"uint256","internalType":"uint256"},{"name":"module","type":"address","internalType":"address"}]},{"type":"error","name":"ModuleNotInstalled","inputs":[{"name":"moduleTypeId","type":"uint256","internalType":"uint256"},{"name":"module","type":"address","internalType":"address"}]},{"type":"error","name":"NexusInitializationFailed","inputs":[]},{"type":"error","name":"NoValidatorInstalled","inputs":[]},{"type":"error","name":"Output_StaticCallFailed","inputs":[]},{"type":"error","name":"PrevalidationHookAlreadyInstalled","inputs":[{"name":"currentPreValidationHook","type":"address","internalType":"address"}]},{"type":"error","name":"UnauthorizedCallContext","inputs":[]},{"type":"error","name":"UnauthorizedOperation","inputs":[{"name":"operator","type":"address","internalType":"address"}]},{"type":"error","name":"UnsupportedCallType","inputs":[{"name":"callType","type":"bytes1","internalType":"CallType"}]},{"type":"error","name":"UnsupportedExecType","inputs":[{"name":"execType","type":"bytes1","internalType":"ExecType"}]},{"type":"error","name":"UnsupportedModuleType","inputs":[{"name":"moduleTypeId","type":"uint256","internalType":"uint256"}]},{"type":"error","name":"UpgradeFailed","inputs":[]},{"type":"error","name":"ValidatorNotInstalled","inputs":[{"name":"module","type":"address","internalType":"address"}]}],"bytecode":{"object":"0x610180806040523461030a576162cd803803809161001d8285610376565b833981019060608183031261030a5761003581610399565b9061004260208201610399565b604082015190916001600160401b03821161030a57019280601f8501121561030a5783516001600160401b038111610362576040519461008c601f8301601f191660200187610376565b81865260208601926020838301011161030a57815f926020809301855e860101523060a0524660c05260409360a085516100c68782610376565b600581526020810190644e6578757360d81b82528751916100e78984610376565b60058352640312e322e360dc1b6020938401529051902060e08190527fe374587661e69268352d25204d81b23ce801573f4b09f3545e69536dc085a37a61010081905288517f8b73c3c69bb8fe3d512ecc4cf759cc79239f7b179b0ffacaa9a75d522b39400f815280840192909252818901524660608201523060808201529190912061012052855163ecd0596160e01b8152600160048201526001600160a01b038516939181602481875afa908115610358575f9161031d575b501561030e57823b1561030a576044925f928388519586809581946306d61fe760e41b8352602060048401525180918160248501528484015e8181018301849052601f01601f191681010301925af18015610300576102f0575b506101405230610160526001600160a01b038116156102e15760805251615f1f90816103ae82396080518181816103c00152818161064d0152818161070301528181610e640152818161101e015281816110ed0152818161135e015281816114b001528181611512015281816117dd015281816118560152612250015260a05181615564015260c05181615587015260e051816155f70152610100518161561d0152610120518161554301526101405181818161209f015281816125bf01528181612c2a01528181613bd3015261527d0152610160518181816108bf015261221f0152f35b6307e355bf60e31b5f5260045ffd5b5f6102fa91610376565b5f6101fc565b84513d5f823e3d90fd5b5f80fd5b631c4f83bb60e31b5f5260045ffd5b90506020813d602011610350575b8161033860209383610376565b8101031261030a5751801515810361030a575f6101a2565b3d915061032b565b87513d5f823e3d90fd5b634e487b7160e01b5f52604160045260245ffd5b601f909101601f19168101906001600160401b0382119082101761036257604052565b51906001600160a01b038216820361030a5756fe60806040526004361015610015575b366128f657005b5f3560e01c80630a664dba14610204578063112d3a7d146101ff5780631626ba7e146101fa57806319822f7c146101f5578063392e53cd146101f0578063481ddd23146101eb5780634a58db19146101e65780634b6a1419146101e15780634d44560d146101dc5780634f1ef286146101d757806352d1902d146101d25780635ab1bd53146101cd5780635bfeadbb146101c85780635faac46b146101c35780637eba07b8146101be57806384b0196e146101b95780638dd7712f146101b45780639517e29f146101af5780639cfd7cff146101aa578063a71763a8146101a5578063aaf10f42146101a0578063b0d691fe1461019b578063b46b61a914610196578063c399ec8814610191578063d03c79141461018c578063d691c96414610187578063d86f2b3c14610182578063e9ae5c531461017d578063ea5f61d014610178578063eab77e17146101735763f2dc691d0361000e57611b79565b611a11565b611915565b61183f565b61177e565b61164f565b611543565b6114ed565b6114d4565b611491565b611433565b61134a565b6112eb565b6110d9565b610fe5565b610f47565b610e2b565b610c54565b61094c565b61091a565b6108ac565b610783565b6106e8565b610675565b61063b565b6105aa565b61057e565b61036f565b610334565b6102de565b610217565b5f91031261021357565b5f80fd5b34610213575f3660031901126102135760206001600160a01b035f516020615eb35f395f51905f5254166001600160a01b0360405191168152f35b6001600160a01b0381160361021357565b359061026e82610252565b565b9181601f840112156102135782359167ffffffffffffffff8311610213576020838186019501011161021357565b606060031982011261021357600435916024356102ba81610252565b916044359067ffffffffffffffff8211610213576102da91600401610270565b9091565b346102135760206102fa6102f13661029e565b92919091612b4f565b6040519015158152f35b90604060031983011261021357600435916024359067ffffffffffffffff8211610213576102da91600401610270565b3461021357602061034d61034736610304565b91611cfd565b6040516001600160e01b03199091168152f35b90816101209103126102135790565b346102135760603660031901126102135760043567ffffffffffffffff8111610213576103a3610458913690600401610360565b602061042060243561042b60443580956103e76001600160a01b037f0000000000000000000000000000000000000000000000000000000000000000163314611dd4565b6104256103f43683611e85565b958692888101359061040a8260031a60f81b1590565b156104d1575b5060401c6001600160a01b031690565b612c17565b93612ffd565b61010084929401525f6001600160a01b03604051809881968295639700320360e01b845260048401612050565b0393165af19081156104cc57610487925f9261049b575b508061048b575b506040519081529081906020820190565b0390f35b5f9081803892335af1505f610476565b8192506104bf9060203d6020116104c5575b6104b78183611c93565b810190611fae565b9161046f565b503d6104ad565b611cf2565b600382901a60f81b600160f81b03610513576104ff6104f882610100610506940190611f7b565b908a612f19565b3691611e34565b6101008501525b5f610410565b600382901a60f81b600160f91b1461052c575b5061050d565b61056d61056161055b6105789361055061054b610547612084565b1590565b611f65565b610100810190611f7b565b90612d5f565b93919290923691611e34565b610100880152612e72565b5f610526565b34610213575f3660031901126102135760206102fa612084565b6001600160e01b031981160361021357565b3461021357602036600319011261021357604060206106046004356105ce81610598565b63ffffffff60e01b165f527f0bb70095b32b9671358306b0339b4c06e7cbd8cb82505941fba30d1eb5b82f0260205260405f2090565b82519061061082611c72565b54906001600160a01b0382169182825260ff60f81b9060581b16928391015282519182526020820152f35b5f366003190112610213575f388180347f00000000000000000000000000000000000000000000000000000000000000005af11561021357005b60203660031901126102135760043567ffffffffffffffff8111610213576106a1903690600401610270565b3033036106b4575b6106b291612e72565b005b7f90b772c2cb8a51aa7a8a65fc23543c6d022d5b3f8e2b92eed79fba7eef8293005c6106a9575b63aed595955f526004601cfd5b60403660031901126102135760043561070081610252565b5f7f0000000000000000000000000000000000000000000000000000000000000000602435336001600160a01b03831614801561077a575b61074190611dd4565b604051936014526034526f205c28780000000000000000000000008252604460108338935af115610772575f603452005b3d5f823e3d90fd5b50333014610738565b60403660031901126102135760043561079b81610252565b60243567ffffffffffffffff8111610213576107bb903690600401610270565b906001600160a01b036107e26001600160a01b035f516020615eb35f395f51905f52541690565b16806107f257506106b2926121f2565b60405163d68f602560e01b81529290915f8480610814363433600485016121a5565b038183875af19384156104cc575f94610884575b506108349293946121f2565b803b1561021357604051630b9dfbed60e11b8152915f91839182908490829061086090600483016121cb565b03925af180156104cc5761087057005b8061087e5f6106b293611c93565b80610209565b6108349394506108a5903d805f833e61089d8183611c93565b81019061215f565b9392610828565b34610213575f36600319011261021357307f00000000000000000000000000000000000000000000000000000000000000000361090d5760206040517f360894a13ba1a3210667c828492db98dca3e2076cc3735a920a3ca505d382bbc8152f35b639f03a0265f526004601cfd5b34610213575f3660031901126102135760206001600160a01b035f516020615ed35f395f51905f525416604051908152f35b60403660031901126102135760043567ffffffffffffffff8111610213578060040190608060031982360301126102135760243567ffffffffffffffff8111610213576109a06109a7913690600401610270565b9084613149565b6109c360248201359260446109bb82612359565b930190611f7b565b9290600482148015610be7575b828115610bdc575b6109e191612363565b6109f783836109f287858484612b4f565b61237d565b610a31836001600160a01b03165f527f0bb70095b32b9671358306b0339b4c06e7cbd8cb82505941fba30d1eb5b82f0460205260405f2090565b5480610ac2575050507f2841d18703faaff388732165e48fe431468531b1b1e626b1b7cbcbfc0d79c7409150610abd9042610a9c826001600160a01b03165f527f0bb70095b32b9671358306b0339b4c06e7cbd8cb82505941fba30d1eb5b82f0460205260405f2090565b55604080516001600160a01b03909216825242602083015290918291820190565b0390a1005b610acf6203f480826123b6565b4210610b3a575050507fcbd44a75f6935b5837022648b6c8487db984701200c5381c7c0f8c2b1d69b9da9150610abd9042610a9c826001600160a01b03165f527f0bb70095b32b9671358306b0339b4c06e7cbd8cb82505941fba30d1eb5b82f0460205260405f2090565b610b43906123a6565b4210610bcd577f341347516a9de374859dfda710fa4828b2d48cb57d4fbe4c1149612b8e02276e93610bb2915f610baa866001600160a01b03165f527f0bb70095b32b9671358306b0339b4c06e7cbd8cb82505941fba30d1eb5b82f0460205260405f2090565b5583856132aa565b604080519182526001600160a01b03929092166020820152a1005b6303f9796960e11b5f5260045ffd5b6009811491506109d8565b50600882146109d0565b90602080835192838152019201905f5b818110610c0e5750505090565b82516001600160a01b0316845260209384019390920191600101610c01565b906001600160a01b03610c4d602092959495604085526040850190610bf1565b9416910152565b3461021357604036600319011261021357600435610c7181610252565b6024359060016001600160a01b038216141580610de8575b610dcd578115610dbe5790610c9d8161460e565b610cd5610cc85f946001600160a01b03165f525f516020615e935f395f51905f5260205260405f2090565b546001600160a01b031690565b6001600160a01b0381168015159081610db2575b5080610da9575b15610d4a57610d3e610cc882610d1b610d4494610d0d8988614052565b906001600160a01b03169052565b6001600160a01b03165f525f516020615e935f395f51905f5260205260405f2090565b93614640565b92610cd5565b908360016001600160a01b038416141580610da0575b610d76575b815261048760405192839283610c2d565b9150610d9a610d8d610d878461464e565b83614052565b516001600160a01b031690565b91610d65565b50801515610d60565b50828410610cf0565b6001915014155f610ce9565b63f725081760e01b5f5260045ffd5b637c84ecfb60e01b5f526001600160a01b031660045260245ffd5b50610df561054782613d2c565b610c89565b9181601f840112156102135782359167ffffffffffffffff8311610213576020808501948460051b01011161021357565b60203660031901126102135760043567ffffffffffffffff811161021357610e57903690600401610dfa565b610e8b6001600160a01b037f0000000000000000000000000000000000000000000000000000000000000000163314611dd4565b6001600160a01b03610eb16001600160a01b035f516020615eb35f395f51905f52541690565b1680610ec157506106b291613437565b906040519263d68f602560e01b84525f8480610ee2363433600485016121a5565b038183875af19384156104cc575f94610f01575b509061083491613437565b61083492919450610f1b903d805f833e61089d8183611c93565b939091610ef6565b805180835260209291819084018484015e5f828201840152601f01601f1916010190565b34610213575f36600319011261021357610f86610f94610f656136f9565b604092919251938493600f60f81b855260e0602086015260e0850190610f23565b908382036040850152610f23565b4660608301523060808301525f60a083015281810360c083015260206060519182815201906080905f5b818110610fcc575050500390f35b8251845285945060209384019390920191600101610fbe565b60403660031901126102135760043567ffffffffffffffff811161021357611011903690600401610360565b6110456001600160a01b037f0000000000000000000000000000000000000000000000000000000000000000163314611dd4565b6001600160a01b0361106b6001600160a01b035f516020615eb35f395f51905f52541690565b168061107b57506106b2906123ff565b60405163d68f602560e01b8152915f838061109b363433600485016121a5565b038183865af19283156104cc575f936110b9575b50610834906123ff565b6108349193506110d2903d805f833e61089d8183611c93565b92906110af565b6110e23661029e565b906001600160a01b037f000000000000000000000000000000000000000000000000000000000000000016331480156112e2575b61111f90611dd4565b61112a61054761308d565b6112d5575b6001600160a01b038316156112c65760018403611194577fd21d0b289f126c4b473ea641963e766833c2f13866e4ff480abd787c100ef12393916111739184615192565b604080519182526001600160a01b0390921660208201529081908101610abd565b600284036111ce577fd21d0b289f126c4b473ea641963e766833c2f13866e4ff480abd787c100ef12393916111c99184615089565b611173565b60038403611203577fd21d0b289f126c4b473ea641963e766833c2f13866e4ff480abd787c100ef12393916111c99184614db2565b60048403611238577fd21d0b289f126c4b473ea641963e766833c2f13866e4ff480abd787c100ef12393916111c99184614c55565b6008841480156112bc575b156112765783916111c991847fd21d0b289f126c4b473ea641963e766833c2f13866e4ff480abd787c100ef12396614a90565b836112a8577fd21d0b289f126c4b473ea641963e766833c2f13866e4ff480abd787c100ef12393916111c99184614973565b6304c1896960e11b5f52600484905260245ffd5b5060098414611243565b635316c18d60e01b5f5260045ffd5b6112dd614857565b61112f565b50333014611116565b34610213575f3660031901126102135761048760405161130c604082611c93565b601481527f6269636f6e6f6d792e6e657875732e312e322e300000000000000000000000006020820152604051918291602083526020830190610f23565b6113533661029e565b916001600160a01b037f0000000000000000000000000000000000000000000000000000000000000000163314801561142a575b61139090611dd4565b6001600160a01b036113b66001600160a01b035f516020615eb35f395f51905f52541690565b16806113c657506106b29361245b565b60405163d68f602560e01b815293909290915f85806113ea363433600485016121a5565b038183885af19485156104cc575f9561140a575b5061083493949561245b565b610834949550611423903d805f833e61089d8183611c93565b94936113fe565b50333014611387565b34610213575f366003190112610213577f360894a13ba1a3210667c828492db98dca3e2076cc3735a920a3ca505d382bbc546001600160a01b03811615611489575b6020906001600160a01b0360405191168152f35b503054611475565b34610213575f3660031901126102135760206040516001600160a01b037f0000000000000000000000000000000000000000000000000000000000000000168152f35b3461021357602061034d6114e736610304565b91612539565b34610213575f36600319011261021357306020526370a082315f52602080806024601c7f00000000000000000000000000000000000000000000000000000000000000005afa601f3d1116815102604051908152f35b34610213576020366003190112610213576104876004358060081b60ff60f81b8216159182156115d8575b82156115c3575b508161158f575b5060405190151581529081906020820190565b6001600160f81b0319811615915081156115ab575b505f61157c565b6001600160f81b031916600160f81b1490505f6115a4565b6001600160f81b03199081161491505f611575565b6001600160f81b03198116600160f81b14925061156e565b602081016020825282518091526040820191602060408360051b8301019401925f915b83831061162257505050505090565b9091929394602080611640600193603f198682030187528951610f23565b97019301930191939290611613565b61165836610304565b9161166233613d6c565b1561176b576001600160a01b0361168d6001600160a01b035f516020615eb35f395f51905f52541690565b16806116ae5750916116a2916104879361260b565b604051918291826115f0565b90926040519263d68f602560e01b84525f84806116d0363433600485016121a5565b038183875af19384156104cc575f9461174b575b506116f092939461260b565b90803b1561021357604051630b9dfbed60e11b8152925f91849182908490829061171d90600483016121cb565b03925af19182156104cc5761048792611737575b506116a2565b8061087e5f61174593611c93565b5f611731565b6116f0939450611764903d805f833e61089d8183611c93565b93926116e4565b635c93ff2f60e11b5f523360045260245ffd5b346102135760203660031901126102135760043577ffffffffffffffffffffffffffffffffffffffffffffffff81168091036102135760405190631aab3f0d60e11b825230600483015260248201526020816044816001600160a01b037f0000000000000000000000000000000000000000000000000000000000000000165afa80156104cc57610487915f9161182057506040519081529081906020820190565b611839915060203d6020116104c5576104b78183611c93565b5f610476565b61184836610304565b9061187d6001600160a01b037f0000000000000000000000000000000000000000000000000000000000000000163314611dd4565b6001600160a01b036118a36001600160a01b035f516020615eb35f395f51905f52541690565b16806118b357506106b29261275a565b60405163d68f602560e01b81529290915f84806118d5363433600485016121a5565b038183875af19384156104cc575f946118f5575b5061083492939461275a565b61083493945061190e903d805f833e61089d8183611c93565b93926118e9565b346102135760403660031901126102135760043561193281610252565b6024359060016001600160a01b0382161415806119ff575b610dcd578115610dbe579061195e8161460e565b611989610cc85f946001600160a01b03165f525f516020615ef35f395f51905f5260205260405f2090565b6001600160a01b03811680151590816119f3575b50806119ea575b15610d4a57610d3e610cc8826119c16119e494610d0d8988614052565b6001600160a01b03165f525f516020615ef35f395f51905f5260205260405f2090565b92611989565b508284106119a4565b6001915014155f61199d565b50611a0c61054782613d6c565b61194a565b606036600319011261021357600435611a2981610252565b60243567ffffffffffffffff811161021357611a49903690600401610dfa565b90916044359260ff8416840361021357611a64303314611dd4565b611a6d83612861565b92611a7b6040519485611c93565b808452602084019060051b82019136831161021357905b828210611b5f575050506001600160a01b031691611ade836001600160a01b03166001600160a01b03195f516020615ed35f395f51905f525416175f516020615ed35f395f51905f5255565b82611b0b575b827ff98c8404c5b1bfef2e6ba9233c6e88845aedfd36eea8b192725d8c199571cf325f80a2005b823b156102135760405163f05c04e160e01b8152915f9183918291611b34919060048401614319565b038183865af180156104cc57611b4b575b80611ae4565b8061087e5f611b5993611c93565b5f611b45565b602080918335611b6e81610252565b815201910190611a92565b346102135760203660031901126102135760206102fa600435612879565b634e487b7160e01b5f52601160045260245ffd5b906177398202918083046177391490151715611bc357565b611b97565b906014116102135790601490565b909291928360141161021357831161021357601401916013190190565b906004116102135790600490565b909291928360051161021357831161021357600501916004190190565b356bffffffffffffffffffffffff19811692919060148210611c3e575050565b6bffffffffffffffffffffffff1960149290920360031b82901b16169150565b634e487b7160e01b5f52604160045260245ffd5b6040810190811067ffffffffffffffff821117611c8e57604052565b611c5e565b90601f8019910116810190811067ffffffffffffffff821117611c8e57604052565b908160209103126102135751611cca81610598565b90565b611cca93926001600160a01b0360609316825260208201528160408201520190610f23565b6040513d5f823e3d90fd5b918015611db6575b90611d3f611d6693611d398480611d33610420611d2d611d2760209a8a611bc8565b90611c1e565b60601c90565b95611bd6565b91612cc3565b91906001600160a01b03604051809681958294637aa8f17760e11b84523360048501611ccd565b0392165afa5f9181611d85575b50611cca57506001600160e01b031990565b611da891925060203d602011611daf575b611da08183611c93565b810190611cb5565b905f611d73565b503d611d96565b611dc461ffff821904611bab565b8303611d055790611cca92612539565b15611ddb57565b635629665f60e11b5f5260045ffd5b6040519061026e61012083611c93565b6040519061026e606083611c93565b6040519061026e604083611c93565b67ffffffffffffffff8111611c8e57601f01601f191660200190565b929192611e4082611e18565b91611e4e6040519384611c93565b829481845281830111610213578281602093845f960137010152565b9080601f8301121561021357816020611cca93359101611e34565b9190916101208184031261021357611e9b611dea565b92611ea582610263565b845260208201356020850152604082013567ffffffffffffffff81116102135781611ed1918401611e6a565b6040850152606082013567ffffffffffffffff81116102135781611ef6918401611e6a565b60608501526080820135608085015260a082013560a085015260c082013560c085015260e082013567ffffffffffffffff81116102135781611f39918401611e6a565b60e085015261010082013567ffffffffffffffff811161021357611f5d9201611e6a565b610100830152565b15611f6c57565b63ae4edb1b60e01b5f5260045ffd5b903590601e1981360301821215610213570180359067ffffffffffffffff82116102135760200191813603831361021357565b90816020910312610213575190565b80516001600160a01b03168252611cca916020820151602082015261010061203e61200e611ffc60408601516101206040870152610120860190610f23565b60608601518582036060870152610f23565b6080850151608085015260a085015160a085015260c085015160c085015260e085015184820360e0860152610f23565b92015190610100818403910152610f23565b929190612067602091604086526040860190611fbd565b930152565b90816020910312610213575180151581036102135790565b60405163d60b347f60e01b81523060048201526020816024817f00000000000000000000000000000000000000000000000000000000000000006001600160a01b03165afa9081156104cc575f916120ea575b5080156120e15790565b50611cca61308d565b61210c915060203d602011612112575b6121048183611c93565b81019061206c565b5f6120d7565b503d6120fa565b81601f820112156102135780519061213082611e18565b9261213e6040519485611c93565b8284526020838301011161021357815f9260208093018386015e8301015290565b9060208282031261021357815167ffffffffffffffff811161021357611cca9201612119565b908060209392818452848401375f828201840152601f01601f1916010190565b611cca93926001600160a01b03606093168252602082015281604082015201905f612185565b906020611cca928181520190610f23565b156121e357565b63325c055b60e21b5f5260045ffd5b9190916001600160a01b0381169061220b8215156121dc565b612217813b15156121dc565b3055612242307f00000000000000000000000000000000000000000000000000000000000000001490565b61090d576001600160a01b037f00000000000000000000000000000000000000000000000000000000000000001633148015612350575b61228290611dd4565b61228a6143e1565b612341573d5f526352d1902d6001527f360894a13ba1a3210667c828492db98dca3e2076cc3735a920a3ca505d382bbc602060016004601d855afa510361233357807fbc7cd75a20ee27fd9adebab32041f755214dbc6bffa90cc0225b39da2e5c2d3b5f80a281817f360894a13ba1a3210667c828492db98dca3e2076cc3735a920a3ca505d382bbc5561231d57505050565b815f926040519485378338925af4156107725750565b6355299b496001526004601dfd5b63dc3b837960e01b5f5260045ffd5b50333014612279565b35611cca81610252565b1561236b5750565b63041c38b360e41b5f5260045260245ffd5b15612386575050565b6001600160a01b039250635f300b3960e11b5f526004521660245260445ffd5b90620151808201809211611bc357565b91908201809211611bc357565b908092918237015f815290565b3d156123fa573d906123e182611e18565b916123ef6040519384611c93565b82523d5f602084013e565b606090565b61240d906060810190611f7b565b80600411610213576040515f9283929060031982019060040183378101826003198201528160031991030190305af46124446123d0565b501561244c57565b632b3f6d1160e21b5f5260045ffd5b90917f341347516a9de374859dfda710fa4828b2d48cb57d4fbe4c1149612b8e02276e9361249084846109f284868484612b4f565b600183036124cc576124a291846139b2565b6124aa613aac565b604080519182526001600160a01b03909216602082015290819081015b0390a1565b600283036124e3576124de918461383d565b6124aa565b600383036124f5576124de918461373d565b60048314801561252f575b8015612525575b612513575b50506124aa565b61251e9183856132aa565b5f8061250c565b5060098314612507565b5060088314612500565b60015f9081525f516020615e935f395f51905f526020527ffe44ceacbf4f03c6ac19f86826dd265fa9ec25125e8b1766c207f24cd3bc73c7546001600160a01b031694939291905b6001600160a01b03861680151590816125ff575b50156125b7576125ab8484846125b1948a613c31565b95613ce7565b94612581565b6125e39495507f0000000000000000000000000000000000000000000000000000000000000000613c31565b6001600160e01b03198116611cca57506001600160e01b031990565b6001915014155f612595565b919061261633613dac565b600883901b926001600160f81b03198116612637575090611cca9291614155565b6001600160f81b03198116600160f81b03612658575090611cca929161408c565b6001600160f81b031980821603612742575090612674916152da565b909161267e613fc2565b936001600160f81b031981166126b057509161269992615319565b6126a282614045565b526126ac81614045565b5090565b6001600160f81b03198116600160f81b03612726575081836126d1926152f4565b6126da85614045565b52156126e557505090565b7f5bd4c60b4b38b664d8fb5944eb974e3d85083d79afe5ce934ccabcc913707c109161272061271385614045565b5160405193849384614066565b0390a190565b6308c3ee0360e11b5f526001600160f81b03191660045260245ffd5b632e5bf3f960e21b5f5260ff60f81b1660045260245ffd5b600881901b9291906001600160f81b0319811661277d57509061026e9291614288565b6001600160f81b03198116600160f81b0361279e57509061026e92916141ff565b6001600160f81b0319808216036127425750906127ba916152da565b929091906001600160f81b031981166127e857505f9083604051938437838338925af4156107725701604052565b9192916001600160f81b03198116600160f81b036128495750818361280c926152f4565b92901561281857505050565b6124c77f5bd4c60b4b38b664d8fb5944eb974e3d85083d79afe5ce934ccabcc913707c109360405193849384614066565b6308c3ee0360e11b5f5260ff60f81b1660045260245ffd5b67ffffffffffffffff8111611c8e5760051b60200190565b600181149081156128eb575b81156128e0575b81156128d5575b81156128ca575b81156128bf575b81156128b6575b506128b1575f90565b600190565b9050155f6128a8565b6009811491506128a1565b60088114915061289a565b600481149150612893565b60038114915061288c565b600281149150612885565b5f80356001600160e01b031981168083527f0bb70095b32b9671358306b0339b4c06e7cbd8cb82505941fba30d1eb5b82f0260205260409092205461294f6001600160a01b0382169160581b6001600160f81b03191690565b906001600160a01b0381166129a557505060e01c9063bc197c81821463f23a6e6183141763150b7a0283141761299b576308c63e2760e01b5f526001600160e01b03191660045260245ffd5b506020526020603cf35b5f516020615eb35f395f51905f52546001600160a01b0316801515926060929084612ac2575b6001600160f81b03198116607f60f91b03612a7057505f80916129ec615514565b90602082519201905afa926129ff6123d0565b935b15612a6857612a13575b825160208401f35b803b1561021357604051630b9dfbed60e11b8152915f918391829084908290612a3f90600483016121cb565b03925af180156104cc57612a54575b80612a0b565b8061087e5f612a6293611c93565b81612a4e565b835160208501fd5b6001600160f81b03198116612aa657505f8091612a8b615514565b906020825192019034905af192612aa06123d0565b93612a01565b632e5bf3f960e21b5f526001600160f81b03191660045260245ffd5b60405163d68f602560e01b81529093505f8180612ae4363433600485016121a5565b038183875af19081156104cc575f91612aff575b50926129cb565b612b1391503d805f833e61089d8183611c93565b85612af8565b356001600160e01b0319811692919060048210612b34575050565b6001600160e01b031960049290920360031b82901b16169150565b92909160018403612b66575050611cca9150613d2c565b60028403612b7a575050611cca9150613d6c565b60038403612baf57611cca935060048210612ba757612ba291612b9c91611bf3565b90612b19565b614396565b50505f614396565b505090600481145f14612bdd57505f516020615eb35f395f51905f52546001600160a01b0391821691161490565b600881148015612c0d575b15612c07576001600160a01b03612bff8192614333565b921691161490565b50505f90565b5060098114612be8565b6001600160a01b03811680612c4c5750507f000000000000000000000000000000000000000000000000000000000000000090565b612c5582613d2c565b15612c5e575090565b63342cf00f60e11b5f5260045260245ffd5b91909160408184031261021357805192602082015167ffffffffffffffff811161021357611cca9201612119565b611cca94926001600160a01b0360609316825260208201528160408201520191612185565b7f0bb70095b32b9671358306b0339b4c06e7cbd8cb82505941fba30d1eb5b82f06549293926001600160a01b031680612d04575090611cca91933691611e34565b604051637a0468b760e01b8152945f93869384928392612d28923360048601612c9e565b03915afa9182156104cc575f905f93612d4057509190565b90506102da9192503d805f833e612d578183611c93565b810190612c70565b9060f9116106db578035906020810135810190602082019135906040810135019360208501943593612d92368486611e34565b602081519101205f528060a01c6020526001600160a01b0360405f201690815f526001600160a01b0360205f2091608060205216601f526305d78094600b52601960272090604051915f52601b602052826040526060526020604060805f60015afa505f606052612e216105473d6060185183604052612e1930916001600160a01b031690565b143015151690565b612e6a575b8115612e5b579081527f4f058962bce244bca6c9be42f256083afc66f1f63a1f9a04e31a3042311af38d9080602081016124c7565b63e483bbcb60e01b5f5260045ffd5b5f9150612e26565b90601811612ee5575f8160208083940135820180358060405193849301833781018481520391355af4612ea36123d0565b5015612ed657612eb16143e1565b15612eb857565b612ec0612084565b15612ec757565b633aab01a760e11b5f5260045ffd5b63315927c560e01b5f5260045ffd5b6307ce216360e51b5f5260045ffd5b6001600160a01b03611cca959360609383521660208201528160408201520191612185565b92909192823560601c601484013590603485013560e01c91603886019383870196603888013560e01c976038828a603c840193010301998060048c011161021357612fa293612f9d88612f938b948f6004906105479901019f6003199103019d80612f8d610420611d2d611d27848c611bc8565b97611bd6565b949093898b614403565b614477565b612fee57303b1561021357612fcd5f936040519586948594639517e29f60e01b865260048601612ef4565b038183305af180156104cc57612fe05750565b8061087e5f61026e93611c93565b6346fdc33360e01b5f5260045ffd5b92916001600160a01b037f0bb70095b32b9671358306b0339b4c06e7cbd8cb82505941fba30d1eb5b82f05541680155f1461303c575050610100015190565b60405f809482979497519788958694859363e24f8f9360e01b855261306d6004860191606083526060830190611fbd565b936020820152015203925af19182156104cc575f905f93612d4057509190565b60015f525f516020615e935f395f51905f526020527ffe44ceacbf4f03c6ac19f86826dd265fa9ec25125e8b1766c207f24cd3bc73c7546001600160a01b03161515806130d75790565b5060015f525f516020615ef35f395f51905f526020527fbdfeb076d903611fa58576955630d640569633049bcf40ad9c22db9251b54a13546001600160a01b0316151590565b1561312457565b633ab3447f60e11b5f5260045ffd5b1561313a57565b63bf6b584360e01b5f5260045ffd5b6020916001600160a01b039161322a61324b9580613170610420611d2d611d278489611bc8565b946132256132186131a461318388612359565b60608c8a0135996131976040820182611f7b565b92909101359a8b936144fc565b966131eb6131e66105476131df845f527f0bb70095b32b9671358306b0339b4c06e7cbd8cb82505941fba30d1eb5b82f0760205260405f2090565b5460ff1690565b61311d565b5f527f0bb70095b32b9671358306b0339b4c06e7cbd8cb82505941fba30d1eb5b82f0760205260405f2090565b805460ff19166001179055565b611bd6565b604051637aa8f17760e11b8152968795869490938593913060048601612c9e565b0392165afa80156104cc5761026e915f9161327a575b506001600160e01b031916630b135d3f60e11b14613133565b613293915060203d602011611daf57611da08183611c93565b5f613261565b916020611cca938181520191612185565b61330d9392916004810361331157505f516020615eb35f395f51905f5280546001600160a01b03191690555b6133085a926132fa604051958692638a91b0e360e01b602085015260248401613299565b03601f198101855284611c93565b6145b6565b5050565b600881148080156133a1575b613329575b50506132d6565b1561336657507f0bb70095b32b9671358306b0339b4c06e7cbd8cb82505941fba30d1eb5b82f0680546001600160a01b03191690555b5f80613322565b60090361335f577f0bb70095b32b9671358306b0339b4c06e7cbd8cb82505941fba30d1eb5b82f0580546001600160a01b031916905561335f565b506009821461331d565b634e487b7160e01b5f52603260045260245ffd5b91908110156133e15760051b81013590605e1981360301821215610213570190565b6133ab565b903590601e1981360301821215610213570180359067ffffffffffffffff821161021357602001918160051b3603831361021357565b6040519061342b602083611c93565b5f808352366020840137565b91905f5b8181106134485750509050565b6134538183866133bf565b61346060208201826133e6565b823561346b81610598565b61347361465c565b506040516001600160e01b031990911660208201525f9283916134a381602481015b03601f198101835282611c93565b925f915b81831061355957505050916001949391613541936134d56134c6611dfa565b6001600160a01b039094168452565b602083015260408201526134ff6134f382516001600160a01b031690565b6001600160a01b031690565b156135475761352d8161351c61353993516001600160a01b031690565b90604060208201519101519161595a565b915b60408101906133e6565b309291614757565b0161343b565b5061353961355361341c565b9161352f565b90919461356f61356a87858561468c565b615734565b9061358361357e88868661468c565b6146d1565b61358c816146c2565b613645575060026135a960206135a389878761468c565b016146d1565b6135b2816146c2565b146135d9576135cf6134f382602080600195518301019101614720565b955b0191906134a7565b604051635107885760e11b815260206004820152603b60248201527f42414c414e434520666574636865722074797065206973206e6f74207375707060448201527f6f7274656420666f722054415247455420706172616d207479706500000000006064820152608490fd5b9593600161365761357e87878761468c565b613660816146c2565b03613681575061367b81602080600194518301019101611fae565b936135d1565b9394600261369361357e88878761468c565b61369c816146c2565b036136b3576001916136ad916146f0565b946135d1565b604051635107885760e11b815260206004820152601260248201527f496e76616c696420706172616d207479706500000000000000000000000000006044820152606490fd5b604051613707604082611c93565b60058152644e6578757360d81b602082015290604051613728604082611c93565b60058152640312e322e360dc1b602082015290565b9190916137c760405161374f81611c72565b5f81525f60208201526137686105ce612b9c8688611bf3565b8151815460209093015174ff000000000000000000000000000000000000000060589190911c167fffffffffffffffffffffff0000000000000000000000000000000000000000009093166001600160a01b0390911617919091179055565b5a908260041161021357613308600461330d950193600319016132fa604051958692638a91b0e360e01b60208501526020602485018181520191612185565b91909160408184031261021357803561381e81610252565b92602082013567ffffffffffffffff811161021357611cca9201611e6a565b90613853906001600160a01b0393810190613806565b92166001600160a01b038216801580156139a8575b613995576001600160a01b0361389c835f516020615ef35f395f51905f52906001600160a01b03165f5260205260405f2090565b54160361397957918161391d61330d946139026138dd610cc86132fa975f516020615ef35f395f51905f52906001600160a01b03165f5260205260405f2090565b915f516020615ef35f395f51905f52906001600160a01b03165f5260205260405f2090565b906001600160a01b03166001600160a01b0319825416179055565b613958613948825f516020615ef35f395f51905f52906001600160a01b03165f5260205260405f2090565b6001600160a01b03198154169055565b6133085a92604051948591638a91b0e360e01b6020840152602483016121cb565b637c84ecfb60e01b5f526001600160a01b03821660045260245ffd5b50637c84ecfb60e01b5f5260045260245ffd5b5060018114613868565b906139c8906001600160a01b0393810190613806565b92166001600160a01b03821680158015613aa2575b613995576001600160a01b03613a11835f516020615e935f395f51905f52906001600160a01b03165f5260205260405f2090565b541603613979579181613a7761330d94613902613a52610cc86132fa975f516020615e935f395f51905f52906001600160a01b03165f5260205260405f2090565b915f516020615e935f395f51905f52906001600160a01b03165f5260205260405f2090565b613958613948825f516020615e935f395f51905f52906001600160a01b03165f5260205260405f2090565b50600181146139dd565b613ab76105476143e1565b80613bb7575b613ac357565b60015f525f516020615e935f395f51905f52602052613b017ffe44ceacbf4f03c6ac19f86826dd265fa9ec25125e8b1766c207f24cd3bc73c7610cc8565b6001600160a01b03811680151580613bac575b15613b9b5760405163d60b347f60e01b815230600482015290602090829060249082905afa9081156104cc575f91613b7d575b50613b5a57613b5590613ce7565b613b01565b6001600160a01b036001915b1614613b6e57565b63330c676160e21b5f5260045ffd5b613b95915060203d8111612112576121048183611c93565b5f613b47565b506001600160a01b03600191613b66565b506001811415613b14565b5060405163d60b347f60e01b81523060048201526020816024817f00000000000000000000000000000000000000000000000000000000000000006001600160a01b03165afa9081156104cc575f91613c12575b5015613abd565b613c2b915060203d602011612112576121048183611c93565b5f613c0b565b613c61936001600160a01b0360209496939660405196879586948593637aa8f17760e11b85523360048601612c9e565b0392165afa9081156104cc575f91613cc8575b507fffff000000000000000000000000000000000000000000000000000000000000811661773960f01b1480613cb2575b613cad575090565b905090565b506001600160e01b031982811690821611613ca5565b613ce1915060203d602011611daf57611da08183611c93565b5f613c74565b6001600160a01b03168015613d1a575f525f516020615e935f395f51905f526020526001600160a01b0360405f20541690565b637c84ecfb60e01b5f5260045260245ffd5b6001600160a01b031680600114159081613d44575090565b90505f525f516020615e935f395f51905f526020526001600160a01b0360405f205416151590565b6001600160a01b031680600114159081613d84575090565b90505f525f516020615ef35f395f51905f526020526001600160a01b0360405f205416151590565b6001600160a01b035f516020615ed35f395f51905f5254169081613dce575050565b813b15610213576040516396fb721760e01b81526001600160a01b03909116600482015260026024820152905f90829060449082905afa80156104cc57613e13575b50565b80613e1f5f8093611c93565b80031261021357565b6001600160a01b035f516020615ed35f395f51905f5254169081613e4a575050565b813b15610213576040516396fb721760e01b81526001600160a01b039091166004808301919091526024820152905f90829060449082905afa80156104cc57613e135750565b6001600160a01b035f516020615ed35f395f51905f5254169081613eb2575050565b813b15610213576040516396fb721760e01b81526001600160a01b03909116600482015260036024820152905f90829060449082905afa80156104cc57613e135750565b6001600160a01b035f516020615ed35f395f51905f5254169081613f18575050565b813b15610213576040516396fb721760e01b81526001600160a01b03909116600482015260016024820152905f90829060449082905afa80156104cc57613e135750565b6001600160a01b035f516020615ed35f395f51905f5254169182613f7f57505050565b823b15610213576040516396fb721760e01b81526001600160a01b039290921660048301526024820152905f90829060449082905afa80156104cc57613e135750565b60408051909190613fd38382611c93565b6001815291601f1901825f5b828110613feb57505050565b806060602080938501015201613fdf565b9061400682612861565b6140136040519182611c93565b8281528092614024601f1991612861565b01905f5b82811061403457505050565b806060602080938501015201614028565b8051156133e15760200190565b80518210156133e15760209160051b010190565b91611cca939161407e91604085526040850191612185565b916020818403910152610f23565b906140969161534c565b916001600160f81b0319811661411357506140b082613ffc565b915f5b8181106140c05750505090565b806140f76140d160019385876133bf565b80356140dc81610252565b6140ef6020830135926040810190611f7b565b9290916154cb565b6141018287614052565b5261410c8186614052565b50016140b3565b9291906001600160f81b03198416600160f81b0361413657611cca9293506153cc565b6308c3ee0360e11b5f9081526001600160f81b03198516600452602490fd5b906141629193929361547c565b91909261416d613fc2565b956001600160f81b0319811661419c57509061418993916154cb565b61419283614045565b52613e1082614045565b6001600160f81b03198116600160f81b036128495750836141be9284926154a4565b6141c786614045565b52156141d1575050565b7fb5282692b8c578af7fb880895d599035496b5e64d1f14bf428a1ed3bc406f662916124c761271386614045565b906142099161534c565b90916001600160f81b0319811661426657505f5b81811061422957505050565b8061426061423a60019385876133bf565b803561424581610252565b6142586020830135926040810190611f7b565b9290916154f8565b0161421d565b92916001600160f81b03198416600160f81b0361413657613e109293506153cc565b906142929161547c565b90939092906001600160f81b031916806142b257509061026e93916154f8565b600160f81b81036143075750836142ca9284926154a4565b9290156142d657505050565b6124c77fb5282692b8c578af7fb880895d599035496b5e64d1f14bf428a1ed3bc406f6629360405193849384614066565b6308c3ee0360e11b5f5260045260245ffd5b60409060ff611cca94931681528160208201520190610bf1565b600803614368576001600160a01b037f0bb70095b32b9671358306b0339b4c06e7cbd8cb82505941fba30d1eb5b82f06541690565b6001600160a01b037f0bb70095b32b9671358306b0339b4c06e7cbd8cb82505941fba30d1eb5b82f05541690565b6001600160a01b036143d9819263ffffffff60e01b165f527f0bb70095b32b9671358306b0339b4c06e7cbd8cb82505941fba30d1eb5b82f0260205260405f2090565b541691161490565b5f906017303b146143ee57565b905060035f80303c5f5160e81c62ef01001490565b939261441191933691611e34565b6020815191012090604051926001600160a01b0360208501957ff6c866c1cd985ce61f030431e576c0e82887de0643dfa8a2e6efc3463e638ed087521660408501526060840152608083015260a082015260a0815261447160c082611c93565b51902090565b92602092916001600160a01b036144906144ae96615541565b604051637aa8f17760e11b8152968795869485933060048601612c9e565b0392165afa5f91816144db575b506144c557505f90565b6001600160e01b031916630b135d3f60e11b1490565b6144f591925060203d602011611daf57611da08183611c93565b905f6144bb565b92611cca94919261450e913691611e34565b60208151910120604051926001600160a01b0360208501957fd3ddfc12654178cc44d4a7b6b969cfdce7ffe6342326ba37825314cffa0fba9c87521660408501526060840152608083015260a082015260a0815261456d60c082611c93565b519020615541565b6001600160a01b0361026e91166001600160a01b03166001600160a01b03195f516020615eb35f395f51905f525416175f516020615eb35f395f51905f5255565b92915f91908291826145c781611e18565b966145d56040519889611c93565b818852601f196145e483611e18565b013660208a013760208451940192f13d80614607575b8084525f602085013e9190565b505f6145fa565b9061461882612861565b6146256040519182611c93565b8281528092614636601f1991612861565b0190602036910137565b5f198114611bc35760010190565b5f19810191908211611bc357565b604051906060820182811067ffffffffffffffff821117611c8e5760405260606040835f81525f60208201520152565b91908110156133e15760051b81013590607e1981360301821215610213570190565b634e487b7160e01b5f52602160045260245ffd5b600311156146cc57565b6146ae565b3560038110156102135790565b805191908290602001825e015f815290565b61026e9061471261470c949360405195869360208501906146de565b906146de565b03601f198101845283611c93565b908160209103126102135751611cca81610252565b91908110156133e15760051b81013590603e1981360301821215610213570190565b91905f5b818110614769575050505050565b614774818386614735565b908561477f83615992565b61478881615988565b6147ba576147b4906147a08460206001960190611f7b565b506040810135908760208201359135615dd7565b0161475b565b509060016147c782615992565b6147d081615988565b03614848578060206147e3920190611f7b565b50905f8061480360408501358501604051918282602082943591016123c3565b039060208601355afa6148146123d0565b901561483957866148349184608060019601359160608201359135615dd7565b6147b4565b636e47f61960e01b5f5260045ffd5b631c42432f60e31b5f5260045ffd5b60015f525f516020615ef35f395f51905f526020527fbdfeb076d903611fa58576955630d640569633049bcf40ad9c22db9251b54a13546001600160a01b031661493d5760015f525f516020615ef35f395f51905f526020526148ca60405f2060016001600160a01b0319825416179055565b60015f525f516020615e935f395f51905f526020526001600160a01b037ffe44ceacbf4f03c6ac19f86826dd265fa9ec25125e8b1766c207f24cd3bc73c7541661493d5760015f525f516020615e935f395f51905f5260205261026e60405f2060016001600160a01b0319825416179055565b6329e42f3360e11b5f5260045ffd5b91908110156133e15760051b0190565b908210156133e1576102da9160051b810190611f7b565b9150614995908035810191602083019235916020810135019060208201913590565b929391808403614a81575f5b8181106149b057505050505050565b806149be600192848961494c565b358281036149e257506149dc6149d582888761495c565b9087615192565b016149a1565b60028103614a055750614a006149f982888761495c565b9087615089565b6149dc565b60038103614a235750614a00614a1c82888761495c565b9087614db2565b60048103614a415750614a00614a3a82888761495c565b9087614c55565b85600882148015614a77575b614a59575b50506149dc565b614a7091614a68848a8961495c565b929091614a90565b5f85614a52565b5060098214614a4d565b63b4fa3fb360e01b5f5260045ffd5b9291906001600160a01b03614ab96001600160a01b035f516020615eb35f395f51905f52541690565b1680614ac9575061026e93614b6a565b60405163d68f602560e01b815293909290915f8580614aed363433600485016121a5565b038183885af19485156104cc575f95614b4a575b50614b0d939495614b6a565b803b1561021357604051630b9dfbed60e11b8152915f918391829084908290614b3990600483016121cb565b03925af180156104cc57612fe05750565b614b0d949550614b63903d805f833e61089d8183611c93565b9493614b01565b929092614b778185613f5c565b60405163ecd0596160e01b8152600481018290526001600160a01b0385169490602081602481895afa9081156104cc575f91614c12575b5015614c035781614bd4614bc4614bd994614333565b6001600160a01b03811615614c31565b615653565b823b1561021357614b39925f92836040518096819582946306d61fe760e41b845260048401613299565b631c4f83bb60e31b5f5260045ffd5b614c2b915060203d602011612112576121048183611c93565b5f614bae565b15614c395750565b6001600160a01b039063c689cd9760e01b5f521660045260245ffd5b91906001600160a01b03614c7d6001600160a01b035f516020615eb35f395f51905f52541690565b1680614c8d575061026e92614cef565b60405163d68f602560e01b81529290915f8480614caf363433600485016121a5565b038183875af19384156104cc575f94614ccf575b50614b0d929394614cef565b614b0d939450614ce8903d805f833e61089d8183611c93565b9392614cc3565b91614cf983613e28565b60405163ecd0596160e01b81526004808201526001600160a01b0384169390602081602481885afa9081156104cc575f91614d6f575b5015614c0357614bd990614d6a614d5a6001600160a01b035f516020615eb35f395f51905f52541690565b6001600160a01b03811615614d8e565b614575565b614d88915060203d602011612112576121048183611c93565b5f614d2f565b15614d965750565b6001600160a01b039063741cbe0360e01b5f521660045260245ffd5b91906001600160a01b03614dda6001600160a01b035f516020615eb35f395f51905f52541690565b1680614dea575061026e92614e4c565b60405163d68f602560e01b81529290915f8480614e0c363433600485016121a5565b038183875af19384156104cc575f94614e2c575b50614b0d929394614e4c565b614b0d939450614e45903d805f833e61089d8183611c93565b9392614e20565b9091614e5782613e90565b60405163ecd0596160e01b8152600360048201526001600160a01b0383169290602081602481875afa9081156104cc575f9161500c575b5015614c0357613768846105ce614f006104ff8680614ede614ed1614ec383614ebd612b9c614faf9e8c611bf3565b9961502b565b356001600160f81b03191690565b6001600160f81b03191690565b9a6001600160f81b03198c16158015614ff5575b614efb9061503a565b611c01565b96614f2f6001600160e01b031984166306d61fe760e41b8114908115614fe4575b8115614fdb575b5015615050565b614f8483614f7f610547826001600160e01b0319165f9081527f0bb70095b32b9671358306b0339b4c06e7cbd8cb82505941fba30d1eb5b82f0260205260409020546001600160a01b0316151590565b615066565b614f9e614f8f611e09565b6001600160a01b039096168652565b6001600160f81b0319166020850152565b803b15610213576040516306d61fe760e41b8152915f918391829084908290614b3990600483016121cb565b9050155f614f28565b638a91b0e360e01b81149150614f21565b50607f60f91b6001600160f81b03198d1614614ef2565b615025915060203d602011612112576121048183611c93565b5f614e8e565b90600410156133e15760040190565b1561504157565b63867a1dcf60e01b5f5260045ffd5b1561505757565b63c001660b60e01b5f5260045ffd5b1561506e5750565b63a56a04dd60e01b5f5263ffffffff60e01b1660045260245ffd5b91906001600160a01b036150b16001600160a01b035f516020615eb35f395f51905f52541690565b16806150c1575061026e92615123565b60405163d68f602560e01b81529290915f84806150e3363433600485016121a5565b038183875af19384156104cc575f94615103575b50614b0d929394615123565b614b0d93945061511c903d805f833e61089d8183611c93565b93926150f7565b9161512d83613dac565b60405163ecd0596160e01b8152600260048201526001600160a01b0384169390602081602481885afa9081156104cc575f91615173575b5015614c0357614bd99061599f565b61518c915060203d602011612112576121048183611c93565b5f615164565b91906001600160a01b036151ba6001600160a01b035f516020615eb35f395f51905f52541690565b16806151ca575061026e9261522c565b60405163d68f602560e01b81529290915f84806151ec363433600485016121a5565b038183875af19384156104cc575f9461520c575b50614b0d92939461522c565b614b0d939450615225903d805f833e61089d8183611c93565b9392615200565b9161523683613ef6565b60405163ecd0596160e01b8152600160048201526001600160a01b0384169390602081602481885afa9081156104cc575f916152bb575b5015614c03576001600160a01b037f00000000000000000000000000000000000000000000000000000000000000001684146152ac57614bd990615aaa565b63abc3af7960e01b5f5260045ffd5b6152d4915060203d602011612112576121048183611c93565b5f61526d565b918160141161021357823560601c92601401916013190190565b5f9192806040519485378338925af4913d82523d5f602084013e60203d830101604052565b5f919392806040519586378438925af415615343573d82523d5f602084013e60203d830101604052565b503d5f823e3d90fd5b909181359182810193601f199101016020840193803593828560051b8301119060401c176153bf578361537d575050565b835b5f190160208160051b8301013580830160608101908135809101918680602080860135809601011191111792171760401c176153bf578061537f57505050565b63ba597e7e5f526004601cfd5b9190916153d883613ffc565b925f5b8181106153e757505050565b806153f560019284866133bf565b80359061540182610252565b615420602082013560408301936154188585611f7b565b9290916154a4565b61542a858b614052565b5215615439575b5050016153db565b7fb5282692b8c578af7fb880895d599035496b5e64d1f14bf428a1ed3bc406f6629161546491611f7b565b90615472612713858b614052565b0390a15f80615431565b908060141161021357813560601c926034821061021357601483013592603401916033190190565b905f928491604051958692833738935af1913d82523d5f602084013e60203d830101604052565b90925f92819594604051968792833738935af115615343573d82523d5f602084013e60203d830101604052565b8380935f93604051958692833738935af1156107725701604052565b60405190602036830101604052816014360181525f602036920137604051601481016040523360601b9052565b7f00000000000000000000000000000000000000000000000000000000000000007f000000000000000000000000000000000000000000000000000000000000000030147f0000000000000000000000000000000000000000000000000000000000000000461416156155cc575b6719010000000000005f52601a52603a526042601820905f603a52565b5060a06040517f8b73c3c69bb8fe3d512ecc4cf759cc79239f7b179b0ffacaa9a75d522b39400f81527f000000000000000000000000000000000000000000000000000000000000000060208201527f00000000000000000000000000000000000000000000000000000000000000006040820152466060820152306080820152206155af565b600881036156c357506001600160a01b0361026e91166001600160a01b03166001600160a01b03197f0bb70095b32b9671358306b0339b4c06e7cbd8cb82505941fba30d1eb5b82f065416177f0bb70095b32b9671358306b0339b4c06e7cbd8cb82505941fba30d1eb5b82f0655565b6009146156cd5750565b6001600160a01b0361026e91166001600160a01b03166001600160a01b03197f0bb70095b32b9671358306b0339b4c06e7cbd8cb82505941fba30d1eb5b82f055416177f0bb70095b32b9671358306b0339b4c06e7cbd8cb82505941fba30d1eb5b82f0555565b60609060208101615744816146d1565b61574d816146c2565b6157915750611cca91508060406104ff92019061578c61576d8383611f7b565b61578761577d60608601866133e6565b9390923691611e34565b615c94565b611f7b565b600161579c826146d1565b6157a5816146c2565b03615811575090505f806157bc6040840184611f7b565b50604051806157d6816020858101358601803591016123c3565b0391355afa906157e46123d0565b9115615802576157fb816060611cca9301906133e6565b9083615c94565b636533cc8d60e01b5f5260045ffd5b61581c6002916146d1565b615825816146c2565b03615914576158376040820182611f7b565b506014810135831c9035831c806158a55750906158916134959361588b611cca9431935b604051926158838461587588602083019190602083019252565b03601f198101865285611c93565b8101906133e6565b91615c94565b604051928391602083019190602083019252565b6040516370a0823160e01b81526001600160a01b03929092166004830152909190602090839060249082905afa80156104cc576134959361588b61589192611cca955f916158f5575b509361585b565b61590e915060203d6020116104c5576104b78183611c93565b5f6158ee565b604051635107885760e11b815260206004820152601a60248201527f496e76616c696420706172616d206665746368657220747970650000000000006044820152606490fd5b9291905f91604051943892602083519301915af115615343573d82523d5f602084013e60203d830101604052565b600211156146cc57565b3560028110156102135790565b6001600160a01b03811680158015615aa0575b613d1a575f9081525f516020615ef35f395f51905f5260205260409020546001600160a01b0316615a855760015f525f516020615ef35f395f51905f5260205261026e90615a4a615a227fbdfeb076d903611fa58576955630d640569633049bcf40ad9c22db9251b54a13610cc8565b613902835f516020615ef35f395f51905f52906001600160a01b03165f5260205260405f2090565b60015f525f516020615ef35f395f51905f526020527fbdfeb076d903611fa58576955630d640569633049bcf40ad9c22db9251b54a13613902565b631034f46960e21b5f526001600160a01b031660045260245ffd5b50600181146159b2565b6001600160a01b03811680158015615b90575b613d1a575f9081525f516020615e935f395f51905f5260205260409020546001600160a01b0316615a855760015f525f516020615e935f395f51905f5260205261026e90615b55615b2d7ffe44ceacbf4f03c6ac19f86826dd265fa9ec25125e8b1766c207f24cd3bc73c7610cc8565b613902835f516020615e935f395f51905f52906001600160a01b03165f5260205260405f2090565b60015f525f516020615e935f395f51905f526020527ffe44ceacbf4f03c6ac19f86826dd265fa9ec25125e8b1766c207f24cd3bc73c7613902565b5060018114615abd565b6040813603126102135760405190615bb182611c72565b8035600481101561021357825260208101359067ffffffffffffffff821161021357615bdf91369101611e6a565b602082015290565b600411156146cc57565b9190826040910312610213576020825192015190565b15615c0e57565b630a31844b60e41b5f52600360045260245ffd5b15615c2957565b630a31844b60e41b5f52600260045260245ffd5b15615c4457565b630a31844b60e41b5f52600160045260245ffd5b15615c5f57565b630a31844b60e41b5f525f60045260245ffd5b602081519101519060208110615c86575090565b5f199060200360031b1b1690565b9180615c9f57505050565b5f5b818110615cae5750505050565b615cc1615cbc828486614735565b615b9a565b9060208160051b86010151918051615cd881615be7565b615ce181615be7565b615d0457600192615cf86020615cfe930151615c72565b14615c58565b01615ca1565b60018151615d1181615be7565b615d1a81615be7565b03615d3e57600192615d326020615d39930151615c72565b1115615c3d565b615cfe565b60028151615d4b81615be7565b615d5481615be7565b03615d7357600192615d6c6020615d39930151615c72565b1015615c22565b60038151615d8081615be7565b615d8981615be7565b03615dc857600192615dab6020615d3993015160208082518301019101615bf1565b908210159182615dbd575b5050615c07565b111590505f80615db6565b631628622f60e11b5f5260045ffd5b929193905f5b848110615dec57505050505050565b60208160051b83010151906001600160a01b038716916040516020810190615e2481613495868b869091604092825260208201520190565b519020833b156102135760405163a39e078760e01b8152600481019190915260248101919091526001600160a01b0385166044820152915f908390606490829084905af19182156104cc57600192615e7e575b5001615ddd565b8061087e5f615e8c93611c93565b5f615e7756fe0bb70095b32b9671358306b0339b4c06e7cbd8cb82505941fba30d1eb5b82f000bb70095b32b9671358306b0339b4c06e7cbd8cb82505941fba30d1eb5b82f030bb70095b32b9671358306b0339b4c06e7cbd8cb82505941fba30d1eb5b82f080bb70095b32b9671358306b0339b4c06e7cbd8cb82505941fba30d1eb5b82f01a164736f6c634300081b000a","linkReferences":{}},"methodIdentifiers":{"accountId()":"9cfd7cff","addDeposit()":"4a58db19","checkERC7739Support(bytes32,bytes)":"b46b61a9","eip712Domain()":"84b0196e","emergencyUninstallHook((address,uint256,bytes,uint256),bytes)":"5bfeadbb","entryPoint()":"b0d691fe","execute(bytes32,bytes)":"e9ae5c53","executeComposable((bytes4,(uint8,uint8,bytes,(uint8,bytes)[])[],(uint8,bytes)[])[])":"7eba07b8","executeFromExecutor(bytes32,bytes)":"d691c964","executeUserOp((address,uint256,bytes,bytes,bytes32,uint256,bytes32,bytes,bytes),bytes32)":"8dd7712f","getActiveHook()":"0a664dba","getDeposit()":"c399ec88","getExecutorsPaginated(address,uint256)":"ea5f61d0","getFallbackHandlerBySelector(bytes4)":"481ddd23","getImplementation()":"aaf10f42","getRegistry()":"5ab1bd53","getValidatorsPaginated(address,uint256)":"5faac46b","initializeAccount(bytes)":"4b6a1419","installModule(uint256,address,bytes)":"9517e29f","isInitialized()":"392e53cd","isModuleInstalled(uint256,address,bytes)":"112d3a7d","isValidSignature(bytes32,bytes)":"1626ba7e","nonce(uint192)":"d86f2b3c","proxiableUUID()":"52d1902d","setRegistry(address,address[],uint8)":"eab77e17","supportsExecutionMode(bytes32)":"d03c7914","supportsModule(uint256)":"f2dc691d","uninstallModule(uint256,address,bytes)":"a71763a8","upgradeToAndCall(address,bytes)":"4f1ef286","validateUserOp((address,uint256,bytes,bytes,bytes32,uint256,bytes32,bytes,bytes),bytes32,uint256)":"19822f7c","withdrawDepositTo(address,uint256)":"4d44560d"},"id":0}