{"abi":[{"type":"constructor","inputs":[{"name":"anEntryPoint","type":"address","internalType":"address"}],"stateMutability":"nonpayable"},{"type":"fallback","stateMutability":"payable"},{"type":"receive","stateMutability":"payable"},{"type":"function","name":"DOMAIN_SEPARATOR","inputs":[],"outputs":[{"name":"","type":"bytes32","internalType":"bytes32"}],"stateMutability":"view"},{"type":"function","name":"accountId","inputs":[],"outputs":[{"name":"","type":"string","internalType":"string"}],"stateMutability":"pure"},{"type":"function","name":"addDeposit","inputs":[],"outputs":[],"stateMutability":"payable"},{"type":"function","name":"checkERC7739Support","inputs":[{"name":"hash","type":"bytes32","internalType":"bytes32"},{"name":"signature","type":"bytes","internalType":"bytes"}],"outputs":[{"name":"","type":"bytes4","internalType":"bytes4"}],"stateMutability":"view"},{"type":"function","name":"eip712Domain","inputs":[],"outputs":[{"name":"fields","type":"bytes1","internalType":"bytes1"},{"name":"name","type":"string","internalType":"string"},{"name":"version","type":"string","internalType":"string"},{"name":"chainId","type":"uint256","internalType":"uint256"},{"name":"verifyingContract","type":"address","internalType":"address"},{"name":"salt","type":"bytes32","internalType":"bytes32"},{"name":"extensions","type":"uint256[]","internalType":"uint256[]"}],"stateMutability":"view"},{"type":"function","name":"emergencyUninstallHook","inputs":[{"name":"hook","type":"address","internalType":"address"},{"name":"deInitData","type":"bytes","internalType":"bytes"}],"outputs":[],"stateMutability":"payable"},{"type":"function","name":"entryPoint","inputs":[],"outputs":[{"name":"","type":"address","internalType":"address"}],"stateMutability":"view"},{"type":"function","name":"execute","inputs":[{"name":"mode","type":"bytes32","internalType":"ExecutionMode"},{"name":"executionCalldata","type":"bytes","internalType":"bytes"}],"outputs":[],"stateMutability":"payable"},{"type":"function","name":"executeFromExecutor","inputs":[{"name":"mode","type":"bytes32","internalType":"ExecutionMode"},{"name":"executionCalldata","type":"bytes","internalType":"bytes"}],"outputs":[{"name":"returnData","type":"bytes[]","internalType":"bytes[]"}],"stateMutability":"payable"},{"type":"function","name":"executeUserOp","inputs":[{"name":"userOp","type":"tuple","internalType":"struct PackedUserOperation","components":[{"name":"sender","type":"address","internalType":"address"},{"name":"nonce","type":"uint256","internalType":"uint256"},{"name":"initCode","type":"bytes","internalType":"bytes"},{"name":"callData","type":"bytes","internalType":"bytes"},{"name":"accountGasLimits","type":"bytes32","internalType":"bytes32"},{"name":"preVerificationGas","type":"uint256","internalType":"uint256"},{"name":"gasFees","type":"bytes32","internalType":"bytes32"},{"name":"paymasterAndData","type":"bytes","internalType":"bytes"},{"name":"signature","type":"bytes","internalType":"bytes"}]},{"name":"","type":"bytes32","internalType":"bytes32"}],"outputs":[],"stateMutability":"payable"},{"type":"function","name":"getActiveHook","inputs":[],"outputs":[{"name":"hook","type":"address","internalType":"address"}],"stateMutability":"view"},{"type":"function","name":"getDeposit","inputs":[],"outputs":[{"name":"result","type":"uint256","internalType":"uint256"}],"stateMutability":"view"},{"type":"function","name":"getExecutorsPaginated","inputs":[{"name":"cursor","type":"address","internalType":"address"},{"name":"size","type":"uint256","internalType":"uint256"}],"outputs":[{"name":"array","type":"address[]","internalType":"address[]"},{"name":"next","type":"address","internalType":"address"}],"stateMutability":"view"},{"type":"function","name":"getFallbackHandlerBySelector","inputs":[{"name":"selector","type":"bytes4","internalType":"bytes4"}],"outputs":[{"name":"","type":"bytes1","internalType":"CallType"},{"name":"","type":"address","internalType":"address"}],"stateMutability":"view"},{"type":"function","name":"getImplementation","inputs":[],"outputs":[{"name":"implementation","type":"address","internalType":"address"}],"stateMutability":"view"},{"type":"function","name":"getValidatorsPaginated","inputs":[{"name":"cursor","type":"address","internalType":"address"},{"name":"size","type":"uint256","internalType":"uint256"}],"outputs":[{"name":"array","type":"address[]","internalType":"address[]"},{"name":"next","type":"address","internalType":"address"}],"stateMutability":"view"},{"type":"function","name":"hashTypedData","inputs":[{"name":"structHash","type":"bytes32","internalType":"bytes32"}],"outputs":[{"name":"","type":"bytes32","internalType":"bytes32"}],"stateMutability":"view"},{"type":"function","name":"initializeAccount","inputs":[{"name":"initData","type":"bytes","internalType":"bytes"}],"outputs":[],"stateMutability":"payable"},{"type":"function","name":"installModule","inputs":[{"name":"moduleTypeId","type":"uint256","internalType":"uint256"},{"name":"module","type":"address","internalType":"address"},{"name":"initData","type":"bytes","internalType":"bytes"}],"outputs":[],"stateMutability":"payable"},{"type":"function","name":"isModuleInstalled","inputs":[{"name":"moduleTypeId","type":"uint256","internalType":"uint256"},{"name":"module","type":"address","internalType":"address"},{"name":"additionalContext","type":"bytes","internalType":"bytes"}],"outputs":[{"name":"","type":"bool","internalType":"bool"}],"stateMutability":"view"},{"type":"function","name":"isValidSignature","inputs":[{"name":"hash","type":"bytes32","internalType":"bytes32"},{"name":"signature","type":"bytes","internalType":"bytes"}],"outputs":[{"name":"","type":"bytes4","internalType":"bytes4"}],"stateMutability":"view"},{"type":"function","name":"nonce","inputs":[{"name":"key","type":"uint192","internalType":"uint192"}],"outputs":[{"name":"","type":"uint256","internalType":"uint256"}],"stateMutability":"view"},{"type":"function","name":"proxiableUUID","inputs":[],"outputs":[{"name":"","type":"bytes32","internalType":"bytes32"}],"stateMutability":"view"},{"type":"function","name":"registry","inputs":[],"outputs":[{"name":"","type":"address","internalType":"contract IERC7484"}],"stateMutability":"view"},{"type":"function","name":"setRegistry","inputs":[{"name":"newRegistry","type":"address","internalType":"contract IERC7484"},{"name":"attesters","type":"address[]","internalType":"address[]"},{"name":"threshold","type":"uint8","internalType":"uint8"}],"outputs":[],"stateMutability":"payable"},{"type":"function","name":"supportsExecutionMode","inputs":[{"name":"mode","type":"bytes32","internalType":"ExecutionMode"}],"outputs":[{"name":"isSupported","type":"bool","internalType":"bool"}],"stateMutability":"view"},{"type":"function","name":"supportsModule","inputs":[{"name":"moduleTypeId","type":"uint256","internalType":"uint256"}],"outputs":[{"name":"","type":"bool","internalType":"bool"}],"stateMutability":"view"},{"type":"function","name":"uninstallModule","inputs":[{"name":"moduleTypeId","type":"uint256","internalType":"uint256"},{"name":"module","type":"address","internalType":"address"},{"name":"deInitData","type":"bytes","internalType":"bytes"}],"outputs":[],"stateMutability":"payable"},{"type":"function","name":"upgradeToAndCall","inputs":[{"name":"newImplementation","type":"address","internalType":"address"},{"name":"data","type":"bytes","internalType":"bytes"}],"outputs":[],"stateMutability":"payable"},{"type":"function","name":"validateUserOp","inputs":[{"name":"op","type":"tuple","internalType":"struct PackedUserOperation","components":[{"name":"sender","type":"address","internalType":"address"},{"name":"nonce","type":"uint256","internalType":"uint256"},{"name":"initCode","type":"bytes","internalType":"bytes"},{"name":"callData","type":"bytes","internalType":"bytes"},{"name":"accountGasLimits","type":"bytes32","internalType":"bytes32"},{"name":"preVerificationGas","type":"uint256","internalType":"uint256"},{"name":"gasFees","type":"bytes32","internalType":"bytes32"},{"name":"paymasterAndData","type":"bytes","internalType":"bytes"},{"name":"signature","type":"bytes","internalType":"bytes"}]},{"name":"userOpHash","type":"bytes32","internalType":"bytes32"},{"name":"missingAccountFunds","type":"uint256","internalType":"uint256"}],"outputs":[{"name":"validationData","type":"uint256","internalType":"uint256"}],"stateMutability":"nonpayable"},{"type":"function","name":"withdrawDepositTo","inputs":[{"name":"to","type":"address","internalType":"address"},{"name":"amount","type":"uint256","internalType":"uint256"}],"outputs":[],"stateMutability":"payable"},{"type":"event","name":"ERC7484RegistryConfigured","inputs":[{"name":"registry","type":"address","indexed":true,"internalType":"contract IERC7484"}],"anonymous":false},{"type":"event","name":"EmergencyHookUninstallRequest","inputs":[{"name":"hook","type":"address","indexed":false,"internalType":"address"},{"name":"timestamp","type":"uint256","indexed":false,"internalType":"uint256"}],"anonymous":false},{"type":"event","name":"EmergencyHookUninstallRequestReset","inputs":[{"name":"hook","type":"address","indexed":false,"internalType":"address"},{"name":"timestamp","type":"uint256","indexed":false,"internalType":"uint256"}],"anonymous":false},{"type":"event","name":"Executed","inputs":[{"name":"userOp","type":"tuple","indexed":false,"internalType":"struct PackedUserOperation","components":[{"name":"sender","type":"address","internalType":"address"},{"name":"nonce","type":"uint256","internalType":"uint256"},{"name":"initCode","type":"bytes","internalType":"bytes"},{"name":"callData","type":"bytes","internalType":"bytes"},{"name":"accountGasLimits","type":"bytes32","internalType":"bytes32"},{"name":"preVerificationGas","type":"uint256","internalType":"uint256"},{"name":"gasFees","type":"bytes32","internalType":"bytes32"},{"name":"paymasterAndData","type":"bytes","internalType":"bytes"},{"name":"signature","type":"bytes","internalType":"bytes"}]},{"name":"innerCallRet","type":"bytes","indexed":false,"internalType":"bytes"}],"anonymous":false},{"type":"event","name":"ModuleInstalled","inputs":[{"name":"moduleTypeId","type":"uint256","indexed":false,"internalType":"uint256"},{"name":"module","type":"address","indexed":false,"internalType":"address"}],"anonymous":false},{"type":"event","name":"ModuleUninstalled","inputs":[{"name":"moduleTypeId","type":"uint256","indexed":false,"internalType":"uint256"},{"name":"module","type":"address","indexed":false,"internalType":"address"}],"anonymous":false},{"type":"event","name":"TryDelegateCallUnsuccessful","inputs":[{"name":"callData","type":"bytes","indexed":false,"internalType":"bytes"},{"name":"result","type":"bytes","indexed":false,"internalType":"bytes"}],"anonymous":false},{"type":"event","name":"TryExecuteUnsuccessful","inputs":[{"name":"callData","type":"bytes","indexed":false,"internalType":"bytes"},{"name":"result","type":"bytes","indexed":false,"internalType":"bytes"}],"anonymous":false},{"type":"event","name":"Upgraded","inputs":[{"name":"implementation","type":"address","indexed":true,"internalType":"address"}],"anonymous":false},{"type":"error","name":"AccountAccessUnauthorized","inputs":[]},{"type":"error","name":"CanNotRemoveLastValidator","inputs":[]},{"type":"error","name":"EmergencyTimeLockNotExpired","inputs":[]},{"type":"error","name":"EnableModeSigError","inputs":[]},{"type":"error","name":"EntryPointCanNotBeZero","inputs":[]},{"type":"error","name":"ExecutionFailed","inputs":[]},{"type":"error","name":"FallbackAlreadyInstalledForSelector","inputs":[{"name":"selector","type":"bytes4","internalType":"bytes4"}]},{"type":"error","name":"FallbackCallTypeInvalid","inputs":[]},{"type":"error","name":"FallbackHandlerUninstallFailed","inputs":[]},{"type":"error","name":"FallbackNotInstalledForSelector","inputs":[{"name":"selector","type":"bytes4","internalType":"bytes4"}]},{"type":"error","name":"FallbackSelectorForbidden","inputs":[]},{"type":"error","name":"HookAlreadyInstalled","inputs":[{"name":"currentHook","type":"address","internalType":"address"}]},{"type":"error","name":"HookPostCheckFailed","inputs":[]},{"type":"error","name":"ImplementationIsNotAContract","inputs":[]},{"type":"error","name":"InnerCallFailed","inputs":[]},{"type":"error","name":"InvalidImplementationAddress","inputs":[]},{"type":"error","name":"InvalidInput","inputs":[]},{"type":"error","name":"InvalidModule","inputs":[{"name":"module","type":"address","internalType":"address"}]},{"type":"error","name":"InvalidModuleTypeId","inputs":[{"name":"moduleTypeId","type":"uint256","internalType":"uint256"}]},{"type":"error","name":"LinkedList_AlreadyInitialized","inputs":[]},{"type":"error","name":"LinkedList_EntryAlreadyInList","inputs":[{"name":"entry","type":"address","internalType":"address"}]},{"type":"error","name":"LinkedList_InvalidEntry","inputs":[{"name":"entry","type":"address","internalType":"address"}]},{"type":"error","name":"LinkedList_InvalidPage","inputs":[]},{"type":"error","name":"MismatchModuleTypeId","inputs":[{"name":"moduleTypeId","type":"uint256","internalType":"uint256"}]},{"type":"error","name":"MissingFallbackHandler","inputs":[{"name":"selector","type":"bytes4","internalType":"bytes4"}]},{"type":"error","name":"ModuleAddressCanNotBeZero","inputs":[]},{"type":"error","name":"ModuleAlreadyInstalled","inputs":[{"name":"moduleTypeId","type":"uint256","internalType":"uint256"},{"name":"module","type":"address","internalType":"address"}]},{"type":"error","name":"ModuleNotInstalled","inputs":[{"name":"moduleTypeId","type":"uint256","internalType":"uint256"},{"name":"module","type":"address","internalType":"address"}]},{"type":"error","name":"NexusInitializationFailed","inputs":[]},{"type":"error","name":"NoValidatorInstalled","inputs":[]},{"type":"error","name":"UnauthorizedCallContext","inputs":[]},{"type":"error","name":"UnauthorizedOperation","inputs":[{"name":"operator","type":"address","internalType":"address"}]},{"type":"error","name":"UnsupportedCallType","inputs":[{"name":"callType","type":"bytes1","internalType":"CallType"}]},{"type":"error","name":"UnsupportedExecType","inputs":[{"name":"execType","type":"bytes1","internalType":"ExecType"}]},{"type":"error","name":"UnsupportedModuleType","inputs":[{"name":"moduleTypeId","type":"uint256","internalType":"uint256"}]},{"type":"error","name":"UpgradeFailed","inputs":[]},{"type":"error","name":"ValidatorNotInstalled","inputs":[{"name":"module","type":"address","internalType":"address"}]}],"bytecode":{"object":"0x6101606040523061014052348015610015575f5ffd5b50604051615706380380615706833981016040819052610034916101d4565b306080524660a05260608061007d6040805180820182526005808252644e6578757360d81b602080840191909152835180850190945290835264189718171960d91b9083015291565b815160209283012081519183019190912060c082905260e0819052604080517f8b73c3c69bb8fe3d512ecc4cf759cc79239f7b179b0ffacaa9a75d522b39400f8152938401929092529082015246606082015230608082015260a090206101005250506001600160a01b038116610107576040516307e355bf60e31b815260040160405180910390fd5b6001600160a01b0381166101205261011d610123565b50610201565b7f0bb70095b32b9671358306b0339b4c06e7cbd8cb82505941fba30d1eb5b82f0061016d7f0bb70095b32b9671358306b0339b4c06e7cbd8cb82505941fba30d1eb5b82f01610179565b61017681610179565b50565b60015f908152602082905260409020546001600160a01b0316156101b0576040516329e42f3360e11b815260040160405180910390fd5b60015f818152602092909252604090912080546001600160a01b0319169091179055565b5f602082840312156101e4575f5ffd5b81516001600160a01b03811681146101fa575f5ffd5b9392505050565b60805160a05160c05160e05161010051610120516101405161542f6102d75f395f81816126d7015261366201525f818161050501528181610a9d01528181610cd401528181610e0101528181610e4c01528181611180015281816114900152818161153601528181611a0601528181611a5601528181611fc20152818161203e01528181612253015261369901525f818161249c015261272101525f818161255601526127db01525f818161253001526127b501525f81816124e0015261276501525f81816124bd0152612742015261542f5ff3fe6080604052600436106101db575f3560e01c80638dd7712f11610101578063cd64f80a11610094578063e9ae5c5311610063578063e9ae5c53146105cd578063ea5f61d0146105e0578063eab77e17146105ff578063f2dc691d14610612576101e2565b8063cd64f80a1461055c578063d03c79141461056f578063d691c9641461058e578063d86f2b3c146105ae576101e2565b8063aaf10f42116100d0578063aaf10f42146104e3578063b0d691fe146104f7578063b46b61a914610529578063c399ec8814610548576101e2565b80638dd7712f1461045f5780639517e29f146104725780639cfd7cff14610485578063a71763a8146104d0576101e2565b80634b6a1419116101795780635faac46b116101485780635faac46b146103ce5780636575f6aa146103fb5780637b1039991461041a57806384b0196e14610438576101e2565b80634b6a1419146103815780634d44560d146103945780634f1ef286146103a757806352d1902d146103ba576101e2565b806319822f7c116101b557806319822f7c146102865780633644e515146102b3578063481ddd23146102c75780634a58db1914610379576101e2565b80630a664dba146101ee578063112d3a7d1461021f5780631626ba7e1461024e576101e2565b366101e257005b6101ec5f36610631565b005b3480156101f9575f5ffd5b5061020261092d565b6040516001600160a01b0390911681526020015b60405180910390f35b34801561022a575f5ffd5b5061023e6102393660046146eb565b610951565b6040519015158152602001610216565b348015610259575f5ffd5b5061026d610268366004614743565b610969565b6040516001600160e01b03199091168152602001610216565b348015610291575f5ffd5b506102a56102a03660046147a2565b610a90565b604051908152602001610216565b3480156102be575f5ffd5b506102a5610cc9565b3480156102d2575f5ffd5b506103516102e1366004614801565b6001600160e01b0319165f9081527f0bb70095b32b9671358306b0339b4c06e7cbd8cb82505941fba30d1eb5b82f0260209081526040918290208251808401909352546001600160a01b038116808452600160a01b90910460f81b6001600160f81b031916929091018290529091565b604080516001600160f81b031990931683526001600160a01b03909116602083015201610216565b6101ec610cd2565b6101ec61038f36600461481c565b610d06565b6101ec6103a236600461484f565b610df6565b6101ec6103b5366004614879565b610eab565b3480156103c5575f5ffd5b506102a5611068565b3480156103d9575f5ffd5b506103ed6103e836600461484f565b611097565b6040516102169291906148b1565b348015610406575f5ffd5b506102a5610415366004614910565b6110bd565b348015610425575f5ffd5b505f54610202906001600160a01b031681565b348015610443575f5ffd5b5061044c6110cd565b6040516102169796959493929190614955565b6101ec61046d3660046149ef565b611175565b6101ec6104803660046146eb565b611485565b348015610490575f5ffd5b50604080518082018252601481527f6269636f6e6f6d792e6e657875732e312e302e32000000000000000000000000602082015290516102169190614a31565b6101ec6104de3660046146eb565b61152b565b3480156104ee575f5ffd5b5061020261182c565b348015610502575f5ffd5b507f0000000000000000000000000000000000000000000000000000000000000000610202565b348015610534575f5ffd5b5061026d610543366004614743565b611862565b348015610553575f5ffd5b506102a5611a02565b6101ec61056a366004614879565b611a4b565b34801561057a575f5ffd5b5061023e610589366004614910565b611c86565b6105a161059c366004614743565b611cf4565b6040516102169190614a43565b3480156105b9575f5ffd5b506102a56105c8366004614aa6565b611f72565b6101ec6105db366004614743565b612033565b3480156105eb575f5ffd5b506103ed6105fa36600461484f565b61221a565b6101ec61060d366004614add565b612248565b34801561061d575f5ffd5b5061023e61062c366004614910565b6122a7565b5f80356001600160e01b03191681527f0bb70095b32b9671358306b0339b4c06e7cbd8cb82505941fba30d1eb5b82f02602052604081208054606091906001600160a01b03811690600160a01b900460f81b81156108c3575f6106a85f5160206153a85f395f51905f52546001600160a01b031690565b905060606001600160a01b038216156107325760405163d68f602560e01b81526001600160a01b0383169063d68f6025906106ed90339034905f903690600401614ba0565b5f604051808303815f875af1158015610708573d5f5f3e3d5ffd5b505050506040513d5f823e601f3d908101601f1916820160405261072f9190810190614c68565b90505b6001600160f81b03198316607f60f91b036107b057836001600160a01b031661075b8a8a612301565b6040516107689190614ce2565b5f60405180830381855afa9150503d805f81146107a0576040519150601f19603f3d011682016040523d82523d5f602084013e6107a5565b606091505b509097509550610845565b6001600160f81b0319831661081b57836001600160a01b0316346107d48b8b612301565b6040516107e19190614ce2565b5f6040518083038185875af1925050503d805f81146107a0576040519150601f19603f3d011682016040523d82523d5f602084013e6107a5565b604051632e5bf3f960e21b81526001600160f81b0319841660048201526024015b60405180910390fd5b8661085257855160208701fd5b6001600160a01b038216156108bb57604051630b9dfbed60e11b81526001600160a01b0383169063173bf7da9061088d908490600401614a31565b5f604051808303815f87803b1580156108a4575f5ffd5b505af11580156108b6573d5f5f3e3d5ffd5b505050505b855160208701f35b5f3560e01c63150b7a02811463f23a6e61821463bc197c8183141717156108ee57806020526020603cf35b6040517f08c63e270000000000000000000000000000000000000000000000000000000081526001600160e01b03195f3516600482015260240161083c565b5f61094c5f5160206153a85f395f51905f52546001600160a01b031690565b905090565b5f61095e85858585612336565b90505b949350505050565b5f8181036109a25761097e61ffff8319614d0c565b61098a90617739614d2b565b84036109a25761099b848484611862565b9050610a89565b5f6109b06014828587614d42565b6109b991614d69565b60601c90506109c7816123f5565b81906109f25760405163342cf00f60e11b81526001600160a01b03909116600482015260240161083c565b506001600160a01b03811663f551e2ee3387610a11876014818b614d42565b6040518563ffffffff1660e01b8152600401610a309493929190614ba0565b602060405180830381865afa925050508015610a69575060408051601f3d908101601f19168201909252610a6691810190614db6565b60015b610a7e57506001600160e01b03199050610a89565b9150610a899050565b505b9392505050565b5f81336001600160a01b037f00000000000000000000000000000000000000000000000000000000000000001614610adb57604051635629665f60e11b815260040160405180910390fd5b5f602086013560401c6001600160a01b03169050600160f81b602087013560031a60f81b03610c0b575f610b0e87614e1e565b9050610b2786610b226101008a018a614f1e565b61240d565b8080601f0160208091040260200160405190810160405280939291908181526020018383808284375f92019190915250505050610100820152610b69826123f5565b8290610b945760405163342cf00f60e11b81526001600160a01b03909116600482015260240161083c565b50604051639700320360e01b81526001600160a01b03831690639700320390610bc39084908a90600401614f61565b6020604051808303815f875af1158015610bdf573d5f5f3e3d5ffd5b505050506040513d601f19601f82011682018060405250810190610c03919061502d565b935050610cb1565b610c14816123f5565b8190610c3f5760405163342cf00f60e11b81526001600160a01b03909116600482015260240161083c565b50604051639700320360e01b81526001600160a01b03821690639700320390610c6e908990899060040161515b565b6020604051808303815f875af1158015610c8a573d5f5f3e3d5ffd5b505050506040513d601f19601f82011682018060405250810190610cae919061502d565b92505b508015610a87575f385f3884335af150509392505050565b5f61094c61249a565b7f00000000000000000000000000000000000000000000000000000000000000005f38818134855af1610d03575f38fd5b50565b610d0e61258f565b5f80610d1c8385018561517c565b915091505f826001600160a01b031682604051610d399190614ce2565b5f60405180830381855af49150503d805f8114610d71576040519150601f19603f3d011682016040523d82523d5f602084013e610d76565b606091505b5050905080610db1576040517f315927c500000000000000000000000000000000000000000000000000000000815260040160405180910390fd5b610db96125cf565b610def576040517fc4d0a0b100000000000000000000000000000000000000000000000000000000815260040160405180910390fd5b5050505050565b336001600160a01b037f0000000000000000000000000000000000000000000000000000000000000000161480610e2c57503330145b610e4957604051635629665f60e11b815260040160405180910390fd5b5f7f0000000000000000000000000000000000000000000000000000000000000000905060405183601452826034526f205c28780000000000000000000000005f525f38604460105f865af1610ea1573d5f823e3d81fd5b505f603452505050565b5f610eca5f5160206153a85f395f51905f52546001600160a01b031690565b90506001600160a01b038116610f37576001600160a01b038416610f015760405163325c055b60e21b815260040160405180910390fd5b833b151580610f235760405163325c055b60e21b815260040160405180910390fd5b843055610f31858585612626565b50611062565b60405163d68f602560e01b81525f906001600160a01b0383169063d68f602590610f6b903390349086903690600401614ba0565b5f604051808303815f875af1158015610f86573d5f5f3e3d5ffd5b505050506040513d5f823e601f3d908101601f19168201604052610fad9190810190614c68565b90506001600160a01b038516610fd65760405163325c055b60e21b815260040160405180910390fd5b843b151580610ff85760405163325c055b60e21b815260040160405180910390fd5b853055611006868686612626565b50604051630b9dfbed60e11b81526001600160a01b0383169063173bf7da90611033908490600401614a31565b5f604051808303815f87803b15801561104a575f5ffd5b505af115801561105c573d5f5f3e3d5ffd5b50505050505b50505050565b5f6110716126d4565b507f360894a13ba1a3210667c828492db98dca3e2076cc3735a920a3ca505d382bbc5b90565b60605f6110b25f5160206153885f395f51905f528585612705565b909590945092505050565b5f6110c78261271f565b92915050565b7f0f000000000000000000000000000000000000000000000000000000000000006060805f80808361116360408051808201825260058082527f4e6578757300000000000000000000000000000000000000000000000000000060208084019190915283518085019094529083527f312e302e320000000000000000000000000000000000000000000000000000009083015291565b97989097965046955030945091925090565b336001600160a01b037f000000000000000000000000000000000000000000000000000000000000000016146111be57604051635629665f60e11b815260040160405180910390fd5b5f6111dd5f5160206153a85f395f51905f52546001600160a01b031690565b90506001600160a01b0381166112eb57365f6111fc6060860186614f1e565b61120a916004908290614d42565b915091505f5f306001600160a01b0316848460405161122a9291906151c9565b5f60405180830381855af49150503d805f8114611262576040519150601f19603f3d011682016040523d82523d5f602084013e611267565b606091505b509150915081156112b0577fd3fddfd1276d1cc278f10907710a44474a32f917b2fcfa198f46ca7689215e2f87826040516112a39291906151d8565b60405180910390a16112e2565b6040517facfdb44400000000000000000000000000000000000000000000000000000000815260040160405180910390fd5b50505050505050565b60405163d68f602560e01b81525f906001600160a01b0383169063d68f60259061131f903390349086903690600401614ba0565b5f604051808303815f875af115801561133a573d5f5f3e3d5ffd5b505050506040513d5f823e601f3d908101601f191682016040526113619190810190614c68565b9050365f6113726060870187614f1e565b611380916004908290614d42565b915091505f5f306001600160a01b031684846040516113a09291906151c9565b5f60405180830381855af49150503d805f81146113d8576040519150601f19603f3d011682016040523d82523d5f602084013e6113dd565b606091505b509150915081156112b0577fd3fddfd1276d1cc278f10907710a44474a32f917b2fcfa198f46ca7689215e2f88826040516114199291906151d8565b60405180910390a15050604051630b9dfbed60e11b81526001600160a01b038516925063173bf7da9150611451908490600401614a31565b5f604051808303815f87803b158015611468575f5ffd5b505af115801561147a573d5f5f3e3d5ffd5b50505050505b505050565b336001600160a01b037f00000000000000000000000000000000000000000000000000000000000000001614806114bb57503330145b6114d857604051635629665f60e11b815260040160405180910390fd5b6114e484848484612835565b604080518581526001600160a01b03851660208201527fd21d0b289f126c4b473ea641963e766833c2f13866e4ff480abd787c100ef123910160405180910390a150505050565b336001600160a01b037f000000000000000000000000000000000000000000000000000000000000000016148061156157503330145b61157e57604051635629665f60e11b815260040160405180910390fd5b5f61159d5f5160206153a85f395f51905f52546001600160a01b031690565b90506001600160a01b038116611680576115b985858585612336565b858590916115ec57604051635f300b3960e11b815260048101929092526001600160a01b0316602482015260440161083c565b5050604080518681526001600160a01b03861660208201527f341347516a9de374859dfda710fa4828b2d48cb57d4fbe4c1149612b8e02276e910160405180910390a16001850361164757611642848484612a1a565b610def565b6002850361165a57611642848484612ae8565b6003850361166d57611642848484612b81565b6004850361164257611642848484612c88565b60405163d68f602560e01b81525f906001600160a01b0383169063d68f6025906116b4903390349086903690600401614ba0565b5f604051808303815f875af11580156116cf573d5f5f3e3d5ffd5b505050506040513d5f823e601f3d908101601f191682016040526116f69190810190614c68565b905061170486868686612336565b8686909161173757604051635f300b3960e11b815260048101929092526001600160a01b0316602482015260440161083c565b5050604080518781526001600160a01b03871660208201527f341347516a9de374859dfda710fa4828b2d48cb57d4fbe4c1149612b8e02276e910160405180910390a1600186036117925761178d858585612a1a565b6117cb565b600286036117a55761178d858585612ae8565b600386036117b85761178d858585612b81565b600486036117cb576117cb858585612c88565b604051630b9dfbed60e11b81526001600160a01b0383169063173bf7da906117f7908490600401614a31565b5f604051808303815f87803b15801561180e575f5ffd5b505af1158015611820573d5f5f3e3d5ffd5b50505050505050505050565b7f360894a13ba1a3210667c828492db98dca3e2076cc3735a920a3ca505d382bbc546001600160a01b0381166110945750305490565b60015f9081525f5160206153885f395f51905f5260208190527ffe44ceacbf4f03c6ac19f86826dd265fa9ec25125e8b1766c207f24cd3bc73c7548291906001600160a01b03165b6001600160a01b038116158015906118cc57506001600160a01b038116600114155b156119d7576040517ff551e2ee0000000000000000000000000000000000000000000000000000000081525f906001600160a01b0383169063f551e2ee9061191e9033908c908c908c90600401614ba0565b602060405180830381865afa158015611939573d5f5f3e3d5ffd5b505050506040513d601f19601f8201168201806040525081019061195d9190614db6565b90507fffff00000000000000000000000000000000000000000000000000000000000081167f77390000000000000000000000000000000000000000000000000000000000001480156119bc57506001600160e01b0319808516908216115b156119c5578093505b6119cf8383612cc5565b9150506118aa565b50506001600160e01b03198116156119ef57806119f9565b6001600160e01b03195b95945050505050565b5f5f7f00000000000000000000000000000000000000000000000000000000000000009050306020526370a082315f526020806024601c845afa601f3d11166020510291505090565b336001600160a01b037f00000000000000000000000000000000000000000000000000000000000000001614611a9457604051635629665f60e11b815260040160405180910390fd5b611aa16004848484612336565b6004849091611ad557604051635f300b3960e11b815260048101929092526001600160a01b0316602482015260440161083c565b50505f611aec5f5160206153885f395f51905f5290565b6001600160a01b0385165f908152600482016020526040812054919250819003611b6c576001600160a01b0385165f81815260048401602090815260409182902042908190558251938452908301527f2841d18703faaff388732165e48fe431468531b1b1e626b1b7cbcbfc0d79c74091015b60405180910390a1610def565b611b7a620151806003614d2b565b611b8490826151fc565b4210611bdd576001600160a01b0385165f81815260048401602090815260409182902042908190558251938452908301527fcbd44a75f6935b5837022648b6c8487db984701200c5381c7c0f8c2b1d69b9da9101611b5f565b611bea62015180826151fc565b4210611c54576001600160a01b0385165f908152600483016020526040812055611c15858585612c88565b60408051600481526001600160a01b03871660208201527f341347516a9de374859dfda710fa4828b2d48cb57d4fbe4c1149612b8e02276e9101611b5f565b6040517f07f2f2d200000000000000000000000000000000000000000000000000000000815260040160405180910390fd5b5f81600881901b6001600160f81b031982161580611cb157506001600160f81b03198216600160f81b145b80611cc557506001600160f81b0319808316145b801561096157506001600160f81b03198116158061096157506001600160f81b03198116600160f81b14610961565b6060611d12335f5160206153885f395f51905f525b60010190612d18565b3390611d56576040517fb927fe5e0000000000000000000000000000000000000000000000000000000081526001600160a01b03909116600482015260240161083c565b505f611d765f5160206153a85f395f51905f52546001600160a01b031690565b90506001600160a01b038116611e2457336002611d938282612d50565b86600881901b6001600160f81b03198216611dba57611db3888883612dd2565b9550611e1b565b6001600160f81b03198216600160f81b03611dda57611db3888883612f27565b6001600160f81b031980831603611df657611db3888883612fa0565b604051632e5bf3f960e21b81526001600160f81b03198316600482015260240161083c565b50505050610a87565b60405163d68f602560e01b81525f906001600160a01b0383169063d68f602590611e58903390349086903690600401614ba0565b5f604051808303815f875af1158015611e73573d5f5f3e3d5ffd5b505050506040513d5f823e601f3d908101601f19168201604052611e9a9190810190614c68565b9050336002611ea98282612d50565b87600881901b6001600160f81b03198216611ed057611ec9898983612dd2565b9650611f0c565b6001600160f81b03198216600160f81b03611ef057611ec9898983612f27565b6001600160f81b031980831603611df657611ec9898983612fa0565b5050604051630b9dfbed60e11b81526001600160a01b038516925063173bf7da9150611f3c908490600401614a31565b5f604051808303815f87803b158015611f53575f5ffd5b505af1158015611f65573d5f5f3e3d5ffd5b5050505050509392505050565b6040517f35567e1a00000000000000000000000000000000000000000000000000000000815230600482015277ffffffffffffffffffffffffffffffffffffffffffffffff821660248201525f907f00000000000000000000000000000000000000000000000000000000000000006001600160a01b0316906335567e1a90604401602060405180830381865afa15801561200f573d5f5f3e3d5ffd5b505050506040513d601f19601f820116820180604052508101906110c7919061502d565b336001600160a01b037f0000000000000000000000000000000000000000000000000000000000000000161461207c57604051635629665f60e11b815260040160405180910390fd5b5f61209b5f5160206153a85f395f51905f52546001600160a01b031690565b90506001600160a01b0381166121135783600881901b6001600160f81b031982166120d0576120cb8585836130ee565b61210c565b6001600160f81b03198216600160f81b036120f0576120cb8585836131ba565b6001600160f81b031980831603611df6576120cb858583613227565b5050611062565b60405163d68f602560e01b81525f906001600160a01b0383169063d68f602590612147903390349086903690600401614ba0565b5f604051808303815f875af1158015612162573d5f5f3e3d5ffd5b505050506040513d5f823e601f3d908101601f191682016040526121899190810190614c68565b905084600881901b6001600160f81b031982166121b0576121ab8686836130ee565b6121ec565b6001600160f81b03198216600160f81b036121d0576121ab8686836131ba565b6001600160f81b031980831603611df6576121ab868683613227565b5050604051630b9dfbed60e11b81526001600160a01b0383169063173bf7da90611033908490600401614a31565b60605f6110b27f0bb70095b32b9671358306b0339b4c06e7cbd8cb82505941fba30d1eb5b82f018585612705565b336001600160a01b037f000000000000000000000000000000000000000000000000000000000000000016148061227e57503330145b61229b57604051635629665f60e11b815260040160405180910390fd5b611062848484846132cb565b5f600182036122b857506001919050565b600282036122c857506001919050565b600382036122d857506001919050565b600482036122e857506001919050565b816122f557506001919050565b505f919050565b919050565b6060604080513681016020019091529050601436018152365f602083013760408051601481019091523360601b905292915050565b5f6001850361234f57612348846123f5565b9050610961565b60028503612360576123488461339d565b600385036123dd575f6004831061238e5761237e60045f8587614d42565b6123879161520f565b9050612391565b505f5b6001600160e01b0319165f9081527f0bb70095b32b9671358306b0339b4c06e7cbd8cb82505941fba30d1eb5b82f0260205260409020546001600160a01b038581169116149050610961565b600485036123ee57612348846133b5565b505f610961565b5f6110c75f5160206153885f395f51905f5283612d18565b365f5f5f365f365f61241f8a8a6133ee565b909e509c50949a5092985090965094509250905061244a61244387878e8888613442565b83836134d7565b612480576040517f46fdc33300000000000000000000000000000000000000000000000000000000815260040160405180910390fd5b61248c85878686612835565b505050505050935093915050565b7f00000000000000000000000000000000000000000000000000000000000000007f000000000000000000000000000000000000000000000000000000000000000030147f00000000000000000000000000000000000000000000000000000000000000004614166110945750604080517f8b73c3c69bb8fe3d512ecc4cf759cc79239f7b179b0ffacaa9a75d522b39400f81527f000000000000000000000000000000000000000000000000000000000000000060208201527f00000000000000000000000000000000000000000000000000000000000000009181019190915246606082015230608082015260a0902090565b5f5160206153885f395f51905f526125c67f0bb70095b32b9671358306b0339b4c06e7cbd8cb82505941fba30d1eb5b82f016135eb565b610d03816135eb565b5f60016125eb815f5160206153885f395f51905f525b90612cc5565b6001600160a01b03161415801561094c57505f61261660015f5160206153885f395f51905f526125e5565b6001600160a01b03161415905090565b61262e61365f565b6126378361368e565b8260601b60601c92503d5f526352d1902d6001527f360894a13ba1a3210667c828492db98dca3e2076cc3735a920a3ca505d382bbc80602060016004601d885afa511461268c576355299b496001526004601dfd5b837fbc7cd75a20ee27fd9adebab32041f755214dbc6bffa90cc0225b39da2e5c2d3b5f38a2839055801561148057604051818382375f388383875af4611062573d5f823e3d81fd5b307f000000000000000000000000000000000000000000000000000000000000000014612703576127036136e1565b565b60605f6127138585856136ee565b90969095509350505050565b7f00000000000000000000000000000000000000000000000000000000000000007f000000000000000000000000000000000000000000000000000000000000000030147f00000000000000000000000000000000000000000000000000000000000000004614166128125750604080517f8b73c3c69bb8fe3d512ecc4cf759cc79239f7b179b0ffacaa9a75d522b39400f81527f000000000000000000000000000000000000000000000000000000000000000060208201527f00000000000000000000000000000000000000000000000000000000000000009181019190915246606082015230608082015260a090205b6719010000000000005f5280601a5281603a52604260182090505f603a52919050565b5f6128545f5160206153a85f395f51905f52546001600160a01b031690565b90506001600160a01b038116612903576001600160a01b03841661288b57604051635316c18d60e01b815260040160405180910390fd5b6001850361289e576116428484846138af565b600285036128b157611642848484613988565b600385036128c457611642848484613a46565b600485036128d757611642848484613d9a565b846128e757611642848484613ef1565b6040516304c1896960e11b81526004810186905260240161083c565b60405163d68f602560e01b81525f906001600160a01b0383169063d68f602590612937903390349086903690600401614ba0565b5f604051808303815f875af1158015612952573d5f5f3e3d5ffd5b505050506040513d5f823e601f3d908101601f191682016040526129799190810190614c68565b90506001600160a01b0385166129a257604051635316c18d60e01b815260040160405180910390fd5b600186036129b55761178d8585856138af565b600286036129c85761178d858585613988565b600386036129db5761178d858585613a46565b600486036129ee5761178d858585613d9a565b856129fe5761178d858585613ef1565b6040516304c1896960e11b81526004810187905260240161083c565b5f5160206153885f395f51905f525f80612a368585018661517c565b9092509050612a4683838861404a565b612a4e6125cf565b612a84576040517fcc319d8400000000000000000000000000000000000000000000000000000000815260040160405180910390fd5b61147a5a5f5f638a91b0e360e01b85604051602401612aa39190614a31565b60408051601f198184030181529190526020810180516001600160e01b03166001600160e01b0319909316929092179091526001600160a01b038b169392919061411d565b5f80612af68385018561517c565b91509150612b1d8286612b135f5160206153885f395f51905f5290565b600101919061404a565b6112e25a5f5f638a91b0e360e01b85604051602401612b3c9190614a31565b60408051601f198184030181529190526020810180516001600160e01b03166001600160e01b0319909316929092179091526001600160a01b038a169392919061411d565b604080518082019091525f80825260208201525f5160206153885f395f51905f526002015f612bb36004828688614d42565b612bbc9161520f565b6001600160e01b03191681526020808201929092526040015f2082518154939092015160f81c600160a01b0274ffffffffffffffffffffffffffffffffffffffffff199093166001600160a01b0390921691909117919091179055610def5a5f80638a91b0e360e01b612c32866004818a614d42565b604051602401612c43929190615244565b60408051601f198184030181529190526020810180516001600160e01b03166001600160e01b0319909316929092179091526001600160a01b0388169392919061411d565b5f5160206153a85f395f51905f5280546001600160a01b0319169055610def5a5f5f638a91b0e360e01b8686604051602401612c43929190615244565b5f6001600160a01b038216612cf857604051637c84ecfb60e01b81526001600160a01b038316600482015260240161083c565b506001600160a01b039081165f9081526020929092526040909120541690565b5f60016001600160a01b03831614801590610a895750506001600160a01b039081165f90815260209290925260409091205416151590565b5f546001600160a01b03168015611480576040517f96fb72170000000000000000000000000000000000000000000000000000000081526001600160a01b038481166004830152602482018490528216906396fb7217906044015f6040518083038186803b158015612dc0575f5ffd5b505afa1580156112e2573d5f5f3e3d5ffd5b60605f5f365f612de288886141a3565b6040805160018082528183019092529498509296509094509250816020015b6060815260200190600190039081612e0157509095505f90506001600160f81b03198716612e5757612e35858585856141f3565b865f81518110612e4757612e47615257565b6020026020010181905250612f1b565b6001600160f81b03198716600160f81b03612ef657612e7885858585614226565b875f81518110612e8a57612e8a615257565b6020908102919091010152905080612ef1577fb5282692b8c578af7fb880895d599035496b5e64d1f14bf428a1ed3bc406f6628383885f81518110612ed157612ed1615257565b6020026020010151604051612ee89392919061526b565b60405180910390a15b612f1b565b6040516308c3ee0360e11b81526001600160f81b03198816600482015260240161083c565b50505050509392505050565b6060833584016020810190356001600160f81b03198416612f5357612f4c8282614254565b9250612f97565b6001600160f81b03198416600160f81b03612f7257612f4c828261432a565b6040516308c3ee0360e11b81526001600160f81b03198516600482015260240161083c565b50509392505050565b60605f365f612faf8787614461565b6040805160018082528183019092529396509194509250816020015b6060815260200190600190039081612fcb57509094505f90506001600160f81b0319861661302057612ffe848484614497565b855f8151811061301057613010615257565b60200260200101819052506130e3565b6001600160f81b03198616600160f81b036130be576130408484846144c8565b865f8151811061305257613052615257565b60209081029190910101529050806130b9577f5bd4c60b4b38b664d8fb5944eb974e3d85083d79afe5ce934ccabcc913707c108383875f8151811061309957613099615257565b60200260200101516040516130b09392919061526b565b60405180910390a15b6130e3565b6040516308c3ee0360e11b81526001600160f81b03198716600482015260240161083c565b505050509392505050565b5f5f365f6130fc87876141a3565b929650909450925090506001600160f81b0319851661312657613121848484846144f4565b6112e2565b6001600160f81b03198516600160f81b03613195575f5f61314986868686614226565b915091508161318e577fb5282692b8c578af7fb880895d599035496b5e64d1f14bf428a1ed3bc406f6628484836040516131859392919061526b565b60405180910390a15b50506112e2565b6040516308c3ee0360e11b81526001600160f81b03198616600482015260240161083c565b823583016020810190356001600160f81b031983166131dd576116428282614518565b6001600160f81b03198316600160f81b03613202576131fc828261432a565b50610def565b6040516308c3ee0360e11b81526001600160f81b03198416600482015260240161083c565b5f365f6132348686614461565b919450925090506001600160f81b0319841661325a57613255838383614578565b6132c3565b6001600160f81b03198416600160f81b03612f72575f5f61327c8585856144c8565b915091508161147a577f5bd4c60b4b38b664d8fb5944eb974e3d85083d79afe5ce934ccabcc913707c108484836040516132b89392919061526b565b60405180910390a150505b505050505050565b5f80546001600160a01b0319166001600160a01b03861690811790915515613364576040517ff05c04e10000000000000000000000000000000000000000000000000000000081526001600160a01b0385169063f05c04e19061333690849087908790600401615290565b5f604051808303815f87803b15801561334d575f5ffd5b505af115801561335f573d5f5f3e3d5ffd5b505050505b6040516001600160a01b038516907ff98c8404c5b1bfef2e6ba9233c6e88845aedfd36eea8b192725d8c199571cf32905f90a250505050565b5f6110c7825f5160206153885f395f51905f52611d09565b5f816001600160a01b03166133de5f5160206153a85f395f51905f52546001600160a01b031690565b6001600160a01b03161492915050565b813560601c6014830135603880850190603486013560e090811c91603c838901818101939281013590921c9136915f9184018b9003016134308a82818e614d42565b92509250509295985092959890939650565b5f6040518060800160405280605b81526020016153c8605b91398051906020012086868686866040516134769291906151c9565b6040519081900381206134b695949392916020019485526001600160a01b0393909316602085015260408401919091526060830152608082015260a00190565b60405160208183030381529060405280519060200120905095945050505050565b5f806134e66014828587614d42565b6134ef91614d69565b60601c90506134fd816123f5565b6135255760405163342cf00f60e11b81526001600160a01b038216600482015260240161083c565b5f61352f8661271f565b90506001600160a01b03821663f551e2ee308361354f886014818c614d42565b6040518563ffffffff1660e01b815260040161356e9493929190614ba0565b602060405180830381865afa9250505080156135a7575060408051601f3d908101601f191682019092526135a491810190614db6565b60015b6135b5575f92505050610a89565b6001600160e01b0319167f1626ba7e00000000000000000000000000000000000000000000000000000000149250610a89915050565b60015f908152602082905260409020546001600160a01b03161561363b576040517f53c85e6600000000000000000000000000000000000000000000000000000000815260040160405180910390fd5b60015f818152602092909252604090912080546001600160a01b0319169091179055565b307f000000000000000000000000000000000000000000000000000000000000000003612703576127036136e1565b336001600160a01b037f00000000000000000000000000000000000000000000000000000000000000001614806136c457503330145b610d0357604051635629665f60e11b815260040160405180910390fd5b639f03a0265f526004601cfd5b60605f6001600160a01b03841660011480159061371257506137108585612d18565b155b1561373b57604051637c84ecfb60e01b81526001600160a01b038516600482015260240161083c565b825f03613774576040517ff725081700000000000000000000000000000000000000000000000000000000815260040160405180910390fd5b8267ffffffffffffffff81111561378d5761378d614bd2565b6040519080825280602002602001820160405280156137b6578160200160208202803683370190505b506001600160a01b038086165f90815260208890526040812054929450911691505b6001600160a01b038216158015906137fa57506001600160a01b038216600114155b801561380557508381105b1561385e578183828151811061381d5761381d615257565b6001600160a01b039283166020918202929092018101919091529281165f908152928790526040909220549091169080613856816152e7565b9150506137d8565b6001600160a01b03821660011480159061387757505f81115b156138a357826138886001836152ff565b8151811061389857613898615257565b602002602001015191505b80835250935093915050565b8260016138bc8282612d50565b60405163ecd0596160e01b8152600160048201526001600160a01b0386169063ecd0596190602401602060405180830381865afa1580156138ff573d5f5f3e3d5ffd5b505050506040513d601f19601f820116820180604052508101906139239190615312565b613943576040516369c9a24560e11b81526001600482015260240161083c565b61395a5f5160206153885f395f51905f528661459a565b6040516306d61fe760e41b81526001600160a01b03861690636d61fe70906110339087908790600401615244565b8260026139958282612d50565b60405163ecd0596160e01b8152600260048201526001600160a01b0386169063ecd0596190602401602060405180830381865afa1580156139d8573d5f5f3e3d5ffd5b505050506040513d601f19601f820116820180604052508101906139fc9190615312565b613a1c576040516369c9a24560e11b81526002600482015260240161083c565b61395a7f0bb70095b32b9671358306b0339b4c06e7cbd8cb82505941fba30d1eb5b82f018661459a565b826003613a538282612d50565b60405163ecd0596160e01b8152600360048201526001600160a01b0386169063ecd0596190602401602060405180830381865afa158015613a96573d5f5f3e3d5ffd5b505050506040513d601f19601f82011682018060405250810190613aba9190615312565b613ada576040516369c9a24560e11b81526003600482015260240161083c565b5f613ae86004828688614d42565b613af19161520f565b90505f85856004818110613b0757613b07615257565b909101356001600160f81b031916915050801580613b3257506001600160f81b03198116607f60f91b145b613b68576040517f867a1dcf00000000000000000000000000000000000000000000000000000000815260040160405180910390fd5b5f613b76866005818a614d42565b8080601f0160208091040260200160405190810160405280939291908181526020018383808284375f920191909152509293505050506001600160e01b031983166306d61fe760e41b1480613bdb57506001600160e01b03198316638a91b0e360e01b145b80613bee57506001600160e01b03198316155b15613c25576040517fc001660b00000000000000000000000000000000000000000000000000000000815260040160405180910390fd5b6001600160e01b031983165f9081527f0bb70095b32b9671358306b0339b4c06e7cbd8cb82505941fba30d1eb5b82f02602052604090205483906001600160a01b031615613cac576040517fa56a04dd0000000000000000000000000000000000000000000000000000000081526001600160e01b0319909116600482015260240161083c565b506040805180820182526001600160a01b038a81168083526001600160f81b0319861660208085019182526001600160e01b031989165f9081527f0bb70095b32b9671358306b0339b4c06e7cbd8cb82505941fba30d1eb5b82f0290915285902093518454915160f81c600160a01b0274ffffffffffffffffffffffffffffffffffffffffff199092169316929092179190911790915590516306d61fe760e41b8152636d61fe7090613d63908490600401614a31565b5f604051808303815f87803b158015613d7a575f5ffd5b505af1158015613d8c573d5f5f3e3d5ffd5b505050505050505050505050565b826004613da78282612d50565b60405163ecd0596160e01b81526004808201526001600160a01b0386169063ecd0596190602401602060405180830381865afa158015613de9573d5f5f3e3d5ffd5b505050506040513d601f19601f82011682018060405250810190613e0d9190615312565b613e2c576040516369c9a24560e11b815260048181015260240161083c565b5f613e4b5f5160206153a85f395f51905f52546001600160a01b031690565b9050806001600160a01b03811615613e9b576040517f741cbe030000000000000000000000000000000000000000000000000000000081526001600160a01b03909116600482015260240161083c565b505f5160206153a85f395f51905f5280546001600160a01b0319166001600160a01b0388161790556040516306d61fe760e41b81526001600160a01b03871690636d61fe70906117f79088908890600401615244565b813582016020818101913590848101358501908101903582818114613f42576040517fb4fa3fb300000000000000000000000000000000000000000000000000000000815260040160405180910390fd5b5f5b8181101561105c575f868683818110613f5f57613f5f615257565b90506020020135905060018103613fa257613f9d8a868685818110613f8657613f86615257565b9050602002810190613f989190614f1e565b6138af565b614041565b60028103613fd757613f9d8a868685818110613fc057613fc0615257565b9050602002810190613fd29190614f1e565b613988565b6003810361400c57613f9d8a868685818110613ff557613ff5615257565b90506020028101906140079190614f1e565b613a46565b60048103614041576140418a86868581811061402a5761402a615257565b905060200281019061403c9190614f1e565b613d9a565b50600101613f44565b6001600160a01b038116158061406957506001600160a01b0381166001145b1561409257604051637c84ecfb60e01b81526001600160a01b038316600482015260240161083c565b6001600160a01b038281165f908152602085905260409020548116908216146140d957604051637c84ecfb60e01b81526001600160a01b038216600482015260240161083c565b6001600160a01b039081165f8181526020949094526040808520805494841686529085208054949093166001600160a01b0319948516179092559092528154169055565b5f60605f5f5f8661ffff1667ffffffffffffffff81111561414057614140614bd2565b6040519080825280601f01601f19166020018201604052801561416a576020820181803683370190505b5090505f5f8751602089018b8e8ef191503d92508683111561418a578692505b828152825f602083013e90999098509650505050505050565b5f8036816141b46014828789614d42565b6141bd91614d69565b60601c93506141d0603460148789614d42565b6141d991615331565b92506141e88560348189614d42565b949793965094505050565b604051818382375f38838387895af161420e573d5f823e3d81fd5b3d8152602081013d5f823e3d01604052949350505050565b6040515f90828482375f388483888a5af191503d8152602081013d5f823e3d81016040525094509492505050565b60608167ffffffffffffffff81111561426f5761426f614bd2565b6040519080825280602002602001820160405280156142a257816020015b606081526020019060019003908161428d5790505b509050365f5b83811015614322578484828181106142c2576142c2615257565b90506020028101906142d4919061534e565b91506142fd6142e6602084018461536c565b60208401356142f86040860186614f1e565b6141f3565b83828151811061430f5761430f615257565b60209081029190910101526001016142a8565b505092915050565b60608167ffffffffffffffff81111561434557614345614bd2565b60405190808252806020026020018201604052801561437857816020015b60608152602001906001900390816143635790505b509050365f5b838110156143225784848281811061439857614398615257565b90506020028101906143aa919061534e565b91505f6143d46143bd602085018561536c565b60208501356143cf6040870187614f1e565b614226565b8584815181106143e6576143e6615257565b6020908102919091010152905080614458577fb5282692b8c578af7fb880895d599035496b5e64d1f14bf428a1ed3bc406f6626144266040850185614f1e565b86858151811061443857614438615257565b602002602001015160405161444f9392919061526b565b60405180910390a15b5060010161437e565b5f36816144716014828688614d42565b61447a91614d69565b60601c925061448c8460148188614d42565b915091509250925092565b604051818382375f388383875af46144b1573d5f823e3d81fd5b3d8152602081013d5f823e3d016040529392505050565b6040515f90828482375f388483885af491503d8152602081013d5f823e3d810160405250935093915050565b604051818382375f38838387895af161450f573d5f823e3d81fd5b01604052505050565b365f5b828110156110625783838281811061453557614535615257565b9050602002810190614547919061534e565b9150614570614559602084018461536c565b602084013561456b6040860186614f1e565b6144f4565b60010161451b565b604051818382375f388383875af4614592573d5f823e3d81fd5b016040525050565b6001600160a01b03811615806145b957506001600160a01b0381166001145b156145e257604051637c84ecfb60e01b81526001600160a01b038216600482015260240161083c565b6001600160a01b038181165f90815260208490526040902054161561463e576040517f40d3d1a40000000000000000000000000000000000000000000000000000000081526001600160a01b038216600482015260240161083c565b60015f818152602093909352604080842080546001600160a01b039485168087529286208054959091166001600160a01b03199586161790559190935280549091169091179055565b6001600160a01b0381168114610d03575f5ffd5b80356122fc81614687565b5f5f83601f8401126146b6575f5ffd5b50813567ffffffffffffffff8111156146cd575f5ffd5b6020830191508360208285010111156146e4575f5ffd5b9250929050565b5f5f5f5f606085870312156146fe575f5ffd5b84359350602085013561471081614687565b9250604085013567ffffffffffffffff81111561472b575f5ffd5b614737878288016146a6565b95989497509550505050565b5f5f5f60408486031215614755575f5ffd5b83359250602084013567ffffffffffffffff811115614772575f5ffd5b61477e868287016146a6565b9497909650939450505050565b5f610120828403121561479c575f5ffd5b50919050565b5f5f5f606084860312156147b4575f5ffd5b833567ffffffffffffffff8111156147ca575f5ffd5b6147d68682870161478b565b9660208601359650604090950135949350505050565b6001600160e01b031981168114610d03575f5ffd5b5f60208284031215614811575f5ffd5b8135610a89816147ec565b5f5f6020838503121561482d575f5ffd5b823567ffffffffffffffff811115614843575f5ffd5b612713858286016146a6565b5f5f60408385031215614860575f5ffd5b823561486b81614687565b946020939093013593505050565b5f5f5f6040848603121561488b575f5ffd5b833561489681614687565b9250602084013567ffffffffffffffff811115614772575f5ffd5b604080825283519082018190525f9060208501906060840190835b818110156148f35783516001600160a01b03168352602093840193909201916001016148cc565b505080925050506001600160a01b03831660208301529392505050565b5f60208284031215614920575f5ffd5b5035919050565b5f81518084528060208401602086015e5f602082860101526020601f19601f83011685010191505092915050565b6001600160f81b03198816815260e060208201525f61497760e0830189614927565b82810360408401526149898189614927565b606084018890526001600160a01b038716608085015260a0840186905283810360c0850152845180825260208087019350909101905f5b818110156149de5783518352602093840193909201916001016149c0565b50909b9a5050505050505050505050565b5f5f60408385031215614a00575f5ffd5b823567ffffffffffffffff811115614a16575f5ffd5b614a228582860161478b565b95602094909401359450505050565b602081525f610a896020830184614927565b5f602082016020835280845180835260408501915060408160051b8601019250602086015f5b82811015614a9a57603f19878603018452614a85858351614927565b94506020938401939190910190600101614a69565b50929695505050505050565b5f60208284031215614ab6575f5ffd5b813577ffffffffffffffffffffffffffffffffffffffffffffffff81168114610a89575f5ffd5b5f5f5f5f60608587031215614af0575f5ffd5b8435614afb81614687565b9350602085013567ffffffffffffffff811115614b16575f5ffd5b8501601f81018713614b26575f5ffd5b803567ffffffffffffffff811115614b3c575f5ffd5b8760208260051b8401011115614b50575f5ffd5b60209190910193509150604085013560ff81168114614b6d575f5ffd5b939692955090935050565b81835281816020850137505f828201602090810191909152601f909101601f19169091010190565b6001600160a01b0385168152836020820152606060408201525f614bc8606083018486614b78565b9695505050505050565b634e487b7160e01b5f52604160045260245ffd5b604051610120810167ffffffffffffffff81118282101715614c0a57614c0a614bd2565b60405290565b604051601f8201601f1916810167ffffffffffffffff81118282101715614c3957614c39614bd2565b604052919050565b5f67ffffffffffffffff821115614c5a57614c5a614bd2565b50601f01601f191660200190565b5f60208284031215614c78575f5ffd5b815167ffffffffffffffff811115614c8e575f5ffd5b8201601f81018413614c9e575f5ffd5b8051614cb1614cac82614c41565b614c10565b818152856020838501011115614cc5575f5ffd5b8160208401602083015e5f91810160200191909152949350505050565b5f82518060208501845e5f920191825250919050565b634e487b7160e01b5f52601160045260245ffd5b5f82614d2657634e487b7160e01b5f52601260045260245ffd5b500490565b80820281158282048414176110c7576110c7614cf8565b5f5f85851115614d50575f5ffd5b83861115614d5c575f5ffd5b5050820193919092039150565b80356bffffffffffffffffffffffff198116906014841015614daf576bffffffffffffffffffffffff196bffffffffffffffffffffffff198560140360031b1b82161691505b5092915050565b5f60208284031215614dc6575f5ffd5b8151610a89816147ec565b5f82601f830112614de0575f5ffd5b8135614dee614cac82614c41565b818152846020838601011115614e02575f5ffd5b816020850160208301375f918101602001919091529392505050565b5f6101208236031215614e2f575f5ffd5b614e37614be6565b614e408361469b565b815260208381013590820152604083013567ffffffffffffffff811115614e65575f5ffd5b614e7136828601614dd1565b604083015250606083013567ffffffffffffffff811115614e90575f5ffd5b614e9c36828601614dd1565b6060830152506080838101359082015260a0808401359082015260c0808401359082015260e083013567ffffffffffffffff811115614ed9575f5ffd5b614ee536828601614dd1565b60e08301525061010083013567ffffffffffffffff811115614f05575f5ffd5b614f1136828601614dd1565b6101008301525092915050565b5f5f8335601e19843603018112614f33575f5ffd5b83018035915067ffffffffffffffff821115614f4d575f5ffd5b6020019150368190038213156146e4575f5ffd5b60408152614f7b6040820184516001600160a01b03169052565b602083015160608201525f60408401516101206080840152614fa1610160840182614927565b90506060850151603f198483030160a0850152614fbe8282614927565b915050608085015160c084015260a085015160e084015260c085015161010084015260e0850151603f1984830301610120850152614ffc8282614927565b915050610100850151603f198483030161014085015261501c8282614927565b925050508260208301529392505050565b5f6020828403121561503d575f5ffd5b5051919050565b5f5f8335601e19843603018112615059575f5ffd5b830160208101925035905067ffffffffffffffff811115615078575f5ffd5b8036038213156146e4575f5ffd5b6150a0826150938361469b565b6001600160a01b03169052565b602081810135908301525f6150b86040830183615044565b61012060408601526150cf61012086018284614b78565b9150506150df6060840184615044565b85830360608701526150f2838284614b78565b6080868101359088015260a0808701359088015260c08087013590880152925061512291505060e0840184615044565b85830360e0870152615135838284614b78565b92505050615147610100840184615044565b858303610100870152614bc8838284614b78565b604081525f61516d6040830185615086565b90508260208301529392505050565b5f5f6040838503121561518d575f5ffd5b823561519881614687565b9150602083013567ffffffffffffffff8111156151b3575f5ffd5b6151bf85828601614dd1565b9150509250929050565b818382375f9101908152919050565b604081525f6151ea6040830185615086565b82810360208401526119f98185614927565b808201808211156110c7576110c7614cf8565b80356001600160e01b03198116906004841015614daf576001600160e01b0319808560040360031b1b82161691505092915050565b602081525f610961602083018486614b78565b634e487b7160e01b5f52603260045260245ffd5b604081525f61527e604083018587614b78565b8281036020840152614bc88185614927565b60ff8416815260406020820181905281018290525f8360608301825b858110156152dc5782356152bf81614687565b6001600160a01b03168252602092830192909101906001016152ac565b509695505050505050565b5f600182016152f8576152f8614cf8565b5060010190565b818103818111156110c7576110c7614cf8565b5f60208284031215615322575f5ffd5b81518015158114610a89575f5ffd5b803560208310156110c7575f19602084900360031b1b1692915050565b5f8235605e19833603018112615362575f5ffd5b9190910192915050565b5f6020828403121561537c575f5ffd5b8135610a898161468756fe0bb70095b32b9671358306b0339b4c06e7cbd8cb82505941fba30d1eb5b82f000bb70095b32b9671358306b0339b4c06e7cbd8cb82505941fba30d1eb5b82f034d6f64756c65456e61626c654d6f64652861646472657373206d6f64756c652c75696e74323536206d6f64756c65547970652c6279746573333220757365724f70486173682c6279746573333220696e6974446174614861736829a164736f6c634300081b000a","linkReferences":{}},"methodIdentifiers":{"DOMAIN_SEPARATOR()":"3644e515","accountId()":"9cfd7cff","addDeposit()":"4a58db19","checkERC7739Support(bytes32,bytes)":"b46b61a9","eip712Domain()":"84b0196e","emergencyUninstallHook(address,bytes)":"cd64f80a","entryPoint()":"b0d691fe","execute(bytes32,bytes)":"e9ae5c53","executeFromExecutor(bytes32,bytes)":"d691c964","executeUserOp((address,uint256,bytes,bytes,bytes32,uint256,bytes32,bytes,bytes),bytes32)":"8dd7712f","getActiveHook()":"0a664dba","getDeposit()":"c399ec88","getExecutorsPaginated(address,uint256)":"ea5f61d0","getFallbackHandlerBySelector(bytes4)":"481ddd23","getImplementation()":"aaf10f42","getValidatorsPaginated(address,uint256)":"5faac46b","hashTypedData(bytes32)":"6575f6aa","initializeAccount(bytes)":"4b6a1419","installModule(uint256,address,bytes)":"9517e29f","isModuleInstalled(uint256,address,bytes)":"112d3a7d","isValidSignature(bytes32,bytes)":"1626ba7e","nonce(uint192)":"d86f2b3c","proxiableUUID()":"52d1902d","registry()":"7b103999","setRegistry(address,address[],uint8)":"eab77e17","supportsExecutionMode(bytes32)":"d03c7914","supportsModule(uint256)":"f2dc691d","uninstallModule(uint256,address,bytes)":"a71763a8","upgradeToAndCall(address,bytes)":"4f1ef286","validateUserOp((address,uint256,bytes,bytes,bytes32,uint256,bytes32,bytes,bytes),bytes32,uint256)":"19822f7c","withdrawDepositTo(address,uint256)":"4d44560d"},"id":0}