{"abi":[{"type":"constructor","inputs":[{"name":"anEntryPoint","type":"address","internalType":"address"}],"stateMutability":"nonpayable"},{"type":"fallback","stateMutability":"payable"},{"type":"receive","stateMutability":"payable"},{"type":"function","name":"DOMAIN_SEPARATOR","inputs":[],"outputs":[{"name":"","type":"bytes32","internalType":"bytes32"}],"stateMutability":"view"},{"type":"function","name":"accountId","inputs":[],"outputs":[{"name":"","type":"string","internalType":"string"}],"stateMutability":"pure"},{"type":"function","name":"addDeposit","inputs":[],"outputs":[],"stateMutability":"payable"},{"type":"function","name":"checkERC7739Support","inputs":[{"name":"hash","type":"bytes32","internalType":"bytes32"},{"name":"signature","type":"bytes","internalType":"bytes"}],"outputs":[{"name":"","type":"bytes4","internalType":"bytes4"}],"stateMutability":"view"},{"type":"function","name":"eip712Domain","inputs":[],"outputs":[{"name":"fields","type":"bytes1","internalType":"bytes1"},{"name":"name","type":"string","internalType":"string"},{"name":"version","type":"string","internalType":"string"},{"name":"chainId","type":"uint256","internalType":"uint256"},{"name":"verifyingContract","type":"address","internalType":"address"},{"name":"salt","type":"bytes32","internalType":"bytes32"},{"name":"extensions","type":"uint256[]","internalType":"uint256[]"}],"stateMutability":"view"},{"type":"function","name":"emergencyUninstallHook","inputs":[{"name":"hook","type":"address","internalType":"address"},{"name":"deInitData","type":"bytes","internalType":"bytes"}],"outputs":[],"stateMutability":"payable"},{"type":"function","name":"entryPoint","inputs":[],"outputs":[{"name":"","type":"address","internalType":"address"}],"stateMutability":"view"},{"type":"function","name":"execute","inputs":[{"name":"mode","type":"bytes32","internalType":"ExecutionMode"},{"name":"executionCalldata","type":"bytes","internalType":"bytes"}],"outputs":[],"stateMutability":"payable"},{"type":"function","name":"executeFromExecutor","inputs":[{"name":"mode","type":"bytes32","internalType":"ExecutionMode"},{"name":"executionCalldata","type":"bytes","internalType":"bytes"}],"outputs":[{"name":"returnData","type":"bytes[]","internalType":"bytes[]"}],"stateMutability":"payable"},{"type":"function","name":"executeUserOp","inputs":[{"name":"userOp","type":"tuple","internalType":"struct PackedUserOperation","components":[{"name":"sender","type":"address","internalType":"address"},{"name":"nonce","type":"uint256","internalType":"uint256"},{"name":"initCode","type":"bytes","internalType":"bytes"},{"name":"callData","type":"bytes","internalType":"bytes"},{"name":"accountGasLimits","type":"bytes32","internalType":"bytes32"},{"name":"preVerificationGas","type":"uint256","internalType":"uint256"},{"name":"gasFees","type":"bytes32","internalType":"bytes32"},{"name":"paymasterAndData","type":"bytes","internalType":"bytes"},{"name":"signature","type":"bytes","internalType":"bytes"}]},{"name":"","type":"bytes32","internalType":"bytes32"}],"outputs":[],"stateMutability":"payable"},{"type":"function","name":"getActiveHook","inputs":[],"outputs":[{"name":"hook","type":"address","internalType":"address"}],"stateMutability":"view"},{"type":"function","name":"getDeposit","inputs":[],"outputs":[{"name":"result","type":"uint256","internalType":"uint256"}],"stateMutability":"view"},{"type":"function","name":"getExecutorsPaginated","inputs":[{"name":"cursor","type":"address","internalType":"address"},{"name":"size","type":"uint256","internalType":"uint256"}],"outputs":[{"name":"array","type":"address[]","internalType":"address[]"},{"name":"next","type":"address","internalType":"address"}],"stateMutability":"view"},{"type":"function","name":"getFallbackHandlerBySelector","inputs":[{"name":"selector","type":"bytes4","internalType":"bytes4"}],"outputs":[{"name":"","type":"bytes1","internalType":"CallType"},{"name":"","type":"address","internalType":"address"}],"stateMutability":"view"},{"type":"function","name":"getImplementation","inputs":[],"outputs":[{"name":"implementation","type":"address","internalType":"address"}],"stateMutability":"view"},{"type":"function","name":"getValidatorsPaginated","inputs":[{"name":"cursor","type":"address","internalType":"address"},{"name":"size","type":"uint256","internalType":"uint256"}],"outputs":[{"name":"array","type":"address[]","internalType":"address[]"},{"name":"next","type":"address","internalType":"address"}],"stateMutability":"view"},{"type":"function","name":"hashTypedData","inputs":[{"name":"structHash","type":"bytes32","internalType":"bytes32"}],"outputs":[{"name":"","type":"bytes32","internalType":"bytes32"}],"stateMutability":"view"},{"type":"function","name":"initializeAccount","inputs":[{"name":"initData","type":"bytes","internalType":"bytes"}],"outputs":[],"stateMutability":"payable"},{"type":"function","name":"installModule","inputs":[{"name":"moduleTypeId","type":"uint256","internalType":"uint256"},{"name":"module","type":"address","internalType":"address"},{"name":"initData","type":"bytes","internalType":"bytes"}],"outputs":[],"stateMutability":"payable"},{"type":"function","name":"isModuleInstalled","inputs":[{"name":"moduleTypeId","type":"uint256","internalType":"uint256"},{"name":"module","type":"address","internalType":"address"},{"name":"additionalContext","type":"bytes","internalType":"bytes"}],"outputs":[{"name":"","type":"bool","internalType":"bool"}],"stateMutability":"view"},{"type":"function","name":"isValidSignature","inputs":[{"name":"hash","type":"bytes32","internalType":"bytes32"},{"name":"signature","type":"bytes","internalType":"bytes"}],"outputs":[{"name":"","type":"bytes4","internalType":"bytes4"}],"stateMutability":"view"},{"type":"function","name":"nonce","inputs":[{"name":"key","type":"uint192","internalType":"uint192"}],"outputs":[{"name":"","type":"uint256","internalType":"uint256"}],"stateMutability":"view"},{"type":"function","name":"proxiableUUID","inputs":[],"outputs":[{"name":"","type":"bytes32","internalType":"bytes32"}],"stateMutability":"view"},{"type":"function","name":"registry","inputs":[],"outputs":[{"name":"","type":"address","internalType":"contract IERC7484"}],"stateMutability":"view"},{"type":"function","name":"setRegistry","inputs":[{"name":"newRegistry","type":"address","internalType":"contract IERC7484"},{"name":"attesters","type":"address[]","internalType":"address[]"},{"name":"threshold","type":"uint8","internalType":"uint8"}],"outputs":[],"stateMutability":"payable"},{"type":"function","name":"supportsExecutionMode","inputs":[{"name":"mode","type":"bytes32","internalType":"ExecutionMode"}],"outputs":[{"name":"isSupported","type":"bool","internalType":"bool"}],"stateMutability":"view"},{"type":"function","name":"supportsModule","inputs":[{"name":"moduleTypeId","type":"uint256","internalType":"uint256"}],"outputs":[{"name":"","type":"bool","internalType":"bool"}],"stateMutability":"view"},{"type":"function","name":"uninstallModule","inputs":[{"name":"moduleTypeId","type":"uint256","internalType":"uint256"},{"name":"module","type":"address","internalType":"address"},{"name":"deInitData","type":"bytes","internalType":"bytes"}],"outputs":[],"stateMutability":"payable"},{"type":"function","name":"upgradeToAndCall","inputs":[{"name":"newImplementation","type":"address","internalType":"address"},{"name":"data","type":"bytes","internalType":"bytes"}],"outputs":[],"stateMutability":"payable"},{"type":"function","name":"validateUserOp","inputs":[{"name":"op","type":"tuple","internalType":"struct PackedUserOperation","components":[{"name":"sender","type":"address","internalType":"address"},{"name":"nonce","type":"uint256","internalType":"uint256"},{"name":"initCode","type":"bytes","internalType":"bytes"},{"name":"callData","type":"bytes","internalType":"bytes"},{"name":"accountGasLimits","type":"bytes32","internalType":"bytes32"},{"name":"preVerificationGas","type":"uint256","internalType":"uint256"},{"name":"gasFees","type":"bytes32","internalType":"bytes32"},{"name":"paymasterAndData","type":"bytes","internalType":"bytes"},{"name":"signature","type":"bytes","internalType":"bytes"}]},{"name":"userOpHash","type":"bytes32","internalType":"bytes32"},{"name":"missingAccountFunds","type":"uint256","internalType":"uint256"}],"outputs":[{"name":"validationData","type":"uint256","internalType":"uint256"}],"stateMutability":"nonpayable"},{"type":"function","name":"withdrawDepositTo","inputs":[{"name":"to","type":"address","internalType":"address"},{"name":"amount","type":"uint256","internalType":"uint256"}],"outputs":[],"stateMutability":"payable"},{"type":"event","name":"ERC7484RegistryConfigured","inputs":[{"name":"registry","type":"address","indexed":true,"internalType":"contract IERC7484"}],"anonymous":false},{"type":"event","name":"EmergencyHookUninstallRequest","inputs":[{"name":"hook","type":"address","indexed":false,"internalType":"address"},{"name":"timestamp","type":"uint256","indexed":false,"internalType":"uint256"}],"anonymous":false},{"type":"event","name":"EmergencyHookUninstallRequestReset","inputs":[{"name":"hook","type":"address","indexed":false,"internalType":"address"},{"name":"timestamp","type":"uint256","indexed":false,"internalType":"uint256"}],"anonymous":false},{"type":"event","name":"Executed","inputs":[{"name":"userOp","type":"tuple","indexed":false,"internalType":"struct PackedUserOperation","components":[{"name":"sender","type":"address","internalType":"address"},{"name":"nonce","type":"uint256","internalType":"uint256"},{"name":"initCode","type":"bytes","internalType":"bytes"},{"name":"callData","type":"bytes","internalType":"bytes"},{"name":"accountGasLimits","type":"bytes32","internalType":"bytes32"},{"name":"preVerificationGas","type":"uint256","internalType":"uint256"},{"name":"gasFees","type":"bytes32","internalType":"bytes32"},{"name":"paymasterAndData","type":"bytes","internalType":"bytes"},{"name":"signature","type":"bytes","internalType":"bytes"}]},{"name":"innerCallRet","type":"bytes","indexed":false,"internalType":"bytes"}],"anonymous":false},{"type":"event","name":"ModuleInstalled","inputs":[{"name":"moduleTypeId","type":"uint256","indexed":false,"internalType":"uint256"},{"name":"module","type":"address","indexed":false,"internalType":"address"}],"anonymous":false},{"type":"event","name":"ModuleUninstalled","inputs":[{"name":"moduleTypeId","type":"uint256","indexed":false,"internalType":"uint256"},{"name":"module","type":"address","indexed":false,"internalType":"address"}],"anonymous":false},{"type":"event","name":"TryDelegateCallUnsuccessful","inputs":[{"name":"callData","type":"bytes","indexed":false,"internalType":"bytes"},{"name":"result","type":"bytes","indexed":false,"internalType":"bytes"}],"anonymous":false},{"type":"event","name":"TryExecuteUnsuccessful","inputs":[{"name":"callData","type":"bytes","indexed":false,"internalType":"bytes"},{"name":"result","type":"bytes","indexed":false,"internalType":"bytes"}],"anonymous":false},{"type":"event","name":"Upgraded","inputs":[{"name":"implementation","type":"address","indexed":true,"internalType":"address"}],"anonymous":false},{"type":"error","name":"AccountAccessUnauthorized","inputs":[]},{"type":"error","name":"CanNotRemoveLastValidator","inputs":[]},{"type":"error","name":"EmergencyTimeLockNotExpired","inputs":[]},{"type":"error","name":"EnableModeSigError","inputs":[]},{"type":"error","name":"EntryPointCanNotBeZero","inputs":[]},{"type":"error","name":"ExecutionFailed","inputs":[]},{"type":"error","name":"FallbackAlreadyInstalledForSelector","inputs":[{"name":"selector","type":"bytes4","internalType":"bytes4"}]},{"type":"error","name":"FallbackCallTypeInvalid","inputs":[]},{"type":"error","name":"FallbackHandlerUninstallFailed","inputs":[]},{"type":"error","name":"FallbackNotInstalledForSelector","inputs":[{"name":"selector","type":"bytes4","internalType":"bytes4"}]},{"type":"error","name":"FallbackSelectorForbidden","inputs":[]},{"type":"error","name":"HookAlreadyInstalled","inputs":[{"name":"currentHook","type":"address","internalType":"address"}]},{"type":"error","name":"HookPostCheckFailed","inputs":[]},{"type":"error","name":"ImplementationIsNotAContract","inputs":[]},{"type":"error","name":"InnerCallFailed","inputs":[]},{"type":"error","name":"InvalidImplementationAddress","inputs":[]},{"type":"error","name":"InvalidInput","inputs":[]},{"type":"error","name":"InvalidModule","inputs":[{"name":"module","type":"address","internalType":"address"}]},{"type":"error","name":"InvalidModuleTypeId","inputs":[{"name":"moduleTypeId","type":"uint256","internalType":"uint256"}]},{"type":"error","name":"LinkedList_AlreadyInitialized","inputs":[]},{"type":"error","name":"LinkedList_EntryAlreadyInList","inputs":[{"name":"entry","type":"address","internalType":"address"}]},{"type":"error","name":"LinkedList_InvalidEntry","inputs":[{"name":"entry","type":"address","internalType":"address"}]},{"type":"error","name":"LinkedList_InvalidPage","inputs":[]},{"type":"error","name":"MismatchModuleTypeId","inputs":[{"name":"moduleTypeId","type":"uint256","internalType":"uint256"}]},{"type":"error","name":"MissingFallbackHandler","inputs":[{"name":"selector","type":"bytes4","internalType":"bytes4"}]},{"type":"error","name":"ModuleAddressCanNotBeZero","inputs":[]},{"type":"error","name":"ModuleAlreadyInstalled","inputs":[{"name":"moduleTypeId","type":"uint256","internalType":"uint256"},{"name":"module","type":"address","internalType":"address"}]},{"type":"error","name":"ModuleNotInstalled","inputs":[{"name":"moduleTypeId","type":"uint256","internalType":"uint256"},{"name":"module","type":"address","internalType":"address"}]},{"type":"error","name":"NexusInitializationFailed","inputs":[]},{"type":"error","name":"NoValidatorInstalled","inputs":[]},{"type":"error","name":"UnauthorizedCallContext","inputs":[]},{"type":"error","name":"UnauthorizedOperation","inputs":[{"name":"operator","type":"address","internalType":"address"}]},{"type":"error","name":"UnsupportedCallType","inputs":[{"name":"callType","type":"bytes1","internalType":"CallType"}]},{"type":"error","name":"UnsupportedExecType","inputs":[{"name":"execType","type":"bytes1","internalType":"ExecType"}]},{"type":"error","name":"UnsupportedModuleType","inputs":[{"name":"moduleTypeId","type":"uint256","internalType":"uint256"}]},{"type":"error","name":"UpgradeFailed","inputs":[]},{"type":"error","name":"ValidatorNotInstalled","inputs":[{"name":"module","type":"address","internalType":"address"}]}],"bytecode":{"object":"0x6101606040523061014052348015610015575f5ffd5b50604051615758380380615758833981016040819052610034916101d4565b306080524660a05260608061007d6040805180820182526005808252644e6578757360d81b602080840191909152835180850190945290835264312e302e3160d81b9083015291565b815160209283012081519183019190912060c082905260e0819052604080517f8b73c3c69bb8fe3d512ecc4cf759cc79239f7b179b0ffacaa9a75d522b39400f8152938401929092529082015246606082015230608082015260a090206101005250506001600160a01b038116610107576040516307e355bf60e31b815260040160405180910390fd5b6001600160a01b0381166101205261011d610123565b50610201565b7f0bb70095b32b9671358306b0339b4c06e7cbd8cb82505941fba30d1eb5b82f0061016d7f0bb70095b32b9671358306b0339b4c06e7cbd8cb82505941fba30d1eb5b82f01610179565b61017681610179565b50565b60015f908152602082905260409020546001600160a01b0316156101b0576040516329e42f3360e11b815260040160405180910390fd5b60015f818152602092909252604090912080546001600160a01b0319169091179055565b5f602082840312156101e4575f5ffd5b81516001600160a01b03811681146101fa575f5ffd5b9392505050565b60805160a05160c05160e0516101005161012051610140516154816102d75f395f81816110ad015261269901525f818161062a01528181610adf01528181610d1601528181610e4301528181610e8e015281816111f001528181611500015281816115a601528181611a7701528181611ac701528181612033015281816120af015281816122c401526136e201525f818161250d015261278b01525f81816125c7015261284501525f81816125a1015261281f01525f818161255101526127cf01525f818161252e01526127ac01526154815ff3fe6080604052600436106101db575f3560e01c80638dd7712f11610101578063cd64f80a11610094578063e9ae5c5311610063578063e9ae5c53146106f2578063ea5f61d014610705578063eab77e1714610724578063f2dc691d14610737576101e2565b8063cd64f80a14610681578063d03c791414610694578063d691c964146106b3578063d86f2b3c146106d3576101e2565b8063aaf10f42116100d0578063aaf10f4214610608578063b0d691fe1461061c578063b46b61a91461064e578063c399ec881461066d576101e2565b80638dd7712f146105845780639517e29f146105975780639cfd7cff146105aa578063a71763a8146105f5576101e2565b80634b6a1419116101795780635faac46b116101485780635faac46b146104f35780636575f6aa146105205780637b1039991461053f57806384b0196e1461055d576101e2565b80634b6a1419146104a65780634d44560d146104b95780634f1ef286146104cc57806352d1902d146104df576101e2565b806319822f7c116101b557806319822f7c146103a95780633644e515146103d6578063481ddd23146103ea5780634a58db191461049c576101e2565b80630a664dba14610311578063112d3a7d146103425780631626ba7e14610371576101e2565b366101e257005b5f3660605f6102055f5160206153fa5f395f51905f52546001600160a01b031690565b90506001600160a01b0381166102265761021f8484610756565b9150610305565b60405163d68f602560e01b81525f906001600160a01b0383169063d68f60259061025a903390349086903690600401614708565b5f604051808303815f875af1158015610275573d5f5f3e3d5ffd5b505050506040513d5f823e601f3d908101601f1916820160405261029c91908101906147d0565b90506102a88585610756565b9250604051630b9dfbed60e11b81526001600160a01b0383169063173bf7da906102d6908490600401614878565b5f604051808303815f87803b1580156102ed575f5ffd5b505af11580156102ff573d5f5f3e3d5ffd5b50505050505b50915050805190602001f35b34801561031c575f5ffd5b5061032561096f565b6040516001600160a01b0390911681526020015b60405180910390f35b34801561034d575f5ffd5b5061036161035c3660046148e7565b610993565b6040519015158152602001610339565b34801561037c575f5ffd5b5061039061038b36600461493f565b6109ab565b6040516001600160e01b03199091168152602001610339565b3480156103b4575f5ffd5b506103c86103c336600461499e565b610ad2565b604051908152602001610339565b3480156103e1575f5ffd5b506103c8610d0b565b3480156103f5575f5ffd5b506104746104043660046149fd565b6001600160e01b0319165f9081527f0bb70095b32b9671358306b0339b4c06e7cbd8cb82505941fba30d1eb5b82f0260209081526040918290208251808401909352546001600160a01b038116808452600160a01b90910460f81b6001600160f81b031916929091018290529091565b604080516001600160f81b031990931683526001600160a01b03909116602083015201610339565b6104a4610d14565b005b6104a46104b4366004614a18565b610d48565b6104a46104c7366004614a4b565b610e38565b6104a46104da366004614a75565b610eed565b3480156104ea575f5ffd5b506103c86110aa565b3480156104fe575f5ffd5b5061051261050d366004614a4b565b611107565b604051610339929190614aad565b34801561052b575f5ffd5b506103c861053a366004614b0c565b61112d565b34801561054a575f5ffd5b505f54610325906001600160a01b031681565b348015610568575f5ffd5b5061057161113d565b6040516103399796959493929190614b23565b6104a4610592366004614bbd565b6111e5565b6104a46105a53660046148e7565b6114f5565b3480156105b5575f5ffd5b50604080518082018252601481527f6269636f6e6f6d792e6e657875732e312e302e30000000000000000000000000602082015290516103399190614878565b6104a46106033660046148e7565b61159b565b348015610613575f5ffd5b5061032561189c565b348015610627575f5ffd5b507f0000000000000000000000000000000000000000000000000000000000000000610325565b348015610659575f5ffd5b5061039061066836600461493f565b6118d3565b348015610678575f5ffd5b506103c8611a73565b6104a461068f366004614a75565b611abc565b34801561069f575f5ffd5b506103616106ae366004614b0c565b611cf7565b6106c66106c136600461493f565b611d65565b6040516103399190614bff565b3480156106de575f5ffd5b506103c86106ed366004614c62565b611fe3565b6104a461070036600461493f565b6120a4565b348015610710575f5ffd5b5061051261071f366004614a4b565b61228b565b6104a4610732366004614c99565b6122b9565b348015610742575f5ffd5b50610361610751366004614b0c565b612318565b5f80356001600160e01b03191681527f0bb70095b32b9671358306b0339b4c06e7cbd8cb82505941fba30d1eb5b82f0260205260408120805460609291906001600160a01b03811690600160a01b900460f81b81156108d3576001600160f81b03198116607f60f91b0361082c57816001600160a01b03166107d88888612372565b6040516107e59190614d34565b5f60405180830381855afa9150503d805f811461081d576040519150601f19603f3d011682016040523d82523d5f602084013e610822565b606091505b50955093506108c1565b6001600160f81b0319811661089757816001600160a01b0316346108508989612372565b60405161085d9190614d34565b5f6040518083038185875af1925050503d805f811461081d576040519150601f19603f3d011682016040523d82523d5f602084013e610822565b604051632e5bf3f960e21b81526001600160f81b0319821660048201526024015b60405180910390fd5b836108ce57845160208601fd5b610965565b5f3560e01c63150b7a02811463f23a6e61821463bc197c81831417171561091257600194506040519550600486528060e01b6020870152602486016040525b6001600160e01b03195f351685610962576040517f08c63e270000000000000000000000000000000000000000000000000000000081526001600160e01b031990911660048201526024016108b8565b50505b5050505092915050565b5f61098e5f5160206153fa5f395f51905f52546001600160a01b031690565b905090565b5f6109a0858585856123a7565b90505b949350505050565b5f8181036109e4576109c061ffff8319614d5e565b6109cc90617739614d7d565b84036109e4576109dd8484846118d3565b9050610acb565b5f6109f26014828587614d94565b6109fb91614dbb565b60601c9050610a0981612466565b8190610a345760405163342cf00f60e11b81526001600160a01b0390911660048201526024016108b8565b506001600160a01b03811663f551e2ee3387610a53876014818b614d94565b6040518563ffffffff1660e01b8152600401610a729493929190614708565b602060405180830381865afa925050508015610aab575060408051601f3d908101601f19168201909252610aa891810190614e08565b60015b610ac057506001600160e01b03199050610acb565b9150610acb9050565b505b9392505050565b5f81336001600160a01b037f00000000000000000000000000000000000000000000000000000000000000001614610b1d57604051635629665f60e11b815260040160405180910390fd5b5f602086013560401c6001600160a01b03169050600160f81b602087013560031a60f81b03610c4d575f610b5087614e70565b9050610b6986610b646101008a018a614f70565b61247e565b8080601f0160208091040260200160405190810160405280939291908181526020018383808284375f92019190915250505050610100820152610bab82612466565b8290610bd65760405163342cf00f60e11b81526001600160a01b0390911660048201526024016108b8565b50604051639700320360e01b81526001600160a01b03831690639700320390610c059084908a90600401614fb3565b6020604051808303815f875af1158015610c21573d5f5f3e3d5ffd5b505050506040513d601f19601f82011682018060405250810190610c45919061507f565b935050610cf3565b610c5681612466565b8190610c815760405163342cf00f60e11b81526001600160a01b0390911660048201526024016108b8565b50604051639700320360e01b81526001600160a01b03821690639700320390610cb090899089906004016151ad565b6020604051808303815f875af1158015610ccc573d5f5f3e3d5ffd5b505050506040513d601f19601f82011682018060405250810190610cf0919061507f565b92505b508015610ac9575f385f3884335af150509392505050565b5f61098e61250b565b7f00000000000000000000000000000000000000000000000000000000000000005f38818134855af1610d45575f38fd5b50565b610d50612600565b5f80610d5e838501856151ce565b915091505f826001600160a01b031682604051610d7b9190614d34565b5f60405180830381855af49150503d805f8114610db3576040519150601f19603f3d011682016040523d82523d5f602084013e610db8565b606091505b5050905080610df3576040517f315927c500000000000000000000000000000000000000000000000000000000815260040160405180910390fd5b610dfb612640565b610e31576040517fc4d0a0b100000000000000000000000000000000000000000000000000000000815260040160405180910390fd5b5050505050565b336001600160a01b037f0000000000000000000000000000000000000000000000000000000000000000161480610e6e57503330145b610e8b57604051635629665f60e11b815260040160405180910390fd5b5f7f0000000000000000000000000000000000000000000000000000000000000000905060405183601452826034526f205c28780000000000000000000000005f525f38604460105f865af1610ee3573d5f823e3d81fd5b505f603452505050565b5f610f0c5f5160206153fa5f395f51905f52546001600160a01b031690565b90506001600160a01b038116610f79576001600160a01b038416610f435760405163325c055b60e21b815260040160405180910390fd5b833b151580610f655760405163325c055b60e21b815260040160405180910390fd5b843055610f73858585612697565b506110a4565b60405163d68f602560e01b81525f906001600160a01b0383169063d68f602590610fad903390349086903690600401614708565b5f604051808303815f875af1158015610fc8573d5f5f3e3d5ffd5b505050506040513d5f823e601f3d908101601f19168201604052610fef91908101906147d0565b90506001600160a01b0385166110185760405163325c055b60e21b815260040160405180910390fd5b843b15158061103a5760405163325c055b60e21b815260040160405180910390fd5b853055611048868686612697565b50604051630b9dfbed60e11b81526001600160a01b0383169063173bf7da90611075908490600401614878565b5f604051808303815f87803b15801561108c575f5ffd5b505af115801561109e573d5f5f3e3d5ffd5b50505050505b50505050565b5f7f00000000000000000000000000000000000000000000000000000000000000003081146110e057639f03a0265f526004601cfd5b7f360894a13ba1a3210667c828492db98dca3e2076cc3735a920a3ca505d382bbc91505090565b60605f6111225f5160206153da5f395f51905f52858561276f565b909590945092505050565b5f61113782612789565b92915050565b7f0f000000000000000000000000000000000000000000000000000000000000006060805f8080836111d360408051808201825260058082527f4e6578757300000000000000000000000000000000000000000000000000000060208084019190915283518085019094529083527f312e302e310000000000000000000000000000000000000000000000000000009083015291565b97989097965046955030945091925090565b336001600160a01b037f0000000000000000000000000000000000000000000000000000000000000000161461122e57604051635629665f60e11b815260040160405180910390fd5b5f61124d5f5160206153fa5f395f51905f52546001600160a01b031690565b90506001600160a01b03811661135b57365f61126c6060860186614f70565b61127a916004908290614d94565b915091505f5f306001600160a01b0316848460405161129a92919061521b565b5f60405180830381855af49150503d805f81146112d2576040519150601f19603f3d011682016040523d82523d5f602084013e6112d7565b606091505b50915091508115611320577fd3fddfd1276d1cc278f10907710a44474a32f917b2fcfa198f46ca7689215e2f878260405161131392919061522a565b60405180910390a1611352565b6040517facfdb44400000000000000000000000000000000000000000000000000000000815260040160405180910390fd5b50505050505050565b60405163d68f602560e01b81525f906001600160a01b0383169063d68f60259061138f903390349086903690600401614708565b5f604051808303815f875af11580156113aa573d5f5f3e3d5ffd5b505050506040513d5f823e601f3d908101601f191682016040526113d191908101906147d0565b9050365f6113e26060870187614f70565b6113f0916004908290614d94565b915091505f5f306001600160a01b0316848460405161141092919061521b565b5f60405180830381855af49150503d805f8114611448576040519150601f19603f3d011682016040523d82523d5f602084013e61144d565b606091505b50915091508115611320577fd3fddfd1276d1cc278f10907710a44474a32f917b2fcfa198f46ca7689215e2f888260405161148992919061522a565b60405180910390a15050604051630b9dfbed60e11b81526001600160a01b038516925063173bf7da91506114c1908490600401614878565b5f604051808303815f87803b1580156114d8575f5ffd5b505af11580156114ea573d5f5f3e3d5ffd5b50505050505b505050565b336001600160a01b037f000000000000000000000000000000000000000000000000000000000000000016148061152b57503330145b61154857604051635629665f60e11b815260040160405180910390fd5b6115548484848461289f565b604080518581526001600160a01b03851660208201527fd21d0b289f126c4b473ea641963e766833c2f13866e4ff480abd787c100ef123910160405180910390a150505050565b336001600160a01b037f00000000000000000000000000000000000000000000000000000000000000001614806115d157503330145b6115ee57604051635629665f60e11b815260040160405180910390fd5b5f61160d5f5160206153fa5f395f51905f52546001600160a01b031690565b90506001600160a01b0381166116f057611629858585856123a7565b8585909161165c57604051635f300b3960e11b815260048101929092526001600160a01b031660248201526044016108b8565b5050604080518681526001600160a01b03861660208201527f341347516a9de374859dfda710fa4828b2d48cb57d4fbe4c1149612b8e02276e910160405180910390a1600185036116b7576116b2848484612a84565b610e31565b600285036116ca576116b2848484612b52565b600385036116dd576116b2848484612beb565b600485036116b2576116b2848484612cf2565b60405163d68f602560e01b81525f906001600160a01b0383169063d68f602590611724903390349086903690600401614708565b5f604051808303815f875af115801561173f573d5f5f3e3d5ffd5b505050506040513d5f823e601f3d908101601f1916820160405261176691908101906147d0565b9050611774868686866123a7565b868690916117a757604051635f300b3960e11b815260048101929092526001600160a01b031660248201526044016108b8565b5050604080518781526001600160a01b03871660208201527f341347516a9de374859dfda710fa4828b2d48cb57d4fbe4c1149612b8e02276e910160405180910390a160018603611802576117fd858585612a84565b61183b565b60028603611815576117fd858585612b52565b60038603611828576117fd858585612beb565b6004860361183b5761183b858585612cf2565b604051630b9dfbed60e11b81526001600160a01b0383169063173bf7da90611867908490600401614878565b5f604051808303815f87803b15801561187e575f5ffd5b505af1158015611890573d5f5f3e3d5ffd5b50505050505050505050565b7f360894a13ba1a3210667c828492db98dca3e2076cc3735a920a3ca505d382bbc546001600160a01b0381166118d0575030545b90565b60015f9081525f5160206153da5f395f51905f5260208190527ffe44ceacbf4f03c6ac19f86826dd265fa9ec25125e8b1766c207f24cd3bc73c7548291906001600160a01b03165b6001600160a01b0381161580159061193d57506001600160a01b038116600114155b15611a48576040517ff551e2ee0000000000000000000000000000000000000000000000000000000081525f906001600160a01b0383169063f551e2ee9061198f9033908c908c908c90600401614708565b602060405180830381865afa1580156119aa573d5f5f3e3d5ffd5b505050506040513d601f19601f820116820180604052508101906119ce9190614e08565b90507fffff00000000000000000000000000000000000000000000000000000000000081167f7739000000000000000000000000000000000000000000000000000000000000148015611a2d57506001600160e01b0319808516908216115b15611a36578093505b611a408383612d2f565b91505061191b565b50506001600160e01b0319811615611a605780611a6a565b6001600160e01b03195b95945050505050565b5f5f7f00000000000000000000000000000000000000000000000000000000000000009050306020526370a082315f526020806024601c845afa601f3d11166020510291505090565b336001600160a01b037f00000000000000000000000000000000000000000000000000000000000000001614611b0557604051635629665f60e11b815260040160405180910390fd5b611b1260048484846123a7565b6004849091611b4657604051635f300b3960e11b815260048101929092526001600160a01b031660248201526044016108b8565b50505f611b5d5f5160206153da5f395f51905f5290565b6001600160a01b0385165f908152600482016020526040812054919250819003611bdd576001600160a01b0385165f81815260048401602090815260409182902042908190558251938452908301527f2841d18703faaff388732165e48fe431468531b1b1e626b1b7cbcbfc0d79c74091015b60405180910390a1610e31565b611beb620151806003614d7d565b611bf5908261524e565b4210611c4e576001600160a01b0385165f81815260048401602090815260409182902042908190558251938452908301527fcbd44a75f6935b5837022648b6c8487db984701200c5381c7c0f8c2b1d69b9da9101611bd0565b611c5b620151808261524e565b4210611cc5576001600160a01b0385165f908152600483016020526040812055611c86858585612cf2565b60408051600481526001600160a01b03871660208201527f341347516a9de374859dfda710fa4828b2d48cb57d4fbe4c1149612b8e02276e9101611bd0565b6040517f07f2f2d200000000000000000000000000000000000000000000000000000000815260040160405180910390fd5b5f81600881901b6001600160f81b031982161580611d2257506001600160f81b03198216600160f81b145b80611d3657506001600160f81b0319808316145b80156109a357506001600160f81b0319811615806109a357506001600160f81b03198116600160f81b146109a3565b6060611d83335f5160206153da5f395f51905f525b60010190612d82565b3390611dc7576040517fb927fe5e0000000000000000000000000000000000000000000000000000000081526001600160a01b0390911660048201526024016108b8565b505f611de75f5160206153fa5f395f51905f52546001600160a01b031690565b90506001600160a01b038116611e9557336002611e048282612dba565b86600881901b6001600160f81b03198216611e2b57611e24888883612e3c565b9550611e8c565b6001600160f81b03198216600160f81b03611e4b57611e24888883612f91565b6001600160f81b031980831603611e6757611e24888883613011565b604051632e5bf3f960e21b81526001600160f81b0319831660048201526024016108b8565b50505050610ac9565b60405163d68f602560e01b81525f906001600160a01b0383169063d68f602590611ec9903390349086903690600401614708565b5f604051808303815f875af1158015611ee4573d5f5f3e3d5ffd5b505050506040513d5f823e601f3d908101601f19168201604052611f0b91908101906147d0565b9050336002611f1a8282612dba565b87600881901b6001600160f81b03198216611f4157611f3a898983612e3c565b9650611f7d565b6001600160f81b03198216600160f81b03611f6157611f3a898983612f91565b6001600160f81b031980831603611e6757611f3a898983613011565b5050604051630b9dfbed60e11b81526001600160a01b038516925063173bf7da9150611fad908490600401614878565b5f604051808303815f87803b158015611fc4575f5ffd5b505af1158015611fd6573d5f5f3e3d5ffd5b5050505050509392505050565b6040517f35567e1a00000000000000000000000000000000000000000000000000000000815230600482015277ffffffffffffffffffffffffffffffffffffffffffffffff821660248201525f907f00000000000000000000000000000000000000000000000000000000000000006001600160a01b0316906335567e1a90604401602060405180830381865afa158015612080573d5f5f3e3d5ffd5b505050506040513d601f19601f82011682018060405250810190611137919061507f565b336001600160a01b037f000000000000000000000000000000000000000000000000000000000000000016146120ed57604051635629665f60e11b815260040160405180910390fd5b5f61210c5f5160206153fa5f395f51905f52546001600160a01b031690565b90506001600160a01b0381166121845783600881901b6001600160f81b031982166121415761213c85858361315f565b61217d565b6001600160f81b03198216600160f81b036121615761213c85858361322b565b6001600160f81b031980831603611e675761213c85858361329f565b50506110a4565b60405163d68f602560e01b81525f906001600160a01b0383169063d68f6025906121b8903390349086903690600401614708565b5f604051808303815f875af11580156121d3573d5f5f3e3d5ffd5b505050506040513d5f823e601f3d908101601f191682016040526121fa91908101906147d0565b905084600881901b6001600160f81b031982166122215761221c86868361315f565b61225d565b6001600160f81b03198216600160f81b036122415761221c86868361322b565b6001600160f81b031980831603611e675761221c86868361329f565b5050604051630b9dfbed60e11b81526001600160a01b0383169063173bf7da90611075908490600401614878565b60605f6111227f0bb70095b32b9671358306b0339b4c06e7cbd8cb82505941fba30d1eb5b82f01858561276f565b336001600160a01b037f00000000000000000000000000000000000000000000000000000000000000001614806122ef57503330145b61230c57604051635629665f60e11b815260040160405180910390fd5b6110a484848484613343565b5f6001820361232957506001919050565b6002820361233957506001919050565b6003820361234957506001919050565b6004820361235957506001919050565b8161236657506001919050565b505f919050565b919050565b6060604080513681016020019091529050601436018152365f602083013760408051601481019091523360601b905292915050565b5f600185036123c0576123b984612466565b90506109a3565b600285036123d1576123b984613415565b6003850361244e575f600483106123ff576123ef60045f8587614d94565b6123f891615261565b9050612402565b505f5b6001600160e01b0319165f9081527f0bb70095b32b9671358306b0339b4c06e7cbd8cb82505941fba30d1eb5b82f0260205260409020546001600160a01b0385811691161490506109a3565b6004850361245f576123b98461342d565b505f6109a3565b5f6111375f5160206153da5f395f51905f5283612d82565b365f5f5f365f365f6124908a8a613466565b909e509c50949a509298509096509450925090506124bb6124b487878e88886134ba565b838361354f565b6124f1576040517f46fdc33300000000000000000000000000000000000000000000000000000000815260040160405180910390fd5b6124fd8587868661289f565b505050505050935093915050565b7f00000000000000000000000000000000000000000000000000000000000000007f000000000000000000000000000000000000000000000000000000000000000030147f00000000000000000000000000000000000000000000000000000000000000004614166118d05750604080517f8b73c3c69bb8fe3d512ecc4cf759cc79239f7b179b0ffacaa9a75d522b39400f81527f000000000000000000000000000000000000000000000000000000000000000060208201527f00000000000000000000000000000000000000000000000000000000000000009181019190915246606082015230608082015260a0902090565b5f5160206153da5f395f51905f526126377f0bb70095b32b9671358306b0339b4c06e7cbd8cb82505941fba30d1eb5b82f01613663565b610d4581613663565b5f600161265c815f5160206153da5f395f51905f525b90612d2f565b6001600160a01b03161415801561098e57505f61268760015f5160206153da5f395f51905f52612656565b6001600160a01b03161415905090565b7f00000000000000000000000000000000000000000000000000000000000000003081036126cc57639f03a0265f526004601cfd5b6126d5846136d7565b8360601b60601c93506352d1902d6001527f360894a13ba1a3210667c828492db98dca3e2076cc3735a920a3ca505d382bbc80602060016004601d895afa5114612727576355299b496001526004601dfd5b847fbc7cd75a20ee27fd9adebab32041f755214dbc6bffa90cc0225b39da2e5c2d3b5f38a284905581156110a457604051828482375f388483885af4610e31573d5f823e3d81fd5b60605f61277d85858561372a565b90969095509350505050565b7f00000000000000000000000000000000000000000000000000000000000000007f000000000000000000000000000000000000000000000000000000000000000030147f000000000000000000000000000000000000000000000000000000000000000046141661287c5750604080517f8b73c3c69bb8fe3d512ecc4cf759cc79239f7b179b0ffacaa9a75d522b39400f81527f000000000000000000000000000000000000000000000000000000000000000060208201527f00000000000000000000000000000000000000000000000000000000000000009181019190915246606082015230608082015260a090205b6719010000000000005f5280601a5281603a52604260182090505f603a52919050565b5f6128be5f5160206153fa5f395f51905f52546001600160a01b031690565b90506001600160a01b03811661296d576001600160a01b0384166128f557604051635316c18d60e01b815260040160405180910390fd5b60018503612908576116b28484846138eb565b6002850361291b576116b28484846139c4565b6003850361292e576116b2848484613a82565b60048503612941576116b2848484613dd6565b84612951576116b2848484613f2d565b6040516304c1896960e11b8152600481018690526024016108b8565b60405163d68f602560e01b81525f906001600160a01b0383169063d68f6025906129a1903390349086903690600401614708565b5f604051808303815f875af11580156129bc573d5f5f3e3d5ffd5b505050506040513d5f823e601f3d908101601f191682016040526129e391908101906147d0565b90506001600160a01b038516612a0c57604051635316c18d60e01b815260040160405180910390fd5b60018603612a1f576117fd8585856138eb565b60028603612a32576117fd8585856139c4565b60038603612a45576117fd858585613a82565b60048603612a58576117fd858585613dd6565b85612a68576117fd858585613f2d565b6040516304c1896960e11b8152600481018790526024016108b8565b5f5160206153da5f395f51905f525f80612aa0858501866151ce565b9092509050612ab0838388614086565b612ab8612640565b612aee576040517fcc319d8400000000000000000000000000000000000000000000000000000000815260040160405180910390fd5b6114ea5a5f5f638a91b0e360e01b85604051602401612b0d9190614878565b60408051601f198184030181529190526020810180516001600160e01b03166001600160e01b0319909316929092179091526001600160a01b038b1693929190614159565b5f80612b60838501856151ce565b91509150612b878286612b7d5f5160206153da5f395f51905f5290565b6001019190614086565b6113525a5f5f638a91b0e360e01b85604051602401612ba69190614878565b60408051601f198184030181529190526020810180516001600160e01b03166001600160e01b0319909316929092179091526001600160a01b038a1693929190614159565b604080518082019091525f80825260208201525f5160206153da5f395f51905f526002015f612c1d6004828688614d94565b612c2691615261565b6001600160e01b03191681526020808201929092526040015f2082518154939092015160f81c600160a01b0274ffffffffffffffffffffffffffffffffffffffffff199093166001600160a01b0390921691909117919091179055610e315a5f80638a91b0e360e01b612c9c866004818a614d94565b604051602401612cad929190615296565b60408051601f198184030181529190526020810180516001600160e01b03166001600160e01b0319909316929092179091526001600160a01b03881693929190614159565b5f5160206153fa5f395f51905f5280546001600160a01b0319169055610e315a5f5f638a91b0e360e01b8686604051602401612cad929190615296565b5f6001600160a01b038216612d6257604051637c84ecfb60e01b81526001600160a01b03831660048201526024016108b8565b506001600160a01b039081165f9081526020929092526040909120541690565b5f60016001600160a01b03831614801590610acb5750506001600160a01b039081165f90815260209290925260409091205416151590565b5f546001600160a01b031680156114f0576040517f96fb72170000000000000000000000000000000000000000000000000000000081526001600160a01b038481166004830152602482018490528216906396fb7217906044015f6040518083038186803b158015612e2a575f5ffd5b505afa158015611352573d5f5f3e3d5ffd5b60605f5f365f612e4c88886141df565b6040805160018082528183019092529498509296509094509250816020015b6060815260200190600190039081612e6b57509095505f90506001600160f81b03198716612ec157612e9f8585858561422f565b865f81518110612eb157612eb16152a9565b6020026020010181905250612f85565b6001600160f81b03198716600160f81b03612f6057612ee285858585614262565b875f81518110612ef457612ef46152a9565b6020908102919091010152905080612f5b577fb5282692b8c578af7fb880895d599035496b5e64d1f14bf428a1ed3bc406f6628383885f81518110612f3b57612f3b6152a9565b6020026020010151604051612f52939291906152bd565b60405180910390a15b612f85565b6040516308c3ee0360e11b81526001600160f81b0319881660048201526024016108b8565b50505050509392505050565b6060365f612f9f8686614290565b90925090506001600160f81b03198416612fc457612fbd82826142ad565b9250613008565b6001600160f81b03198416600160f81b03612fe357612fbd8282614383565b6040516308c3ee0360e11b81526001600160f81b0319851660048201526024016108b8565b50509392505050565b60605f365f61302087876144ba565b6040805160018082528183019092529396509194509250816020015b606081526020019060019003908161303c57509094505f90506001600160f81b031986166130915761306f8484846144f0565b855f81518110613081576130816152a9565b6020026020010181905250613154565b6001600160f81b03198616600160f81b0361312f576130b1848484614521565b865f815181106130c3576130c36152a9565b602090810291909101015290508061312a577f5bd4c60b4b38b664d8fb5944eb974e3d85083d79afe5ce934ccabcc913707c108383875f8151811061310a5761310a6152a9565b6020026020010151604051613121939291906152bd565b60405180910390a15b613154565b6040516308c3ee0360e11b81526001600160f81b0319871660048201526024016108b8565b505050509392505050565b5f5f365f61316d87876141df565b929650909450925090506001600160f81b03198516613197576131928484848461454d565b611352565b6001600160f81b03198516600160f81b03613206575f5f6131ba86868686614262565b91509150816131ff577fb5282692b8c578af7fb880895d599035496b5e64d1f14bf428a1ed3bc406f6628484836040516131f6939291906152bd565b60405180910390a15b5050611352565b6040516308c3ee0360e11b81526001600160f81b0319861660048201526024016108b8565b365f6132378585614290565b90925090506001600160f81b03198316613255576116b28282614571565b6001600160f81b03198316600160f81b0361327a576132748282614383565b50610e31565b6040516308c3ee0360e11b81526001600160f81b0319841660048201526024016108b8565b5f365f6132ac86866144ba565b919450925090506001600160f81b031984166132d2576132cd8383836145d1565b61333b565b6001600160f81b03198416600160f81b03612fe3575f5f6132f4858585614521565b91509150816114ea577f5bd4c60b4b38b664d8fb5944eb974e3d85083d79afe5ce934ccabcc913707c10848483604051613330939291906152bd565b60405180910390a150505b505050505050565b5f80546001600160a01b0319166001600160a01b038616908117909155156133dc576040517ff05c04e10000000000000000000000000000000000000000000000000000000081526001600160a01b0385169063f05c04e1906133ae908490879087906004016152e2565b5f604051808303815f87803b1580156133c5575f5ffd5b505af11580156133d7573d5f5f3e3d5ffd5b505050505b6040516001600160a01b038516907ff98c8404c5b1bfef2e6ba9233c6e88845aedfd36eea8b192725d8c199571cf32905f90a250505050565b5f611137825f5160206153da5f395f51905f52611d7a565b5f816001600160a01b03166134565f5160206153fa5f395f51905f52546001600160a01b031690565b6001600160a01b03161492915050565b813560601c6014830135603880850190603486013560e090811c91603c838901818101939281013590921c9136915f9184018b9003016134a88a82818e614d94565b92509250509295985092959890939650565b5f6040518060800160405280605b815260200161541a605b91398051906020012086868686866040516134ee92919061521b565b60405190819003812061352e95949392916020019485526001600160a01b0393909316602085015260408401919091526060830152608082015260a00190565b60405160208183030381529060405280519060200120905095945050505050565b5f8061355e6014828587614d94565b61356791614dbb565b60601c905061357581612466565b61359d5760405163342cf00f60e11b81526001600160a01b03821660048201526024016108b8565b5f6135a786612789565b90506001600160a01b03821663f551e2ee30836135c7886014818c614d94565b6040518563ffffffff1660e01b81526004016135e69493929190614708565b602060405180830381865afa92505050801561361f575060408051601f3d908101601f1916820190925261361c91810190614e08565b60015b61362d575f92505050610acb565b6001600160e01b0319167f1626ba7e00000000000000000000000000000000000000000000000000000000149250610acb915050565b60015f908152602082905260409020546001600160a01b0316156136b3576040517f53c85e6600000000000000000000000000000000000000000000000000000000815260040160405180910390fd5b60015f818152602092909252604090912080546001600160a01b0319169091179055565b336001600160a01b037f000000000000000000000000000000000000000000000000000000000000000016148061370d57503330145b610d4557604051635629665f60e11b815260040160405180910390fd5b60605f6001600160a01b03841660011480159061374e575061374c8585612d82565b155b1561377757604051637c84ecfb60e01b81526001600160a01b03851660048201526024016108b8565b825f036137b0576040517ff725081700000000000000000000000000000000000000000000000000000000815260040160405180910390fd5b8267ffffffffffffffff8111156137c9576137c961473a565b6040519080825280602002602001820160405280156137f2578160200160208202803683370190505b506001600160a01b038086165f90815260208890526040812054929450911691505b6001600160a01b0382161580159061383657506001600160a01b038216600114155b801561384157508381105b1561389a5781838281518110613859576138596152a9565b6001600160a01b039283166020918202929092018101919091529281165f90815292879052604090922054909116908061389281615339565b915050613814565b6001600160a01b0382166001148015906138b357505f81115b156138df57826138c4600183615351565b815181106138d4576138d46152a9565b602002602001015191505b80835250935093915050565b8260016138f88282612dba565b60405163ecd0596160e01b8152600160048201526001600160a01b0386169063ecd0596190602401602060405180830381865afa15801561393b573d5f5f3e3d5ffd5b505050506040513d601f19601f8201168201806040525081019061395f9190615364565b61397f576040516369c9a24560e11b8152600160048201526024016108b8565b6139965f5160206153da5f395f51905f52866145f3565b6040516306d61fe760e41b81526001600160a01b03861690636d61fe70906110759087908790600401615296565b8260026139d18282612dba565b60405163ecd0596160e01b8152600260048201526001600160a01b0386169063ecd0596190602401602060405180830381865afa158015613a14573d5f5f3e3d5ffd5b505050506040513d601f19601f82011682018060405250810190613a389190615364565b613a58576040516369c9a24560e11b8152600260048201526024016108b8565b6139967f0bb70095b32b9671358306b0339b4c06e7cbd8cb82505941fba30d1eb5b82f01866145f3565b826003613a8f8282612dba565b60405163ecd0596160e01b8152600360048201526001600160a01b0386169063ecd0596190602401602060405180830381865afa158015613ad2573d5f5f3e3d5ffd5b505050506040513d601f19601f82011682018060405250810190613af69190615364565b613b16576040516369c9a24560e11b8152600360048201526024016108b8565b5f613b246004828688614d94565b613b2d91615261565b90505f85856004818110613b4357613b436152a9565b909101356001600160f81b031916915050801580613b6e57506001600160f81b03198116607f60f91b145b613ba4576040517f867a1dcf00000000000000000000000000000000000000000000000000000000815260040160405180910390fd5b5f613bb2866005818a614d94565b8080601f0160208091040260200160405190810160405280939291908181526020018383808284375f920191909152509293505050506001600160e01b031983166306d61fe760e41b1480613c1757506001600160e01b03198316638a91b0e360e01b145b80613c2a57506001600160e01b03198316155b15613c61576040517fc001660b00000000000000000000000000000000000000000000000000000000815260040160405180910390fd5b6001600160e01b031983165f9081527f0bb70095b32b9671358306b0339b4c06e7cbd8cb82505941fba30d1eb5b82f02602052604090205483906001600160a01b031615613ce8576040517fa56a04dd0000000000000000000000000000000000000000000000000000000081526001600160e01b031990911660048201526024016108b8565b506040805180820182526001600160a01b038a81168083526001600160f81b0319861660208085019182526001600160e01b031989165f9081527f0bb70095b32b9671358306b0339b4c06e7cbd8cb82505941fba30d1eb5b82f0290915285902093518454915160f81c600160a01b0274ffffffffffffffffffffffffffffffffffffffffff199092169316929092179190911790915590516306d61fe760e41b8152636d61fe7090613d9f908490600401614878565b5f604051808303815f87803b158015613db6575f5ffd5b505af1158015613dc8573d5f5f3e3d5ffd5b505050505050505050505050565b826004613de38282612dba565b60405163ecd0596160e01b81526004808201526001600160a01b0386169063ecd0596190602401602060405180830381865afa158015613e25573d5f5f3e3d5ffd5b505050506040513d601f19601f82011682018060405250810190613e499190615364565b613e68576040516369c9a24560e11b81526004818101526024016108b8565b5f613e875f5160206153fa5f395f51905f52546001600160a01b031690565b9050806001600160a01b03811615613ed7576040517f741cbe030000000000000000000000000000000000000000000000000000000081526001600160a01b0390911660048201526024016108b8565b505f5160206153fa5f395f51905f5280546001600160a01b0319166001600160a01b0388161790556040516306d61fe760e41b81526001600160a01b03871690636d61fe70906118679088908890600401615296565b813582016020818101913590848101358501908101903582818114613f7e576040517fb4fa3fb300000000000000000000000000000000000000000000000000000000815260040160405180910390fd5b5f5b8181101561109e575f868683818110613f9b57613f9b6152a9565b90506020020135905060018103613fde57613fd98a868685818110613fc257613fc26152a9565b9050602002810190613fd49190614f70565b6138eb565b61407d565b6002810361401357613fd98a868685818110613ffc57613ffc6152a9565b905060200281019061400e9190614f70565b6139c4565b6003810361404857613fd98a868685818110614031576140316152a9565b90506020028101906140439190614f70565b613a82565b6004810361407d5761407d8a868685818110614066576140666152a9565b90506020028101906140789190614f70565b613dd6565b50600101613f80565b6001600160a01b03811615806140a557506001600160a01b0381166001145b156140ce57604051637c84ecfb60e01b81526001600160a01b03831660048201526024016108b8565b6001600160a01b038281165f9081526020859052604090205481169082161461411557604051637c84ecfb60e01b81526001600160a01b03821660048201526024016108b8565b6001600160a01b039081165f8181526020949094526040808520805494841686529085208054949093166001600160a01b0319948516179092559092528154169055565b5f60605f5f5f8661ffff1667ffffffffffffffff81111561417c5761417c61473a565b6040519080825280601f01601f1916602001820160405280156141a6576020820181803683370190505b5090505f5f8751602089018b8e8ef191503d9250868311156141c6578692505b828152825f602083013e90999098509650505050505050565b5f8036816141f06014828789614d94565b6141f991614dbb565b60601c935061420c603460148789614d94565b61421591615383565b92506142248560348189614d94565b949793965094505050565b604051818382375f38838387895af161424a573d5f823e3d81fd5b3d8152602081013d5f823e3d01604052949350505050565b6040515f90828482375f388483888a5af191503d8152602081013d5f823e3d81016040525094509492505050565b81358201602081019035808310156142a6575f5ffd5b9250929050565b60608167ffffffffffffffff8111156142c8576142c861473a565b6040519080825280602002602001820160405280156142fb57816020015b60608152602001906001900390816142e65790505b509050365f5b8381101561437b5784848281811061431b5761431b6152a9565b905060200281019061432d91906153a0565b915061435661433f60208401846153be565b60208401356143516040860186614f70565b61422f565b838281518110614368576143686152a9565b6020908102919091010152600101614301565b505092915050565b60608167ffffffffffffffff81111561439e5761439e61473a565b6040519080825280602002602001820160405280156143d157816020015b60608152602001906001900390816143bc5790505b509050365f5b8381101561437b578484828181106143f1576143f16152a9565b905060200281019061440391906153a0565b91505f61442d61441660208501856153be565b60208501356144286040870187614f70565b614262565b85848151811061443f5761443f6152a9565b60209081029190910101529050806144b1577fb5282692b8c578af7fb880895d599035496b5e64d1f14bf428a1ed3bc406f66261447f6040850185614f70565b868581518110614491576144916152a9565b60200260200101516040516144a8939291906152bd565b60405180910390a15b506001016143d7565b5f36816144ca6014828688614d94565b6144d391614dbb565b60601c92506144e58460148188614d94565b915091509250925092565b604051818382375f388383875af461450a573d5f823e3d81fd5b3d8152602081013d5f823e3d016040529392505050565b6040515f90828482375f388483885af491503d8152602081013d5f823e3d810160405250935093915050565b604051818382375f38838387895af1614568573d5f823e3d81fd5b01604052505050565b365f5b828110156110a45783838281811061458e5761458e6152a9565b90506020028101906145a091906153a0565b91506145c96145b260208401846153be565b60208401356145c46040860186614f70565b61454d565b600101614574565b604051818382375f388383875af46145eb573d5f823e3d81fd5b016040525050565b6001600160a01b038116158061461257506001600160a01b0381166001145b1561463b57604051637c84ecfb60e01b81526001600160a01b03821660048201526024016108b8565b6001600160a01b038181165f908152602084905260409020541615614697576040517f40d3d1a40000000000000000000000000000000000000000000000000000000081526001600160a01b03821660048201526024016108b8565b60015f818152602093909352604080842080546001600160a01b039485168087529286208054959091166001600160a01b03199586161790559190935280549091169091179055565b81835281816020850137505f828201602090810191909152601f909101601f19169091010190565b6001600160a01b0385168152836020820152606060408201525f6147306060830184866146e0565b9695505050505050565b634e487b7160e01b5f52604160045260245ffd5b604051610120810167ffffffffffffffff811182821017156147725761477261473a565b60405290565b604051601f8201601f1916810167ffffffffffffffff811182821017156147a1576147a161473a565b604052919050565b5f67ffffffffffffffff8211156147c2576147c261473a565b50601f01601f191660200190565b5f602082840312156147e0575f5ffd5b815167ffffffffffffffff8111156147f6575f5ffd5b8201601f81018413614806575f5ffd5b8051614819614814826147a9565b614778565b81815285602083850101111561482d575f5ffd5b8160208401602083015e5f91810160200191909152949350505050565b5f81518084528060208401602086015e5f602082860101526020601f19601f83011685010191505092915050565b602081525f610acb602083018461484a565b6001600160a01b0381168114610d45575f5ffd5b803561236d8161488a565b5f5f83601f8401126148b9575f5ffd5b50813567ffffffffffffffff8111156148d0575f5ffd5b6020830191508360208285010111156142a6575f5ffd5b5f5f5f5f606085870312156148fa575f5ffd5b84359350602085013561490c8161488a565b9250604085013567ffffffffffffffff811115614927575f5ffd5b614933878288016148a9565b95989497509550505050565b5f5f5f60408486031215614951575f5ffd5b83359250602084013567ffffffffffffffff81111561496e575f5ffd5b61497a868287016148a9565b9497909650939450505050565b5f6101208284031215614998575f5ffd5b50919050565b5f5f5f606084860312156149b0575f5ffd5b833567ffffffffffffffff8111156149c6575f5ffd5b6149d286828701614987565b9660208601359650604090950135949350505050565b6001600160e01b031981168114610d45575f5ffd5b5f60208284031215614a0d575f5ffd5b8135610acb816149e8565b5f5f60208385031215614a29575f5ffd5b823567ffffffffffffffff811115614a3f575f5ffd5b61277d858286016148a9565b5f5f60408385031215614a5c575f5ffd5b8235614a678161488a565b946020939093013593505050565b5f5f5f60408486031215614a87575f5ffd5b8335614a928161488a565b9250602084013567ffffffffffffffff81111561496e575f5ffd5b604080825283519082018190525f9060208501906060840190835b81811015614aef5783516001600160a01b0316835260209384019390920191600101614ac8565b505080925050506001600160a01b03831660208301529392505050565b5f60208284031215614b1c575f5ffd5b5035919050565b6001600160f81b03198816815260e060208201525f614b4560e083018961484a565b8281036040840152614b57818961484a565b606084018890526001600160a01b038716608085015260a0840186905283810360c0850152845180825260208087019350909101905f5b81811015614bac578351835260209384019390920191600101614b8e565b50909b9a5050505050505050505050565b5f5f60408385031215614bce575f5ffd5b823567ffffffffffffffff811115614be4575f5ffd5b614bf085828601614987565b95602094909401359450505050565b5f602082016020835280845180835260408501915060408160051b8601019250602086015f5b82811015614c5657603f19878603018452614c4185835161484a565b94506020938401939190910190600101614c25565b50929695505050505050565b5f60208284031215614c72575f5ffd5b813577ffffffffffffffffffffffffffffffffffffffffffffffff81168114610acb575f5ffd5b5f5f5f5f60608587031215614cac575f5ffd5b8435614cb78161488a565b9350602085013567ffffffffffffffff811115614cd2575f5ffd5b8501601f81018713614ce2575f5ffd5b803567ffffffffffffffff811115614cf8575f5ffd5b8760208260051b8401011115614d0c575f5ffd5b60209190910193509150604085013560ff81168114614d29575f5ffd5b939692955090935050565b5f82518060208501845e5f920191825250919050565b634e487b7160e01b5f52601160045260245ffd5b5f82614d7857634e487b7160e01b5f52601260045260245ffd5b500490565b808202811582820484141761113757611137614d4a565b5f5f85851115614da2575f5ffd5b83861115614dae575f5ffd5b5050820193919092039150565b80356bffffffffffffffffffffffff198116906014841015614e01576bffffffffffffffffffffffff196bffffffffffffffffffffffff198560140360031b1b82161691505b5092915050565b5f60208284031215614e18575f5ffd5b8151610acb816149e8565b5f82601f830112614e32575f5ffd5b8135614e40614814826147a9565b818152846020838601011115614e54575f5ffd5b816020850160208301375f918101602001919091529392505050565b5f6101208236031215614e81575f5ffd5b614e8961474e565b614e928361489e565b815260208381013590820152604083013567ffffffffffffffff811115614eb7575f5ffd5b614ec336828601614e23565b604083015250606083013567ffffffffffffffff811115614ee2575f5ffd5b614eee36828601614e23565b6060830152506080838101359082015260a0808401359082015260c0808401359082015260e083013567ffffffffffffffff811115614f2b575f5ffd5b614f3736828601614e23565b60e08301525061010083013567ffffffffffffffff811115614f57575f5ffd5b614f6336828601614e23565b6101008301525092915050565b5f5f8335601e19843603018112614f85575f5ffd5b83018035915067ffffffffffffffff821115614f9f575f5ffd5b6020019150368190038213156142a6575f5ffd5b60408152614fcd6040820184516001600160a01b03169052565b602083015160608201525f60408401516101206080840152614ff361016084018261484a565b90506060850151603f198483030160a0850152615010828261484a565b915050608085015160c084015260a085015160e084015260c085015161010084015260e0850151603f198483030161012085015261504e828261484a565b915050610100850151603f198483030161014085015261506e828261484a565b925050508260208301529392505050565b5f6020828403121561508f575f5ffd5b5051919050565b5f5f8335601e198436030181126150ab575f5ffd5b830160208101925035905067ffffffffffffffff8111156150ca575f5ffd5b8036038213156142a6575f5ffd5b6150f2826150e58361489e565b6001600160a01b03169052565b602081810135908301525f61510a6040830183615096565b6101206040860152615121610120860182846146e0565b9150506151316060840184615096565b85830360608701526151448382846146e0565b6080868101359088015260a0808701359088015260c08087013590880152925061517491505060e0840184615096565b85830360e08701526151878382846146e0565b92505050615199610100840184615096565b8583036101008701526147308382846146e0565b604081525f6151bf60408301856150d8565b90508260208301529392505050565b5f5f604083850312156151df575f5ffd5b82356151ea8161488a565b9150602083013567ffffffffffffffff811115615205575f5ffd5b61521185828601614e23565b9150509250929050565b818382375f9101908152919050565b604081525f61523c60408301856150d8565b8281036020840152611a6a818561484a565b8082018082111561113757611137614d4a565b80356001600160e01b03198116906004841015614e01576001600160e01b0319808560040360031b1b82161691505092915050565b602081525f6109a36020830184866146e0565b634e487b7160e01b5f52603260045260245ffd5b604081525f6152d06040830185876146e0565b8281036020840152614730818561484a565b60ff8416815260406020820181905281018290525f8360608301825b8581101561532e5782356153118161488a565b6001600160a01b03168252602092830192909101906001016152fe565b509695505050505050565b5f6001820161534a5761534a614d4a565b5060010190565b8181038181111561113757611137614d4a565b5f60208284031215615374575f5ffd5b81518015158114610acb575f5ffd5b80356020831015611137575f19602084900360031b1b1692915050565b5f8235605e198336030181126153b4575f5ffd5b9190910192915050565b5f602082840312156153ce575f5ffd5b8135610acb8161488a56fe0bb70095b32b9671358306b0339b4c06e7cbd8cb82505941fba30d1eb5b82f000bb70095b32b9671358306b0339b4c06e7cbd8cb82505941fba30d1eb5b82f034d6f64756c65456e61626c654d6f64652861646472657373206d6f64756c652c75696e74323536206d6f64756c65547970652c6279746573333220757365724f70486173682c6279746573333220696e6974446174614861736829a164736f6c634300081b000a","linkReferences":{}},"methodIdentifiers":{"DOMAIN_SEPARATOR()":"3644e515","accountId()":"9cfd7cff","addDeposit()":"4a58db19","checkERC7739Support(bytes32,bytes)":"b46b61a9","eip712Domain()":"84b0196e","emergencyUninstallHook(address,bytes)":"cd64f80a","entryPoint()":"b0d691fe","execute(bytes32,bytes)":"e9ae5c53","executeFromExecutor(bytes32,bytes)":"d691c964","executeUserOp((address,uint256,bytes,bytes,bytes32,uint256,bytes32,bytes,bytes),bytes32)":"8dd7712f","getActiveHook()":"0a664dba","getDeposit()":"c399ec88","getExecutorsPaginated(address,uint256)":"ea5f61d0","getFallbackHandlerBySelector(bytes4)":"481ddd23","getImplementation()":"aaf10f42","getValidatorsPaginated(address,uint256)":"5faac46b","hashTypedData(bytes32)":"6575f6aa","initializeAccount(bytes)":"4b6a1419","installModule(uint256,address,bytes)":"9517e29f","isModuleInstalled(uint256,address,bytes)":"112d3a7d","isValidSignature(bytes32,bytes)":"1626ba7e","nonce(uint192)":"d86f2b3c","proxiableUUID()":"52d1902d","registry()":"7b103999","setRegistry(address,address[],uint8)":"eab77e17","supportsExecutionMode(bytes32)":"d03c7914","supportsModule(uint256)":"f2dc691d","uninstallModule(uint256,address,bytes)":"a71763a8","upgradeToAndCall(address,bytes)":"4f1ef286","validateUserOp((address,uint256,bytes,bytes,bytes32,uint256,bytes32,bytes,bytes),bytes32,uint256)":"19822f7c","withdrawDepositTo(address,uint256)":"4d44560d"},"id":0}