{"abi":[{"type":"constructor","inputs":[{"name":"anEntryPoint","type":"address","internalType":"address"},{"name":"defaultValidator","type":"address","internalType":"address"},{"name":"initData","type":"bytes","internalType":"bytes"}],"stateMutability":"nonpayable"},{"type":"fallback","stateMutability":"payable"},{"type":"receive","stateMutability":"payable"},{"type":"function","name":"accountId","inputs":[],"outputs":[{"name":"","type":"string","internalType":"string"}],"stateMutability":"pure"},{"type":"function","name":"addDeposit","inputs":[],"outputs":[],"stateMutability":"payable"},{"type":"function","name":"checkERC7739Support","inputs":[{"name":"hash","type":"bytes32","internalType":"bytes32"},{"name":"signature","type":"bytes","internalType":"bytes"}],"outputs":[{"name":"","type":"bytes4","internalType":"bytes4"}],"stateMutability":"view"},{"type":"function","name":"eip712Domain","inputs":[],"outputs":[{"name":"fields","type":"bytes1","internalType":"bytes1"},{"name":"name","type":"string","internalType":"string"},{"name":"version","type":"string","internalType":"string"},{"name":"chainId","type":"uint256","internalType":"uint256"},{"name":"verifyingContract","type":"address","internalType":"address"},{"name":"salt","type":"bytes32","internalType":"bytes32"},{"name":"extensions","type":"uint256[]","internalType":"uint256[]"}],"stateMutability":"view"},{"type":"function","name":"emergencyUninstallHook","inputs":[{"name":"data","type":"tuple","internalType":"struct EmergencyUninstall","components":[{"name":"hook","type":"address","internalType":"address"},{"name":"hookType","type":"uint256","internalType":"uint256"},{"name":"deInitData","type":"bytes","internalType":"bytes"},{"name":"nonce","type":"uint256","internalType":"uint256"}]},{"name":"signature","type":"bytes","internalType":"bytes"}],"outputs":[],"stateMutability":"payable"},{"type":"function","name":"entryPoint","inputs":[],"outputs":[{"name":"","type":"address","internalType":"address"}],"stateMutability":"view"},{"type":"function","name":"execute","inputs":[{"name":"mode","type":"bytes32","internalType":"ExecutionMode"},{"name":"executionCalldata","type":"bytes","internalType":"bytes"}],"outputs":[],"stateMutability":"payable"},{"type":"function","name":"executeFromExecutor","inputs":[{"name":"mode","type":"bytes32","internalType":"ExecutionMode"},{"name":"executionCalldata","type":"bytes","internalType":"bytes"}],"outputs":[{"name":"returnData","type":"bytes[]","internalType":"bytes[]"}],"stateMutability":"payable"},{"type":"function","name":"executeUserOp","inputs":[{"name":"userOp","type":"tuple","internalType":"struct PackedUserOperation","components":[{"name":"sender","type":"address","internalType":"address"},{"name":"nonce","type":"uint256","internalType":"uint256"},{"name":"initCode","type":"bytes","internalType":"bytes"},{"name":"callData","type":"bytes","internalType":"bytes"},{"name":"accountGasLimits","type":"bytes32","internalType":"bytes32"},{"name":"preVerificationGas","type":"uint256","internalType":"uint256"},{"name":"gasFees","type":"bytes32","internalType":"bytes32"},{"name":"paymasterAndData","type":"bytes","internalType":"bytes"},{"name":"signature","type":"bytes","internalType":"bytes"}]},{"name":"","type":"bytes32","internalType":"bytes32"}],"outputs":[],"stateMutability":"payable"},{"type":"function","name":"getActiveHook","inputs":[],"outputs":[{"name":"hook","type":"address","internalType":"address"}],"stateMutability":"view"},{"type":"function","name":"getDeposit","inputs":[],"outputs":[{"name":"result","type":"uint256","internalType":"uint256"}],"stateMutability":"view"},{"type":"function","name":"getExecutorsPaginated","inputs":[{"name":"cursor","type":"address","internalType":"address"},{"name":"size","type":"uint256","internalType":"uint256"}],"outputs":[{"name":"array","type":"address[]","internalType":"address[]"},{"name":"next","type":"address","internalType":"address"}],"stateMutability":"view"},{"type":"function","name":"getFallbackHandlerBySelector","inputs":[{"name":"selector","type":"bytes4","internalType":"bytes4"}],"outputs":[{"name":"","type":"bytes1","internalType":"CallType"},{"name":"","type":"address","internalType":"address"}],"stateMutability":"view"},{"type":"function","name":"getImplementation","inputs":[],"outputs":[{"name":"implementation","type":"address","internalType":"address"}],"stateMutability":"view"},{"type":"function","name":"getValidatorsPaginated","inputs":[{"name":"cursor","type":"address","internalType":"address"},{"name":"size","type":"uint256","internalType":"uint256"}],"outputs":[{"name":"array","type":"address[]","internalType":"address[]"},{"name":"next","type":"address","internalType":"address"}],"stateMutability":"view"},{"type":"function","name":"initializeAccount","inputs":[{"name":"initData","type":"bytes","internalType":"bytes"}],"outputs":[],"stateMutability":"payable"},{"type":"function","name":"installModule","inputs":[{"name":"moduleTypeId","type":"uint256","internalType":"uint256"},{"name":"module","type":"address","internalType":"address"},{"name":"initData","type":"bytes","internalType":"bytes"}],"outputs":[],"stateMutability":"payable"},{"type":"function","name":"isInitialized","inputs":[],"outputs":[{"name":"","type":"bool","internalType":"bool"}],"stateMutability":"view"},{"type":"function","name":"isModuleInstalled","inputs":[{"name":"moduleTypeId","type":"uint256","internalType":"uint256"},{"name":"module","type":"address","internalType":"address"},{"name":"additionalContext","type":"bytes","internalType":"bytes"}],"outputs":[{"name":"","type":"bool","internalType":"bool"}],"stateMutability":"view"},{"type":"function","name":"isValidSignature","inputs":[{"name":"hash","type":"bytes32","internalType":"bytes32"},{"name":"signature","type":"bytes","internalType":"bytes"}],"outputs":[{"name":"","type":"bytes4","internalType":"bytes4"}],"stateMutability":"view"},{"type":"function","name":"nonce","inputs":[{"name":"key","type":"uint192","internalType":"uint192"}],"outputs":[{"name":"","type":"uint256","internalType":"uint256"}],"stateMutability":"view"},{"type":"function","name":"proxiableUUID","inputs":[],"outputs":[{"name":"","type":"bytes32","internalType":"bytes32"}],"stateMutability":"view"},{"type":"function","name":"registry","inputs":[],"outputs":[{"name":"","type":"address","internalType":"contract IERC7484"}],"stateMutability":"view"},{"type":"function","name":"setRegistry","inputs":[{"name":"newRegistry","type":"address","internalType":"contract IERC7484"},{"name":"attesters","type":"address[]","internalType":"address[]"},{"name":"threshold","type":"uint8","internalType":"uint8"}],"outputs":[],"stateMutability":"payable"},{"type":"function","name":"supportsExecutionMode","inputs":[{"name":"mode","type":"bytes32","internalType":"ExecutionMode"}],"outputs":[{"name":"isSupported","type":"bool","internalType":"bool"}],"stateMutability":"view"},{"type":"function","name":"supportsModule","inputs":[{"name":"moduleTypeId","type":"uint256","internalType":"uint256"}],"outputs":[{"name":"","type":"bool","internalType":"bool"}],"stateMutability":"view"},{"type":"function","name":"uninstallModule","inputs":[{"name":"moduleTypeId","type":"uint256","internalType":"uint256"},{"name":"module","type":"address","internalType":"address"},{"name":"deInitData","type":"bytes","internalType":"bytes"}],"outputs":[],"stateMutability":"payable"},{"type":"function","name":"upgradeToAndCall","inputs":[{"name":"newImplementation","type":"address","internalType":"address"},{"name":"data","type":"bytes","internalType":"bytes"}],"outputs":[],"stateMutability":"payable"},{"type":"function","name":"validateUserOp","inputs":[{"name":"op","type":"tuple","internalType":"struct PackedUserOperation","components":[{"name":"sender","type":"address","internalType":"address"},{"name":"nonce","type":"uint256","internalType":"uint256"},{"name":"initCode","type":"bytes","internalType":"bytes"},{"name":"callData","type":"bytes","internalType":"bytes"},{"name":"accountGasLimits","type":"bytes32","internalType":"bytes32"},{"name":"preVerificationGas","type":"uint256","internalType":"uint256"},{"name":"gasFees","type":"bytes32","internalType":"bytes32"},{"name":"paymasterAndData","type":"bytes","internalType":"bytes"},{"name":"signature","type":"bytes","internalType":"bytes"}]},{"name":"userOpHash","type":"bytes32","internalType":"bytes32"},{"name":"missingAccountFunds","type":"uint256","internalType":"uint256"}],"outputs":[{"name":"validationData","type":"uint256","internalType":"uint256"}],"stateMutability":"nonpayable"},{"type":"function","name":"withdrawDepositTo","inputs":[{"name":"to","type":"address","internalType":"address"},{"name":"amount","type":"uint256","internalType":"uint256"}],"outputs":[],"stateMutability":"payable"},{"type":"event","name":"ERC7484RegistryConfigured","inputs":[{"name":"registry","type":"address","indexed":true,"internalType":"contract IERC7484"}],"anonymous":false},{"type":"event","name":"EmergencyHookUninstallRequest","inputs":[{"name":"hook","type":"address","indexed":false,"internalType":"address"},{"name":"timestamp","type":"uint256","indexed":false,"internalType":"uint256"}],"anonymous":false},{"type":"event","name":"EmergencyHookUninstallRequestReset","inputs":[{"name":"hook","type":"address","indexed":false,"internalType":"address"},{"name":"timestamp","type":"uint256","indexed":false,"internalType":"uint256"}],"anonymous":false},{"type":"event","name":"ModuleInstalled","inputs":[{"name":"moduleTypeId","type":"uint256","indexed":false,"internalType":"uint256"},{"name":"module","type":"address","indexed":false,"internalType":"address"}],"anonymous":false},{"type":"event","name":"ModuleUninstalled","inputs":[{"name":"moduleTypeId","type":"uint256","indexed":false,"internalType":"uint256"},{"name":"module","type":"address","indexed":false,"internalType":"address"}],"anonymous":false},{"type":"event","name":"PREPInitialized","inputs":[{"name":"r","type":"bytes32","indexed":false,"internalType":"bytes32"}],"anonymous":false},{"type":"event","name":"TryDelegateCallUnsuccessful","inputs":[{"name":"callData","type":"bytes","indexed":false,"internalType":"bytes"},{"name":"result","type":"bytes","indexed":false,"internalType":"bytes"}],"anonymous":false},{"type":"event","name":"TryExecuteUnsuccessful","inputs":[{"name":"callData","type":"bytes","indexed":false,"internalType":"bytes"},{"name":"result","type":"bytes","indexed":false,"internalType":"bytes"}],"anonymous":false},{"type":"event","name":"Upgraded","inputs":[{"name":"implementation","type":"address","indexed":true,"internalType":"address"}],"anonymous":false},{"type":"error","name":"AccountAccessUnauthorized","inputs":[]},{"type":"error","name":"AccountAlreadyInitialized","inputs":[]},{"type":"error","name":"CanNotRemoveLastValidator","inputs":[]},{"type":"error","name":"DefaultValidatorAlreadyInstalled","inputs":[]},{"type":"error","name":"ERC7702AccountCannotBeUpgradedThisWay","inputs":[]},{"type":"error","name":"EmergencyTimeLockNotExpired","inputs":[]},{"type":"error","name":"EmergencyUninstallSigError","inputs":[]},{"type":"error","name":"EnableModeSigError","inputs":[]},{"type":"error","name":"EntryPointCanNotBeZero","inputs":[]},{"type":"error","name":"ExecutionFailed","inputs":[]},{"type":"error","name":"FallbackAlreadyInstalledForSelector","inputs":[{"name":"selector","type":"bytes4","internalType":"bytes4"}]},{"type":"error","name":"FallbackCallTypeInvalid","inputs":[]},{"type":"error","name":"FallbackHandlerUninstallFailed","inputs":[]},{"type":"error","name":"FallbackNotInstalledForSelector","inputs":[{"name":"selector","type":"bytes4","internalType":"bytes4"}]},{"type":"error","name":"FallbackSelectorForbidden","inputs":[]},{"type":"error","name":"HookAlreadyInstalled","inputs":[{"name":"currentHook","type":"address","internalType":"address"}]},{"type":"error","name":"HookPostCheckFailed","inputs":[]},{"type":"error","name":"ImplementationIsNotAContract","inputs":[]},{"type":"error","name":"InnerCallFailed","inputs":[]},{"type":"error","name":"InvalidImplementationAddress","inputs":[]},{"type":"error","name":"InvalidInitData","inputs":[]},{"type":"error","name":"InvalidInput","inputs":[]},{"type":"error","name":"InvalidModule","inputs":[{"name":"module","type":"address","internalType":"address"}]},{"type":"error","name":"InvalidModuleTypeId","inputs":[{"name":"moduleTypeId","type":"uint256","internalType":"uint256"}]},{"type":"error","name":"InvalidNonce","inputs":[]},{"type":"error","name":"InvalidPREP","inputs":[]},{"type":"error","name":"LinkedList_AlreadyInitialized","inputs":[]},{"type":"error","name":"LinkedList_EntryAlreadyInList","inputs":[{"name":"entry","type":"address","internalType":"address"}]},{"type":"error","name":"LinkedList_InvalidEntry","inputs":[{"name":"entry","type":"address","internalType":"address"}]},{"type":"error","name":"LinkedList_InvalidPage","inputs":[]},{"type":"error","name":"MismatchModuleTypeId","inputs":[]},{"type":"error","name":"MissingFallbackHandler","inputs":[{"name":"selector","type":"bytes4","internalType":"bytes4"}]},{"type":"error","name":"ModuleAddressCanNotBeZero","inputs":[]},{"type":"error","name":"ModuleAlreadyInstalled","inputs":[{"name":"moduleTypeId","type":"uint256","internalType":"uint256"},{"name":"module","type":"address","internalType":"address"}]},{"type":"error","name":"ModuleNotInstalled","inputs":[{"name":"moduleTypeId","type":"uint256","internalType":"uint256"},{"name":"module","type":"address","internalType":"address"}]},{"type":"error","name":"NexusInitializationFailed","inputs":[]},{"type":"error","name":"NoValidatorInstalled","inputs":[]},{"type":"error","name":"PrevalidationHookAlreadyInstalled","inputs":[{"name":"currentPreValidationHook","type":"address","internalType":"address"}]},{"type":"error","name":"UnauthorizedCallContext","inputs":[]},{"type":"error","name":"UnauthorizedOperation","inputs":[{"name":"operator","type":"address","internalType":"address"}]},{"type":"error","name":"UnsupportedCallType","inputs":[{"name":"callType","type":"bytes1","internalType":"CallType"}]},{"type":"error","name":"UnsupportedExecType","inputs":[{"name":"execType","type":"bytes1","internalType":"ExecType"}]},{"type":"error","name":"UnsupportedModuleType","inputs":[{"name":"moduleTypeId","type":"uint256","internalType":"uint256"}]},{"type":"error","name":"UpgradeFailed","inputs":[]},{"type":"error","name":"ValidatorNotInstalled","inputs":[{"name":"module","type":"address","internalType":"address"}]}],"bytecode":{"object":"0x6101806040523061016052348015610015575f5ffd5b5060405161629d38038061629d83398101604081905261003491610236565b306080524660a052818160608061007f6040805180820182526005808252644e6578757360d81b6020808401919091528351808501909452908352640312e322e360dc1b9083015291565b815160209283012081519183019190912060c082905260e0819052604080517f8b73c3c69bb8fe3d512ecc4cf759cc79239f7b179b0ffacaa9a75d522b39400f8152808501939093528281019190915246606083015230608083015260a090912061010052805163ecd0596160e01b81526001600482015290516001600160a01b038716945063ecd059619350602480830193928290030181865afa15801561012a573d5f5f3e3d5ffd5b505050506040513d601f19601f8201168201806040525081019061014e9190610307565b61016b57604051631c4f83bb60e31b815260040160405180910390fd5b6040516306d61fe760e41b81526001600160a01b03831690636d61fe709061019790849060040161032d565b5f604051808303815f87803b1580156101ae575f5ffd5b505af11580156101c0573d5f5f3e3d5ffd5b5050506001600160a01b0392831661014052505083166101f3576040516307e355bf60e31b815260040160405180910390fd5b50506001600160a01b031661012052610362565b80516001600160a01b038116811461021d575f5ffd5b919050565b634e487b7160e01b5f52604160045260245ffd5b5f5f5f60608486031215610248575f5ffd5b61025184610207565b925061025f60208501610207565b60408501519092506001600160401b0381111561027a575f5ffd5b8401601f8101861361028a575f5ffd5b80516001600160401b038111156102a3576102a3610222565b604051601f8201601f19908116603f011681016001600160401b03811182821017156102d1576102d1610222565b6040528181528282016020018810156102e8575f5ffd5b8160208401602083015e5f602083830101528093505050509250925092565b5f60208284031215610317575f5ffd5b81518015158114610326575f5ffd5b9392505050565b602081525f82518060208401528060208501604085015e5f604082850101526040601f19601f83011684010191505092915050565b60805160a05160c05160e05161010051610120516101405161016051615e7061042d5f395f8181612a380152613b2601525f8181610ad801528181610d81015281816124770152613fb401525f81816104ee01528181610a5a01528181610e0201528181610e5c01528181610ea701528181611446015281816116dd0152818161178301528181611c7001528181611ff101528181612073015281816122880152613b5d01525f614e1901525f614ed301525f614ead01525f614e5d01525f614e3a0152615e705ff3fe6080604052600436106101d0575f3560e01c80638dd7712f116100f6578063c399ec8811610094578063e9ae5c5311610063578063e9ae5c53146105a3578063ea5f61d0146105b6578063eab77e17146105d5578063f2dc691d146105e8576101d7565b8063c399ec8814610531578063d03c791414610545578063d691c96414610564578063d86f2b3c14610584576101d7565b8063a71763a8116100d0578063a71763a8146104b9578063aaf10f42146104cc578063b0d691fe146104e0578063b46b61a914610512576101d7565b80638dd7712f146104485780639517e29f1461045b5780639cfd7cff1461046e576101d7565b80634b6a14191161016e5780635bfeadbb1161013d5780635bfeadbb146103c35780635faac46b146103d65780637b1039991461040357806384b0196e14610421576101d7565b80634b6a1419146103765780634d44560d146103895780634f1ef2861461039c57806352d1902d146103af576101d7565b806319822f7c116101aa57806319822f7c1461027b578063392e53cd146102a8578063481ddd23146102bc5780634a58db191461036e576101d7565b80630a664dba146101e3578063112d3a7d146102145780631626ba7e14610243576101d7565b366101d757005b6101e15f36610607565b005b3480156101ee575f5ffd5b506101f7610903565b6040516001600160a01b0390911681526020015b60405180910390f35b34801561021f575f5ffd5b5061023361022e366004615230565b610927565b604051901515815260200161020b565b34801561024e575f5ffd5b5061026261025d366004615288565b61093f565b6040516001600160e01b0319909116815260200161020b565b348015610286575f5ffd5b5061029a6102953660046152e7565b610a4d565b60405190815260200161020b565b3480156102b3575f5ffd5b50610233610d51565b3480156102c7575f5ffd5b506103466102d6366004615346565b6001600160e01b0319165f9081527f0bb70095b32b9671358306b0339b4c06e7cbd8cb82505941fba30d1eb5b82f0260209081526040918290208251808401909352546001600160a01b038116808452600160a01b90910460f81b6001600160f81b031916929091018290529091565b604080516001600160f81b031990931683526001600160a01b0390911660208301520161020b565b6101e1610e00565b6101e1610384366004615361565b610e34565b6101e1610397366004615394565b610e51565b6101e16103aa3660046153be565b610f06565b3480156103ba575f5ffd5b5061029a6110c3565b6101e16103d13660046153f6565b6110f2565b3480156103e1575f5ffd5b506103f56103f0366004615394565b61136d565b60405161020b92919061542f565b34801561040e575f5ffd5b505f546101f7906001600160a01b031681565b34801561042c575f5ffd5b50610435611393565b60405161020b97969594939291906154bc565b6101e1610456366004615556565b61143b565b6101e1610469366004615230565b6116d2565b348015610479575f5ffd5b50604080518082018252601481527f6269636f6e6f6d792e6e657875732e312e322e300000000000000000000000006020820152905161020b9190615598565b6101e16104c7366004615230565b611778565b3480156104d7575f5ffd5b506101f7611aaf565b3480156104eb575f5ffd5b507f00000000000000000000000000000000000000000000000000000000000000006101f7565b34801561051d575f5ffd5b5061026261052c366004615288565b611ae5565b34801561053c575f5ffd5b5061029a611c6c565b348015610550575f5ffd5b5061023361055f3660046155aa565b611cb5565b610577610572366004615288565b611d23565b60405161020b91906155c1565b34801561058f575f5ffd5b5061029a61059e366004615624565b611fa1565b6101e16105b1366004615288565b612068565b3480156105c1575f5ffd5b506103f56105d0366004615394565b61224f565b6101e16105e336600461565b565b61227d565b3480156105f3575f5ffd5b506102336106023660046155aa565b6122dc565b5f80356001600160e01b03191681527f0bb70095b32b9671358306b0339b4c06e7cbd8cb82505941fba30d1eb5b82f02602052604081208054606091906001600160a01b03811690600160a01b900460f81b8115610899575f61067e5f516020615e445f395f51905f52546001600160a01b031690565b905060606001600160a01b038216156107085760405163d68f602560e01b81526001600160a01b0383169063d68f6025906106c390339034905f90369060040161571e565b5f604051808303815f875af11580156106de573d5f5f3e3d5ffd5b505050506040513d5f823e601f3d908101601f19168201604052610705919081019061582e565b90505b6001600160f81b03198316607f60f91b0361078657836001600160a01b03166107318a8a612335565b60405161073e9190615860565b5f60405180830381855afa9150503d805f8114610776576040519150601f19603f3d011682016040523d82523d5f602084013e61077b565b606091505b50909750955061081b565b6001600160f81b031983166107f157836001600160a01b0316346107aa8b8b612335565b6040516107b79190615860565b5f6040518083038185875af1925050503d805f8114610776576040519150601f19603f3d011682016040523d82523d5f602084013e61077b565b604051632e5bf3f960e21b81526001600160f81b0319841660048201526024015b60405180910390fd5b8661082857855160208701fd5b6001600160a01b0382161561089157604051630b9dfbed60e11b81526001600160a01b0383169063173bf7da90610863908490600401615598565b5f604051808303815f87803b15801561087a575f5ffd5b505af115801561088c573d5f5f3e3d5ffd5b505050505b855160208701f35b5f3560e01c63150b7a02811463f23a6e61821463bc197c8183141717156108c457806020526020603cf35b6040517f08c63e270000000000000000000000000000000000000000000000000000000081526001600160e01b03195f35166004820152602401610812565b5f6109225f516020615e445f395f51905f52546001600160a01b031690565b905090565b5f6109348585858561236a565b90505b949350505050565b5f8181036109785761095461ffff831961588a565b610960906177396158a9565b840361097857610971848484611ae5565b9050610a46565b5f61099a61098960148386886158c0565b610992916158e7565b60601c612461565b905060606109b4866109af866014818a6158c0565b6124db565b604051637aa8f17760e11b815291975091506001600160a01b0383169063f551e2ee906109e99033908a908690600401615934565b602060405180830381865afa925050508015610a22575060408051601f3d908101601f19168201909252610a1f9181019061595b565b60015b610a3957506001600160e01b03199150610a469050565b9250610a46915050565b50505b9392505050565b5f81336001600160a01b037f00000000000000000000000000000000000000000000000000000000000000001614610a9857604051635629665f60e11b815260040160405180910390fd5b5f80610aa3876159c3565b90507f0200000000000000000000000000000000000000000000000000000000000000602088013560031a60f81b03610afe577f00000000000000000000000000000000000000000000000000000000000000009150610c9a565b602087013560031a60f81b15610c5157600160f81b602088013560031a60f81b03610b7857610b3a86610b356101008a018a615ac3565b6125da565b8080601f0160208091040260200160405190810160405280939291908181526020018383808284375f92019190915250505050610100820152610c51565b7f0300000000000000000000000000000000000000000000000000000000000000602088013560031a60f81b03610c5157610bb1610d51565b15610be8576040517fae4edb1b00000000000000000000000000000000000000000000000000000000815260040160405180910390fd5b365f610c00610bfb6101008b018b615ac3565b61268d565b83838080601f0160208091040260200160405190810160405280939291908181526020018383808284375f920191909152505050506101008801529094509250610c4e915083905082612769565b50505b602087013560401c6001600160a01b03169150610c6d82612853565b8290610c985760405163342cf00f60e11b81526001600160a01b039091166004820152602401610812565b505b610ca586828761286b565b6101008301526040517f970032030000000000000000000000000000000000000000000000000000000081529096506001600160a01b03831690639700320390610cf59084908a90600401615ba6565b6020604051808303815f875af1158015610d11573d5f5f3e3d5ffd5b505050506040513d601f19601f82011682018060405250810190610d359190615bc7565b935050508015610d49575f385f3884335af1505b509392505050565b6040517fd60b347f0000000000000000000000000000000000000000000000000000000081523060048201525f907f00000000000000000000000000000000000000000000000000000000000000006001600160a01b03169063d60b347f90602401602060405180830381865afa158015610dce573d5f5f3e3d5ffd5b505050506040513d601f19601f82011682018060405250810190610df29190615bde565b8061092257506109226128e2565b7f00000000000000000000000000000000000000000000000000000000000000005f38818134855af1610e31575f38fd5b50565b333014610e4357610e43612952565b610e4d8282612769565b5050565b336001600160a01b037f0000000000000000000000000000000000000000000000000000000000000000161480610e8757503330145b610ea457604051635629665f60e11b815260040160405180910390fd5b5f7f0000000000000000000000000000000000000000000000000000000000000000905060405183601452826034526f205c28780000000000000000000000005f525f38604460105f865af1610efc573d5f823e3d81fd5b505f603452505050565b5f610f255f516020615e445f395f51905f52546001600160a01b031690565b90506001600160a01b038116610f92576001600160a01b038416610f5c5760405163325c055b60e21b815260040160405180910390fd5b833b151580610f7e5760405163325c055b60e21b815260040160405180910390fd5b843055610f8c858585612987565b506110bd565b60405163d68f602560e01b81525f906001600160a01b0383169063d68f602590610fc690339034908690369060040161571e565b5f604051808303815f875af1158015610fe1573d5f5f3e3d5ffd5b505050506040513d5f823e601f3d908101601f19168201604052611008919081019061582e565b90506001600160a01b0385166110315760405163325c055b60e21b815260040160405180910390fd5b843b1515806110535760405163325c055b60e21b815260040160405180910390fd5b853055611061868686612987565b50604051630b9dfbed60e11b81526001600160a01b0383169063173bf7da9061108e908490600401615598565b5f604051808303815f87803b1580156110a5575f5ffd5b505af11580156110b7573d5f5f3e3d5ffd5b50505050505b50505050565b5f6110cc612a35565b507f360894a13ba1a3210667c828492db98dca3e2076cc3735a920a3ca505d382bbc5b90565b6110fd838383612a66565b5f803681602087018035906111129089615bfd565b61111f60408a018a615ac3565b935093509350935060048414806111365750600884145b806111415750600984145b849061117c576040517f41c38b3000000000000000000000000000000000000000000000000000000000815260040161081291815260200190565b506111898484848461236a565b848490916111bc57604051635f300b3960e11b815260048101929092526001600160a01b03166024820152604401610812565b50505f6111d35f516020615e245f395f51905f5290565b6001600160a01b0385165f908152600482016020526040812054919250819003611253576001600160a01b0385165f81815260048401602090815260409182902042908190558251938452908301527f2841d18703faaff388732165e48fe431468531b1b1e626b1b7cbcbfc0d79c74091015b60405180910390a16110b7565b6112616201518060036158a9565b61126b9082615c18565b42106112c4576001600160a01b0385165f81815260048401602090815260409182902042908190558251938452908301527fcbd44a75f6935b5837022648b6c8487db984701200c5381c7c0f8c2b1d69b9da9101611246565b6112d16201518082615c18565b421061133b576001600160a01b0385165f9081526004830160205260408120556112fd85878686612c54565b604080518781526001600160a01b03871660208201527f341347516a9de374859dfda710fa4828b2d48cb57d4fbe4c1149612b8e02276e9101611246565b6040517f07f2f2d200000000000000000000000000000000000000000000000000000000815260040160405180910390fd5b60605f6113885f516020615e245f395f51905f528585612d03565b909590945092505050565b7f0f000000000000000000000000000000000000000000000000000000000000006060805f80808361142960408051808201825260058082527f4e6578757300000000000000000000000000000000000000000000000000000060208084019190915283518085019094529083527f312e322e300000000000000000000000000000000000000000000000000000009083015291565b97989097965046955030945091925090565b336001600160a01b037f0000000000000000000000000000000000000000000000000000000000000000161461148457604051635629665f60e11b815260040160405180910390fd5b5f6114a35f516020615e445f395f51905f52546001600160a01b031690565b90506001600160a01b03811661155957365f6114c26060860186615ac3565b6114d09160049082906158c0565b915091505f5f306001600160a01b031684846040516114f0929190615c2b565b5f60405180830381855af49150503d805f8114611528576040519150601f19603f3d011682016040523d82523d5f602084013e61152d565b606091505b50915091508161155057604051632b3f6d1160e21b815260040160405180910390fd5b50505050505050565b60405163d68f602560e01b81525f906001600160a01b0383169063d68f60259061158d90339034908690369060040161571e565b5f604051808303815f875af11580156115a8573d5f5f3e3d5ffd5b505050506040513d5f823e601f3d908101601f191682016040526115cf919081019061582e565b9050365f6115e06060870187615ac3565b6115ee9160049082906158c0565b915091505f5f306001600160a01b0316848460405161160e929190615c2b565b5f60405180830381855af49150503d805f8114611646576040519150601f19603f3d011682016040523d82523d5f602084013e61164b565b606091505b50915091508161166e57604051632b3f6d1160e21b815260040160405180910390fd5b5050604051630b9dfbed60e11b81526001600160a01b038516925063173bf7da915061169e908490600401615598565b5f604051808303815f87803b1580156116b5575f5ffd5b505af11580156116c7573d5f5f3e3d5ffd5b50505050505b505050565b336001600160a01b037f000000000000000000000000000000000000000000000000000000000000000016148061170857503330145b61172557604051635629665f60e11b815260040160405180910390fd5b61173184848484612d1d565b604080518581526001600160a01b03851660208201527fd21d0b289f126c4b473ea641963e766833c2f13866e4ff480abd787c100ef123910160405180910390a150505050565b336001600160a01b037f00000000000000000000000000000000000000000000000000000000000000001614806117ae57503330145b6117cb57604051635629665f60e11b815260040160405180910390fd5b5f6117ea5f516020615e445f395f51905f52546001600160a01b031690565b90506001600160a01b0381166118ea576118068585858561236a565b8585909161183957604051635f300b3960e11b815260048101929092526001600160a01b03166024820152604401610812565b5050600185036118535761184e848484612fa0565b6118a4565b600285036118665761184e848484613030565b600385036118795761184e8484846130c9565b60048514806118885750600885145b806118935750600985145b156118a4576118a484868585612c54565b604080518681526001600160a01b03861660208201527f341347516a9de374859dfda710fa4828b2d48cb57d4fbe4c1149612b8e02276e910160405180910390a1611aa8565b60405163d68f602560e01b81525f906001600160a01b0383169063d68f60259061191e90339034908690369060040161571e565b5f604051808303815f875af1158015611939573d5f5f3e3d5ffd5b505050506040513d5f823e601f3d908101601f19168201604052611960919081019061582e565b905061196e8686868661236a565b868690916119a157604051635f300b3960e11b815260048101929092526001600160a01b03166024820152604401610812565b5050600186036119bb576119b6858585612fa0565b611a0c565b600286036119ce576119b6858585613030565b600386036119e1576119b68585856130c9565b60048614806119f05750600886145b806119fb5750600986145b15611a0c57611a0c85878686612c54565b604080518781526001600160a01b03871660208201527f341347516a9de374859dfda710fa4828b2d48cb57d4fbe4c1149612b8e02276e910160405180910390a1604051630b9dfbed60e11b81526001600160a01b0383169063173bf7da90611a79908490600401615598565b5f604051808303815f87803b158015611a90575f5ffd5b505af1158015611aa2573d5f5f3e3d5ffd5b50505050505b5050505050565b7f360894a13ba1a3210667c828492db98dca3e2076cc3735a920a3ca505d382bbc546001600160a01b0381166110ef5750305490565b60015f9081525f516020615e245f395f51905f5260208190527ffe44ceacbf4f03c6ac19f86826dd265fa9ec25125e8b1766c207f24cd3bc73c7548291906001600160a01b03165b6001600160a01b03811615801590611b4f57506001600160a01b038116600114155b15611c4157604051637aa8f17760e11b81525f906001600160a01b0383169063f551e2ee90611b889033908c908c908c9060040161571e565b602060405180830381865afa158015611ba3573d5f5f3e3d5ffd5b505050506040513d601f19601f82011682018060405250810190611bc7919061595b565b90507fffff00000000000000000000000000000000000000000000000000000000000081167f7739000000000000000000000000000000000000000000000000000000000000148015611c2657506001600160e01b0319808516908216115b15611c2f578093505b611c3983836131d0565b915050611b2d565b50506001600160e01b0319811615611c595780611c63565b6001600160e01b03195b95945050505050565b5f5f7f00000000000000000000000000000000000000000000000000000000000000009050306020526370a082315f526020806024601c845afa601f3d11166020510291505090565b5f81600881901b6001600160f81b031982161580611ce057506001600160f81b03198216600160f81b145b80611cf457506001600160f81b0319808316145b801561093757506001600160f81b03198116158061093757506001600160f81b03198116600160f81b14610937565b6060611d41335f516020615e245f395f51905f525b60010190613223565b3390611d85576040517fb927fe5e0000000000000000000000000000000000000000000000000000000081526001600160a01b039091166004820152602401610812565b505f611da55f516020615e445f395f51905f52546001600160a01b031690565b90506001600160a01b038116611e5357336002611dc2828261325b565b86600881901b6001600160f81b03198216611de957611de28888836132dd565b9550611e4a565b6001600160f81b03198216600160f81b03611e0957611de2888883613432565b6001600160f81b031980831603611e2557611de28888836134a9565b604051632e5bf3f960e21b81526001600160f81b031983166004820152602401610812565b50505050610d49565b60405163d68f602560e01b81525f906001600160a01b0383169063d68f602590611e8790339034908690369060040161571e565b5f604051808303815f875af1158015611ea2573d5f5f3e3d5ffd5b505050506040513d5f823e601f3d908101601f19168201604052611ec9919081019061582e565b9050336002611ed8828261325b565b87600881901b6001600160f81b03198216611eff57611ef88989836132dd565b9650611f3b565b6001600160f81b03198216600160f81b03611f1f57611ef8898983613432565b6001600160f81b031980831603611e2557611ef88989836134a9565b5050604051630b9dfbed60e11b81526001600160a01b038516925063173bf7da9150611f6b908490600401615598565b5f604051808303815f87803b158015611f82575f5ffd5b505af1158015611f94573d5f5f3e3d5ffd5b5050505050509392505050565b6040517f35567e1a00000000000000000000000000000000000000000000000000000000815230600482015277ffffffffffffffffffffffffffffffffffffffffffffffff821660248201525f907f00000000000000000000000000000000000000000000000000000000000000006001600160a01b0316906335567e1a90604401602060405180830381865afa15801561203e573d5f5f3e3d5ffd5b505050506040513d601f19601f820116820180604052508101906120629190615bc7565b92915050565b336001600160a01b037f000000000000000000000000000000000000000000000000000000000000000016146120b157604051635629665f60e11b815260040160405180910390fd5b5f6120d05f516020615e445f395f51905f52546001600160a01b031690565b90506001600160a01b0381166121485783600881901b6001600160f81b03198216612105576121008585836135f7565b612141565b6001600160f81b03198216600160f81b03612125576121008585836136c3565b6001600160f81b031980831603611e2557612100858583613737565b50506110bd565b60405163d68f602560e01b81525f906001600160a01b0383169063d68f60259061217c90339034908690369060040161571e565b5f604051808303815f875af1158015612197573d5f5f3e3d5ffd5b505050506040513d5f823e601f3d908101601f191682016040526121be919081019061582e565b905084600881901b6001600160f81b031982166121e5576121e08686836135f7565b612221565b6001600160f81b03198216600160f81b03612205576121e08686836136c3565b6001600160f81b031980831603611e25576121e0868683613737565b5050604051630b9dfbed60e11b81526001600160a01b0383169063173bf7da9061108e908490600401615598565b60605f6113887f0bb70095b32b9671358306b0339b4c06e7cbd8cb82505941fba30d1eb5b82f018585612d03565b336001600160a01b037f00000000000000000000000000000000000000000000000000000000000000001614806122b357503330145b6122d057604051635629665f60e11b815260040160405180910390fd5b6110bd848484846137d8565b5f60018214806122ec5750600282145b806122f75750600382145b806123025750600482145b8061230d5750600882145b806123185750600982145b80612321575081155b1561232e57506001919050565b505f919050565b6060604080513681016020019091529050601436018152365f602083013760408051601481019091523360601b905292915050565b5f600185036123835761237c84612853565b9050610937565b600285036123945761237c846138aa565b60038503612411575f600483106123c2576123b260045f85876158c0565b6123bb91615c3a565b90506123c5565b505f5b6001600160e01b0319165f9081527f0bb70095b32b9671358306b0339b4c06e7cbd8cb82505941fba30d1eb5b82f0260205260409020546001600160a01b038581169116149050610937565b600485036124225761237c846138c2565b60088514806124315750600985145b1561245a57836001600160a01b0316612449866138fb565b6001600160a01b0316149050610937565b505f610937565b5f6087196001600160a01b0383160161249b57507f0000000000000000000000000000000000000000000000000000000000000000919050565b6124a482612853565b82906124cf5760405163342cf00f60e11b81526001600160a01b039091166004820152602401610812565b5090919050565b919050565b5f60605f6124e960086138fb565b90506001600160a01b0381166125405785858581818080601f0160208091040260200160405190810160405280939291908181526020018383808284375f920191909152509598509196506125d295505050505050565b6040517f7a0468b70000000000000000000000000000000000000000000000000000000081526001600160a01b03821690637a0468b79061258b9033908a908a908a9060040161571e565b5f60405180830381865afa1580156125a5573d5f5f3e3d5ffd5b505050506040513d5f823e601f3d908101601f191682016040526125cc9190810190615c6f565b92509250505b935093915050565b365f5f5f365f365f6125ec8a8a613964565b909e509c50949a509298509096509450925090505f61261161098960148385876158c0565b905061262082601481866158c0565b9250925061263c61263488888f89896139b8565b848484613a50565b612672576040517f46fdc33300000000000000000000000000000000000000000000000000000000815260040160405180910390fd5b61267e86888787612d1d565b50505050505050935093915050565b365f365f5f60618610156126a85763aed595955f526004601cfd5b5050604080519086013586016020818101955090359350808701358701908101925035908635905f906126f29030906126e49087908790615c2b565b604051809103902084613af2565b90508061272b576040517fe483bbcb00000000000000000000000000000000000000000000000000000000815260040160405180910390fd5b6040518181527f4f058962bce244bca6c9be42f256083afc66f1f63a1f9a04e31a3042311af38d9060200160405180910390a1505092959194509250565b60188110156127a4576040517ff9c42c6000000000000000000000000000000000000000000000000000000000815260040160405180910390fd5b6040518235906020808501358501908101919035905f906001600160a01b038516906127d39085908590615c2b565b5f60405180830381855af49150503d805f811461280b576040519150601f19603f3d011682016040523d82523d5f602084013e612810565b606091505b505090508061284b576040517f315927c500000000000000000000000000000000000000000000000000000000815260040160405180910390fd5b505050505050565b5f6120625f516020615e245f395f51905f5283613223565b5f60605f61287960096138fb565b90506001600160a01b0381166128995750505061010082015183906125d2565b6040517fe24f8f930000000000000000000000000000000000000000000000000000000081526001600160a01b0382169063e24f8f939061258b90889088908b90600401615cb3565b60015f9081525f516020615e245f395f51905f5260208190527ffe44ceacbf4f03c6ac19f86826dd265fa9ec25125e8b1766c207f24cd3bc73c7546001600160a01b03161580159061294c575060015f81815290820160205260409020546001600160a01b031615155b91505090565b7f90b772c2cb8a51aa7a8a65fc23543c6d022d5b3f8e2b92eed79fba7eef829300805c80610e4d5763aed595955f526004601cfd5b61298f613b23565b61299883613b52565b8260601b60601c92503d5f526352d1902d6001527f360894a13ba1a3210667c828492db98dca3e2076cc3735a920a3ca505d382bbc80602060016004601d885afa51146129ed576355299b496001526004601dfd5b837fbc7cd75a20ee27fd9adebab32041f755214dbc6bffa90cc0225b39da2e5c2d3b5f38a283905580156116cd57604051818382375f388383875af46110bd573d5f823e3d81fd5b307f000000000000000000000000000000000000000000000000000000000000000014612a6457612a64613be4565b565b5f612a7460148284866158c0565b612a7d916158e7565b60601c9050612a8b81612853565b8190612ab65760405163342cf00f60e11b81526001600160a01b039091166004820152602401610812565b505f612ae4612ac86020870187615bfd565b6020870135612ada6040890189615ac3565b8960600135613bf1565b60608601355f9081527f0bb70095b32b9671358306b0339b4c06e7cbd8cb82505941fba30d1eb5b82f07602052604090205490915060ff1615612b53576040517f756688fe00000000000000000000000000000000000000000000000000000000815260040160405180910390fd5b60608501355f9081527f0bb70095b32b9671358306b0339b4c06e7cbd8cb82505941fba30d1eb5b82f0760205260409020805460ff19166001179055630b135d3f60e11b6001600160a01b03831663f551e2ee3084612bb5886014818c6158c0565b6040518563ffffffff1660e01b8152600401612bd4949392919061571e565b602060405180830381865afa158015612bef573d5f5f3e3d5ffd5b505050506040513d601f19601f82011682018060405250810190612c13919061595b565b6001600160e01b03191614611aa8576040517fbf6b584300000000000000000000000000000000000000000000000000000000815260040160405180910390fd5b60048303612c7d575f516020615e445f395f51905f5280546001600160a01b0319169055612c9d565b6008831480612c8c5750600983145b15612c9d57612c9d84848484613c90565b61284b5a5f5f638a91b0e360e01b8686604051602401612cbe929190615cd7565b60408051601f198184030181529190526020810180516001600160e01b03166001600160e01b0319909316929092179091526001600160a01b03891693929190613c9a565b60605f612d11858585613d20565b90969095509350505050565b5f612d3c5f516020615e445f395f51905f52546001600160a01b031690565b90506001600160a01b038116612e2457612d546128e2565b612d6057612d60613ee1565b6001600160a01b038416612d8757604051635316c18d60e01b815260040160405180910390fd5b60018503612d9f57612d9a848484613f21565b611aa8565b60028503612db257612d9a848484614062565b60038503612dc557612d9a84848461411d565b60048503612dd857612d9a84848461446e565b6008851480612de75750600985145b15612df857612d9a858585856145c3565b84612e0857612d9a84848461471c565b6040516304c1896960e11b815260048101869052602401610812565b60405163d68f602560e01b81525f906001600160a01b0383169063d68f602590612e5890339034908690369060040161571e565b5f604051808303815f875af1158015612e73573d5f5f3e3d5ffd5b505050506040513d5f823e601f3d908101601f19168201604052612e9a919081019061582e565b9050612ea46128e2565b612eb057612eb0613ee1565b6001600160a01b038516612ed757604051635316c18d60e01b815260040160405180910390fd5b60018603612eef57612eea858585613f21565b612f74565b60028603612f0257612eea858585614062565b60038603612f1557612eea85858561411d565b60048603612f2857612eea85858561446e565b6008861480612f375750600986145b15612f4857612eea868686866145c3565b85612f5857612eea85858561471c565b6040516304c1896960e11b815260048101879052602401610812565b604051630b9dfbed60e11b81526001600160a01b0383169063173bf7da90611a79908490600401615598565b5f516020615e245f395f51905f525f80612fbc85850186615cea565b9092509050612fcc8383886148b7565b6116c75a5f5f638a91b0e360e01b85604051602401612feb9190615598565b60408051601f198184030181529190526020810180516001600160e01b03166001600160e01b0319909316929092179091526001600160a01b038b1693929190613c9a565b5f8061303e83850185615cea565b91509150613065828661305b5f516020615e245f395f51905f5290565b60010191906148b7565b6115505a5f5f638a91b0e360e01b856040516024016130849190615598565b60408051601f198184030181529190526020810180516001600160e01b03166001600160e01b0319909316929092179091526001600160a01b038a1693929190613c9a565b604080518082019091525f80825260208201525f516020615e245f395f51905f526002015f6130fb60048286886158c0565b61310491615c3a565b6001600160e01b03191681526020808201929092526040015f2082518154939092015160f81c600160a01b0274ffffffffffffffffffffffffffffffffffffffffff199093166001600160a01b0390921691909117919091179055611aa85a5f80638a91b0e360e01b61317a866004818a6158c0565b60405160240161318b929190615cd7565b60408051601f198184030181529190526020810180516001600160e01b03166001600160e01b0319909316929092179091526001600160a01b03881693929190613c9a565b5f6001600160a01b03821661320357604051637c84ecfb60e01b81526001600160a01b0383166004820152602401610812565b506001600160a01b039081165f9081526020929092526040909120541690565b5f60016001600160a01b03831614801590610a465750506001600160a01b039081165f90815260209290925260409091205416151590565b5f546001600160a01b031680156116cd576040517f96fb72170000000000000000000000000000000000000000000000000000000081526001600160a01b038481166004830152602482018490528216906396fb7217906044015f6040518083038186803b1580156132cb575f5ffd5b505afa158015611550573d5f5f3e3d5ffd5b60605f5f365f6132ed888861498a565b6040805160018082528183019092529498509296509094509250816020015b606081526020019060019003908161330c57509095505f90506001600160f81b0319871661336257613340858585856149da565b865f8151811061335257613352615d2d565b6020026020010181905250613426565b6001600160f81b03198716600160f81b036134015761338385858585614a0d565b875f8151811061339557613395615d2d565b60209081029190910101529050806133fc577fb5282692b8c578af7fb880895d599035496b5e64d1f14bf428a1ed3bc406f6628383885f815181106133dc576133dc615d2d565b60200260200101516040516133f393929190615d41565b60405180910390a15b613426565b6040516308c3ee0360e11b81526001600160f81b031988166004820152602401610812565b50505050509392505050565b6060365f6134408686614a3b565b90925090506001600160f81b031984166134655761345e8282614ad1565b9250610a43565b6001600160f81b03198416600160f81b036134845761345e8282614ba7565b6040516308c3ee0360e11b81526001600160f81b031985166004820152602401610812565b60605f365f6134b88787614cde565b6040805160018082528183019092529396509194509250816020015b60608152602001906001900390816134d457509094505f90506001600160f81b0319861661352957613507848484614d14565b855f8151811061351957613519615d2d565b60200260200101819052506135ec565b6001600160f81b03198616600160f81b036135c757613549848484614d45565b865f8151811061355b5761355b615d2d565b60209081029190910101529050806135c2577f5bd4c60b4b38b664d8fb5944eb974e3d85083d79afe5ce934ccabcc913707c108383875f815181106135a2576135a2615d2d565b60200260200101516040516135b993929190615d41565b60405180910390a15b6135ec565b6040516308c3ee0360e11b81526001600160f81b031987166004820152602401610812565b505050509392505050565b5f5f365f613605878761498a565b929650909450925090506001600160f81b0319851661362f5761362a84848484614d71565b611550565b6001600160f81b03198516600160f81b0361369e575f5f61365286868686614a0d565b9150915081613697577fb5282692b8c578af7fb880895d599035496b5e64d1f14bf428a1ed3bc406f66284848360405161368e93929190615d41565b60405180910390a15b5050611550565b6040516308c3ee0360e11b81526001600160f81b031986166004820152602401610812565b365f6136cf8585614a3b565b90925090506001600160f81b031983166136ed57612d9a8282614d95565b6001600160f81b03198316600160f81b036137125761370c8282614ba7565b50611aa8565b6040516308c3ee0360e11b81526001600160f81b031984166004820152602401610812565b5f365f6137448686614cde565b919450925090506001600160f81b0319841661376a57613765838383614df5565b61284b565b6001600160f81b03198416600160f81b03613484575f5f61378c858585614d45565b91509150816137d1577f5bd4c60b4b38b664d8fb5944eb974e3d85083d79afe5ce934ccabcc913707c108484836040516137c893929190615d41565b60405180910390a15b505061284b565b5f80546001600160a01b0319166001600160a01b03861690811790915515613871576040517ff05c04e10000000000000000000000000000000000000000000000000000000081526001600160a01b0385169063f05c04e19061384390849087908790600401615d66565b5f604051808303815f87803b15801561385a575f5ffd5b505af115801561386c573d5f5f3e3d5ffd5b505050505b6040516001600160a01b038516907ff98c8404c5b1bfef2e6ba9233c6e88845aedfd36eea8b192725d8c199571cf32905f90a250505050565b5f612062825f516020615e245f395f51905f52611d38565b5f816001600160a01b03166138eb5f516020615e445f395f51905f52546001600160a01b031690565b6001600160a01b03161492915050565b5f60088214613934577f0bb70095b32b9671358306b0339b4c06e7cbd8cb82505941fba30d1eb5b82f05546001600160a01b0316612062565b50507f0bb70095b32b9671358306b0339b4c06e7cbd8cb82505941fba30d1eb5b82f06546001600160a01b031690565b813560601c6014830135603880850190603486013560e090811c91603c838901818101939281013590921c9136915f9184018b9003016139a68a82818e6158c0565b92509250509295985092959890939650565b5f7fbe844ccefa05559a48680cb7fe805b2ec58df122784191aed18f9f315c763e1b5f1b86868686866040516139ef929190615c2b565b604051908190038120613a2f95949392916020019485526001600160a01b0393909316602085015260408401919091526060830152608082015260a00190565b60405160208183030381529060405280519060200120905095945050505050565b5f5f613a5b86614e17565b604051637aa8f17760e11b81529091506001600160a01b0384169063f551e2ee90613a9090309085908a908a9060040161571e565b602060405180830381865afa925050508015613ac9575060408051601f3d908101601f19168201909252613ac69181019061595b565b60015b613ad6575f915050610937565b6001600160e01b031916630b135d3f60e11b1491506109379050565b5f82815260a082901c602052604090206001600160a01b0316613b16848284614f2d565b610a4657505f9392505050565b307f000000000000000000000000000000000000000000000000000000000000000003612a6457612a64613be4565b336001600160a01b037f0000000000000000000000000000000000000000000000000000000000000000161480613b8857503330145b613ba557604051635629665f60e11b815260040160405180910390fd5b613bad614f7f565b15610e31576040517fdc3b837900000000000000000000000000000000000000000000000000000000815260040160405180910390fd5b639f03a0265f526004601cfd5b5f613c867fd3ddfc12654178cc44d4a7b6b969cfdce7ffe6342326ba37825314cffa0fba9c5f1b87878787604051613c2a929190615c2b565b604051908190038120613c6b9493929188906020019485526001600160a01b0393909316602085015260408401919091526060830152608082015260a00190565b60405160208183030381529060405280519060200120614e17565b9695505050505050565b612c9d835f614f9d565b5f60605f5f5f8661ffff1667ffffffffffffffff811115613cbd57613cbd615746565b6040519080825280601f01601f191660200182016040528015613ce7576020820181803683370190505b5090505f5f8751602089018b8e8ef191503d925086831115613d07578692505b828152825f602083013e90999098509650505050505050565b60605f6001600160a01b038416600114801590613d445750613d428585613223565b155b15613d6d57604051637c84ecfb60e01b81526001600160a01b0385166004820152602401610812565b825f03613da6576040517ff725081700000000000000000000000000000000000000000000000000000000815260040160405180910390fd5b8267ffffffffffffffff811115613dbf57613dbf615746565b604051908082528060200260200182016040528015613de8578160200160208202803683370190505b506001600160a01b038086165f90815260208890526040812054929450911691505b6001600160a01b03821615801590613e2c57506001600160a01b038216600114155b8015613e3757508381105b15613e905781838281518110613e4f57613e4f615d2d565b6001600160a01b039283166020918202929092018101919091529281165f908152928790526040909220549091169080613e8881615dbd565b915050613e0a565b6001600160a01b038216600114801590613ea957505f81115b15613ed55782613eba600183615dd5565b81518110613eca57613eca615d2d565b602002602001015191505b80835250935093915050565b5f516020615e245f395f51905f52613f187f0bb70095b32b9671358306b0339b4c06e7cbd8cb82505941fba30d1eb5b82f01615031565b610e3181615031565b826001613f2e828261325b565b60405163ecd0596160e01b8152600160048201526001600160a01b0386169063ecd0596190602401602060405180830381865afa158015613f71573d5f5f3e3d5ffd5b505050506040513d601f19601f82011682018060405250810190613f959190615bde565b613fb257604051631c4f83bb60e31b815260040160405180910390fd5b7f00000000000000000000000000000000000000000000000000000000000000006001600160a01b0316856001600160a01b03160361401d576040517fabc3af7900000000000000000000000000000000000000000000000000000000815260040160405180910390fd5b6140345f516020615e245f395f51905f52866150a5565b6040516306d61fe760e41b81526001600160a01b03861690636d61fe709061108e9087908790600401615cd7565b82600261406f828261325b565b60405163ecd0596160e01b8152600260048201526001600160a01b0386169063ecd0596190602401602060405180830381865afa1580156140b2573d5f5f3e3d5ffd5b505050506040513d601f19601f820116820180604052508101906140d69190615bde565b6140f357604051631c4f83bb60e31b815260040160405180910390fd5b6140347f0bb70095b32b9671358306b0339b4c06e7cbd8cb82505941fba30d1eb5b82f01866150a5565b82600361412a828261325b565b60405163ecd0596160e01b8152600360048201526001600160a01b0386169063ecd0596190602401602060405180830381865afa15801561416d573d5f5f3e3d5ffd5b505050506040513d601f19601f820116820180604052508101906141919190615bde565b6141ae57604051631c4f83bb60e31b815260040160405180910390fd5b5f6141bc60048286886158c0565b6141c591615c3a565b90505f858560048181106141db576141db615d2d565b909101356001600160f81b03191691505080158061420657506001600160f81b03198116607f60f91b145b61423c576040517f867a1dcf00000000000000000000000000000000000000000000000000000000815260040160405180910390fd5b5f61424a866005818a6158c0565b8080601f0160208091040260200160405190810160405280939291908181526020018383808284375f920191909152509293505050506001600160e01b031983166306d61fe760e41b14806142af57506001600160e01b03198316638a91b0e360e01b145b806142c257506001600160e01b03198316155b156142f9576040517fc001660b00000000000000000000000000000000000000000000000000000000815260040160405180910390fd5b6001600160e01b031983165f9081527f0bb70095b32b9671358306b0339b4c06e7cbd8cb82505941fba30d1eb5b82f02602052604090205483906001600160a01b031615614380576040517fa56a04dd0000000000000000000000000000000000000000000000000000000081526001600160e01b03199091166004820152602401610812565b506040805180820182526001600160a01b038a81168083526001600160f81b0319861660208085019182526001600160e01b031989165f9081527f0bb70095b32b9671358306b0339b4c06e7cbd8cb82505941fba30d1eb5b82f0290915285902093518454915160f81c600160a01b0274ffffffffffffffffffffffffffffffffffffffffff199092169316929092179190911790915590516306d61fe760e41b8152636d61fe7090614437908490600401615598565b5f604051808303815f87803b15801561444e575f5ffd5b505af1158015614460573d5f5f3e3d5ffd5b505050505050505050505050565b82600461447b828261325b565b60405163ecd0596160e01b81526004808201526001600160a01b0386169063ecd0596190602401602060405180830381865afa1580156144bd573d5f5f3e3d5ffd5b505050506040513d601f19601f820116820180604052508101906144e19190615bde565b6144fe57604051631c4f83bb60e31b815260040160405180910390fd5b5f61451d5f516020615e445f395f51905f52546001600160a01b031690565b9050806001600160a01b0381161561456d576040517f741cbe030000000000000000000000000000000000000000000000000000000081526001600160a01b039091166004820152602401610812565b505f516020615e445f395f51905f5280546001600160a01b0319166001600160a01b0388161790556040516306d61fe760e41b81526001600160a01b03871690636d61fe7090611a799088908890600401615cd7565b82846145cf828261325b565b60405163ecd0596160e01b8152600481018790526001600160a01b0386169063ecd0596190602401602060405180830381865afa158015614612573d5f5f3e3d5ffd5b505050506040513d601f19601f820116820180604052508101906146369190615bde565b61465357604051631c4f83bb60e31b815260040160405180910390fd5b5f61465d876138fb565b9050806001600160a01b038116156146ad576040517fc689cd970000000000000000000000000000000000000000000000000000000081526001600160a01b039091166004820152602401610812565b506146b88787614f9d565b6040516306d61fe760e41b81526001600160a01b03871690636d61fe70906146e69088908890600401615cd7565b5f604051808303815f87803b1580156146fd575f5ffd5b505af115801561470f573d5f5f3e3d5ffd5b5050505050505050505050565b81358201602081810191359084810135850190810190358281811461476d576040517fb4fa3fb300000000000000000000000000000000000000000000000000000000815260040160405180910390fd5b5f5b818110156110b7575f86868381811061478a5761478a615d2d565b905060200201359050600181036147cd576147c88a8686858181106147b1576147b1615d2d565b90506020028101906147c39190615ac3565b613f21565b6148ae565b60028103614802576147c88a8686858181106147eb576147eb615d2d565b90506020028101906147fd9190615ac3565b614062565b60038103614837576147c88a86868581811061482057614820615d2d565b90506020028101906148329190615ac3565b61411d565b6004810361486c576147c88a86868581811061485557614855615d2d565b90506020028101906148679190615ac3565b61446e565b600881148061487b5750600981145b156148ae576148ae818b87878681811061489757614897615d2d565b90506020028101906148a99190615ac3565b6145c3565b5060010161476f565b6001600160a01b03811615806148d657506001600160a01b0381166001145b156148ff57604051637c84ecfb60e01b81526001600160a01b0383166004820152602401610812565b6001600160a01b038281165f9081526020859052604090205481169082161461494657604051637c84ecfb60e01b81526001600160a01b0382166004820152602401610812565b6001600160a01b039081165f8181526020949094526040808520805494841686529085208054949093166001600160a01b0319948516179092559092528154169055565b5f80368161499b60148287896158c0565b6149a4916158e7565b60601c93506149b76034601487896158c0565b6149c091615de8565b92506149cf85603481896158c0565b949793965094505050565b604051818382375f38838387895af16149f5573d5f823e3d81fd5b3d8152602081013d5f823e3d01604052949350505050565b6040515f90828482375f388483888a5af191503d8152602081013d5f823e3d81016040525094509492505050565b365f833580850160208587010360208201945081359350808460051b8301118360401c1715614a715763ba597e7e5f526004601cfd5b8315614ac7578392505b6001830392508260051b850135915081850160408101358082018381358201118460408501111782861782351760401c1715614abe5763ba597e7e5f526004601cfd5b50505082614a7b575b5050509250929050565b60608167ffffffffffffffff811115614aec57614aec615746565b604051908082528060200260200182016040528015614b1f57816020015b6060815260200190600190039081614b0a5790505b509050365f5b83811015614b9f57848482818110614b3f57614b3f615d2d565b9050602002810190614b519190615e05565b9150614b7a614b636020840184615bfd565b6020840135614b756040860186615ac3565b6149da565b838281518110614b8c57614b8c615d2d565b6020908102919091010152600101614b25565b505092915050565b60608167ffffffffffffffff811115614bc257614bc2615746565b604051908082528060200260200182016040528015614bf557816020015b6060815260200190600190039081614be05790505b509050365f5b83811015614b9f57848482818110614c1557614c15615d2d565b9050602002810190614c279190615e05565b91505f614c51614c3a6020850185615bfd565b6020850135614c4c6040870187615ac3565b614a0d565b858481518110614c6357614c63615d2d565b6020908102919091010152905080614cd5577fb5282692b8c578af7fb880895d599035496b5e64d1f14bf428a1ed3bc406f662614ca36040850185615ac3565b868581518110614cb557614cb5615d2d565b6020026020010151604051614ccc93929190615d41565b60405180910390a15b50600101614bfb565b5f3681614cee60148286886158c0565b614cf7916158e7565b60601c9250614d0984601481886158c0565b915091509250925092565b604051818382375f388383875af4614d2e573d5f823e3d81fd5b3d8152602081013d5f823e3d016040529392505050565b6040515f90828482375f388483885af491503d8152602081013d5f823e3d810160405250935093915050565b604051818382375f38838387895af1614d8c573d5f823e3d81fd5b01604052505050565b365f5b828110156110bd57838382818110614db257614db2615d2d565b9050602002810190614dc49190615e05565b9150614ded614dd66020840184615bfd565b6020840135614de86040860186615ac3565b614d71565b600101614d98565b604051818382375f388383875af4614e0f573d5f823e3d81fd5b016040525050565b7f00000000000000000000000000000000000000000000000000000000000000007f000000000000000000000000000000000000000000000000000000000000000030147f0000000000000000000000000000000000000000000000000000000000000000461416614f0a5750604080517f8b73c3c69bb8fe3d512ecc4cf759cc79239f7b179b0ffacaa9a75d522b39400f81527f000000000000000000000000000000000000000000000000000000000000000060208201527f00000000000000000000000000000000000000000000000000000000000000009181019190915246606082015230608082015260a090205b6719010000000000005f5280601a5281603a52604260182090505f603a52919050565b5f82815260208082206080909152601f8390526305d78094600b526019602720613c866001600160a01b03871680151590614f6b84601b8a88615192565b6001600160a01b0316149015159015151690565b5f6017303b036110ef5760035f5f303c5f5160f01c61ef0114905090565b60088203614fe7577f0bb70095b32b9671358306b0339b4c06e7cbd8cb82505941fba30d1eb5b82f0680546001600160a01b0319166001600160a01b039290921691909117905550565b60098203610e4d577f0bb70095b32b9671358306b0339b4c06e7cbd8cb82505941fba30d1eb5b82f0580546001600160a01b0319166001600160a01b039290921691909117905550565b60015f908152602082905260409020546001600160a01b031615615081576040517f53c85e6600000000000000000000000000000000000000000000000000000000815260040160405180910390fd5b60015f818152602092909252604090912080546001600160a01b0319169091179055565b6001600160a01b03811615806150c457506001600160a01b0381166001145b156150ed57604051637c84ecfb60e01b81526001600160a01b0382166004820152602401610812565b6001600160a01b038181165f908152602084905260409020541615615149576040517f40d3d1a40000000000000000000000000000000000000000000000000000000081526001600160a01b0382166004820152602401610812565b60015f818152602093909352604080842080546001600160a01b039485168087529286208054959091166001600160a01b03199586161790559190935280549091169091179055565b5f604051855f5260ff851660205283604052826060526020604060805f60015afa505f6060523d6060185191508060405250949350505050565b6001600160a01b0381168114610e31575f5ffd5b80356124d6816151cc565b5f5f83601f8401126151fb575f5ffd5b50813567ffffffffffffffff811115615212575f5ffd5b602083019150836020828501011115615229575f5ffd5b9250929050565b5f5f5f5f60608587031215615243575f5ffd5b843593506020850135615255816151cc565b9250604085013567ffffffffffffffff811115615270575f5ffd5b61527c878288016151eb565b95989497509550505050565b5f5f5f6040848603121561529a575f5ffd5b83359250602084013567ffffffffffffffff8111156152b7575f5ffd5b6152c3868287016151eb565b9497909650939450505050565b5f61012082840312156152e1575f5ffd5b50919050565b5f5f5f606084860312156152f9575f5ffd5b833567ffffffffffffffff81111561530f575f5ffd5b61531b868287016152d0565b9660208601359650604090950135949350505050565b6001600160e01b031981168114610e31575f5ffd5b5f60208284031215615356575f5ffd5b8135610a4681615331565b5f5f60208385031215615372575f5ffd5b823567ffffffffffffffff811115615388575f5ffd5b612d11858286016151eb565b5f5f604083850312156153a5575f5ffd5b82356153b0816151cc565b946020939093013593505050565b5f5f5f604084860312156153d0575f5ffd5b83356153db816151cc565b9250602084013567ffffffffffffffff8111156152b7575f5ffd5b5f5f5f60408486031215615408575f5ffd5b833567ffffffffffffffff81111561541e575f5ffd5b8401608081870312156153db575f5ffd5b604080825283519082018190525f9060208501906060840190835b818110156154715783516001600160a01b031683526020938401939092019160010161544a565b505080925050506001600160a01b03831660208301529392505050565b5f81518084528060208401602086015e5f602082860101526020601f19601f83011685010191505092915050565b6001600160f81b03198816815260e060208201525f6154de60e083018961548e565b82810360408401526154f0818961548e565b606084018890526001600160a01b038716608085015260a0840186905283810360c0850152845180825260208087019350909101905f5b81811015615545578351835260209384019390920191600101615527565b50909b9a5050505050505050505050565b5f5f60408385031215615567575f5ffd5b823567ffffffffffffffff81111561557d575f5ffd5b615589858286016152d0565b95602094909401359450505050565b602081525f610a46602083018461548e565b5f602082840312156155ba575f5ffd5b5035919050565b5f602082016020835280845180835260408501915060408160051b8601019250602086015f5b8281101561561857603f1987860301845261560385835161548e565b945060209384019391909101906001016155e7565b50929695505050505050565b5f60208284031215615634575f5ffd5b813577ffffffffffffffffffffffffffffffffffffffffffffffff81168114610a46575f5ffd5b5f5f5f5f6060858703121561566e575f5ffd5b8435615679816151cc565b9350602085013567ffffffffffffffff811115615694575f5ffd5b8501601f810187136156a4575f5ffd5b803567ffffffffffffffff8111156156ba575f5ffd5b8760208260051b84010111156156ce575f5ffd5b60209190910193509150604085013560ff811681146156eb575f5ffd5b939692955090935050565b81835281816020850137505f828201602090810191909152601f909101601f19169091010190565b6001600160a01b0385168152836020820152606060408201525f613c866060830184866156f6565b634e487b7160e01b5f52604160045260245ffd5b604051610120810167ffffffffffffffff8111828210171561577e5761577e615746565b60405290565b604051601f8201601f1916810167ffffffffffffffff811182821017156157ad576157ad615746565b604052919050565b5f67ffffffffffffffff8211156157ce576157ce615746565b50601f01601f191660200190565b5f82601f8301126157eb575f5ffd5b81516157fe6157f9826157b5565b615784565b818152846020838601011115615812575f5ffd5b8160208501602083015e5f918101602001919091529392505050565b5f6020828403121561583e575f5ffd5b815167ffffffffffffffff811115615854575f5ffd5b610937848285016157dc565b5f82518060208501845e5f920191825250919050565b634e487b7160e01b5f52601160045260245ffd5b5f826158a457634e487b7160e01b5f52601260045260245ffd5b500490565b808202811582820484141761206257612062615876565b5f5f858511156158ce575f5ffd5b838611156158da575f5ffd5b5050820193919092039150565b80356bffffffffffffffffffffffff19811690601484101561592d576bffffffffffffffffffffffff196bffffffffffffffffffffffff198560140360031b1b82161691505b5092915050565b6001600160a01b0384168152826020820152606060408201525f610934606083018461548e565b5f6020828403121561596b575f5ffd5b8151610a4681615331565b5f82601f830112615985575f5ffd5b81356159936157f9826157b5565b8181528460208386010111156159a7575f5ffd5b816020850160208301375f918101602001919091529392505050565b5f61012082360312156159d4575f5ffd5b6159dc61575a565b6159e5836151e0565b815260208381013590820152604083013567ffffffffffffffff811115615a0a575f5ffd5b615a1636828601615976565b604083015250606083013567ffffffffffffffff811115615a35575f5ffd5b615a4136828601615976565b6060830152506080838101359082015260a0808401359082015260c0808401359082015260e083013567ffffffffffffffff811115615a7e575f5ffd5b615a8a36828601615976565b60e08301525061010083013567ffffffffffffffff811115615aaa575f5ffd5b615ab636828601615976565b6101008301525092915050565b5f5f8335601e19843603018112615ad8575f5ffd5b83018035915067ffffffffffffffff821115615af2575f5ffd5b602001915036819003821315615229575f5ffd5b80516001600160a01b03168252602081015160208301525f60408201516101206040850152615b3961012085018261548e565b905060608301518482036060860152615b52828261548e565b9150506080830151608085015260a083015160a085015260c083015160c085015260e083015184820360e0860152615b8a828261548e565b915050610100830151848203610100860152611c63828261548e565b604081525f615bb86040830185615b06565b90508260208301529392505050565b5f60208284031215615bd7575f5ffd5b5051919050565b5f60208284031215615bee575f5ffd5b81518015158114610a46575f5ffd5b5f60208284031215615c0d575f5ffd5b8135610a46816151cc565b8082018082111561206257612062615876565b818382375f9101908152919050565b80356001600160e01b0319811690600484101561592d576001600160e01b0319808560040360031b1b82161691505092915050565b5f5f60408385031215615c80575f5ffd5b82519150602083015167ffffffffffffffff811115615c9d575f5ffd5b615ca9858286016157dc565b9150509250929050565b606081525f615cc56060830186615b06565b60208301949094525060400152919050565b602081525f6109376020830184866156f6565b5f5f60408385031215615cfb575f5ffd5b8235615d06816151cc565b9150602083013567ffffffffffffffff811115615d21575f5ffd5b615ca985828601615976565b634e487b7160e01b5f52603260045260245ffd5b604081525f615d546040830185876156f6565b8281036020840152613c86818561548e565b60ff8416815260406020820181905281018290525f8360608301825b85811015615db2578235615d95816151cc565b6001600160a01b0316825260209283019290910190600101615d82565b509695505050505050565b5f60018201615dce57615dce615876565b5060010190565b8181038181111561206257612062615876565b80356020831015612062575f19602084900360031b1b1692915050565b5f8235605e19833603018112615e19575f5ffd5b919091019291505056fe0bb70095b32b9671358306b0339b4c06e7cbd8cb82505941fba30d1eb5b82f000bb70095b32b9671358306b0339b4c06e7cbd8cb82505941fba30d1eb5b82f03a164736f6c634300081b000a","linkReferences":{}},"methodIdentifiers":{"accountId()":"9cfd7cff","addDeposit()":"4a58db19","checkERC7739Support(bytes32,bytes)":"b46b61a9","eip712Domain()":"84b0196e","emergencyUninstallHook((address,uint256,bytes,uint256),bytes)":"5bfeadbb","entryPoint()":"b0d691fe","execute(bytes32,bytes)":"e9ae5c53","executeFromExecutor(bytes32,bytes)":"d691c964","executeUserOp((address,uint256,bytes,bytes,bytes32,uint256,bytes32,bytes,bytes),bytes32)":"8dd7712f","getActiveHook()":"0a664dba","getDeposit()":"c399ec88","getExecutorsPaginated(address,uint256)":"ea5f61d0","getFallbackHandlerBySelector(bytes4)":"481ddd23","getImplementation()":"aaf10f42","getValidatorsPaginated(address,uint256)":"5faac46b","initializeAccount(bytes)":"4b6a1419","installModule(uint256,address,bytes)":"9517e29f","isInitialized()":"392e53cd","isModuleInstalled(uint256,address,bytes)":"112d3a7d","isValidSignature(bytes32,bytes)":"1626ba7e","nonce(uint192)":"d86f2b3c","proxiableUUID()":"52d1902d","registry()":"7b103999","setRegistry(address,address[],uint8)":"eab77e17","supportsExecutionMode(bytes32)":"d03c7914","supportsModule(uint256)":"f2dc691d","uninstallModule(uint256,address,bytes)":"a71763a8","upgradeToAndCall(address,bytes)":"4f1ef286","validateUserOp((address,uint256,bytes,bytes,bytes32,uint256,bytes32,bytes,bytes),bytes32,uint256)":"19822f7c","withdrawDepositTo(address,uint256)":"4d44560d"},"id":0}