{"abi":[{"type":"constructor","inputs":[{"name":"anEntryPoint","type":"address","internalType":"address"},{"name":"defaultValidator","type":"address","internalType":"address"},{"name":"initData","type":"bytes","internalType":"bytes"}],"stateMutability":"nonpayable"},{"type":"fallback","stateMutability":"payable"},{"type":"receive","stateMutability":"payable"},{"type":"function","name":"accountId","inputs":[],"outputs":[{"name":"","type":"string","internalType":"string"}],"stateMutability":"pure"},{"type":"function","name":"addDeposit","inputs":[],"outputs":[],"stateMutability":"payable"},{"type":"function","name":"checkERC7739Support","inputs":[{"name":"hash","type":"bytes32","internalType":"bytes32"},{"name":"signature","type":"bytes","internalType":"bytes"}],"outputs":[{"name":"","type":"bytes4","internalType":"bytes4"}],"stateMutability":"view"},{"type":"function","name":"eip712Domain","inputs":[],"outputs":[{"name":"fields","type":"bytes1","internalType":"bytes1"},{"name":"name","type":"string","internalType":"string"},{"name":"version","type":"string","internalType":"string"},{"name":"chainId","type":"uint256","internalType":"uint256"},{"name":"verifyingContract","type":"address","internalType":"address"},{"name":"salt","type":"bytes32","internalType":"bytes32"},{"name":"extensions","type":"uint256[]","internalType":"uint256[]"}],"stateMutability":"view"},{"type":"function","name":"emergencyUninstallHook","inputs":[{"name":"data","type":"tuple","internalType":"struct EmergencyUninstall","components":[{"name":"hook","type":"address","internalType":"address"},{"name":"hookType","type":"uint256","internalType":"uint256"},{"name":"deInitData","type":"bytes","internalType":"bytes"},{"name":"nonce","type":"uint256","internalType":"uint256"}]},{"name":"signature","type":"bytes","internalType":"bytes"}],"outputs":[],"stateMutability":"payable"},{"type":"function","name":"entryPoint","inputs":[],"outputs":[{"name":"","type":"address","internalType":"address"}],"stateMutability":"view"},{"type":"function","name":"execute","inputs":[{"name":"mode","type":"bytes32","internalType":"ExecutionMode"},{"name":"executionCalldata","type":"bytes","internalType":"bytes"}],"outputs":[],"stateMutability":"payable"},{"type":"function","name":"executeComposable","inputs":[{"name":"executions","type":"tuple[]","internalType":"struct ComposableExecution[]","components":[{"name":"to","type":"address","internalType":"address"},{"name":"value","type":"uint256","internalType":"uint256"},{"name":"functionSig","type":"bytes4","internalType":"bytes4"},{"name":"inputParams","type":"tuple[]","internalType":"struct InputParam[]","components":[{"name":"fetcherType","type":"uint8","internalType":"enum InputParamFetcherType"},{"name":"paramData","type":"bytes","internalType":"bytes"},{"name":"constraints","type":"tuple[]","internalType":"struct Constraint[]","components":[{"name":"constraintType","type":"uint8","internalType":"enum ConstraintType"},{"name":"referenceData","type":"bytes","internalType":"bytes"}]}]},{"name":"outputParams","type":"tuple[]","internalType":"struct OutputParam[]","components":[{"name":"fetcherType","type":"uint8","internalType":"enum OutputParamFetcherType"},{"name":"paramData","type":"bytes","internalType":"bytes"}]}]}],"outputs":[],"stateMutability":"payable"},{"type":"function","name":"executeFromExecutor","inputs":[{"name":"mode","type":"bytes32","internalType":"ExecutionMode"},{"name":"executionCalldata","type":"bytes","internalType":"bytes"}],"outputs":[{"name":"returnData","type":"bytes[]","internalType":"bytes[]"}],"stateMutability":"payable"},{"type":"function","name":"executeUserOp","inputs":[{"name":"userOp","type":"tuple","internalType":"struct PackedUserOperation","components":[{"name":"sender","type":"address","internalType":"address"},{"name":"nonce","type":"uint256","internalType":"uint256"},{"name":"initCode","type":"bytes","internalType":"bytes"},{"name":"callData","type":"bytes","internalType":"bytes"},{"name":"accountGasLimits","type":"bytes32","internalType":"bytes32"},{"name":"preVerificationGas","type":"uint256","internalType":"uint256"},{"name":"gasFees","type":"bytes32","internalType":"bytes32"},{"name":"paymasterAndData","type":"bytes","internalType":"bytes"},{"name":"signature","type":"bytes","internalType":"bytes"}]},{"name":"","type":"bytes32","internalType":"bytes32"}],"outputs":[],"stateMutability":"payable"},{"type":"function","name":"getActiveHook","inputs":[],"outputs":[{"name":"hook","type":"address","internalType":"address"}],"stateMutability":"view"},{"type":"function","name":"getDeposit","inputs":[],"outputs":[{"name":"result","type":"uint256","internalType":"uint256"}],"stateMutability":"view"},{"type":"function","name":"getExecutorsPaginated","inputs":[{"name":"cursor","type":"address","internalType":"address"},{"name":"size","type":"uint256","internalType":"uint256"}],"outputs":[{"name":"array","type":"address[]","internalType":"address[]"},{"name":"next","type":"address","internalType":"address"}],"stateMutability":"view"},{"type":"function","name":"getFallbackHandlerBySelector","inputs":[{"name":"selector","type":"bytes4","internalType":"bytes4"}],"outputs":[{"name":"","type":"bytes1","internalType":"CallType"},{"name":"","type":"address","internalType":"address"}],"stateMutability":"view"},{"type":"function","name":"getImplementation","inputs":[],"outputs":[{"name":"implementation","type":"address","internalType":"address"}],"stateMutability":"view"},{"type":"function","name":"getValidatorsPaginated","inputs":[{"name":"cursor","type":"address","internalType":"address"},{"name":"size","type":"uint256","internalType":"uint256"}],"outputs":[{"name":"array","type":"address[]","internalType":"address[]"},{"name":"next","type":"address","internalType":"address"}],"stateMutability":"view"},{"type":"function","name":"initializeAccount","inputs":[{"name":"initData","type":"bytes","internalType":"bytes"}],"outputs":[],"stateMutability":"payable"},{"type":"function","name":"installModule","inputs":[{"name":"moduleTypeId","type":"uint256","internalType":"uint256"},{"name":"module","type":"address","internalType":"address"},{"name":"initData","type":"bytes","internalType":"bytes"}],"outputs":[],"stateMutability":"payable"},{"type":"function","name":"isInitialized","inputs":[],"outputs":[{"name":"","type":"bool","internalType":"bool"}],"stateMutability":"view"},{"type":"function","name":"isModuleInstalled","inputs":[{"name":"moduleTypeId","type":"uint256","internalType":"uint256"},{"name":"module","type":"address","internalType":"address"},{"name":"additionalContext","type":"bytes","internalType":"bytes"}],"outputs":[{"name":"","type":"bool","internalType":"bool"}],"stateMutability":"view"},{"type":"function","name":"isValidSignature","inputs":[{"name":"hash","type":"bytes32","internalType":"bytes32"},{"name":"signature","type":"bytes","internalType":"bytes"}],"outputs":[{"name":"","type":"bytes4","internalType":"bytes4"}],"stateMutability":"view"},{"type":"function","name":"nonce","inputs":[{"name":"key","type":"uint192","internalType":"uint192"}],"outputs":[{"name":"","type":"uint256","internalType":"uint256"}],"stateMutability":"view"},{"type":"function","name":"proxiableUUID","inputs":[],"outputs":[{"name":"","type":"bytes32","internalType":"bytes32"}],"stateMutability":"view"},{"type":"function","name":"registry","inputs":[],"outputs":[{"name":"","type":"address","internalType":"contract IERC7484"}],"stateMutability":"view"},{"type":"function","name":"setRegistry","inputs":[{"name":"newRegistry","type":"address","internalType":"contract IERC7484"},{"name":"attesters","type":"address[]","internalType":"address[]"},{"name":"threshold","type":"uint8","internalType":"uint8"}],"outputs":[],"stateMutability":"payable"},{"type":"function","name":"supportsExecutionMode","inputs":[{"name":"mode","type":"bytes32","internalType":"ExecutionMode"}],"outputs":[{"name":"isSupported","type":"bool","internalType":"bool"}],"stateMutability":"view"},{"type":"function","name":"supportsModule","inputs":[{"name":"moduleTypeId","type":"uint256","internalType":"uint256"}],"outputs":[{"name":"","type":"bool","internalType":"bool"}],"stateMutability":"view"},{"type":"function","name":"uninstallModule","inputs":[{"name":"moduleTypeId","type":"uint256","internalType":"uint256"},{"name":"module","type":"address","internalType":"address"},{"name":"deInitData","type":"bytes","internalType":"bytes"}],"outputs":[],"stateMutability":"payable"},{"type":"function","name":"upgradeToAndCall","inputs":[{"name":"newImplementation","type":"address","internalType":"address"},{"name":"data","type":"bytes","internalType":"bytes"}],"outputs":[],"stateMutability":"payable"},{"type":"function","name":"validateUserOp","inputs":[{"name":"op","type":"tuple","internalType":"struct PackedUserOperation","components":[{"name":"sender","type":"address","internalType":"address"},{"name":"nonce","type":"uint256","internalType":"uint256"},{"name":"initCode","type":"bytes","internalType":"bytes"},{"name":"callData","type":"bytes","internalType":"bytes"},{"name":"accountGasLimits","type":"bytes32","internalType":"bytes32"},{"name":"preVerificationGas","type":"uint256","internalType":"uint256"},{"name":"gasFees","type":"bytes32","internalType":"bytes32"},{"name":"paymasterAndData","type":"bytes","internalType":"bytes"},{"name":"signature","type":"bytes","internalType":"bytes"}]},{"name":"userOpHash","type":"bytes32","internalType":"bytes32"},{"name":"missingAccountFunds","type":"uint256","internalType":"uint256"}],"outputs":[{"name":"validationData","type":"uint256","internalType":"uint256"}],"stateMutability":"nonpayable"},{"type":"function","name":"withdrawDepositTo","inputs":[{"name":"to","type":"address","internalType":"address"},{"name":"amount","type":"uint256","internalType":"uint256"}],"outputs":[],"stateMutability":"payable"},{"type":"event","name":"ERC7484RegistryConfigured","inputs":[{"name":"registry","type":"address","indexed":true,"internalType":"contract IERC7484"}],"anonymous":false},{"type":"event","name":"EmergencyHookUninstallRequest","inputs":[{"name":"hook","type":"address","indexed":false,"internalType":"address"},{"name":"timestamp","type":"uint256","indexed":false,"internalType":"uint256"}],"anonymous":false},{"type":"event","name":"EmergencyHookUninstallRequestReset","inputs":[{"name":"hook","type":"address","indexed":false,"internalType":"address"},{"name":"timestamp","type":"uint256","indexed":false,"internalType":"uint256"}],"anonymous":false},{"type":"event","name":"ModuleInstalled","inputs":[{"name":"moduleTypeId","type":"uint256","indexed":false,"internalType":"uint256"},{"name":"module","type":"address","indexed":false,"internalType":"address"}],"anonymous":false},{"type":"event","name":"ModuleUninstalled","inputs":[{"name":"moduleTypeId","type":"uint256","indexed":false,"internalType":"uint256"},{"name":"module","type":"address","indexed":false,"internalType":"address"}],"anonymous":false},{"type":"event","name":"PREPInitialized","inputs":[{"name":"r","type":"bytes32","indexed":false,"internalType":"bytes32"}],"anonymous":false},{"type":"event","name":"TryDelegateCallUnsuccessful","inputs":[{"name":"callData","type":"bytes","indexed":false,"internalType":"bytes"},{"name":"result","type":"bytes","indexed":false,"internalType":"bytes"}],"anonymous":false},{"type":"event","name":"TryExecuteUnsuccessful","inputs":[{"name":"callData","type":"bytes","indexed":false,"internalType":"bytes"},{"name":"result","type":"bytes","indexed":false,"internalType":"bytes"}],"anonymous":false},{"type":"event","name":"Upgraded","inputs":[{"name":"implementation","type":"address","indexed":true,"internalType":"address"}],"anonymous":false},{"type":"error","name":"AccountAccessUnauthorized","inputs":[]},{"type":"error","name":"AccountAlreadyInitialized","inputs":[]},{"type":"error","name":"AccountNotInitialized","inputs":[]},{"type":"error","name":"CanNotRemoveLastValidator","inputs":[]},{"type":"error","name":"ComposableExecutionFailed","inputs":[]},{"type":"error","name":"ConstraintNotMet","inputs":[{"name":"constraintType","type":"uint8","internalType":"enum ConstraintType"}]},{"type":"error","name":"DefaultValidatorAlreadyInstalled","inputs":[]},{"type":"error","name":"ERC7702AccountCannotBeUpgradedThisWay","inputs":[]},{"type":"error","name":"EmergencyTimeLockNotExpired","inputs":[]},{"type":"error","name":"EmergencyUninstallSigError","inputs":[]},{"type":"error","name":"EnableModeSigError","inputs":[]},{"type":"error","name":"EntryPointCanNotBeZero","inputs":[]},{"type":"error","name":"ExecutionFailed","inputs":[]},{"type":"error","name":"FallbackAlreadyInstalledForSelector","inputs":[{"name":"selector","type":"bytes4","internalType":"bytes4"}]},{"type":"error","name":"FallbackCallTypeInvalid","inputs":[]},{"type":"error","name":"FallbackHandlerUninstallFailed","inputs":[]},{"type":"error","name":"FallbackNotInstalledForSelector","inputs":[{"name":"selector","type":"bytes4","internalType":"bytes4"}]},{"type":"error","name":"FallbackSelectorForbidden","inputs":[]},{"type":"error","name":"HookAlreadyInstalled","inputs":[{"name":"currentHook","type":"address","internalType":"address"}]},{"type":"error","name":"HookPostCheckFailed","inputs":[]},{"type":"error","name":"ImplementationIsNotAContract","inputs":[]},{"type":"error","name":"InnerCallFailed","inputs":[]},{"type":"error","name":"InvalidConstraintType","inputs":[]},{"type":"error","name":"InvalidImplementationAddress","inputs":[]},{"type":"error","name":"InvalidInitData","inputs":[]},{"type":"error","name":"InvalidInput","inputs":[]},{"type":"error","name":"InvalidModule","inputs":[{"name":"module","type":"address","internalType":"address"}]},{"type":"error","name":"InvalidModuleTypeId","inputs":[{"name":"moduleTypeId","type":"uint256","internalType":"uint256"}]},{"type":"error","name":"InvalidNonce","inputs":[]},{"type":"error","name":"InvalidOutputParamFetcherType","inputs":[]},{"type":"error","name":"InvalidPREP","inputs":[]},{"type":"error","name":"InvalidParameterEncoding","inputs":[]},{"type":"error","name":"LinkedList_AlreadyInitialized","inputs":[]},{"type":"error","name":"LinkedList_EntryAlreadyInList","inputs":[{"name":"entry","type":"address","internalType":"address"}]},{"type":"error","name":"LinkedList_InvalidEntry","inputs":[{"name":"entry","type":"address","internalType":"address"}]},{"type":"error","name":"LinkedList_InvalidPage","inputs":[]},{"type":"error","name":"MismatchModuleTypeId","inputs":[]},{"type":"error","name":"MissingFallbackHandler","inputs":[{"name":"selector","type":"bytes4","internalType":"bytes4"}]},{"type":"error","name":"ModuleAddressCanNotBeZero","inputs":[]},{"type":"error","name":"ModuleAlreadyInstalled","inputs":[{"name":"moduleTypeId","type":"uint256","internalType":"uint256"},{"name":"module","type":"address","internalType":"address"}]},{"type":"error","name":"ModuleNotInstalled","inputs":[{"name":"moduleTypeId","type":"uint256","internalType":"uint256"},{"name":"module","type":"address","internalType":"address"}]},{"type":"error","name":"NexusInitializationFailed","inputs":[]},{"type":"error","name":"NoValidatorInstalled","inputs":[]},{"type":"error","name":"Output_StaticCallFailed","inputs":[]},{"type":"error","name":"PrevalidationHookAlreadyInstalled","inputs":[{"name":"currentPreValidationHook","type":"address","internalType":"address"}]},{"type":"error","name":"UnauthorizedCallContext","inputs":[]},{"type":"error","name":"UnauthorizedOperation","inputs":[{"name":"operator","type":"address","internalType":"address"}]},{"type":"error","name":"UnsupportedCallType","inputs":[{"name":"callType","type":"bytes1","internalType":"CallType"}]},{"type":"error","name":"UnsupportedExecType","inputs":[{"name":"execType","type":"bytes1","internalType":"ExecType"}]},{"type":"error","name":"UnsupportedModuleType","inputs":[{"name":"moduleTypeId","type":"uint256","internalType":"uint256"}]},{"type":"error","name":"UpgradeFailed","inputs":[]},{"type":"error","name":"ValidatorNotInstalled","inputs":[{"name":"module","type":"address","internalType":"address"}]}],"bytecode":{"object":"0x6101806040523061016052348015610015575f5ffd5b50604051616edf380380616edf83398101604081905261003491610236565b306080524660a052818160608061007f6040805180820182526005808252644e6578757360d81b6020808401919091528351808501909452908352640312e322e360dc1b9083015291565b815160209283012081519183019190912060c082905260e0819052604080517f8b73c3c69bb8fe3d512ecc4cf759cc79239f7b179b0ffacaa9a75d522b39400f8152808501939093528281019190915246606083015230608083015260a090912061010052805163ecd0596160e01b81526001600482015290516001600160a01b038716945063ecd059619350602480830193928290030181865afa15801561012a573d5f5f3e3d5ffd5b505050506040513d601f19601f8201168201806040525081019061014e9190610307565b61016b57604051631c4f83bb60e31b815260040160405180910390fd5b6040516306d61fe760e41b81526001600160a01b03831690636d61fe709061019790849060040161032d565b5f604051808303815f87803b1580156101ae575f5ffd5b505af11580156101c0573d5f5f3e3d5ffd5b5050506001600160a01b0392831661014052505083166101f3576040516307e355bf60e31b815260040160405180910390fd5b50506001600160a01b031661012052610362565b80516001600160a01b038116811461021d575f5ffd5b919050565b634e487b7160e01b5f52604160045260245ffd5b5f5f5f60608486031215610248575f5ffd5b61025184610207565b925061025f60208501610207565b60408501519092506001600160401b0381111561027a575f5ffd5b8401601f8101861361028a575f5ffd5b80516001600160401b038111156102a3576102a3610222565b604051601f8201601f19908116603f011681016001600160401b03811182821017156102d1576102d1610222565b6040528181528282016020018810156102e8575f5ffd5b8160208401602083015e5f602083830101528093505050509250925092565b5f60208284031215610317575f5ffd5b81518015158114610326575f5ffd5b9392505050565b602081525f82518060208401528060208501604085015e5f604082850101526040601f19601f83011684010191505092915050565b60805160a05160c05160e05161010051610120516101405161016051616ab261042d5f395f8181612bc90152613e9f01525f8181610d1801528181611b98015281816125a5015261432d01525f81816104f901528181610a7801528181610d9901528181610df301528181610e3e01528181611413015281816116cf0152818161177501528181611bef01528181611f9b0152818161201d0152818161222e0152613ed601525f61524101525f6152fb01525f6152d501525f61528501525f6152620152616ab25ff3fe6080604052600436106101db575f3560e01c80638dd7712f11610101578063d03c791411610094578063ea5a6d9111610063578063ea5a6d91146105c1578063ea5f61d0146105d4578063eab77e17146105f3578063f2dc691d14610606576101e2565b8063d03c791414610550578063d691c9641461056f578063d86f2b3c1461058f578063e9ae5c53146105ae576101e2565b8063aaf10f42116100d0578063aaf10f42146104d7578063b0d691fe146104eb578063b46b61a91461051d578063c399ec881461053c576101e2565b80638dd7712f146104535780639517e29f146104665780639cfd7cff14610479578063a71763a8146104c4576101e2565b80634b6a1419116101795780635bfeadbb116101485780635bfeadbb146103ce5780635faac46b146103e15780637b1039991461040e57806384b0196e1461042c576101e2565b80634b6a1419146103815780634d44560d146103945780634f1ef286146103a757806352d1902d146103ba576101e2565b806319822f7c116101b557806319822f7c14610286578063392e53cd146102b3578063481ddd23146102c75780634a58db1914610379576101e2565b80630a664dba146101ee578063112d3a7d1461021f5780631626ba7e1461024e576101e2565b366101e257005b6101ec5f36610625565b005b3480156101f9575f5ffd5b50610202610921565b6040516001600160a01b0390911681526020015b60405180910390f35b34801561022a575f5ffd5b5061023e610239366004615c92565b610945565b6040519015158152602001610216565b348015610259575f5ffd5b5061026d610268366004615cea565b61095d565b6040516001600160e01b03199091168152602001610216565b348015610291575f5ffd5b506102a56102a0366004615d49565b610a6b565b604051908152602001610216565b3480156102be575f5ffd5b5061023e610ce8565b3480156102d2575f5ffd5b506103516102e1366004615da8565b6001600160e01b0319165f9081527f0bb70095b32b9671358306b0339b4c06e7cbd8cb82505941fba30d1eb5b82f0260209081526040918290208251808401909352546001600160a01b038116808452600160a01b90910460f81b6001600160f81b031916929091018290529091565b604080516001600160f81b031990931683526001600160a01b03909116602083015201610216565b6101ec610d97565b6101ec61038f366004615dc3565b610dcb565b6101ec6103a2366004615df6565b610de8565b6101ec6103b5366004615e20565b610e9d565b3480156103c5575f5ffd5b506102a5611085565b6101ec6103dc366004615e58565b6110b4565b3480156103ec575f5ffd5b506104006103fb366004615df6565b61133a565b604051610216929190615ed4565b348015610419575f5ffd5b505f54610202906001600160a01b031681565b348015610437575f5ffd5b50610440611360565b6040516102169796959493929190615f2c565b6101ec610461366004615fc6565b611408565b6101ec610474366004615c92565b6116c4565b348015610484575f5ffd5b50604080518082018252601481527f6269636f6e6f6d792e6e657875732e312e322e30000000000000000000000000602082015290516102169190616008565b6101ec6104d2366004615c92565b61176a565b3480156104e2575f5ffd5b50610202611acc565b3480156104f6575f5ffd5b507f0000000000000000000000000000000000000000000000000000000000000000610202565b348015610528575f5ffd5b5061026d610537366004615cea565b611b02565b348015610547575f5ffd5b506102a5611beb565b34801561055b575f5ffd5b5061023e61056a36600461601a565b611c34565b61058261057d366004615cea565b611ca2565b6040516102169190616031565b34801561059a575f5ffd5b506102a56105a9366004616094565b611f4b565b6101ec6105bc366004615cea565b612012565b6101ec6105cf36600461610c565b612223565b3480156105df575f5ffd5b506104006105ee366004615df6565b612382565b6101ec61060136600461613f565b6123b0565b348015610611575f5ffd5b5061023e61062036600461601a565b61240e565b5f80356001600160e01b03191681527f0bb70095b32b9671358306b0339b4c06e7cbd8cb82505941fba30d1eb5b82f02602052604081208054606091906001600160a01b03811690600160a01b900460f81b81156108b7575f61069c5f516020616a665f395f51905f52546001600160a01b031690565b905060606001600160a01b038216156107265760405163d68f602560e01b81526001600160a01b0383169063d68f6025906106e190339034905f9036906004016161d0565b5f604051808303815f875af11580156106fc573d5f5f3e3d5ffd5b505050506040513d5f823e601f3d908101601f1916820160405261072391908101906162e0565b90505b6001600160f81b03198316607f60f91b036107a457836001600160a01b031661074f8a8a612467565b60405161075c9190616329565b5f60405180830381855afa9150503d805f8114610794576040519150601f19603f3d011682016040523d82523d5f602084013e610799565b606091505b509097509550610839565b6001600160f81b0319831661080f57836001600160a01b0316346107c88b8b612467565b6040516107d59190616329565b5f6040518083038185875af1925050503d805f8114610794576040519150601f19603f3d011682016040523d82523d5f602084013e610799565b604051632e5bf3f960e21b81526001600160f81b0319841660048201526024015b60405180910390fd5b8661084657855160208701fd5b6001600160a01b038216156108af57604051630b9dfbed60e11b81526001600160a01b0383169063173bf7da90610881908490600401616008565b5f604051808303815f87803b158015610898575f5ffd5b505af11580156108aa573d5f5f3e3d5ffd5b505050505b855160208701f35b5f3560e01c63150b7a02811463f23a6e61821463bc197c8183141717156108e257806020526020603cf35b6040517f08c63e270000000000000000000000000000000000000000000000000000000081526001600160e01b03195f35166004820152602401610830565b5f6109405f516020616a665f395f51905f52546001600160a01b031690565b905090565b5f6109528585858561249c565b90505b949350505050565b5f8181036109965761097261ffff8319616348565b61097e90617739616367565b84036109965761098f848484611b02565b9050610a64565b5f6109b86109a7601483868861637e565b6109b0916163a5565b60601c612593565b905060606109d2866109cd866014818a61637e565b612622565b604051637aa8f17760e11b815291975091506001600160a01b0383169063f551e2ee90610a079033908a9086906004016163f2565b602060405180830381865afa925050508015610a40575060408051601f3d908101601f19168201909252610a3d91810190616419565b60015b610a5757506001600160e01b03199150610a649050565b9250610a64915050565b50505b9392505050565b5f81336001600160a01b037f00000000000000000000000000000000000000000000000000000000000000001614610ab657604051635629665f60e11b815260040160405180910390fd5b5f80610ac187616481565b9050602087013560031a60f81b15610c1657600160f81b602088013560031a60f81b03610b3d57610aff86610afa6101008a018a616581565b612721565b8080601f0160208091040260200160405190810160405280939291908181526020018383808284375f92019190915250505050610100820152610c16565b7f0200000000000000000000000000000000000000000000000000000000000000602088013560031a60f81b03610c1657610b76610ce8565b15610bad576040517fae4edb1b00000000000000000000000000000000000000000000000000000000815260040160405180910390fd5b365f610bc5610bc06101008b018b616581565b6127d4565b83838080601f0160208091040260200160405190810160405280939291908181526020018383808284375f920191909152505050506101008801529094509250610c139150839050826128b0565b50505b610c2f602088013560401c6001600160a01b0316612593565b9150610c3c8682876129dc565b6101008301526040517f970032030000000000000000000000000000000000000000000000000000000081529096506001600160a01b03831690639700320390610c8c9084908a90600401616664565b6020604051808303815f875af1158015610ca8573d5f5f3e3d5ffd5b505050506040513d601f19601f82011682018060405250810190610ccc9190616685565b935050508015610ce0575f385f3884335af1505b509392505050565b6040517fd60b347f0000000000000000000000000000000000000000000000000000000081523060048201525f907f00000000000000000000000000000000000000000000000000000000000000006001600160a01b03169063d60b347f90602401602060405180830381865afa158015610d65573d5f5f3e3d5ffd5b505050506040513d601f19601f82011682018060405250810190610d89919061669c565b806109405750610940612a6e565b7f00000000000000000000000000000000000000000000000000000000000000005f38818134855af1610dc8575f38fd5b50565b333014610dda57610dda612ade565b610de482826128b0565b5050565b336001600160a01b037f0000000000000000000000000000000000000000000000000000000000000000161480610e1e57503330145b610e3b57604051635629665f60e11b815260040160405180910390fd5b5f7f0000000000000000000000000000000000000000000000000000000000000000905060405183601452826034526f205c28780000000000000000000000005f525f38604460105f865af1610e93573d5f823e3d81fd5b505f603452505050565b5f610ebc5f516020616a665f395f51905f52546001600160a01b031690565b90505f516020616a865f395f51905f525c6001600160a01b0382161580610ee05750805b15610f42576001600160a01b038516610f0c5760405163325c055b60e21b815260040160405180910390fd5b843b151580610f2e5760405163325c055b60e21b815260040160405180910390fd5b853055610f3c868686612b13565b5061107e565b60015f516020616a865f395f51905f525d60405163d68f602560e01b81525f906001600160a01b0384169063d68f602590610f879033903490869036906004016161d0565b5f604051808303815f875af1158015610fa2573d5f5f3e3d5ffd5b505050506040513d5f823e601f3d908101601f19168201604052610fc991908101906162e0565b90506001600160a01b038616610ff25760405163325c055b60e21b815260040160405180910390fd5b853b1515806110145760405163325c055b60e21b815260040160405180910390fd5b863055611022878787612b13565b50604051630b9dfbed60e11b81526001600160a01b0384169063173bf7da9061104f908490600401616008565b5f604051808303815f87803b158015611066575f5ffd5b505af1158015611078573d5f5f3e3d5ffd5b50505050505b5050505050565b5f61108e612bc6565b507f360894a13ba1a3210667c828492db98dca3e2076cc3735a920a3ca505d382bbc5b90565b6110bf838383612bf7565b5f803681602087018035906110d490896166bb565b6110e160408a018a616581565b935093509350935060048414806110f85750600884145b806111035750600984145b849061113e576040517f41c38b3000000000000000000000000000000000000000000000000000000000815260040161083091815260200190565b5061114b8484848461249c565b8484909161117e57604051635f300b3960e11b815260048101929092526001600160a01b03166024820152604401610830565b50505f6111955f516020616a465f395f51905f5290565b6001600160a01b0385165f908152600482016020526040812054919250819003611215576001600160a01b0385165f81815260048401602090815260409182902042908190558251938452908301527f2841d18703faaff388732165e48fe431468531b1b1e626b1b7cbcbfc0d79c74091015b60405180910390a161132f565b611223620151806003616367565b61122d90826166d6565b4210611286576001600160a01b0385165f81815260048401602090815260409182902042908190558251938452908301527fcbd44a75f6935b5837022648b6c8487db984701200c5381c7c0f8c2b1d69b9da9101611208565b61129362015180826166d6565b42106112fd576001600160a01b0385165f9081526004830160205260408120556112bf85878686612da7565b604080518781526001600160a01b03871660208201527f341347516a9de374859dfda710fa4828b2d48cb57d4fbe4c1149612b8e02276e9101611208565b6040517f07f2f2d200000000000000000000000000000000000000000000000000000000815260040160405180910390fd5b505050505050505050565b60605f6113555f516020616a465f395f51905f528585612e56565b909590945092505050565b7f0f000000000000000000000000000000000000000000000000000000000000006060805f8080836113f660408051808201825260058082527f4e6578757300000000000000000000000000000000000000000000000000000060208084019190915283518085019094529083527f312e322e300000000000000000000000000000000000000000000000000000009083015291565b97989097965046955030945091925090565b336001600160a01b037f0000000000000000000000000000000000000000000000000000000000000000161461145157604051635629665f60e11b815260040160405180910390fd5b5f6114705f516020616a665f395f51905f52546001600160a01b031690565b90505f516020616a865f395f51905f525c6001600160a01b03821615806114945750805b1561153f57365f6114a86060870187616581565b6114b691600490829061637e565b915091505f5f306001600160a01b031684846040516114d69291906166e9565b5f60405180830381855af49150503d805f811461150e576040519150601f19603f3d011682016040523d82523d5f602084013e611513565b606091505b50915091508161153657604051632b3f6d1160e21b815260040160405180910390fd5b505050506116be565b60015f516020616a865f395f51905f525d60405163d68f602560e01b81525f906001600160a01b0384169063d68f6025906115849033903490869036906004016161d0565b5f604051808303815f875af115801561159f573d5f5f3e3d5ffd5b505050506040513d5f823e601f3d908101601f191682016040526115c691908101906162e0565b9050365f6115d76060880188616581565b6115e591600490829061637e565b915091505f5f306001600160a01b031684846040516116059291906166e9565b5f60405180830381855af49150503d805f811461163d576040519150601f19603f3d011682016040523d82523d5f602084013e611642565b606091505b50915091508161166557604051632b3f6d1160e21b815260040160405180910390fd5b5050604051630b9dfbed60e11b81526001600160a01b038616925063173bf7da9150611695908490600401616008565b5f604051808303815f87803b1580156116ac575f5ffd5b505af115801561132f573d5f5f3e3d5ffd5b50505050565b336001600160a01b037f00000000000000000000000000000000000000000000000000000000000000001614806116fa57503330145b61171757604051635629665f60e11b815260040160405180910390fd5b61172384848484612e70565b604080518581526001600160a01b03851660208201527fd21d0b289f126c4b473ea641963e766833c2f13866e4ff480abd787c100ef123910160405180910390a150505050565b336001600160a01b037f00000000000000000000000000000000000000000000000000000000000000001614806117a057503330145b6117bd57604051635629665f60e11b815260040160405180910390fd5b5f6117dc5f516020616a665f395f51905f52546001600160a01b031690565b90505f516020616a865f395f51905f525c6001600160a01b03821615806118005750805b156118f5576118118686868661249c565b8686909161184457604051635f300b3960e11b815260048101929092526001600160a01b03166024820152604401610830565b50506001860361185e5761185985858561311d565b6118af565b60028603611871576118598585856131b7565b6003860361188457611859858585613259565b60048614806118935750600886145b8061189e5750600986145b156118af576118af85878686612da7565b604080518781526001600160a01b03871660208201527f341347516a9de374859dfda710fa4828b2d48cb57d4fbe4c1149612b8e02276e910160405180910390a1611ac4565b60015f516020616a865f395f51905f525d60405163d68f602560e01b81525f906001600160a01b0384169063d68f60259061193a9033903490869036906004016161d0565b5f604051808303815f875af1158015611955573d5f5f3e3d5ffd5b505050506040513d5f823e601f3d908101601f1916820160405261197c91908101906162e0565b905061198a8787878761249c565b878790916119bd57604051635f300b3960e11b815260048101929092526001600160a01b03166024820152604401610830565b5050600187036119d7576119d286868661311d565b611a28565b600287036119ea576119d28686866131b7565b600387036119fd576119d2868686613259565b6004871480611a0c5750600887145b80611a175750600987145b15611a2857611a2886888787612da7565b604080518881526001600160a01b03881660208201527f341347516a9de374859dfda710fa4828b2d48cb57d4fbe4c1149612b8e02276e910160405180910390a1604051630b9dfbed60e11b81526001600160a01b0384169063173bf7da90611a95908490600401616008565b5f604051808303815f87803b158015611aac575f5ffd5b505af1158015611abe573d5f5f3e3d5ffd5b50505050505b505050505050565b7f360894a13ba1a3210667c828492db98dca3e2076cc3735a920a3ca505d382bbc546001600160a01b0381166110b15750305490565b60015f9081525f516020616a465f395f51905f5260208190527ffe44ceacbf4f03c6ac19f86826dd265fa9ec25125e8b1766c207f24cd3bc73c7548291906001600160a01b03165b6001600160a01b03811615801590611b6c57506001600160a01b038116600114155b15611b9157611b7e8184898989613360565b9250611b8a8282613449565b9050611b4a565b5050611bc07f000000000000000000000000000000000000000000000000000000000000000082878787613360565b90506001600160e01b0319811615611bd85780611be2565b6001600160e01b03195b95945050505050565b5f5f7f00000000000000000000000000000000000000000000000000000000000000009050306020526370a082315f526020806024601c845afa601f3d11166020510291505090565b5f81600881901b6001600160f81b031982161580611c5f57506001600160f81b03198216600160f81b145b80611c7357506001600160f81b0319808316145b801561095557506001600160f81b03198116158061095557506001600160f81b03198116600160f81b14610955565b6060611cc0335f516020616a465f395f51905f525b6001019061349c565b3390611d04576040517fb927fe5e0000000000000000000000000000000000000000000000000000000081526001600160a01b039091166004820152602401610830565b505f611d245f516020616a665f395f51905f52546001600160a01b031690565b90505f516020616a865f395f51905f525c6001600160a01b0382161580611d485750805b15611deb57336002611d5a82826134d4565b87600881901b6001600160f81b03198216611d8157611d7a898983613556565b9650611de2565b6001600160f81b03198216600160f81b03611da157611d7a8989836136ab565b6001600160f81b031980831603611dbd57611d7a898983613722565b604051632e5bf3f960e21b81526001600160f81b031983166004820152602401610830565b50505050610a61565b60015f516020616a865f395f51905f525d60405163d68f602560e01b81525f906001600160a01b0384169063d68f602590611e309033903490869036906004016161d0565b5f604051808303815f875af1158015611e4b573d5f5f3e3d5ffd5b505050506040513d5f823e601f3d908101601f19168201604052611e7291908101906162e0565b9050336002611e8182826134d4565b88600881901b6001600160f81b03198216611ea857611ea18a8a83613556565b9750611ee4565b6001600160f81b03198216600160f81b03611ec857611ea18a8a836136ab565b6001600160f81b031980831603611dbd57611ea18a8a83613722565b5050604051630b9dfbed60e11b81526001600160a01b038616925063173bf7da9150611f14908490600401616008565b5f604051808303815f87803b158015611f2b575f5ffd5b505af1158015611f3d573d5f5f3e3d5ffd5b505050505050509392505050565b6040517f35567e1a00000000000000000000000000000000000000000000000000000000815230600482015277ffffffffffffffffffffffffffffffffffffffffffffffff821660248201525f907f00000000000000000000000000000000000000000000000000000000000000006001600160a01b0316906335567e1a90604401602060405180830381865afa158015611fe8573d5f5f3e3d5ffd5b505050506040513d601f19601f8201168201806040525081019061200c9190616685565b92915050565b336001600160a01b037f0000000000000000000000000000000000000000000000000000000000000000161461205b57604051635629665f60e11b815260040160405180910390fd5b5f61207a5f516020616a665f395f51905f52546001600160a01b031690565b90505f516020616a865f395f51905f525c6001600160a01b038216158061209e5750805b1561210b5784600881901b6001600160f81b031982166120c8576120c3868683613870565b612104565b6001600160f81b03198216600160f81b036120e8576120c386868361393c565b6001600160f81b031980831603611dbd576120c38686836139af565b505061107e565b60015f516020616a865f395f51905f525d60405163d68f602560e01b81525f906001600160a01b0384169063d68f6025906121509033903490869036906004016161d0565b5f604051808303815f875af115801561216b573d5f5f3e3d5ffd5b505050506040513d5f823e601f3d908101601f1916820160405261219291908101906162e0565b905085600881901b6001600160f81b031982166121b9576121b4878783613870565b6121f5565b6001600160f81b03198216600160f81b036121d9576121b487878361393c565b6001600160f81b031980831603611dbd576121b48787836139af565b5050604051630b9dfbed60e11b81526001600160a01b0384169063173bf7da9061104f908490600401616008565b336001600160a01b037f0000000000000000000000000000000000000000000000000000000000000000161461226c57604051635629665f60e11b815260040160405180910390fd5b5f61228b5f516020616a665f395f51905f52546001600160a01b031690565b90505f516020616a865f395f51905f525c6001600160a01b03821615806122af5750805b156122c3576122be8484613a4b565b6116be565b60015f516020616a865f395f51905f525d60405163d68f602560e01b81525f906001600160a01b0384169063d68f6025906123089033903490869036906004016161d0565b5f604051808303815f875af1158015612323573d5f5f3e3d5ffd5b505050506040513d5f823e601f3d908101601f1916820160405261234a91908101906162e0565b90506123568585613a4b565b604051630b9dfbed60e11b81526001600160a01b0384169063173bf7da90611695908490600401616008565b60605f6113557f0bb70095b32b9671358306b0339b4c06e7cbd8cb82505941fba30d1eb5b82f018585612e56565b3330146123d057604051635629665f60e11b815260040160405180910390fd5b6116be848484808060200260200160405190810160405280939291908181526020018383602002808284375f92019190915250869250613b1d915050565b5f600182148061241e5750600282145b806124295750600382145b806124345750600482145b8061243f5750600882145b8061244a5750600982145b80612453575081155b1561246057506001919050565b505f919050565b6060604080513681016020019091529050601436018152365f602083013760408051601481019091523360601b905292915050565b5f600185036124b5576124ae84613bec565b9050610955565b600285036124c6576124ae84613c04565b60038503612543575f600483106124f4576124e460045f858761637e565b6124ed916166f8565b90506124f7565b505f5b6001600160e01b0319165f9081527f0bb70095b32b9671358306b0339b4c06e7cbd8cb82505941fba30d1eb5b82f0260205260409020546001600160a01b038581169116149050610955565b60048503612554576124ae84613c1c565b60088514806125635750600985145b1561258c57836001600160a01b031661257b86613c55565b6001600160a01b0316149050610955565b505f610955565b5f6001600160a01b0382166125c957507f0000000000000000000000000000000000000000000000000000000000000000919050565b6125d282613bec565b8290612616576040517f6859e01e0000000000000000000000000000000000000000000000000000000081526001600160a01b039091166004820152602401610830565b5090919050565b919050565b5f60605f6126306008613c55565b90506001600160a01b0381166126875785858581818080601f0160208091040260200160405190810160405280939291908181526020018383808284375f9201919091525095985091965061271995505050505050565b6040517f7a0468b70000000000000000000000000000000000000000000000000000000081526001600160a01b03821690637a0468b7906126d29033908a908a908a906004016161d0565b5f60405180830381865afa1580156126ec573d5f5f3e3d5ffd5b505050506040513d5f823e601f3d908101601f19168201604052612713919081019061672d565b92509250505b935093915050565b365f5f5f365f365f6127338a8a613cbe565b909e509c50949a509298509096509450925090505f6127586109a7601483858761637e565b9050612767826014818661637e565b9250925061278361277b88888f8989613d12565b848484613daa565b6127b9576040517f46fdc33300000000000000000000000000000000000000000000000000000000815260040160405180910390fd5b6127c586888787612e70565b50505050505050935093915050565b365f365f5f60618610156127ef5763aed595955f526004601cfd5b5050604080519086013586016020818101955090359350808701358701908101925035908635905f9061283990309061282b90879087906166e9565b604051809103902084613e4c565b905080612872576040517fe483bbcb00000000000000000000000000000000000000000000000000000000815260040160405180910390fd5b6040518181527f4f058962bce244bca6c9be42f256083afc66f1f63a1f9a04e31a3042311af38d9060200160405180910390a1505092959194509250565b60188110156128eb576040517ff9c42c6000000000000000000000000000000000000000000000000000000000815260040160405180910390fd5b6040518235906020808501358501908101919035905f906001600160a01b0385169061291a90859085906166e9565b5f60405180830381855af49150503d805f8114612952576040519150601f19603f3d011682016040523d82523d5f602084013e612957565b606091505b5050905080612992576040517f315927c500000000000000000000000000000000000000000000000000000000815260040160405180910390fd5b61299a613e7d565b611ac4576129a6610ce8565b611ac4576040517f7556034e00000000000000000000000000000000000000000000000000000000815260040160405180910390fd5b5f60605f6129ea6009613c55565b90506001600160a01b038116612a0a575050506101008201518390612719565b6040517fe24f8f930000000000000000000000000000000000000000000000000000000081526001600160a01b0382169063e24f8f9390612a5390889088908b90600401616772565b5f604051808303815f875af11580156126ec573d5f5f3e3d5ffd5b60015f9081525f516020616a465f395f51905f5260208190527ffe44ceacbf4f03c6ac19f86826dd265fa9ec25125e8b1766c207f24cd3bc73c7546001600160a01b031615801590612ad8575060015f81815290820160205260409020546001600160a01b031615155b91505090565b7f90b772c2cb8a51aa7a8a65fc23543c6d022d5b3f8e2b92eed79fba7eef829300805c80610de45763aed595955f526004601cfd5b612b1b613e9c565b612b2483613ecb565b8260601b60601c92503d5f526352d1902d6001527f360894a13ba1a3210667c828492db98dca3e2076cc3735a920a3ca505d382bbc80602060016004601d885afa5114612b79576355299b496001526004601dfd5b837fbc7cd75a20ee27fd9adebab32041f755214dbc6bffa90cc0225b39da2e5c2d3b5f38a28390558015612bc157604051818382375f388383875af46116be573d5f823e3d81fd5b505050565b307f000000000000000000000000000000000000000000000000000000000000000014612bf557612bf5613f5d565b565b5f612c086109a7601483858761637e565b90505f612c37612c1b60208701876166bb565b6020870135612c2d6040890189616581565b8960600135613f6a565b60608601355f9081527f0bb70095b32b9671358306b0339b4c06e7cbd8cb82505941fba30d1eb5b82f07602052604090205490915060ff1615612ca6576040517f756688fe00000000000000000000000000000000000000000000000000000000815260040160405180910390fd5b60608501355f9081527f0bb70095b32b9671358306b0339b4c06e7cbd8cb82505941fba30d1eb5b82f0760205260409020805460ff19166001179055630b135d3f60e11b6001600160a01b03831663f551e2ee3084612d08886014818c61637e565b6040518563ffffffff1660e01b8152600401612d2794939291906161d0565b602060405180830381865afa158015612d42573d5f5f3e3d5ffd5b505050506040513d601f19601f82011682018060405250810190612d669190616419565b6001600160e01b0319161461107e576040517fbf6b584300000000000000000000000000000000000000000000000000000000815260040160405180910390fd5b60048303612dd0575f516020616a665f395f51905f5280546001600160a01b0319169055612df0565b6008831480612ddf5750600983145b15612df057612df084848484614009565b611ac45a5f5f638a91b0e360e01b8686604051602401612e11929190616796565b60408051601f198184030181529190526020810180516001600160e01b03166001600160e01b0319909316929092179091526001600160a01b03891693929190614013565b60605f612e64858585614099565b90969095509350505050565b5f612e8f5f516020616a665f395f51905f52546001600160a01b031690565b90505f516020616a865f395f51905f525c6001600160a01b0382161580612eb35750805b15612f9057612ec0612a6e565b612ecc57612ecc61425a565b6001600160a01b038516612ef357604051635316c18d60e01b815260040160405180910390fd5b60018603612f0b57612f0685858561429a565b611ac4565b60028603612f1e57612f068585856143db565b60038603612f3157612f06858585614496565b60048603612f4457612f068585856147e7565b6008861480612f535750600986145b15612f6457612f068686868661493c565b85612f7457612f06858585614a5f565b6040516304c1896960e11b815260048101879052602401610830565b60015f516020616a865f395f51905f525d60405163d68f602560e01b81525f906001600160a01b0384169063d68f602590612fd59033903490869036906004016161d0565b5f604051808303815f875af1158015612ff0573d5f5f3e3d5ffd5b505050506040513d5f823e601f3d908101601f1916820160405261301791908101906162e0565b9050613021612a6e565b61302d5761302d61425a565b6001600160a01b03861661305457604051635316c18d60e01b815260040160405180910390fd5b6001870361306c5761306786868661429a565b6130f1565b6002870361307f576130678686866143db565b6003870361309257613067868686614496565b600487036130a5576130678686866147e7565b60088714806130b45750600987145b156130c5576130678787878761493c565b866130d557613067868686614a5f565b6040516304c1896960e11b815260048101889052602401610830565b604051630b9dfbed60e11b81526001600160a01b0384169063173bf7da90611a95908490600401616008565b5f516020616a465f395f51905f525f80613139858501866167a9565b9092509050613149838388614bfa565b6131ad5a5f5f638a91b0e360e01b856040516024016131689190616008565b60408051601f198184030181529190526020810180516001600160e01b03166001600160e01b0319909316929092179091526001600160a01b038b1693929190614013565b5050505050505050565b5f806131c5838501856167a9565b915091506131ec82866131e25f516020616a465f395f51905f5290565b6001019190614bfa565b6132505a5f5f638a91b0e360e01b8560405160240161320b9190616008565b60408051601f198184030181529190526020810180516001600160e01b03166001600160e01b0319909316929092179091526001600160a01b038a1693929190614013565b50505050505050565b604080518082019091525f80825260208201525f516020616a465f395f51905f526002015f61328b600482868861637e565b613294916166f8565b6001600160e01b03191681526020808201929092526040015f2082518154939092015160f81c600160a01b0274ffffffffffffffffffffffffffffffffffffffffff199093166001600160a01b039092169190911791909117905561107e5a5f80638a91b0e360e01b61330a866004818a61637e565b60405160240161331b929190616796565b60408051601f198184030181529190526020810180516001600160e01b03166001600160e01b0319909316929092179091526001600160a01b03881693929190614013565b5f5f866001600160a01b031663f551e2ee338787876040518563ffffffff1660e01b815260040161339494939291906161d0565b602060405180830381865afa1580156133af573d5f5f3e3d5ffd5b505050506040513d601f19601f820116820180604052508101906133d39190616419565b90507fffff00000000000000000000000000000000000000000000000000000000000081167f773900000000000000000000000000000000000000000000000000000000000014801561343257506001600160e01b0319808716908216115b1561343e579050611be2565b509395945050505050565b5f6001600160a01b03821661347c57604051637c84ecfb60e01b81526001600160a01b0383166004820152602401610830565b506001600160a01b039081165f9081526020929092526040909120541690565b5f60016001600160a01b03831614801590610a645750506001600160a01b039081165f90815260209290925260409091205416151590565b5f546001600160a01b03168015612bc1576040517f96fb72170000000000000000000000000000000000000000000000000000000081526001600160a01b038481166004830152602482018490528216906396fb7217906044015f6040518083038186803b158015613544575f5ffd5b505afa158015613250573d5f5f3e3d5ffd5b60605f5f365f6135668888614ccd565b6040805160018082528183019092529498509296509094509250816020015b606081526020019060019003908161358557509095505f90506001600160f81b031987166135db576135b985858585614d1d565b865f815181106135cb576135cb6167ec565b602002602001018190525061369f565b6001600160f81b03198716600160f81b0361367a576135fc85858585614d50565b875f8151811061360e5761360e6167ec565b6020908102919091010152905080613675577fb5282692b8c578af7fb880895d599035496b5e64d1f14bf428a1ed3bc406f6628383885f81518110613655576136556167ec565b602002602001015160405161366c93929190616800565b60405180910390a15b61369f565b6040516308c3ee0360e11b81526001600160f81b031988166004820152602401610830565b50505050509392505050565b6060365f6136b98686614d7e565b90925090506001600160f81b031984166136de576136d78282614e14565b9250610a61565b6001600160f81b03198416600160f81b036136fd576136d78282614eea565b6040516308c3ee0360e11b81526001600160f81b031985166004820152602401610830565b60605f365f6137318787615021565b6040805160018082528183019092529396509194509250816020015b606081526020019060019003908161374d57509094505f90506001600160f81b031986166137a257613780848484615057565b855f81518110613792576137926167ec565b6020026020010181905250613865565b6001600160f81b03198616600160f81b03613840576137c2848484615088565b865f815181106137d4576137d46167ec565b602090810291909101015290508061383b577f5bd4c60b4b38b664d8fb5944eb974e3d85083d79afe5ce934ccabcc913707c108383875f8151811061381b5761381b6167ec565b602002602001015160405161383293929190616800565b60405180910390a15b613865565b6040516308c3ee0360e11b81526001600160f81b031987166004820152602401610830565b505050509392505050565b5f5f365f61387e8787614ccd565b929650909450925090506001600160f81b031985166138a8576138a3848484846150b4565b613250565b6001600160f81b03198516600160f81b03613917575f5f6138cb86868686614d50565b9150915081613910577fb5282692b8c578af7fb880895d599035496b5e64d1f14bf428a1ed3bc406f66284848360405161390793929190616800565b60405180910390a15b5050613250565b6040516308c3ee0360e11b81526001600160f81b031986166004820152602401610830565b365f6139488585614d7e565b90925090506001600160f81b0319831661396b5761396682826150d8565b61107e565b6001600160f81b03198316600160f81b0361398a57610f3c8282614eea565b6040516308c3ee0360e11b81526001600160f81b031984166004820152602401610830565b5f365f6139bc8686615021565b919450925090506001600160f81b031984166139dd57612f06838383615138565b6001600160f81b03198416600160f81b036136fd575f5f6139ff858585615088565b9150915081613a44577f5bd4c60b4b38b664d8fb5944eb974e3d85083d79afe5ce934ccabcc913707c10848483604051613a3b93929190616800565b60405180910390a15b5050611ac4565b805f5b818110156116be5736848483818110613a6957613a696167ec565b9050602002810190613a7b9190616825565b90505f613aa5613a916060840160408501615da8565b613a9e6060850185616843565b909161515a565b905060605f613ab760208501856166bb565b6001600160a01b031614613ae757613ae0613ad560208501856166bb565b8460200135846151f1565b9050613af7565b50604080515f8152602081019091525b613b128130613b096080870187616843565b909290916151fe565b505050600101613a4e565b5f80546001600160a01b0319166001600160a01b03851690811790915515613bb4576040517ff05c04e10000000000000000000000000000000000000000000000000000000081526001600160a01b0384169063f05c04e190613b869084908690600401616889565b5f604051808303815f87803b158015613b9d575f5ffd5b505af1158015613baf573d5f5f3e3d5ffd5b505050505b6040516001600160a01b038416907ff98c8404c5b1bfef2e6ba9233c6e88845aedfd36eea8b192725d8c199571cf32905f90a2505050565b5f61200c5f516020616a465f395f51905f528361349c565b5f61200c825f516020616a465f395f51905f52611cb7565b5f816001600160a01b0316613c455f516020616a665f395f51905f52546001600160a01b031690565b6001600160a01b03161492915050565b5f60088214613c8e577f0bb70095b32b9671358306b0339b4c06e7cbd8cb82505941fba30d1eb5b82f05546001600160a01b031661200c565b50507f0bb70095b32b9671358306b0339b4c06e7cbd8cb82505941fba30d1eb5b82f06546001600160a01b031690565b813560601c6014830135603880850190603486013560e090811c91603c838901818101939281013590921c9136915f9184018b900301613d008a82818e61637e565b92509250509295985092959890939650565b5f7fbe844ccefa05559a48680cb7fe805b2ec58df122784191aed18f9f315c763e1b5f1b8686868686604051613d499291906166e9565b604051908190038120613d8995949392916020019485526001600160a01b0393909316602085015260408401919091526060830152608082015260a00190565b60405160208183030381529060405280519060200120905095945050505050565b5f5f613db58661523f565b604051637aa8f17760e11b81529091506001600160a01b0384169063f551e2ee90613dea90309085908a908a906004016161d0565b602060405180830381865afa925050508015613e23575060408051601f3d908101601f19168201909252613e2091810190616419565b60015b613e30575f915050610955565b6001600160e01b031916630b135d3f60e11b1491506109559050565b5f82815260a082901c602052604090206001600160a01b0316613e70848284615355565b610a6457505f9392505050565b5f6017303b036110b15760035f5f303c5f5160e81c62ef010014905090565b307f000000000000000000000000000000000000000000000000000000000000000003612bf557612bf5613f5d565b336001600160a01b037f0000000000000000000000000000000000000000000000000000000000000000161480613f0157503330145b613f1e57604051635629665f60e11b815260040160405180910390fd5b613f26613e7d565b15610dc8576040517fdc3b837900000000000000000000000000000000000000000000000000000000815260040160405180910390fd5b639f03a0265f526004601cfd5b5f613fff7fd3ddfc12654178cc44d4a7b6b969cfdce7ffe6342326ba37825314cffa0fba9c5f1b87878787604051613fa39291906166e9565b604051908190038120613fe49493929188906020019485526001600160a01b0393909316602085015260408401919091526060830152608082015260a00190565b6040516020818303038152906040528051906020012061523f565b9695505050505050565b6116be835f6153a7565b5f60605f5f5f8661ffff1667ffffffffffffffff811115614036576140366161f8565b6040519080825280601f01601f191660200182016040528015614060576020820181803683370190505b5090505f5f8751602089018b8e8ef191503d925086831115614080578692505b828152825f602083013e90999098509650505050505050565b60605f6001600160a01b0384166001148015906140bd57506140bb858561349c565b155b156140e657604051637c84ecfb60e01b81526001600160a01b0385166004820152602401610830565b825f0361411f576040517ff725081700000000000000000000000000000000000000000000000000000000815260040160405180910390fd5b8267ffffffffffffffff811115614138576141386161f8565b604051908082528060200260200182016040528015614161578160200160208202803683370190505b506001600160a01b038086165f90815260208890526040812054929450911691505b6001600160a01b038216158015906141a557506001600160a01b038216600114155b80156141b057508381105b1561420957818382815181106141c8576141c86167ec565b6001600160a01b039283166020918202929092018101919091529281165f908152928790526040909220549091169080614201816168a4565b915050614183565b6001600160a01b03821660011480159061422257505f81115b1561424e57826142336001836168bc565b81518110614243576142436167ec565b602002602001015191505b80835250935093915050565b5f516020616a465f395f51905f526142917f0bb70095b32b9671358306b0339b4c06e7cbd8cb82505941fba30d1eb5b82f0161543b565b610dc88161543b565b8260016142a782826134d4565b60405163ecd0596160e01b8152600160048201526001600160a01b0386169063ecd0596190602401602060405180830381865afa1580156142ea573d5f5f3e3d5ffd5b505050506040513d601f19601f8201168201806040525081019061430e919061669c565b61432b57604051631c4f83bb60e31b815260040160405180910390fd5b7f00000000000000000000000000000000000000000000000000000000000000006001600160a01b0316856001600160a01b031603614396576040517fabc3af7900000000000000000000000000000000000000000000000000000000815260040160405180910390fd5b6143ad5f516020616a465f395f51905f52866154af565b6040516306d61fe760e41b81526001600160a01b03861690636d61fe70906116959087908790600401616796565b8260026143e882826134d4565b60405163ecd0596160e01b8152600260048201526001600160a01b0386169063ecd0596190602401602060405180830381865afa15801561442b573d5f5f3e3d5ffd5b505050506040513d601f19601f8201168201806040525081019061444f919061669c565b61446c57604051631c4f83bb60e31b815260040160405180910390fd5b6143ad7f0bb70095b32b9671358306b0339b4c06e7cbd8cb82505941fba30d1eb5b82f01866154af565b8260036144a382826134d4565b60405163ecd0596160e01b8152600360048201526001600160a01b0386169063ecd0596190602401602060405180830381865afa1580156144e6573d5f5f3e3d5ffd5b505050506040513d601f19601f8201168201806040525081019061450a919061669c565b61452757604051631c4f83bb60e31b815260040160405180910390fd5b5f614535600482868861637e565b61453e916166f8565b90505f85856004818110614554576145546167ec565b909101356001600160f81b03191691505080158061457f57506001600160f81b03198116607f60f91b145b6145b5576040517f867a1dcf00000000000000000000000000000000000000000000000000000000815260040160405180910390fd5b5f6145c3866005818a61637e565b8080601f0160208091040260200160405190810160405280939291908181526020018383808284375f920191909152509293505050506001600160e01b031983166306d61fe760e41b148061462857506001600160e01b03198316638a91b0e360e01b145b8061463b57506001600160e01b03198316155b15614672576040517fc001660b00000000000000000000000000000000000000000000000000000000815260040160405180910390fd5b6001600160e01b031983165f9081527f0bb70095b32b9671358306b0339b4c06e7cbd8cb82505941fba30d1eb5b82f02602052604090205483906001600160a01b0316156146f9576040517fa56a04dd0000000000000000000000000000000000000000000000000000000081526001600160e01b03199091166004820152602401610830565b506040805180820182526001600160a01b038a81168083526001600160f81b0319861660208085019182526001600160e01b031989165f9081527f0bb70095b32b9671358306b0339b4c06e7cbd8cb82505941fba30d1eb5b82f0290915285902093518454915160f81c600160a01b0274ffffffffffffffffffffffffffffffffffffffffff199092169316929092179190911790915590516306d61fe760e41b8152636d61fe70906147b0908490600401616008565b5f604051808303815f87803b1580156147c7575f5ffd5b505af11580156147d9573d5f5f3e3d5ffd5b505050505050505050505050565b8260046147f482826134d4565b60405163ecd0596160e01b81526004808201526001600160a01b0386169063ecd0596190602401602060405180830381865afa158015614836573d5f5f3e3d5ffd5b505050506040513d601f19601f8201168201806040525081019061485a919061669c565b61487757604051631c4f83bb60e31b815260040160405180910390fd5b5f6148965f516020616a665f395f51905f52546001600160a01b031690565b9050806001600160a01b038116156148e6576040517f741cbe030000000000000000000000000000000000000000000000000000000081526001600160a01b039091166004820152602401610830565b505f516020616a665f395f51905f5280546001600160a01b0319166001600160a01b0388161790556040516306d61fe760e41b81526001600160a01b03871690636d61fe709061104f9088908890600401616796565b828461494882826134d4565b60405163ecd0596160e01b8152600481018790526001600160a01b0386169063ecd0596190602401602060405180830381865afa15801561498b573d5f5f3e3d5ffd5b505050506040513d601f19601f820116820180604052508101906149af919061669c565b6149cc57604051631c4f83bb60e31b815260040160405180910390fd5b5f6149d687613c55565b9050806001600160a01b03811615614a26576040517fc689cd970000000000000000000000000000000000000000000000000000000081526001600160a01b039091166004820152602401610830565b50614a3187876153a7565b6040516306d61fe760e41b81526001600160a01b03871690636d61fe7090611a959088908890600401616796565b813582016020818101913590848101358501908101903582818114614ab0576040517fb4fa3fb300000000000000000000000000000000000000000000000000000000815260040160405180910390fd5b5f5b8181101561132f575f868683818110614acd57614acd6167ec565b90506020020135905060018103614b1057614b0b8a868685818110614af457614af46167ec565b9050602002810190614b069190616581565b61429a565b614bf1565b60028103614b4557614b0b8a868685818110614b2e57614b2e6167ec565b9050602002810190614b409190616581565b6143db565b60038103614b7a57614b0b8a868685818110614b6357614b636167ec565b9050602002810190614b759190616581565b614496565b60048103614baf57614b0b8a868685818110614b9857614b986167ec565b9050602002810190614baa9190616581565b6147e7565b6008811480614bbe5750600981145b15614bf157614bf1818b878786818110614bda57614bda6167ec565b9050602002810190614bec9190616581565b61493c565b50600101614ab2565b6001600160a01b0381161580614c1957506001600160a01b0381166001145b15614c4257604051637c84ecfb60e01b81526001600160a01b0383166004820152602401610830565b6001600160a01b038281165f90815260208590526040902054811690821614614c8957604051637c84ecfb60e01b81526001600160a01b0382166004820152602401610830565b6001600160a01b039081165f8181526020949094526040808520805494841686529085208054949093166001600160a01b0319948516179092559092528154169055565b5f803681614cde601482878961637e565b614ce7916163a5565b60601c9350614cfa60346014878961637e565b614d03916168cf565b9250614d12856034818961637e565b949793965094505050565b604051818382375f38838387895af1614d38573d5f823e3d81fd5b3d8152602081013d5f823e3d01604052949350505050565b6040515f90828482375f388483888a5af191503d8152602081013d5f823e3d81016040525094509492505050565b365f833580850160208587010360208201945081359350808460051b8301118360401c1715614db45763ba597e7e5f526004601cfd5b8315614e0a578392505b6001830392508260051b850135915081850160408101358082018381358201118460408501111782861782351760401c1715614e015763ba597e7e5f526004601cfd5b50505082614dbe575b5050509250929050565b60608167ffffffffffffffff811115614e2f57614e2f6161f8565b604051908082528060200260200182016040528015614e6257816020015b6060815260200190600190039081614e4d5790505b509050365f5b83811015614ee257848482818110614e8257614e826167ec565b9050602002810190614e9491906168ec565b9150614ebd614ea660208401846166bb565b6020840135614eb86040860186616581565b614d1d565b838281518110614ecf57614ecf6167ec565b6020908102919091010152600101614e68565b505092915050565b60608167ffffffffffffffff811115614f0557614f056161f8565b604051908082528060200260200182016040528015614f3857816020015b6060815260200190600190039081614f235790505b509050365f5b83811015614ee257848482818110614f5857614f586167ec565b9050602002810190614f6a91906168ec565b91505f614f94614f7d60208501856166bb565b6020850135614f8f6040870187616581565b614d50565b858481518110614fa657614fa66167ec565b6020908102919091010152905080615018577fb5282692b8c578af7fb880895d599035496b5e64d1f14bf428a1ed3bc406f662614fe66040850185616581565b868581518110614ff857614ff86167ec565b602002602001015160405161500f93929190616800565b60405180910390a15b50600101614f3e565b5f3681615031601482868861637e565b61503a916163a5565b60601c925061504c846014818861637e565b915091509250925092565b604051818382375f388383875af4615071573d5f823e3d81fd5b3d8152602081013d5f823e3d016040529392505050565b6040515f90828482375f388483885af491503d8152602081013d5f823e3d810160405250935093915050565b604051818382375f38838387895af16150cf573d5f823e3d81fd5b01604052505050565b365f5b828110156116be578383828181106150f5576150f56167ec565b905060200281019061510791906168ec565b915061513061511960208401846166bb565b602084013561512b6040860186616581565b6150b4565b6001016150db565b604051818382375f388383875af4615152573d5f823e3d81fd5b016040525050565b604080516001600160e01b031983166020820152815160048183030181526024909101909152606090835f5b818110156151e657826151bb8888848181106151a4576151a46167ec565b90506020028101906151b691906168ec565b61559c565b6040516020016151cc929190616900565b60408051601f198184030181529190529250600101615186565b509095945050505050565b6060610955848484615797565b825f5b81811015611ac45761523786868381811061521e5761521e6167ec565b90506020028101906152309190616914565b85856157b4565b600101615201565b7f00000000000000000000000000000000000000000000000000000000000000007f000000000000000000000000000000000000000000000000000000000000000030147f00000000000000000000000000000000000000000000000000000000000000004614166153325750604080517f8b73c3c69bb8fe3d512ecc4cf759cc79239f7b179b0ffacaa9a75d522b39400f81527f000000000000000000000000000000000000000000000000000000000000000060208201527f00000000000000000000000000000000000000000000000000000000000000009181019190915246606082015230608082015260a090205b6719010000000000005f5280601a5281603a52604260182090505f603a52919050565b5f82815260208082206080909152601f8390526305d78094600b526019602720613fff6001600160a01b0387168015159061539384601b8a8861595c565b6001600160a01b0316149015159015151690565b600882036153f1577f0bb70095b32b9671358306b0339b4c06e7cbd8cb82505941fba30d1eb5b82f0680546001600160a01b0319166001600160a01b039290921691909117905550565b60098203610de4577f0bb70095b32b9671358306b0339b4c06e7cbd8cb82505941fba30d1eb5b82f0580546001600160a01b0319166001600160a01b039290921691909117905550565b60015f908152602082905260409020546001600160a01b03161561548b576040517f53c85e6600000000000000000000000000000000000000000000000000000000815260040160405180910390fd5b60015f818152602092909252604090912080546001600160a01b0319169091179055565b6001600160a01b03811615806154ce57506001600160a01b0381166001145b156154f757604051637c84ecfb60e01b81526001600160a01b0382166004820152602401610830565b6001600160a01b038181165f908152602084905260409020541615615553576040517f40d3d1a40000000000000000000000000000000000000000000000000000000081526001600160a01b0382166004820152602401610830565b60015f818152602093909352604080842080546001600160a01b039485168087529286208054959091166001600160a01b03199586161790559190935280549091169091179055565b60605f6155ac6020840184616948565b60018111156155bd576155bd616928565b0361565f576156186155d26020840184616581565b8080601f0160208091040260200160405190810160405280939291908181526020018383808284375f92019190915250615613925050506040850185616843565b615996565b6156256020830183616581565b8080601f0160208091040260200160405190810160405280939291908181526020018383808284375f920191909152509295945050505050565b600161566e6020840184616948565b600181111561567f5761567f616928565b03615765575f368181816156966020880188616581565b91509150813594506020820135808301905060208101945080359350505f5f866001600160a01b031686866040516156cf9291906166e9565b5f60405180830381855afa9150503d805f8114615707576040519150601f19603f3d011682016040523d82523d5f602084013e61570c565b606091505b509150915081615748576040517f6533cc8d00000000000000000000000000000000000000000000000000000000815260040160405180910390fd5b6157598161561360408c018c616843565b98975050505050505050565b6040517f9485795500000000000000000000000000000000000000000000000000000000815260040160405180910390fd5b60405181515f9038906020850186885af1615071573d5f823e3d81fd5b5f6157c26020850185616948565b60018111156157d3576157d3616928565b0361580d575f808036816157ea6020890189616581565b915091508135945060208201359350604082013592506131ad858886868a615b74565b600161581c6020850185616948565b600181111561582d5761582d616928565b0361592a575f8036818080838161584760208c018c616581565b91509150813597506020820135965060408201358083019050602081019650803595505060608201359350608082013592505f5f886001600160a01b031688886040516158959291906166e9565b5f60405180830381855afa9150503d805f81146158cd576040519150601f19603f3d011682016040523d82523d5f602084013e6158d2565b606091505b50915091508161590e576040517f6e47f61900000000000000000000000000000000000000000000000000000000815260040160405180910390fd5b61591b8a8288888f615b74565b50505050505050505050505050565b6040517fe212197800000000000000000000000000000000000000000000000000000000815260040160405180910390fd5b5f604051855f5260ff851660205283604052826060526020604060805f60015afa505f6060523d6060185191508060405250949350505050565b8015612bc1575f5b818110156116be575f8383838181106159b9576159b96167ec565b90506020028101906159cb9190616914565b6159d490616963565b6020838102870101519091505f825160038111156159f4576159f4616928565b03615a2f578160200151615a07906169da565b81145f90615a2957604051630a31844b60e41b815260040161083091906169fd565b50615b6a565b600182516003811115615a4457615a44616928565b03615a7b578160200151615a57906169da565b811015600190615a2957604051630a31844b60e41b815260040161083091906169fd565b600282516003811115615a9057615a90616928565b03615ac7578160200151615aa3906169da565b811115600290615a2957604051630a31844b60e41b815260040161083091906169fd565b600382516003811115615adc57615adc616928565b03615b38575f5f8360200151806020019051810190615afb9190616a23565b91509150818310158015615b0f5750808311155b600390615b3057604051630a31844b60e41b815260040161083091906169fd565b505050615b6a565b6040517f2c50c45e00000000000000000000000000000000000000000000000000000000815260040160405180910390fd5b505060010161599e565b5f5b85811015611ac45760208181028601810151604080519283018690528201839052906001600160a01b0386169063a39e07879060600160408051601f198184030181529082905280516020909101206001600160e01b031960e084901b1682526004820152602481018490526001600160a01b03861660448201526064015f604051808303815f87803b158015615c0b575f5ffd5b505af1158015615c1d573d5f5f3e3d5ffd5b505060019093019250615b76915050565b6001600160a01b0381168114610dc8575f5ffd5b803561261d81615c2e565b5f5f83601f840112615c5d575f5ffd5b50813567ffffffffffffffff811115615c74575f5ffd5b602083019150836020828501011115615c8b575f5ffd5b9250929050565b5f5f5f5f60608587031215615ca5575f5ffd5b843593506020850135615cb781615c2e565b9250604085013567ffffffffffffffff811115615cd2575f5ffd5b615cde87828801615c4d565b95989497509550505050565b5f5f5f60408486031215615cfc575f5ffd5b83359250602084013567ffffffffffffffff811115615d19575f5ffd5b615d2586828701615c4d565b9497909650939450505050565b5f6101208284031215615d43575f5ffd5b50919050565b5f5f5f60608486031215615d5b575f5ffd5b833567ffffffffffffffff811115615d71575f5ffd5b615d7d86828701615d32565b9660208601359650604090950135949350505050565b6001600160e01b031981168114610dc8575f5ffd5b5f60208284031215615db8575f5ffd5b8135610a6481615d93565b5f5f60208385031215615dd4575f5ffd5b823567ffffffffffffffff811115615dea575f5ffd5b612e6485828601615c4d565b5f5f60408385031215615e07575f5ffd5b8235615e1281615c2e565b946020939093013593505050565b5f5f5f60408486031215615e32575f5ffd5b8335615e3d81615c2e565b9250602084013567ffffffffffffffff811115615d19575f5ffd5b5f5f5f60408486031215615e6a575f5ffd5b833567ffffffffffffffff811115615e80575f5ffd5b840160808187031215615e3d575f5ffd5b5f8151808452602084019350602083015f5b82811015615eca5781516001600160a01b0316865260209586019590910190600101615ea3565b5093949350505050565b604081525f615ee66040830185615e91565b90506001600160a01b03831660208301529392505050565b5f81518084528060208401602086015e5f602082860101526020601f19601f83011685010191505092915050565b6001600160f81b03198816815260e060208201525f615f4e60e0830189615efe565b8281036040840152615f608189615efe565b606084018890526001600160a01b038716608085015260a0840186905283810360c0850152845180825260208087019350909101905f5b81811015615fb5578351835260209384019390920191600101615f97565b50909b9a5050505050505050505050565b5f5f60408385031215615fd7575f5ffd5b823567ffffffffffffffff811115615fed575f5ffd5b615ff985828601615d32565b95602094909401359450505050565b602081525f610a646020830184615efe565b5f6020828403121561602a575f5ffd5b5035919050565b5f602082016020835280845180835260408501915060408160051b8601019250602086015f5b8281101561608857603f19878603018452616073858351615efe565b94506020938401939190910190600101616057565b50929695505050505050565b5f602082840312156160a4575f5ffd5b813577ffffffffffffffffffffffffffffffffffffffffffffffff81168114610a64575f5ffd5b5f5f83601f8401126160db575f5ffd5b50813567ffffffffffffffff8111156160f2575f5ffd5b6020830191508360208260051b8501011115615c8b575f5ffd5b5f5f6020838503121561611d575f5ffd5b823567ffffffffffffffff811115616133575f5ffd5b612e64858286016160cb565b5f5f5f5f60608587031215616152575f5ffd5b843561615d81615c2e565b9350602085013567ffffffffffffffff811115616178575f5ffd5b616184878288016160cb565b909450925050604085013560ff8116811461619d575f5ffd5b939692955090935050565b81835281816020850137505f828201602090810191909152601f909101601f19169091010190565b6001600160a01b0385168152836020820152606060408201525f613fff6060830184866161a8565b634e487b7160e01b5f52604160045260245ffd5b604051610120810167ffffffffffffffff81118282101715616230576162306161f8565b60405290565b604051601f8201601f1916810167ffffffffffffffff8111828210171561625f5761625f6161f8565b604052919050565b5f67ffffffffffffffff821115616280576162806161f8565b50601f01601f191660200190565b5f82601f83011261629d575f5ffd5b81516162b06162ab82616267565b616236565b8181528460208386010111156162c4575f5ffd5b8160208501602083015e5f918101602001919091529392505050565b5f602082840312156162f0575f5ffd5b815167ffffffffffffffff811115616306575f5ffd5b6109558482850161628e565b5f81518060208401855e5f93019283525090919050565b5f610a648284616312565b634e487b7160e01b5f52601160045260245ffd5b5f8261636257634e487b7160e01b5f52601260045260245ffd5b500490565b808202811582820484141761200c5761200c616334565b5f5f8585111561638c575f5ffd5b83861115616398575f5ffd5b5050820193919092039150565b80356bffffffffffffffffffffffff1981169060148410156163eb576bffffffffffffffffffffffff196bffffffffffffffffffffffff198560140360031b1b82161691505b5092915050565b6001600160a01b0384168152826020820152606060408201525f6109526060830184615efe565b5f60208284031215616429575f5ffd5b8151610a6481615d93565b5f82601f830112616443575f5ffd5b81356164516162ab82616267565b818152846020838601011115616465575f5ffd5b816020850160208301375f918101602001919091529392505050565b5f6101208236031215616492575f5ffd5b61649a61620c565b6164a383615c42565b815260208381013590820152604083013567ffffffffffffffff8111156164c8575f5ffd5b6164d436828601616434565b604083015250606083013567ffffffffffffffff8111156164f3575f5ffd5b6164ff36828601616434565b6060830152506080838101359082015260a0808401359082015260c0808401359082015260e083013567ffffffffffffffff81111561653c575f5ffd5b61654836828601616434565b60e08301525061010083013567ffffffffffffffff811115616568575f5ffd5b61657436828601616434565b6101008301525092915050565b5f5f8335601e19843603018112616596575f5ffd5b83018035915067ffffffffffffffff8211156165b0575f5ffd5b602001915036819003821315615c8b575f5ffd5b80516001600160a01b03168252602081015160208301525f604082015161012060408501526165f7610120850182615efe565b9050606083015184820360608601526166108282615efe565b9150506080830151608085015260a083015160a085015260c083015160c085015260e083015184820360e08601526166488282615efe565b915050610100830151848203610100860152611be28282615efe565b604081525f61667660408301856165c4565b90508260208301529392505050565b5f60208284031215616695575f5ffd5b5051919050565b5f602082840312156166ac575f5ffd5b81518015158114610a64575f5ffd5b5f602082840312156166cb575f5ffd5b8135610a6481615c2e565b8082018082111561200c5761200c616334565b818382375f9101908152919050565b80356001600160e01b031981169060048410156163eb576001600160e01b0319808560040360031b1b82161691505092915050565b5f5f6040838503121561673e575f5ffd5b8251602084015190925067ffffffffffffffff81111561675c575f5ffd5b6167688582860161628e565b9150509250929050565b606081525f61678460608301866165c4565b60208301949094525060400152919050565b602081525f6109556020830184866161a8565b5f5f604083850312156167ba575f5ffd5b82356167c581615c2e565b9150602083013567ffffffffffffffff8111156167e0575f5ffd5b61676885828601616434565b634e487b7160e01b5f52603260045260245ffd5b604081525f6168136040830185876161a8565b8281036020840152613fff8185615efe565b5f8235609e19833603018112616839575f5ffd5b9190910192915050565b5f5f8335601e19843603018112616858575f5ffd5b83018035915067ffffffffffffffff821115616872575f5ffd5b6020019150600581901b3603821315615c8b575f5ffd5b60ff83168152604060208201525f6109556040830184615e91565b5f600182016168b5576168b5616334565b5060010190565b8181038181111561200c5761200c616334565b8035602083101561200c575f19602084900360031b1b1692915050565b5f8235605e19833603018112616839575f5ffd5b5f61095561690e8386616312565b84616312565b5f8235603e19833603018112616839575f5ffd5b634e487b7160e01b5f52602160045260245ffd5b60028110610dc8575f5ffd5b5f60208284031215616958575f5ffd5b8135610a648161693c565b5f60408236031215616973575f5ffd5b6040805190810167ffffffffffffffff81118282101715616996576169966161f8565b6040528235600481106169a7575f5ffd5b8152602083013567ffffffffffffffff8111156169c2575f5ffd5b6169ce36828601616434565b60208301525092915050565b80516020808301519190811015615d43575f1960209190910360031b1b16919050565b6020810160048310616a1d57634e487b7160e01b5f52602160045260245ffd5b91905290565b5f5f60408385031215616a34575f5ffd5b50508051602090910151909290915056fe0bb70095b32b9671358306b0339b4c06e7cbd8cb82505941fba30d1eb5b82f000bb70095b32b9671358306b0339b4c06e7cbd8cb82505941fba30d1eb5b82f03e4a29a8042309a2ad08ae7c52d833b9d6166e6e098a4b7bfa75a8bad5472586da164736f6c634300081b000a","linkReferences":{}},"methodIdentifiers":{"accountId()":"9cfd7cff","addDeposit()":"4a58db19","checkERC7739Support(bytes32,bytes)":"b46b61a9","eip712Domain()":"84b0196e","emergencyUninstallHook((address,uint256,bytes,uint256),bytes)":"5bfeadbb","entryPoint()":"b0d691fe","execute(bytes32,bytes)":"e9ae5c53","executeComposable((address,uint256,bytes4,(uint8,bytes,(uint8,bytes)[])[],(uint8,bytes)[])[])":"ea5a6d91","executeFromExecutor(bytes32,bytes)":"d691c964","executeUserOp((address,uint256,bytes,bytes,bytes32,uint256,bytes32,bytes,bytes),bytes32)":"8dd7712f","getActiveHook()":"0a664dba","getDeposit()":"c399ec88","getExecutorsPaginated(address,uint256)":"ea5f61d0","getFallbackHandlerBySelector(bytes4)":"481ddd23","getImplementation()":"aaf10f42","getValidatorsPaginated(address,uint256)":"5faac46b","initializeAccount(bytes)":"4b6a1419","installModule(uint256,address,bytes)":"9517e29f","isInitialized()":"392e53cd","isModuleInstalled(uint256,address,bytes)":"112d3a7d","isValidSignature(bytes32,bytes)":"1626ba7e","nonce(uint192)":"d86f2b3c","proxiableUUID()":"52d1902d","registry()":"7b103999","setRegistry(address,address[],uint8)":"eab77e17","supportsExecutionMode(bytes32)":"d03c7914","supportsModule(uint256)":"f2dc691d","uninstallModule(uint256,address,bytes)":"a71763a8","upgradeToAndCall(address,bytes)":"4f1ef286","validateUserOp((address,uint256,bytes,bytes,bytes32,uint256,bytes32,bytes,bytes),bytes32,uint256)":"19822f7c","withdrawDepositTo(address,uint256)":"4d44560d"},"id":0}