{"abi":[{"type":"constructor","inputs":[{"name":"anEntryPoint","type":"address","internalType":"address"},{"name":"defaultValidator","type":"address","internalType":"address"},{"name":"initData","type":"bytes","internalType":"bytes"}],"stateMutability":"nonpayable"},{"type":"fallback","stateMutability":"payable"},{"type":"receive","stateMutability":"payable"},{"type":"function","name":"accountId","inputs":[],"outputs":[{"name":"","type":"string","internalType":"string"}],"stateMutability":"pure"},{"type":"function","name":"addDeposit","inputs":[],"outputs":[],"stateMutability":"payable"},{"type":"function","name":"checkERC7739Support","inputs":[{"name":"hash","type":"bytes32","internalType":"bytes32"},{"name":"signature","type":"bytes","internalType":"bytes"}],"outputs":[{"name":"","type":"bytes4","internalType":"bytes4"}],"stateMutability":"view"},{"type":"function","name":"eip712Domain","inputs":[],"outputs":[{"name":"fields","type":"bytes1","internalType":"bytes1"},{"name":"name","type":"string","internalType":"string"},{"name":"version","type":"string","internalType":"string"},{"name":"chainId","type":"uint256","internalType":"uint256"},{"name":"verifyingContract","type":"address","internalType":"address"},{"name":"salt","type":"bytes32","internalType":"bytes32"},{"name":"extensions","type":"uint256[]","internalType":"uint256[]"}],"stateMutability":"view"},{"type":"function","name":"emergencyUninstallHook","inputs":[{"name":"data","type":"tuple","internalType":"struct EmergencyUninstall","components":[{"name":"hook","type":"address","internalType":"address"},{"name":"hookType","type":"uint256","internalType":"uint256"},{"name":"deInitData","type":"bytes","internalType":"bytes"},{"name":"nonce","type":"uint256","internalType":"uint256"}]},{"name":"signature","type":"bytes","internalType":"bytes"}],"outputs":[],"stateMutability":"payable"},{"type":"function","name":"entryPoint","inputs":[],"outputs":[{"name":"","type":"address","internalType":"address"}],"stateMutability":"view"},{"type":"function","name":"execute","inputs":[{"name":"mode","type":"bytes32","internalType":"ExecutionMode"},{"name":"executionCalldata","type":"bytes","internalType":"bytes"}],"outputs":[],"stateMutability":"payable"},{"type":"function","name":"executeComposable","inputs":[{"name":"executions","type":"tuple[]","internalType":"struct ComposableExecution[]","components":[{"name":"to","type":"address","internalType":"address"},{"name":"value","type":"uint256","internalType":"uint256"},{"name":"functionSig","type":"bytes4","internalType":"bytes4"},{"name":"inputParams","type":"tuple[]","internalType":"struct InputParam[]","components":[{"name":"fetcherType","type":"uint8","internalType":"enum InputParamFetcherType"},{"name":"paramData","type":"bytes","internalType":"bytes"},{"name":"constraints","type":"tuple[]","internalType":"struct Constraint[]","components":[{"name":"constraintType","type":"uint8","internalType":"enum ConstraintType"},{"name":"referenceData","type":"bytes","internalType":"bytes"}]}]},{"name":"outputParams","type":"tuple[]","internalType":"struct OutputParam[]","components":[{"name":"fetcherType","type":"uint8","internalType":"enum OutputParamFetcherType"},{"name":"paramData","type":"bytes","internalType":"bytes"}]}]}],"outputs":[],"stateMutability":"payable"},{"type":"function","name":"executeFromExecutor","inputs":[{"name":"mode","type":"bytes32","internalType":"ExecutionMode"},{"name":"executionCalldata","type":"bytes","internalType":"bytes"}],"outputs":[{"name":"returnData","type":"bytes[]","internalType":"bytes[]"}],"stateMutability":"payable"},{"type":"function","name":"executeUserOp","inputs":[{"name":"userOp","type":"tuple","internalType":"struct PackedUserOperation","components":[{"name":"sender","type":"address","internalType":"address"},{"name":"nonce","type":"uint256","internalType":"uint256"},{"name":"initCode","type":"bytes","internalType":"bytes"},{"name":"callData","type":"bytes","internalType":"bytes"},{"name":"accountGasLimits","type":"bytes32","internalType":"bytes32"},{"name":"preVerificationGas","type":"uint256","internalType":"uint256"},{"name":"gasFees","type":"bytes32","internalType":"bytes32"},{"name":"paymasterAndData","type":"bytes","internalType":"bytes"},{"name":"signature","type":"bytes","internalType":"bytes"}]},{"name":"","type":"bytes32","internalType":"bytes32"}],"outputs":[],"stateMutability":"payable"},{"type":"function","name":"getActiveHook","inputs":[],"outputs":[{"name":"hook","type":"address","internalType":"address"}],"stateMutability":"view"},{"type":"function","name":"getDeposit","inputs":[],"outputs":[{"name":"result","type":"uint256","internalType":"uint256"}],"stateMutability":"view"},{"type":"function","name":"getExecutorsPaginated","inputs":[{"name":"cursor","type":"address","internalType":"address"},{"name":"size","type":"uint256","internalType":"uint256"}],"outputs":[{"name":"array","type":"address[]","internalType":"address[]"},{"name":"next","type":"address","internalType":"address"}],"stateMutability":"view"},{"type":"function","name":"getFallbackHandlerBySelector","inputs":[{"name":"selector","type":"bytes4","internalType":"bytes4"}],"outputs":[{"name":"","type":"bytes1","internalType":"CallType"},{"name":"","type":"address","internalType":"address"}],"stateMutability":"view"},{"type":"function","name":"getImplementation","inputs":[],"outputs":[{"name":"implementation","type":"address","internalType":"address"}],"stateMutability":"view"},{"type":"function","name":"getRegistry","inputs":[],"outputs":[{"name":"","type":"address","internalType":"contract IERC7484"}],"stateMutability":"view"},{"type":"function","name":"getValidatorsPaginated","inputs":[{"name":"cursor","type":"address","internalType":"address"},{"name":"size","type":"uint256","internalType":"uint256"}],"outputs":[{"name":"array","type":"address[]","internalType":"address[]"},{"name":"next","type":"address","internalType":"address"}],"stateMutability":"view"},{"type":"function","name":"initializeAccount","inputs":[{"name":"initData","type":"bytes","internalType":"bytes"}],"outputs":[],"stateMutability":"payable"},{"type":"function","name":"installModule","inputs":[{"name":"moduleTypeId","type":"uint256","internalType":"uint256"},{"name":"module","type":"address","internalType":"address"},{"name":"initData","type":"bytes","internalType":"bytes"}],"outputs":[],"stateMutability":"payable"},{"type":"function","name":"isInitialized","inputs":[],"outputs":[{"name":"","type":"bool","internalType":"bool"}],"stateMutability":"view"},{"type":"function","name":"isModuleInstalled","inputs":[{"name":"moduleTypeId","type":"uint256","internalType":"uint256"},{"name":"module","type":"address","internalType":"address"},{"name":"additionalContext","type":"bytes","internalType":"bytes"}],"outputs":[{"name":"","type":"bool","internalType":"bool"}],"stateMutability":"view"},{"type":"function","name":"isValidSignature","inputs":[{"name":"hash","type":"bytes32","internalType":"bytes32"},{"name":"signature","type":"bytes","internalType":"bytes"}],"outputs":[{"name":"","type":"bytes4","internalType":"bytes4"}],"stateMutability":"view"},{"type":"function","name":"nonce","inputs":[{"name":"key","type":"uint192","internalType":"uint192"}],"outputs":[{"name":"","type":"uint256","internalType":"uint256"}],"stateMutability":"view"},{"type":"function","name":"proxiableUUID","inputs":[],"outputs":[{"name":"","type":"bytes32","internalType":"bytes32"}],"stateMutability":"view"},{"type":"function","name":"setRegistry","inputs":[{"name":"newRegistry","type":"address","internalType":"contract IERC7484"},{"name":"attesters","type":"address[]","internalType":"address[]"},{"name":"threshold","type":"uint8","internalType":"uint8"}],"outputs":[],"stateMutability":"payable"},{"type":"function","name":"supportsExecutionMode","inputs":[{"name":"mode","type":"bytes32","internalType":"ExecutionMode"}],"outputs":[{"name":"isSupported","type":"bool","internalType":"bool"}],"stateMutability":"view"},{"type":"function","name":"supportsModule","inputs":[{"name":"moduleTypeId","type":"uint256","internalType":"uint256"}],"outputs":[{"name":"","type":"bool","internalType":"bool"}],"stateMutability":"view"},{"type":"function","name":"uninstallModule","inputs":[{"name":"moduleTypeId","type":"uint256","internalType":"uint256"},{"name":"module","type":"address","internalType":"address"},{"name":"deInitData","type":"bytes","internalType":"bytes"}],"outputs":[],"stateMutability":"payable"},{"type":"function","name":"upgradeToAndCall","inputs":[{"name":"newImplementation","type":"address","internalType":"address"},{"name":"data","type":"bytes","internalType":"bytes"}],"outputs":[],"stateMutability":"payable"},{"type":"function","name":"validateUserOp","inputs":[{"name":"op","type":"tuple","internalType":"struct PackedUserOperation","components":[{"name":"sender","type":"address","internalType":"address"},{"name":"nonce","type":"uint256","internalType":"uint256"},{"name":"initCode","type":"bytes","internalType":"bytes"},{"name":"callData","type":"bytes","internalType":"bytes"},{"name":"accountGasLimits","type":"bytes32","internalType":"bytes32"},{"name":"preVerificationGas","type":"uint256","internalType":"uint256"},{"name":"gasFees","type":"bytes32","internalType":"bytes32"},{"name":"paymasterAndData","type":"bytes","internalType":"bytes"},{"name":"signature","type":"bytes","internalType":"bytes"}]},{"name":"userOpHash","type":"bytes32","internalType":"bytes32"},{"name":"missingAccountFunds","type":"uint256","internalType":"uint256"}],"outputs":[{"name":"validationData","type":"uint256","internalType":"uint256"}],"stateMutability":"nonpayable"},{"type":"function","name":"withdrawDepositTo","inputs":[{"name":"to","type":"address","internalType":"address"},{"name":"amount","type":"uint256","internalType":"uint256"}],"outputs":[],"stateMutability":"payable"},{"type":"event","name":"ERC7484RegistryConfigured","inputs":[{"name":"registry","type":"address","indexed":true,"internalType":"contract IERC7484"}],"anonymous":false},{"type":"event","name":"EmergencyHookUninstallRequest","inputs":[{"name":"hook","type":"address","indexed":false,"internalType":"address"},{"name":"timestamp","type":"uint256","indexed":false,"internalType":"uint256"}],"anonymous":false},{"type":"event","name":"EmergencyHookUninstallRequestReset","inputs":[{"name":"hook","type":"address","indexed":false,"internalType":"address"},{"name":"timestamp","type":"uint256","indexed":false,"internalType":"uint256"}],"anonymous":false},{"type":"event","name":"ModuleInstalled","inputs":[{"name":"moduleTypeId","type":"uint256","indexed":false,"internalType":"uint256"},{"name":"module","type":"address","indexed":false,"internalType":"address"}],"anonymous":false},{"type":"event","name":"ModuleUninstalled","inputs":[{"name":"moduleTypeId","type":"uint256","indexed":false,"internalType":"uint256"},{"name":"module","type":"address","indexed":false,"internalType":"address"}],"anonymous":false},{"type":"event","name":"PREPInitialized","inputs":[{"name":"r","type":"bytes32","indexed":false,"internalType":"bytes32"}],"anonymous":false},{"type":"event","name":"TryDelegateCallUnsuccessful","inputs":[{"name":"callData","type":"bytes","indexed":false,"internalType":"bytes"},{"name":"result","type":"bytes","indexed":false,"internalType":"bytes"}],"anonymous":false},{"type":"event","name":"TryExecuteUnsuccessful","inputs":[{"name":"callData","type":"bytes","indexed":false,"internalType":"bytes"},{"name":"result","type":"bytes","indexed":false,"internalType":"bytes"}],"anonymous":false},{"type":"event","name":"Upgraded","inputs":[{"name":"implementation","type":"address","indexed":true,"internalType":"address"}],"anonymous":false},{"type":"error","name":"AccountAccessUnauthorized","inputs":[]},{"type":"error","name":"AccountAlreadyInitialized","inputs":[]},{"type":"error","name":"AccountNotInitialized","inputs":[]},{"type":"error","name":"CanNotRemoveLastValidator","inputs":[]},{"type":"error","name":"ComposableExecutionFailed","inputs":[]},{"type":"error","name":"ConstraintNotMet","inputs":[{"name":"constraintType","type":"uint8","internalType":"enum ConstraintType"}]},{"type":"error","name":"DefaultValidatorAlreadyInstalled","inputs":[]},{"type":"error","name":"ERC7702AccountCannotBeUpgradedThisWay","inputs":[]},{"type":"error","name":"EmergencyTimeLockNotExpired","inputs":[]},{"type":"error","name":"EmergencyUninstallSigError","inputs":[]},{"type":"error","name":"EnableModeSigError","inputs":[]},{"type":"error","name":"EntryPointCanNotBeZero","inputs":[]},{"type":"error","name":"ExecutionFailed","inputs":[]},{"type":"error","name":"FallbackAlreadyInstalledForSelector","inputs":[{"name":"selector","type":"bytes4","internalType":"bytes4"}]},{"type":"error","name":"FallbackCallTypeInvalid","inputs":[]},{"type":"error","name":"FallbackHandlerUninstallFailed","inputs":[]},{"type":"error","name":"FallbackNotInstalledForSelector","inputs":[{"name":"selector","type":"bytes4","internalType":"bytes4"}]},{"type":"error","name":"FallbackSelectorForbidden","inputs":[]},{"type":"error","name":"HookAlreadyInstalled","inputs":[{"name":"currentHook","type":"address","internalType":"address"}]},{"type":"error","name":"HookPostCheckFailed","inputs":[]},{"type":"error","name":"ImplementationIsNotAContract","inputs":[]},{"type":"error","name":"InnerCallFailed","inputs":[]},{"type":"error","name":"InvalidConstraintType","inputs":[]},{"type":"error","name":"InvalidImplementationAddress","inputs":[]},{"type":"error","name":"InvalidInitData","inputs":[]},{"type":"error","name":"InvalidInput","inputs":[]},{"type":"error","name":"InvalidModule","inputs":[{"name":"module","type":"address","internalType":"address"}]},{"type":"error","name":"InvalidModuleTypeId","inputs":[{"name":"moduleTypeId","type":"uint256","internalType":"uint256"}]},{"type":"error","name":"InvalidNonce","inputs":[]},{"type":"error","name":"InvalidOutputParamFetcherType","inputs":[]},{"type":"error","name":"InvalidPREP","inputs":[]},{"type":"error","name":"InvalidParameterEncoding","inputs":[]},{"type":"error","name":"LinkedList_AlreadyInitialized","inputs":[]},{"type":"error","name":"LinkedList_EntryAlreadyInList","inputs":[{"name":"entry","type":"address","internalType":"address"}]},{"type":"error","name":"LinkedList_InvalidEntry","inputs":[{"name":"entry","type":"address","internalType":"address"}]},{"type":"error","name":"LinkedList_InvalidPage","inputs":[]},{"type":"error","name":"MismatchModuleTypeId","inputs":[]},{"type":"error","name":"MissingFallbackHandler","inputs":[{"name":"selector","type":"bytes4","internalType":"bytes4"}]},{"type":"error","name":"ModuleAddressCanNotBeZero","inputs":[]},{"type":"error","name":"ModuleAlreadyInstalled","inputs":[{"name":"moduleTypeId","type":"uint256","internalType":"uint256"},{"name":"module","type":"address","internalType":"address"}]},{"type":"error","name":"ModuleNotInstalled","inputs":[{"name":"moduleTypeId","type":"uint256","internalType":"uint256"},{"name":"module","type":"address","internalType":"address"}]},{"type":"error","name":"NexusInitializationFailed","inputs":[]},{"type":"error","name":"NoValidatorInstalled","inputs":[]},{"type":"error","name":"Output_StaticCallFailed","inputs":[]},{"type":"error","name":"PrevalidationHookAlreadyInstalled","inputs":[{"name":"currentPreValidationHook","type":"address","internalType":"address"}]},{"type":"error","name":"UnauthorizedCallContext","inputs":[]},{"type":"error","name":"UnauthorizedOperation","inputs":[{"name":"operator","type":"address","internalType":"address"}]},{"type":"error","name":"UnsupportedCallType","inputs":[{"name":"callType","type":"bytes1","internalType":"CallType"}]},{"type":"error","name":"UnsupportedExecType","inputs":[{"name":"execType","type":"bytes1","internalType":"ExecType"}]},{"type":"error","name":"UnsupportedModuleType","inputs":[{"name":"moduleTypeId","type":"uint256","internalType":"uint256"}]},{"type":"error","name":"UpgradeFailed","inputs":[]},{"type":"error","name":"ValidatorNotInstalled","inputs":[{"name":"module","type":"address","internalType":"address"}]}],"bytecode":{"object":"0x610180806040523461030a57615f4a803803809161001d8285610376565b833981019060608183031261030a5761003581610399565b9061004260208201610399565b604082015190916001600160401b03821161030a57019280601f8501121561030a5783516001600160401b038111610362576040519461008c601f8301601f191660200187610376565b81865260208601926020838301011161030a57815f926020809301855e860101523060a0524660c05260409360a085516100c68782610376565b600581526020810190644e6578757360d81b82528751916100e78984610376565b60058352640312e322e360dc1b6020938401529051902060e08190527fe374587661e69268352d25204d81b23ce801573f4b09f3545e69536dc085a37a61010081905288517f8b73c3c69bb8fe3d512ecc4cf759cc79239f7b179b0ffacaa9a75d522b39400f815280840192909252818901524660608201523060808201529190912061012052855163ecd0596160e01b8152600160048201526001600160a01b038516939181602481875afa908115610358575f9161031d575b501561030e57823b1561030a576044925f928388519586809581946306d61fe760e41b8352602060048401525180918160248501528484015e8181018301849052601f01601f191681010301925af18015610300576102f0575b506101405230610160526001600160a01b038116156102e15760805251615b9c90816103ae82396080518181816103c00152818161064d0152818161070301528181610ef501528181610fc40152818161123501528181611387015281816113e9015281816116b40152818161172d015281816118560152612241015260a0518161530f015260c05181615332015260e051816153a2015261010051816153c8015261012051816152ee015261014051818181612090015281816125b001528181612c1b015281816138760152614e4e0152610160518181816108bf01526122100152f35b6307e355bf60e31b5f5260045ffd5b5f6102fa91610376565b5f6101fc565b84513d5f823e3d90fd5b5f80fd5b631c4f83bb60e31b5f5260045ffd5b90506020813d602011610350575b8161033860209383610376565b8101031261030a5751801515810361030a575f6101a2565b3d915061032b565b87513d5f823e3d90fd5b634e487b7160e01b5f52604160045260245ffd5b601f909101601f19168101906001600160401b0382119082101761036257604052565b51906001600160a01b038216820361030a5756fe60806040526004361015610015575b366128e757005b5f3560e01c80630a664dba14610204578063112d3a7d146101ff5780631626ba7e146101fa57806319822f7c146101f5578063392e53cd146101f0578063481ddd23146101eb5780634a58db19146101e65780634b6a1419146101e15780634d44560d146101dc5780634f1ef286146101d757806352d1902d146101d25780635ab1bd53146101cd5780635bfeadbb146101c85780635faac46b146101c357806384b0196e146101be5780638dd7712f146101b95780639517e29f146101b45780639cfd7cff146101af578063a71763a8146101aa578063aaf10f42146101a5578063b0d691fe146101a0578063b46b61a91461019b578063c399ec8814610196578063d03c791414610191578063d691c9641461018c578063d86f2b3c14610187578063e9ae5c5314610182578063ea5a6d911461017d578063ea5f61d014610178578063eab77e17146101735763f2dc691d0361000e57611b79565b611a11565b611915565b61181d565b611716565b611655565b611526565b61141a565b6113c4565b6113ab565b611368565b61130a565b611221565b6111c2565b610fb0565b610ebc565b610e1e565b610c54565b61094c565b61091a565b6108ac565b610783565b6106e8565b610675565b61063b565b6105aa565b61057e565b61036f565b610334565b6102de565b610217565b5f91031261021357565b5f80fd5b34610213575f3660031901126102135760206001600160a01b035f516020615b305f395f51905f5254166001600160a01b0360405191168152f35b6001600160a01b0381160361021357565b359061026e82610252565b565b9181601f840112156102135782359167ffffffffffffffff8311610213576020838186019501011161021357565b606060031982011261021357600435916024356102ba81610252565b916044359067ffffffffffffffff8211610213576102da91600401610270565b9091565b346102135760206102fa6102f13661029e565b92919091612b40565b6040519015158152f35b90604060031983011261021357600435916024359067ffffffffffffffff8211610213576102da91600401610270565b3461021357602061034d61034736610304565b91611cfd565b6040516001600160e01b03199091168152f35b90816101209103126102135790565b346102135760603660031901126102135760043567ffffffffffffffff8111610213576103a3610458913690600401610360565b602061042060243561042b60443580956103e76001600160a01b037f0000000000000000000000000000000000000000000000000000000000000000163314611dd4565b6104256103f43683611e76565b958692888101359061040a8260031a60f81b1590565b156104d1575b5060401c6001600160a01b031690565b612c08565b93612fee565b61010084929401525f6001600160a01b03604051809881968295639700320360e01b845260048401612041565b0393165af19081156104cc57610487925f9261049b575b508061048b575b506040519081529081906020820190565b0390f35b5f9081803892335af1505f610476565b8192506104bf9060203d6020116104c5575b6104b78183611c93565b810190611f9f565b9161046f565b503d6104ad565b611cf2565b600382901a60f81b600160f81b03610513576104ff6104f882610100610506940190611f6c565b908a612f0a565b3691611e25565b6101008501525b5f610410565b600382901a60f81b600160f91b1461052c575b5061050d565b61056d61056161055b6105789361055061054b610547612075565b1590565b611f56565b610100810190611f6c565b90612d50565b93919290923691611e25565b610100880152612e63565b5f610526565b34610213575f3660031901126102135760206102fa612075565b6001600160e01b031981160361021357565b3461021357602036600319011261021357604060206106046004356105ce81610598565b63ffffffff60e01b165f527f0bb70095b32b9671358306b0339b4c06e7cbd8cb82505941fba30d1eb5b82f0260205260405f2090565b82519061061082611c72565b54906001600160a01b0382169182825260ff60f81b9060581b16928391015282519182526020820152f35b5f366003190112610213575f388180347f00000000000000000000000000000000000000000000000000000000000000005af11561021357005b60203660031901126102135760043567ffffffffffffffff8111610213576106a1903690600401610270565b3033036106b4575b6106b291612e63565b005b7f90b772c2cb8a51aa7a8a65fc23543c6d022d5b3f8e2b92eed79fba7eef8293005c6106a9575b63aed595955f526004601cfd5b60403660031901126102135760043561070081610252565b5f7f0000000000000000000000000000000000000000000000000000000000000000602435336001600160a01b03831614801561077a575b61074190611dd4565b604051936014526034526f205c28780000000000000000000000008252604460108338935af115610772575f603452005b3d5f823e3d90fd5b50333014610738565b60403660031901126102135760043561079b81610252565b60243567ffffffffffffffff8111610213576107bb903690600401610270565b906001600160a01b036107e26001600160a01b035f516020615b305f395f51905f52541690565b16806107f257506106b2926121e3565b60405163d68f602560e01b81529290915f848061081436343360048501612196565b038183875af19384156104cc575f94610884575b506108349293946121e3565b803b1561021357604051630b9dfbed60e11b8152915f91839182908490829061086090600483016121bc565b03925af180156104cc5761087057005b8061087e5f6106b293611c93565b80610209565b6108349394506108a5903d805f833e61089d8183611c93565b810190612150565b9392610828565b34610213575f36600319011261021357307f00000000000000000000000000000000000000000000000000000000000000000361090d5760206040517f360894a13ba1a3210667c828492db98dca3e2076cc3735a920a3ca505d382bbc8152f35b639f03a0265f526004601cfd5b34610213575f3660031901126102135760206001600160a01b035f516020615b505f395f51905f525416604051908152f35b60403660031901126102135760043567ffffffffffffffff8111610213578060040190608060031982360301126102135760243567ffffffffffffffff8111610213576109a06109a7913690600401610270565b908461313a565b6109c360248201359260446109bb8261234a565b930190611f6c565b9290600482148015610be7575b828115610bdc575b6109e191612354565b6109f783836109f287858484612b40565b61236e565b610a31836001600160a01b03165f527f0bb70095b32b9671358306b0339b4c06e7cbd8cb82505941fba30d1eb5b82f0460205260405f2090565b5480610ac2575050507f2841d18703faaff388732165e48fe431468531b1b1e626b1b7cbcbfc0d79c7409150610abd9042610a9c826001600160a01b03165f527f0bb70095b32b9671358306b0339b4c06e7cbd8cb82505941fba30d1eb5b82f0460205260405f2090565b55604080516001600160a01b03909216825242602083015290918291820190565b0390a1005b610acf6203f480826123a7565b4210610b3a575050507fcbd44a75f6935b5837022648b6c8487db984701200c5381c7c0f8c2b1d69b9da9150610abd9042610a9c826001600160a01b03165f527f0bb70095b32b9671358306b0339b4c06e7cbd8cb82505941fba30d1eb5b82f0460205260405f2090565b610b4390612397565b4210610bcd577f341347516a9de374859dfda710fa4828b2d48cb57d4fbe4c1149612b8e02276e93610bb2915f610baa866001600160a01b03165f527f0bb70095b32b9671358306b0339b4c06e7cbd8cb82505941fba30d1eb5b82f0460205260405f2090565b55838561329b565b604080519182526001600160a01b03929092166020820152a1005b6303f9796960e11b5f5260045ffd5b6009811491506109d8565b50600882146109d0565b90602080835192838152019201905f5b818110610c0e5750505090565b82516001600160a01b0316845260209384019390920191600101610c01565b906001600160a01b03610c4d602092959495604085526040850190610bf1565b9416910152565b3461021357604036600319011261021357600435610c7181610252565b6024359060016001600160a01b038216141580610de8575b610dcd578115610dbe5790610c9d816143da565b610cd5610cc85f946001600160a01b03165f525f516020615b105f395f51905f5260205260405f2090565b546001600160a01b031690565b6001600160a01b0381168015159081610db2575b5080610da9575b15610d4a57610d3e610cc882610d1b610d4494610d0d8988613d0e565b906001600160a01b03169052565b6001600160a01b03165f525f516020615b105f395f51905f5260205260405f2090565b9361440c565b92610cd5565b908360016001600160a01b038416141580610da0575b610d76575b815261048760405192839283610c2d565b9150610d9a610d8d610d878461441a565b83613d0e565b516001600160a01b031690565b91610d65565b50801515610d60565b50828410610cf0565b6001915014155f610ce9565b63f725081760e01b5f5260045ffd5b637c84ecfb60e01b5f526001600160a01b031660045260245ffd5b50610df5610547826139cf565b610c89565b805180835260209291819084018484015e5f828201840152601f01601f1916010190565b34610213575f36600319011261021357610e5d610e6b610e3c61339c565b604092919251938493600f60f81b855260e0602086015260e0850190610dfa565b908382036040850152610dfa565b4660608301523060808301525f60a083015281810360c083015260206060519182815201906080905f5b818110610ea3575050500390f35b8251845285945060209384019390920191600101610e95565b60403660031901126102135760043567ffffffffffffffff811161021357610ee8903690600401610360565b610f1c6001600160a01b037f0000000000000000000000000000000000000000000000000000000000000000163314611dd4565b6001600160a01b03610f426001600160a01b035f516020615b305f395f51905f52541690565b1680610f5257506106b2906123f0565b60405163d68f602560e01b8152915f8380610f7236343360048501612196565b038183865af19283156104cc575f93610f90575b50610834906123f0565b610834919350610fa9903d805f833e61089d8183611c93565b9290610f86565b610fb93661029e565b906001600160a01b037f000000000000000000000000000000000000000000000000000000000000000016331480156111b9575b610ff690611dd4565b61100161054761307e565b6111ac575b6001600160a01b0383161561119d576001840361106b577fd21d0b289f126c4b473ea641963e766833c2f13866e4ff480abd787c100ef123939161104a9184614d63565b604080519182526001600160a01b0390921660208201529081908101610abd565b600284036110a5577fd21d0b289f126c4b473ea641963e766833c2f13866e4ff480abd787c100ef12393916110a09184614c5a565b61104a565b600384036110da577fd21d0b289f126c4b473ea641963e766833c2f13866e4ff480abd787c100ef12393916110a09184614983565b6004840361110f577fd21d0b289f126c4b473ea641963e766833c2f13866e4ff480abd787c100ef12393916110a09184614826565b600884148015611193575b1561114d5783916110a091847fd21d0b289f126c4b473ea641963e766833c2f13866e4ff480abd787c100ef12396614661565b8361117f577fd21d0b289f126c4b473ea641963e766833c2f13866e4ff480abd787c100ef12393916110a09184614544565b6304c1896960e11b5f52600484905260245ffd5b506009841461111a565b635316c18d60e01b5f5260045ffd5b6111b4614428565b611006565b50333014610fed565b34610213575f366003190112610213576104876040516111e3604082611c93565b601481527f6269636f6e6f6d792e6e657875732e312e322e300000000000000000000000006020820152604051918291602083526020830190610dfa565b61122a3661029e565b916001600160a01b037f00000000000000000000000000000000000000000000000000000000000000001633148015611301575b61126790611dd4565b6001600160a01b0361128d6001600160a01b035f516020615b305f395f51905f52541690565b168061129d57506106b29361244c565b60405163d68f602560e01b815293909290915f85806112c136343360048501612196565b038183885af19485156104cc575f956112e1575b5061083493949561244c565b6108349495506112fa903d805f833e61089d8183611c93565b94936112d5565b5033301461125e565b34610213575f366003190112610213577f360894a13ba1a3210667c828492db98dca3e2076cc3735a920a3ca505d382bbc546001600160a01b03811615611360575b6020906001600160a01b0360405191168152f35b50305461134c565b34610213575f3660031901126102135760206040516001600160a01b037f0000000000000000000000000000000000000000000000000000000000000000168152f35b3461021357602061034d6113be36610304565b9161252a565b34610213575f36600319011261021357306020526370a082315f52602080806024601c7f00000000000000000000000000000000000000000000000000000000000000005afa601f3d1116815102604051908152f35b34610213576020366003190112610213576104876004358060081b60ff60f81b8216159182156114af575b821561149a575b5081611466575b5060405190151581529081906020820190565b6001600160f81b031981161591508115611482575b505f611453565b6001600160f81b031916600160f81b1490505f61147b565b6001600160f81b03199081161491505f61144c565b6001600160f81b03198116600160f81b149250611445565b602081016020825282518091526040820191602060408360051b8301019401925f915b8383106114f957505050505090565b9091929394602080611517600193603f198682030187528951610dfa565b970193019301919392906114ea565b61152f36610304565b9161153933613a0f565b15611642576001600160a01b036115646001600160a01b035f516020615b305f395f51905f52541690565b168061158557509161157991610487936125fc565b604051918291826114c7565b90926040519263d68f602560e01b84525f84806115a736343360048501612196565b038183875af19384156104cc575f94611622575b506115c79293946125fc565b90803b1561021357604051630b9dfbed60e11b8152925f9184918290849082906115f490600483016121bc565b03925af19182156104cc576104879261160e575b50611579565b8061087e5f61161c93611c93565b5f611608565b6115c793945061163b903d805f833e61089d8183611c93565b93926115bb565b635c93ff2f60e11b5f523360045260245ffd5b346102135760203660031901126102135760043577ffffffffffffffffffffffffffffffffffffffffffffffff81168091036102135760405190631aab3f0d60e11b825230600483015260248201526020816044816001600160a01b037f0000000000000000000000000000000000000000000000000000000000000000165afa80156104cc57610487915f916116f757506040519081529081906020820190565b611710915060203d6020116104c5576104b78183611c93565b5f610476565b61171f36610304565b906117546001600160a01b037f0000000000000000000000000000000000000000000000000000000000000000163314611dd4565b6001600160a01b0361177a6001600160a01b035f516020615b305f395f51905f52541690565b168061178a57506106b29261274b565b60405163d68f602560e01b81529290915f84806117ac36343360048501612196565b038183875af19384156104cc575f946117cc575b5061083492939461274b565b6108349394506117e5903d805f833e61089d8183611c93565b93926117c0565b9181601f840112156102135782359167ffffffffffffffff8311610213576020808501948460051b01011161021357565b60203660031901126102135760043567ffffffffffffffff8111610213576118499036906004016117ec565b61187d6001600160a01b037f0000000000000000000000000000000000000000000000000000000000000000163314611dd4565b6001600160a01b036118a36001600160a01b035f516020615b305f395f51905f52541690565b16806118b357506106b291614030565b906040519263d68f602560e01b84525f84806118d436343360048501612196565b038183875af19384156104cc575f946118f3575b509061083491614030565b6108349291945061190d903d805f833e61089d8183611c93565b9390916118e8565b346102135760403660031901126102135760043561193281610252565b6024359060016001600160a01b0382161415806119ff575b610dcd578115610dbe579061195e816143da565b611989610cc85f946001600160a01b03165f525f516020615b705f395f51905f5260205260405f2090565b6001600160a01b03811680151590816119f3575b50806119ea575b15610d4a57610d3e610cc8826119c16119e494610d0d8988613d0e565b6001600160a01b03165f525f516020615b705f395f51905f5260205260405f2090565b92611989565b508284106119a4565b6001915014155f61199d565b50611a0c61054782613a0f565b61194a565b606036600319011261021357600435611a2981610252565b60243567ffffffffffffffff811161021357611a499036906004016117ec565b90916044359260ff8416840361021357611a64303314611dd4565b611a6d83612852565b92611a7b6040519485611c93565b808452602084019060051b82019136831161021357905b828210611b5f575050506001600160a01b031691611ade836001600160a01b03166001600160a01b03195f516020615b505f395f51905f525416175f516020615b505f395f51905f5255565b82611b0b575b827ff98c8404c5b1bfef2e6ba9233c6e88845aedfd36eea8b192725d8c199571cf325f80a2005b823b156102135760405163f05c04e160e01b8152915f9183918291611b349190600484016140e5565b038183865af180156104cc57611b4b575b80611ae4565b8061087e5f611b5993611c93565b5f611b45565b602080918335611b6e81610252565b815201910190611a92565b346102135760203660031901126102135760206102fa60043561286a565b634e487b7160e01b5f52601160045260245ffd5b906177398202918083046177391490151715611bc357565b611b97565b906014116102135790601490565b909291928360141161021357831161021357601401916013190190565b906004116102135790600490565b909291928360051161021357831161021357600501916004190190565b356bffffffffffffffffffffffff19811692919060148210611c3e575050565b6bffffffffffffffffffffffff1960149290920360031b82901b16169150565b634e487b7160e01b5f52604160045260245ffd5b6040810190811067ffffffffffffffff821117611c8e57604052565b611c5e565b90601f8019910116810190811067ffffffffffffffff821117611c8e57604052565b908160209103126102135751611cca81610598565b90565b611cca93926001600160a01b0360609316825260208201528160408201520190610dfa565b6040513d5f823e3d90fd5b918015611db6575b90611d3f611d6693611d398480611d33610420611d2d611d2760209a8a611bc8565b90611c1e565b60601c90565b95611bd6565b91612cb4565b91906001600160a01b03604051809681958294637aa8f17760e11b84523360048501611ccd565b0392165afa5f9181611d85575b50611cca57506001600160e01b031990565b611da891925060203d602011611daf575b611da08183611c93565b810190611cb5565b905f611d73565b503d611d96565b611dc461ffff821904611bab565b8303611d055790611cca9261252a565b15611ddb57565b635629665f60e11b5f5260045ffd5b6040519061026e61012083611c93565b6040519061026e604083611c93565b67ffffffffffffffff8111611c8e57601f01601f191660200190565b929192611e3182611e09565b91611e3f6040519384611c93565b829481845281830111610213578281602093845f960137010152565b9080601f8301121561021357816020611cca93359101611e25565b9190916101208184031261021357611e8c611dea565b92611e9682610263565b845260208201356020850152604082013567ffffffffffffffff81116102135781611ec2918401611e5b565b6040850152606082013567ffffffffffffffff81116102135781611ee7918401611e5b565b60608501526080820135608085015260a082013560a085015260c082013560c085015260e082013567ffffffffffffffff81116102135781611f2a918401611e5b565b60e085015261010082013567ffffffffffffffff811161021357611f4e9201611e5b565b610100830152565b15611f5d57565b63ae4edb1b60e01b5f5260045ffd5b903590601e1981360301821215610213570180359067ffffffffffffffff82116102135760200191813603831361021357565b90816020910312610213575190565b80516001600160a01b03168252611cca916020820151602082015261010061202f611fff611fed60408601516101206040870152610120860190610dfa565b60608601518582036060870152610dfa565b6080850151608085015260a085015160a085015260c085015160c085015260e085015184820360e0860152610dfa565b92015190610100818403910152610dfa565b929190612058602091604086526040860190611fae565b930152565b90816020910312610213575180151581036102135790565b60405163d60b347f60e01b81523060048201526020816024817f00000000000000000000000000000000000000000000000000000000000000006001600160a01b03165afa9081156104cc575f916120db575b5080156120d25790565b50611cca61307e565b6120fd915060203d602011612103575b6120f58183611c93565b81019061205d565b5f6120c8565b503d6120eb565b81601f820112156102135780519061212182611e09565b9261212f6040519485611c93565b8284526020838301011161021357815f9260208093018386015e8301015290565b9060208282031261021357815167ffffffffffffffff811161021357611cca920161210a565b908060209392818452848401375f828201840152601f01601f1916010190565b611cca93926001600160a01b03606093168252602082015281604082015201905f612176565b906020611cca928181520190610dfa565b156121d457565b63325c055b60e21b5f5260045ffd5b9190916001600160a01b038116906121fc8215156121cd565b612208813b15156121cd565b3055612233307f00000000000000000000000000000000000000000000000000000000000000001490565b61090d576001600160a01b037f00000000000000000000000000000000000000000000000000000000000000001633148015612341575b61227390611dd4565b61227b6141ad565b612332573d5f526352d1902d6001527f360894a13ba1a3210667c828492db98dca3e2076cc3735a920a3ca505d382bbc602060016004601d855afa510361232457807fbc7cd75a20ee27fd9adebab32041f755214dbc6bffa90cc0225b39da2e5c2d3b5f80a281817f360894a13ba1a3210667c828492db98dca3e2076cc3735a920a3ca505d382bbc5561230e57505050565b815f926040519485378338925af4156107725750565b6355299b496001526004601dfd5b63dc3b837960e01b5f5260045ffd5b5033301461226a565b35611cca81610252565b1561235c5750565b63041c38b360e41b5f5260045260245ffd5b15612377575050565b6001600160a01b039250635f300b3960e11b5f526004521660245260445ffd5b90620151808201809211611bc357565b91908201809211611bc357565b908092918237015f815290565b3d156123eb573d906123d282611e09565b916123e06040519384611c93565b82523d5f602084013e565b606090565b6123fe906060810190611f6c565b80600411610213576040515f9283929060031982019060040183378101826003198201528160031991030190305af46124356123c1565b501561243d57565b632b3f6d1160e21b5f5260045ffd5b90917f341347516a9de374859dfda710fa4828b2d48cb57d4fbe4c1149612b8e02276e9361248184846109f284868484612b40565b600183036124bd576124939184613655565b61249b61374f565b604080519182526001600160a01b03909216602082015290819081015b0390a1565b600283036124d4576124cf91846134e0565b61249b565b600383036124e6576124cf91846133e0565b600483148015612520575b8015612516575b612504575b505061249b565b61250f91838561329b565b5f806124fd565b50600983146124f8565b50600883146124f1565b60015f9081525f516020615b105f395f51905f526020527ffe44ceacbf4f03c6ac19f86826dd265fa9ec25125e8b1766c207f24cd3bc73c7546001600160a01b031694939291905b6001600160a01b03861680151590816125f0575b50156125a85761259c8484846125a2948a6138d4565b9561398a565b94612572565b6125d49495507f00000000000000000000000000000000000000000000000000000000000000006138d4565b6001600160e01b03198116611cca57506001600160e01b031990565b6001915014155f612586565b919061260733613a4f565b600883901b926001600160f81b03198116612628575090611cca9291613e11565b6001600160f81b03198116600160f81b03612649575090611cca9291613d48565b6001600160f81b03198082160361273357509061266591614eab565b909161266f613c65565b936001600160f81b031981166126a157509161268a92614eea565b61269382613cfc565b5261269d81613cfc565b5090565b6001600160f81b03198116600160f81b03612717575081836126c292614ec5565b6126cb85613cfc565b52156126d657505090565b7f5bd4c60b4b38b664d8fb5944eb974e3d85083d79afe5ce934ccabcc913707c109161271161270485613cfc565b5160405193849384613d22565b0390a190565b6308c3ee0360e11b5f526001600160f81b03191660045260245ffd5b632e5bf3f960e21b5f5260ff60f81b1660045260245ffd5b600881901b9291906001600160f81b0319811661276e57509061026e9291613f44565b6001600160f81b03198116600160f81b0361278f57509061026e9291613ebb565b6001600160f81b0319808216036127335750906127ab91614eab565b929091906001600160f81b031981166127d957505f9083604051938437838338925af4156107725701604052565b9192916001600160f81b03198116600160f81b0361283a575081836127fd92614ec5565b92901561280957505050565b6124b87f5bd4c60b4b38b664d8fb5944eb974e3d85083d79afe5ce934ccabcc913707c109360405193849384613d22565b6308c3ee0360e11b5f5260ff60f81b1660045260245ffd5b67ffffffffffffffff8111611c8e5760051b60200190565b600181149081156128dc575b81156128d1575b81156128c6575b81156128bb575b81156128b0575b81156128a7575b506128a2575f90565b600190565b9050155f612899565b600981149150612892565b60088114915061288b565b600481149150612884565b60038114915061287d565b600281149150612876565b5f80356001600160e01b031981168083527f0bb70095b32b9671358306b0339b4c06e7cbd8cb82505941fba30d1eb5b82f026020526040909220546129406001600160a01b0382169160581b6001600160f81b03191690565b906001600160a01b03811661299657505060e01c9063bc197c81821463f23a6e6183141763150b7a0283141761298c576308c63e2760e01b5f526001600160e01b03191660045260245ffd5b506020526020603cf35b5f516020615b305f395f51905f52546001600160a01b0316801515926060929084612ab3575b6001600160f81b03198116607f60f91b03612a6157505f80916129dd6152bf565b90602082519201905afa926129f06123c1565b935b15612a5957612a04575b825160208401f35b803b1561021357604051630b9dfbed60e11b8152915f918391829084908290612a3090600483016121bc565b03925af180156104cc57612a45575b806129fc565b8061087e5f612a5393611c93565b81612a3f565b835160208501fd5b6001600160f81b03198116612a9757505f8091612a7c6152bf565b906020825192019034905af192612a916123c1565b936129f2565b632e5bf3f960e21b5f526001600160f81b03191660045260245ffd5b60405163d68f602560e01b81529093505f8180612ad536343360048501612196565b038183875af19081156104cc575f91612af0575b50926129bc565b612b0491503d805f833e61089d8183611c93565b85612ae9565b356001600160e01b0319811692919060048210612b25575050565b6001600160e01b031960049290920360031b82901b16169150565b92909160018403612b57575050611cca91506139cf565b60028403612b6b575050611cca9150613a0f565b60038403612ba057611cca935060048210612b9857612b9391612b8d91611bf3565b90612b0a565b614162565b50505f614162565b505090600481145f14612bce57505f516020615b305f395f51905f52546001600160a01b0391821691161490565b600881148015612bfe575b15612bf8576001600160a01b03612bf081926140ff565b921691161490565b50505f90565b5060098114612bd9565b6001600160a01b03811680612c3d5750507f000000000000000000000000000000000000000000000000000000000000000090565b612c46826139cf565b15612c4f575090565b63342cf00f60e11b5f5260045260245ffd5b91909160408184031261021357805192602082015167ffffffffffffffff811161021357611cca920161210a565b611cca94926001600160a01b0360609316825260208201528160408201520191612176565b7f0bb70095b32b9671358306b0339b4c06e7cbd8cb82505941fba30d1eb5b82f06549293926001600160a01b031680612cf5575090611cca91933691611e25565b604051637a0468b760e01b8152945f93869384928392612d19923360048601612c8f565b03915afa9182156104cc575f905f93612d3157509190565b90506102da9192503d805f833e612d488183611c93565b810190612c61565b9060f9116106db578035906020810135810190602082019135906040810135019360208501943593612d83368486611e25565b602081519101205f528060a01c6020526001600160a01b0360405f201690815f526001600160a01b0360205f2091608060205216601f526305d78094600b52601960272090604051915f52601b602052826040526060526020604060805f60015afa505f606052612e126105473d6060185183604052612e0a30916001600160a01b031690565b143015151690565b612e5b575b8115612e4c579081527f4f058962bce244bca6c9be42f256083afc66f1f63a1f9a04e31a3042311af38d9080602081016124b8565b63e483bbcb60e01b5f5260045ffd5b5f9150612e17565b90601811612ed6575f8160208083940135820180358060405193849301833781018481520391355af4612e946123c1565b5015612ec757612ea26141ad565b15612ea957565b612eb1612075565b15612eb857565b633aab01a760e11b5f5260045ffd5b63315927c560e01b5f5260045ffd5b6307ce216360e51b5f5260045ffd5b6001600160a01b03611cca959360609383521660208201528160408201520191612176565b92909192823560601c601484013590603485013560e01c91603886019383870196603888013560e01c976038828a603c840193010301998060048c011161021357612f9393612f8e88612f848b948f6004906105479901019f6003199103019d80612f7e610420611d2d611d27848c611bc8565b97611bd6565b949093898b6141cf565b614243565b612fdf57303b1561021357612fbe5f936040519586948594639517e29f60e01b865260048601612ee5565b038183305af180156104cc57612fd15750565b8061087e5f61026e93611c93565b6346fdc33360e01b5f5260045ffd5b92916001600160a01b037f0bb70095b32b9671358306b0339b4c06e7cbd8cb82505941fba30d1eb5b82f05541680155f1461302d575050610100015190565b60405f809482979497519788958694859363e24f8f9360e01b855261305e6004860191606083526060830190611fae565b936020820152015203925af19182156104cc575f905f93612d3157509190565b60015f525f516020615b105f395f51905f526020527ffe44ceacbf4f03c6ac19f86826dd265fa9ec25125e8b1766c207f24cd3bc73c7546001600160a01b03161515806130c85790565b5060015f525f516020615b705f395f51905f526020527fbdfeb076d903611fa58576955630d640569633049bcf40ad9c22db9251b54a13546001600160a01b0316151590565b1561311557565b633ab3447f60e11b5f5260045ffd5b1561312b57565b63bf6b584360e01b5f5260045ffd5b6020916001600160a01b039161321b61323c9580613161610420611d2d611d278489611bc8565b946132166132096131956131748861234a565b60608c8a0135996131886040820182611f6c565b92909101359a8b936142c8565b966131dc6131d76105476131d0845f527f0bb70095b32b9671358306b0339b4c06e7cbd8cb82505941fba30d1eb5b82f0760205260405f2090565b5460ff1690565b61310e565b5f527f0bb70095b32b9671358306b0339b4c06e7cbd8cb82505941fba30d1eb5b82f0760205260405f2090565b805460ff19166001179055565b611bd6565b604051637aa8f17760e11b8152968795869490938593913060048601612c8f565b0392165afa80156104cc5761026e915f9161326b575b506001600160e01b031916630b135d3f60e11b14613124565b613284915060203d602011611daf57611da08183611c93565b5f613252565b916020611cca938181520191612176565b6132fe9392916004810361330257505f516020615b305f395f51905f5280546001600160a01b03191690555b6132f95a926132eb604051958692638a91b0e360e01b60208501526024840161328a565b03601f198101855284611c93565b614382565b5050565b60088114808015613392575b61331a575b50506132c7565b1561335757507f0bb70095b32b9671358306b0339b4c06e7cbd8cb82505941fba30d1eb5b82f0680546001600160a01b03191690555b5f80613313565b600903613350577f0bb70095b32b9671358306b0339b4c06e7cbd8cb82505941fba30d1eb5b82f0580546001600160a01b0319169055613350565b506009821461330e565b6040516133aa604082611c93565b60058152644e6578757360d81b6020820152906040516133cb604082611c93565b60058152640312e322e360dc1b602082015290565b91909161346a6040516133f281611c72565b5f81525f602082015261340b6105ce612b8d8688611bf3565b8151815460209093015174ff000000000000000000000000000000000000000060589190911c167fffffffffffffffffffffff0000000000000000000000000000000000000000009093166001600160a01b0390911617919091179055565b5a9082600411610213576132f960046132fe950193600319016132eb604051958692638a91b0e360e01b60208501526020602485018181520191612176565b9190916040818403126102135780356134c181610252565b92602082013567ffffffffffffffff811161021357611cca9201611e5b565b906134f6906001600160a01b03938101906134a9565b92166001600160a01b0382168015801561364b575b613638576001600160a01b0361353f835f516020615b705f395f51905f52906001600160a01b03165f5260205260405f2090565b54160361361c5791816135c06132fe946135a5613580610cc86132eb975f516020615b705f395f51905f52906001600160a01b03165f5260205260405f2090565b915f516020615b705f395f51905f52906001600160a01b03165f5260205260405f2090565b906001600160a01b03166001600160a01b0319825416179055565b6135fb6135eb825f516020615b705f395f51905f52906001600160a01b03165f5260205260405f2090565b6001600160a01b03198154169055565b6132f95a92604051948591638a91b0e360e01b6020840152602483016121bc565b637c84ecfb60e01b5f526001600160a01b03821660045260245ffd5b50637c84ecfb60e01b5f5260045260245ffd5b506001811461350b565b9061366b906001600160a01b03938101906134a9565b92166001600160a01b03821680158015613745575b613638576001600160a01b036136b4835f516020615b105f395f51905f52906001600160a01b03165f5260205260405f2090565b54160361361c57918161371a6132fe946135a56136f5610cc86132eb975f516020615b105f395f51905f52906001600160a01b03165f5260205260405f2090565b915f516020615b105f395f51905f52906001600160a01b03165f5260205260405f2090565b6135fb6135eb825f516020615b105f395f51905f52906001600160a01b03165f5260205260405f2090565b5060018114613680565b61375a6105476141ad565b8061385a575b61376657565b60015f525f516020615b105f395f51905f526020526137a47ffe44ceacbf4f03c6ac19f86826dd265fa9ec25125e8b1766c207f24cd3bc73c7610cc8565b6001600160a01b0381168015158061384f575b1561383e5760405163d60b347f60e01b815230600482015290602090829060249082905afa9081156104cc575f91613820575b506137fd576137f89061398a565b6137a4565b6001600160a01b036001915b161461381157565b63330c676160e21b5f5260045ffd5b613838915060203d8111612103576120f58183611c93565b5f6137ea565b506001600160a01b03600191613809565b5060018114156137b7565b5060405163d60b347f60e01b81523060048201526020816024817f00000000000000000000000000000000000000000000000000000000000000006001600160a01b03165afa9081156104cc575f916138b5575b5015613760565b6138ce915060203d602011612103576120f58183611c93565b5f6138ae565b613904936001600160a01b0360209496939660405196879586948593637aa8f17760e11b85523360048601612c8f565b0392165afa9081156104cc575f9161396b575b507fffff000000000000000000000000000000000000000000000000000000000000811661773960f01b1480613955575b613950575090565b905090565b506001600160e01b031982811690821611613948565b613984915060203d602011611daf57611da08183611c93565b5f613917565b6001600160a01b031680156139bd575f525f516020615b105f395f51905f526020526001600160a01b0360405f20541690565b637c84ecfb60e01b5f5260045260245ffd5b6001600160a01b0316806001141590816139e7575090565b90505f525f516020615b105f395f51905f526020526001600160a01b0360405f205416151590565b6001600160a01b031680600114159081613a27575090565b90505f525f516020615b705f395f51905f526020526001600160a01b0360405f205416151590565b6001600160a01b035f516020615b505f395f51905f5254169081613a71575050565b813b15610213576040516396fb721760e01b81526001600160a01b03909116600482015260026024820152905f90829060449082905afa80156104cc57613ab6575b50565b80613ac25f8093611c93565b80031261021357565b6001600160a01b035f516020615b505f395f51905f5254169081613aed575050565b813b15610213576040516396fb721760e01b81526001600160a01b039091166004808301919091526024820152905f90829060449082905afa80156104cc57613ab65750565b6001600160a01b035f516020615b505f395f51905f5254169081613b55575050565b813b15610213576040516396fb721760e01b81526001600160a01b03909116600482015260036024820152905f90829060449082905afa80156104cc57613ab65750565b6001600160a01b035f516020615b505f395f51905f5254169081613bbb575050565b813b15610213576040516396fb721760e01b81526001600160a01b03909116600482015260016024820152905f90829060449082905afa80156104cc57613ab65750565b6001600160a01b035f516020615b505f395f51905f5254169182613c2257505050565b823b15610213576040516396fb721760e01b81526001600160a01b039290921660048301526024820152905f90829060449082905afa80156104cc57613ab65750565b60408051909190613c768382611c93565b6001815291601f1901825f5b828110613c8e57505050565b806060602080938501015201613c82565b90613ca982612852565b613cb66040519182611c93565b8281528092613cc7601f1991612852565b01905f5b828110613cd757505050565b806060602080938501015201613ccb565b634e487b7160e01b5f52603260045260245ffd5b805115613d095760200190565b613ce8565b8051821015613d095760209160051b010190565b91611cca9391613d3a91604085526040850191612176565b916020818403910152610dfa565b90613d5291614f1d565b916001600160f81b03198116613dcf5750613d6c82613c9f565b915f5b818110613d7c5750505090565b80613db3613d8d6001938587614f9d565b8035613d9881610252565b613dab6020830135926040810190611f6c565b9290916150be565b613dbd8287613d0e565b52613dc88186613d0e565b5001613d6f565b9291906001600160f81b03198416600160f81b03613df257611cca929350614fbf565b6308c3ee0360e11b5f9081526001600160f81b03198516600452602490fd5b90613e1e9193929361506f565b919092613e29613c65565b956001600160f81b03198116613e58575090613e4593916150be565b613e4e83613cfc565b52613ab382613cfc565b6001600160f81b03198116600160f81b0361283a575083613e7a928492615097565b613e8386613cfc565b5215613e8d575050565b7fb5282692b8c578af7fb880895d599035496b5e64d1f14bf428a1ed3bc406f662916124b861270486613cfc565b90613ec591614f1d565b90916001600160f81b03198116613f2257505f5b818110613ee557505050565b80613f1c613ef66001938587614f9d565b8035613f0181610252565b613f146020830135926040810190611f6c565b9290916150eb565b01613ed9565b92916001600160f81b03198416600160f81b03613df257613ab3929350614fbf565b90613f4e9161506f565b90939092906001600160f81b03191680613f6e57509061026e93916150eb565b600160f81b8103613fc3575083613f86928492615097565b929015613f9257505050565b6124b87fb5282692b8c578af7fb880895d599035496b5e64d1f14bf428a1ed3bc406f6629360405193849384613d22565b6308c3ee0360e11b5f5260045260245ffd5b903590601e1981360301821215610213570180359067ffffffffffffffff821161021357602001918160051b3603831361021357565b35611cca81610598565b60405190614024602083611c93565b5f808352366020840137565b915f5b828110156140df578060051b84013590609e1985360301821215610213576140c7600192860161407b6140696060830183613fd5565b6140756040850161400b565b91615119565b6140936140878361234a565b6001600160a01b031690565b156140cd576140b36140bf916140a88461234a565b6020850135906157e9565b915b6080810190613fd5565b3092916151bf565b01614033565b506140bf6140d9614015565b916140b5565b50915050565b60409060ff611cca94931681528160208201520190610bf1565b600803614134576001600160a01b037f0bb70095b32b9671358306b0339b4c06e7cbd8cb82505941fba30d1eb5b82f06541690565b6001600160a01b037f0bb70095b32b9671358306b0339b4c06e7cbd8cb82505941fba30d1eb5b82f05541690565b6001600160a01b036141a5819263ffffffff60e01b165f527f0bb70095b32b9671358306b0339b4c06e7cbd8cb82505941fba30d1eb5b82f0260205260405f2090565b541691161490565b5f906017303b146141ba57565b905060035f80303c5f5160e81c62ef01001490565b93926141dd91933691611e25565b6020815191012090604051926001600160a01b0360208501957ff6c866c1cd985ce61f030431e576c0e82887de0643dfa8a2e6efc3463e638ed087521660408501526060840152608083015260a082015260a0815261423d60c082611c93565b51902090565b92602092916001600160a01b0361425c61427a966152ec565b604051637aa8f17760e11b8152968795869485933060048601612c8f565b0392165afa5f91816142a7575b5061429157505f90565b6001600160e01b031916630b135d3f60e11b1490565b6142c191925060203d602011611daf57611da08183611c93565b905f614287565b92611cca9491926142da913691611e25565b60208151910120604051926001600160a01b0360208501957fd3ddfc12654178cc44d4a7b6b969cfdce7ffe6342326ba37825314cffa0fba9c87521660408501526060840152608083015260a082015260a0815261433960c082611c93565b5190206152ec565b6001600160a01b0361026e91166001600160a01b03166001600160a01b03195f516020615b305f395f51905f525416175f516020615b305f395f51905f5255565b92915f919082918261439381611e09565b966143a16040519889611c93565b818852601f196143b083611e09565b013660208a013760208451940192f13d806143d3575b8084525f602085013e9190565b505f6143c6565b906143e482612852565b6143f16040519182611c93565b8281528092614402601f1991612852565b0190602036910137565b5f198114611bc35760010190565b5f19810191908211611bc357565b60015f525f516020615b705f395f51905f526020527fbdfeb076d903611fa58576955630d640569633049bcf40ad9c22db9251b54a13546001600160a01b031661450e5760015f525f516020615b705f395f51905f5260205261449b60405f2060016001600160a01b0319825416179055565b60015f525f516020615b105f395f51905f526020526001600160a01b037ffe44ceacbf4f03c6ac19f86826dd265fa9ec25125e8b1766c207f24cd3bc73c7541661450e5760015f525f516020615b105f395f51905f5260205261026e60405f2060016001600160a01b0319825416179055565b6329e42f3360e11b5f5260045ffd5b9190811015613d095760051b0190565b90821015613d09576102da9160051b810190611f6c565b9150614566908035810191602083019235916020810135019060208201913590565b929391808403614652575f5b81811061458157505050505050565b8061458f600192848961451d565b358281036145b357506145ad6145a682888761452d565b9087614d63565b01614572565b600281036145d657506145d16145ca82888761452d565b9087614c5a565b6145ad565b600381036145f457506145d16145ed82888761452d565b9087614983565b6004810361461257506145d161460b82888761452d565b9087614826565b85600882148015614648575b61462a575b50506145ad565b61464191614639848a8961452d565b929091614661565b5f85614623565b506009821461461e565b63b4fa3fb360e01b5f5260045ffd5b9291906001600160a01b0361468a6001600160a01b035f516020615b305f395f51905f52541690565b168061469a575061026e9361473b565b60405163d68f602560e01b815293909290915f85806146be36343360048501612196565b038183885af19485156104cc575f9561471b575b506146de93949561473b565b803b1561021357604051630b9dfbed60e11b8152915f91839182908490829061470a90600483016121bc565b03925af180156104cc57612fd15750565b6146de949550614734903d805f833e61089d8183611c93565b94936146d2565b9290926147488185613bff565b60405163ecd0596160e01b8152600481018290526001600160a01b0385169490602081602481895afa9081156104cc575f916147e3575b50156147d457816147a56147956147aa946140ff565b6001600160a01b03811615614802565b6153fe565b823b156102135761470a925f92836040518096819582946306d61fe760e41b84526004840161328a565b631c4f83bb60e31b5f5260045ffd5b6147fc915060203d602011612103576120f58183611c93565b5f61477f565b1561480a5750565b6001600160a01b039063c689cd9760e01b5f521660045260245ffd5b91906001600160a01b0361484e6001600160a01b035f516020615b305f395f51905f52541690565b168061485e575061026e926148c0565b60405163d68f602560e01b81529290915f848061488036343360048501612196565b038183875af19384156104cc575f946148a0575b506146de9293946148c0565b6146de9394506148b9903d805f833e61089d8183611c93565b9392614894565b916148ca83613acb565b60405163ecd0596160e01b81526004808201526001600160a01b0384169390602081602481885afa9081156104cc575f91614940575b50156147d4576147aa9061493b61492b6001600160a01b035f516020615b305f395f51905f52541690565b6001600160a01b0381161561495f565b614341565b614959915060203d602011612103576120f58183611c93565b5f614900565b156149675750565b6001600160a01b039063741cbe0360e01b5f521660045260245ffd5b91906001600160a01b036149ab6001600160a01b035f516020615b305f395f51905f52541690565b16806149bb575061026e92614a1d565b60405163d68f602560e01b81529290915f84806149dd36343360048501612196565b038183875af19384156104cc575f946149fd575b506146de929394614a1d565b6146de939450614a16903d805f833e61089d8183611c93565b93926149f1565b9091614a2882613b33565b60405163ecd0596160e01b8152600360048201526001600160a01b0383169290602081602481875afa9081156104cc575f91614bdd575b50156147d45761340b846105ce614ad16104ff8680614aaf614aa2614a9483614a8e612b8d614b809e8c611bf3565b99614bfc565b356001600160f81b03191690565b6001600160f81b03191690565b9a6001600160f81b03198c16158015614bc6575b614acc90614c0b565b611c01565b96614b006001600160e01b031984166306d61fe760e41b8114908115614bb5575b8115614bac575b5015614c21565b614b5583614b50610547826001600160e01b0319165f9081527f0bb70095b32b9671358306b0339b4c06e7cbd8cb82505941fba30d1eb5b82f0260205260409020546001600160a01b0316151590565b614c37565b614b6f614b60611dfa565b6001600160a01b039096168652565b6001600160f81b0319166020850152565b803b15610213576040516306d61fe760e41b8152915f91839182908490829061470a90600483016121bc565b9050155f614af9565b638a91b0e360e01b81149150614af2565b50607f60f91b6001600160f81b03198d1614614ac3565b614bf6915060203d602011612103576120f58183611c93565b5f614a5f565b9060041015613d095760040190565b15614c1257565b63867a1dcf60e01b5f5260045ffd5b15614c2857565b63c001660b60e01b5f5260045ffd5b15614c3f5750565b63a56a04dd60e01b5f5263ffffffff60e01b1660045260245ffd5b91906001600160a01b03614c826001600160a01b035f516020615b305f395f51905f52541690565b1680614c92575061026e92614cf4565b60405163d68f602560e01b81529290915f8480614cb436343360048501612196565b038183875af19384156104cc575f94614cd4575b506146de929394614cf4565b6146de939450614ced903d805f833e61089d8183611c93565b9392614cc8565b91614cfe83613a4f565b60405163ecd0596160e01b8152600260048201526001600160a01b0384169390602081602481885afa9081156104cc575f91614d44575b50156147d4576147aa906154df565b614d5d915060203d602011612103576120f58183611c93565b5f614d35565b91906001600160a01b03614d8b6001600160a01b035f516020615b305f395f51905f52541690565b1680614d9b575061026e92614dfd565b60405163d68f602560e01b81529290915f8480614dbd36343360048501612196565b038183875af19384156104cc575f94614ddd575b506146de929394614dfd565b6146de939450614df6903d805f833e61089d8183611c93565b9392614dd1565b91614e0783613b99565b60405163ecd0596160e01b8152600160048201526001600160a01b0384169390602081602481885afa9081156104cc575f91614e8c575b50156147d4576001600160a01b037f0000000000000000000000000000000000000000000000000000000000000000168414614e7d576147aa906155ea565b63abc3af7960e01b5f5260045ffd5b614ea5915060203d602011612103576120f58183611c93565b5f614e3e565b918160141161021357823560601c92601401916013190190565b5f9192806040519485378338925af4913d82523d5f602084013e60203d830101604052565b5f919392806040519586378438925af415614f14573d82523d5f602084013e60203d830101604052565b503d5f823e3d90fd5b909181359182810193601f199101016020840193803593828560051b8301119060401c17614f905783614f4e575050565b835b5f190160208160051b8301013580830160608101908135809101918680602080860135809601011191111792171760401c17614f905780614f5057505050565b63ba597e7e5f526004601cfd5b9190811015613d095760051b81013590605e1981360301821215610213570190565b919091614fcb83613c9f565b925f5b818110614fda57505050565b80614fe86001928486614f9d565b803590614ff482610252565b6150136020820135604083019361500b8585611f6c565b929091615097565b61501d858b613d0e565b521561502c575b505001614fce565b7fb5282692b8c578af7fb880895d599035496b5e64d1f14bf428a1ed3bc406f6629161505791611f6c565b90615065612704858b613d0e565b0390a15f80615024565b908060141161021357813560601c926034821061021357601483013592603401916033190190565b905f928491604051958692833738935af1913d82523d5f602084013e60203d830101604052565b90925f92819594604051968792833738935af115614f14573d82523d5f602084013e60203d830101604052565b8380935f93604051958692833738935af1156107725701604052565b805191908290602001825e015f815290565b6040516001600160e01b03199093166020840152600483529161513d602482611c93565b915f915b80831061514e5750505090565b90919261518061519460019261518661517061516b89888a614f9d565b61570a565b6040519485936020850190615107565b90615107565b03601f198101835282611c93565b93019190615141565b9190811015613d095760051b81013590603e1981360301821215610213570190565b91905f5b8181106151d1575050505050565b6151dc81838661519d565b90856151e7836156fd565b6151f0816156ee565b6152225761521c906152088460206001960190611f6c565b506040810135908760208201359135615a54565b016151c3565b5090600161522f826156fd565b615238816156ee565b036152b05780602061524b920190611f6c565b50905f8061526b60408501358501604051918282602082943591016123b4565b039060208601355afa61527c6123c1565b90156152a1578661529c9184608060019601359160608201359135615a54565b61521c565b636e47f61960e01b5f5260045ffd5b631c42432f60e31b5f5260045ffd5b60405190602036830101604052816014360181525f602036920137604051601481016040523360601b9052565b7f00000000000000000000000000000000000000000000000000000000000000007f000000000000000000000000000000000000000000000000000000000000000030147f000000000000000000000000000000000000000000000000000000000000000046141615615377575b6719010000000000005f52601a52603a526042601820905f603a52565b5060a06040517f8b73c3c69bb8fe3d512ecc4cf759cc79239f7b179b0ffacaa9a75d522b39400f81527f000000000000000000000000000000000000000000000000000000000000000060208201527f000000000000000000000000000000000000000000000000000000000000000060408201524660608201523060808201522061535a565b6008810361546e57506001600160a01b0361026e91166001600160a01b03166001600160a01b03197f0bb70095b32b9671358306b0339b4c06e7cbd8cb82505941fba30d1eb5b82f065416177f0bb70095b32b9671358306b0339b4c06e7cbd8cb82505941fba30d1eb5b82f0655565b6009146154785750565b6001600160a01b0361026e91166001600160a01b03166001600160a01b03197f0bb70095b32b9671358306b0339b4c06e7cbd8cb82505941fba30d1eb5b82f055416177f0bb70095b32b9671358306b0339b4c06e7cbd8cb82505941fba30d1eb5b82f0555565b6001600160a01b038116801580156155e0575b6139bd575f9081525f516020615b705f395f51905f5260205260409020546001600160a01b03166155c55760015f525f516020615b705f395f51905f5260205261026e9061558a6155627fbdfeb076d903611fa58576955630d640569633049bcf40ad9c22db9251b54a13610cc8565b6135a5835f516020615b705f395f51905f52906001600160a01b03165f5260205260405f2090565b60015f525f516020615b705f395f51905f526020527fbdfeb076d903611fa58576955630d640569633049bcf40ad9c22db9251b54a136135a5565b631034f46960e21b5f526001600160a01b031660045260245ffd5b50600181146154f2565b6001600160a01b038116801580156156d0575b6139bd575f9081525f516020615b105f395f51905f5260205260409020546001600160a01b03166155c55760015f525f516020615b105f395f51905f5260205261026e9061569561566d7ffe44ceacbf4f03c6ac19f86826dd265fa9ec25125e8b1766c207f24cd3bc73c7610cc8565b6135a5835f516020615b105f395f51905f52906001600160a01b03165f5260205260405f2090565b60015f525f516020615b105f395f51905f526020527ffe44ceacbf4f03c6ac19f86826dd265fa9ec25125e8b1766c207f24cd3bc73c76135a5565b50600181146155fd565b634e487b7160e01b5f52602160045260245ffd5b600211156156f857565b6156da565b3560028110156102135790565b615713816156fd565b61571c816156ee565b61575d576104ff816020611cca9301906157586157398383611f6c565b6157536157496040860186613fd5565b9390923691611e25565b615911565b611f6c565b6001615768826156fd565b615771816156ee565b036157da575f806157856020840184611f6c565b506040518061579f816020858101358601803591016123b4565b0391355afa906157ad6123c1565b91156157cb576157c4816040611cca930190613fd5565b9083615911565b636533cc8d60e01b5f5260045ffd5b639485795560e01b5f5260045ffd5b9291905f91604051943892602083519301915af115614f14573d82523d5f602084013e60203d830101604052565b604081360312610213576040519061582e82611c72565b8035600481101561021357825260208101359067ffffffffffffffff82116102135761585c91369101611e5b565b602082015290565b600411156156f857565b9190826040910312610213576020825192015190565b1561588b57565b630a31844b60e41b5f52600360045260245ffd5b156158a657565b630a31844b60e41b5f52600260045260245ffd5b156158c157565b630a31844b60e41b5f52600160045260245ffd5b156158dc57565b630a31844b60e41b5f525f60045260245ffd5b602081519101519060208110615903575090565b5f199060200360031b1b1690565b918061591c57505050565b5f5b81811061592b5750505050565b61593e61593982848661519d565b615817565b9060208160051b8601015191805161595581615864565b61595e81615864565b61598157600192615975602061597b9301516158ef565b146158d5565b0161591e565b6001815161598e81615864565b61599781615864565b036159bb576001926159af60206159b69301516158ef565b11156158ba565b61597b565b600281516159c881615864565b6159d181615864565b036159f0576001926159e960206159b69301516158ef565b101561589f565b600381516159fd81615864565b615a0681615864565b03615a4557600192615a2860206159b69301516020808251830101910161586e565b908210159182615a3a575b5050615884565b111590505f80615a33565b631628622f60e11b5f5260045ffd5b929193905f5b848110615a6957505050505050565b60208160051b83010151906001600160a01b038716916040516020810190615aa181615186868b869091604092825260208201520190565b519020833b156102135760405163a39e078760e01b8152600481019190915260248101919091526001600160a01b0385166044820152915f908390606490829084905af19182156104cc57600192615afb575b5001615a5a565b8061087e5f615b0993611c93565b5f615af456fe0bb70095b32b9671358306b0339b4c06e7cbd8cb82505941fba30d1eb5b82f000bb70095b32b9671358306b0339b4c06e7cbd8cb82505941fba30d1eb5b82f030bb70095b32b9671358306b0339b4c06e7cbd8cb82505941fba30d1eb5b82f080bb70095b32b9671358306b0339b4c06e7cbd8cb82505941fba30d1eb5b82f01a164736f6c634300081b000a","linkReferences":{}},"methodIdentifiers":{"accountId()":"9cfd7cff","addDeposit()":"4a58db19","checkERC7739Support(bytes32,bytes)":"b46b61a9","eip712Domain()":"84b0196e","emergencyUninstallHook((address,uint256,bytes,uint256),bytes)":"5bfeadbb","entryPoint()":"b0d691fe","execute(bytes32,bytes)":"e9ae5c53","executeComposable((address,uint256,bytes4,(uint8,bytes,(uint8,bytes)[])[],(uint8,bytes)[])[])":"ea5a6d91","executeFromExecutor(bytes32,bytes)":"d691c964","executeUserOp((address,uint256,bytes,bytes,bytes32,uint256,bytes32,bytes,bytes),bytes32)":"8dd7712f","getActiveHook()":"0a664dba","getDeposit()":"c399ec88","getExecutorsPaginated(address,uint256)":"ea5f61d0","getFallbackHandlerBySelector(bytes4)":"481ddd23","getImplementation()":"aaf10f42","getRegistry()":"5ab1bd53","getValidatorsPaginated(address,uint256)":"5faac46b","initializeAccount(bytes)":"4b6a1419","installModule(uint256,address,bytes)":"9517e29f","isInitialized()":"392e53cd","isModuleInstalled(uint256,address,bytes)":"112d3a7d","isValidSignature(bytes32,bytes)":"1626ba7e","nonce(uint192)":"d86f2b3c","proxiableUUID()":"52d1902d","setRegistry(address,address[],uint8)":"eab77e17","supportsExecutionMode(bytes32)":"d03c7914","supportsModule(uint256)":"f2dc691d","uninstallModule(uint256,address,bytes)":"a71763a8","upgradeToAndCall(address,bytes)":"4f1ef286","validateUserOp((address,uint256,bytes,bytes,bytes32,uint256,bytes32,bytes,bytes),bytes32,uint256)":"19822f7c","withdrawDepositTo(address,uint256)":"4d44560d"},"id":0}